{
	"contracts/Test1.sol": {
		"abc": {
			"abi": [
				{
					"inputs": [],
					"name": "increseBalance",
					"outputs": [
						{
							"internalType": "bool",
							"name": "",
							"type": "bool"
						}
					],
					"stateMutability": "payable",
					"type": "function"
				},
				{
					"inputs": [],
					"name": "targetaddress",
					"outputs": [
						{
							"internalType": "address",
							"name": "",
							"type": "address"
						}
					],
					"stateMutability": "view",
					"type": "function"
				},
				{
					"stateMutability": "payable",
					"type": "receive"
				}
			],
			"devdoc": {
				"kind": "dev",
				"methods": {},
				"version": 1
			},
			"evm": {
				"assembly": "    /* \"contracts/Test1.sol\":57:695  contract abc{... */\n  mstore(0x40, 0x80)\n    /* \"contracts/Test1.sol\":229:271  0x030D4FDcf51A97e60b513FC878AC8dcC8D5e673B */\n  0x030d4fdcf51a97e60b513fc878ac8dcc8d5e673b\n    /* \"contracts/Test1.sol\":198:271  address public targetaddress = 0x030D4FDcf51A97e60b513FC878AC8dcC8D5e673B */\n  0x00\n  dup1\n  0x0100\n  exp\n  dup2\n  sload\n  dup2\n  0xffffffffffffffffffffffffffffffffffffffff\n  mul\n  not\n  and\n  swap1\n  dup4\n  0xffffffffffffffffffffffffffffffffffffffff\n  and\n  mul\n  or\n  swap1\n  sstore\n  pop\n    /* \"contracts/Test1.sol\":57:695  contract abc{... */\n  callvalue\n  dup1\n  iszero\n  tag_1\n  jumpi\n  0x00\n  dup1\n  revert\ntag_1:\n  pop\n  dataSize(sub_0)\n  dup1\n  dataOffset(sub_0)\n  0x00\n  codecopy\n  0x00\n  return\nstop\n\nsub_0: assembly {\n        /* \"contracts/Test1.sol\":57:695  contract abc{... */\n      mstore(0x40, 0x80)\n      jumpi(tag_1, lt(calldatasize, 0x04))\n      shr(0xe0, calldataload(0x00))\n      dup1\n      0xb70b8bc4\n      eq\n      tag_3\n      jumpi\n      dup1\n      0xd774112f\n      eq\n      tag_4\n      jumpi\n      jump(tag_2)\n    tag_1:\n      jumpi(tag_2, calldatasize)\n      stop\n    tag_2:\n      0x00\n      dup1\n      revert\n        /* \"contracts/Test1.sol\":198:271  address public targetaddress = 0x030D4FDcf51A97e60b513FC878AC8dcC8D5e673B */\n    tag_3:\n      callvalue\n      dup1\n      iszero\n      tag_7\n      jumpi\n      0x00\n      dup1\n      revert\n    tag_7:\n      pop\n      tag_8\n      tag_9\n      jump\t// in\n    tag_8:\n      mload(0x40)\n      tag_10\n      swap2\n      swap1\n      tag_11\n      jump\t// in\n    tag_10:\n      mload(0x40)\n      dup1\n      swap2\n      sub\n      swap1\n      return\n        /* \"contracts/Test1.sol\":413:693  function increseBalance() external  payable  returns(bool){... */\n    tag_4:\n      tag_12\n      tag_13\n      jump\t// in\n    tag_12:\n      mload(0x40)\n      tag_14\n      swap2\n      swap1\n      tag_15\n      jump\t// in\n    tag_14:\n      mload(0x40)\n      dup1\n      swap2\n      sub\n      swap1\n      return\n        /* \"contracts/Test1.sol\":198:271  address public targetaddress = 0x030D4FDcf51A97e60b513FC878AC8dcC8D5e673B */\n    tag_9:\n      0x00\n      dup1\n      sload\n      swap1\n      0x0100\n      exp\n      swap1\n      div\n      0xffffffffffffffffffffffffffffffffffffffff\n      and\n      dup2\n      jump\t// out\n        /* \"contracts/Test1.sol\":413:693  function increseBalance() external  payable  returns(bool){... */\n    tag_13:\n        /* \"contracts/Test1.sol\":466:470  bool */\n      0x00\n        /* \"contracts/Test1.sol\":501:502  0 */\n      dup1\n        /* \"contracts/Test1.sol\":489:498  msg.value */\n      callvalue\n        /* \"contracts/Test1.sol\":489:502  msg.value > 0 */\n      gt\n        /* \"contracts/Test1.sol\":481:538  require(msg.value > 0, \"The amount is greater than zero\") */\n      tag_17\n      jumpi\n      mload(0x40)\n      0x08c379a000000000000000000000000000000000000000000000000000000000\n      dup2\n      mstore\n      0x04\n      add\n      tag_18\n      swap1\n      tag_19\n      jump\t// in\n    tag_18:\n      mload(0x40)\n      dup1\n      swap2\n      sub\n      swap1\n      revert\n    tag_17:\n        /* \"contracts/Test1.sol\":548:563  uint256 _amount */\n      0x00\n        /* \"contracts/Test1.sol\":566:575  msg.value */\n      callvalue\n        /* \"contracts/Test1.sol\":548:575  uint256 _amount = msg.value */\n      swap1\n      pop\n        /* \"contracts/Test1.sol\":586:608  bool transfertoaddress */\n      0x00\n        /* \"contracts/Test1.sol\":614:627  targetaddress */\n      dup1\n      0x00\n      swap1\n      sload\n      swap1\n      0x0100\n      exp\n      swap1\n      div\n      0xffffffffffffffffffffffffffffffffffffffff\n      and\n        /* \"contracts/Test1.sol\":614:632  targetaddress.call */\n      0xffffffffffffffffffffffffffffffffffffffff\n      and\n        /* \"contracts/Test1.sol\":639:646  _amount */\n      dup3\n        /* \"contracts/Test1.sol\":614:652  targetaddress.call{value:_amount }(\"\") */\n      mload(0x40)\n      tag_20\n      swap1\n      tag_21\n      jump\t// in\n    tag_20:\n      0x00\n      mload(0x40)\n      dup1\n      dup4\n      sub\n      dup2\n      dup6\n      dup8\n      gas\n      call\n      swap3\n      pop\n      pop\n      pop\n      returndatasize\n      dup1\n      0x00\n      dup2\n      eq\n      tag_24\n      jumpi\n      mload(0x40)\n      swap2\n      pop\n      and(add(returndatasize, 0x3f), not(0x1f))\n      dup3\n      add\n      0x40\n      mstore\n      returndatasize\n      dup3\n      mstore\n      returndatasize\n      0x00\n      0x20\n      dup5\n      add\n      returndatacopy\n      jump(tag_23)\n    tag_24:\n      0x60\n      swap2\n      pop\n    tag_23:\n      pop\n        /* \"contracts/Test1.sol\":585:652  (bool transfertoaddress, ) = targetaddress.call{value:_amount }(\"\") */\n      pop\n      swap1\n      pop\n        /* \"contracts/Test1.sol\":669:686  transfertoaddress */\n      dup1\n        /* \"contracts/Test1.sol\":662:686  return transfertoaddress */\n      swap3\n      pop\n      pop\n      pop\n        /* \"contracts/Test1.sol\":413:693  function increseBalance() external  payable  returns(bool){... */\n      swap1\n      jump\t// out\n        /* \"#utility.yul\":7:133   */\n    tag_25:\n        /* \"#utility.yul\":44:51   */\n      0x00\n        /* \"#utility.yul\":84:126   */\n      0xffffffffffffffffffffffffffffffffffffffff\n        /* \"#utility.yul\":77:82   */\n      dup3\n        /* \"#utility.yul\":73:127   */\n      and\n        /* \"#utility.yul\":62:127   */\n      swap1\n      pop\n        /* \"#utility.yul\":7:133   */\n      swap2\n      swap1\n      pop\n      jump\t// out\n        /* \"#utility.yul\":139:235   */\n    tag_26:\n        /* \"#utility.yul\":176:183   */\n      0x00\n        /* \"#utility.yul\":205:229   */\n      tag_39\n        /* \"#utility.yul\":223:228   */\n      dup3\n        /* \"#utility.yul\":205:229   */\n      tag_25\n      jump\t// in\n    tag_39:\n        /* \"#utility.yul\":194:229   */\n      swap1\n      pop\n        /* \"#utility.yul\":139:235   */\n      swap2\n      swap1\n      pop\n      jump\t// out\n        /* \"#utility.yul\":241:359   */\n    tag_27:\n        /* \"#utility.yul\":328:352   */\n      tag_41\n        /* \"#utility.yul\":346:351   */\n      dup2\n        /* \"#utility.yul\":328:352   */\n      tag_26\n      jump\t// in\n    tag_41:\n        /* \"#utility.yul\":323:326   */\n      dup3\n        /* \"#utility.yul\":316:353   */\n      mstore\n        /* \"#utility.yul\":241:359   */\n      pop\n      pop\n      jump\t// out\n        /* \"#utility.yul\":365:587   */\n    tag_11:\n        /* \"#utility.yul\":458:462   */\n      0x00\n        /* \"#utility.yul\":496:498   */\n      0x20\n        /* \"#utility.yul\":485:494   */\n      dup3\n        /* \"#utility.yul\":481:499   */\n      add\n        /* \"#utility.yul\":473:499   */\n      swap1\n      pop\n        /* \"#utility.yul\":509:580   */\n      tag_43\n        /* \"#utility.yul\":577:578   */\n      0x00\n        /* \"#utility.yul\":566:575   */\n      dup4\n        /* \"#utility.yul\":562:579   */\n      add\n        /* \"#utility.yul\":553:559   */\n      dup5\n        /* \"#utility.yul\":509:580   */\n      tag_27\n      jump\t// in\n    tag_43:\n        /* \"#utility.yul\":365:587   */\n      swap3\n      swap2\n      pop\n      pop\n      jump\t// out\n        /* \"#utility.yul\":593:683   */\n    tag_28:\n        /* \"#utility.yul\":627:634   */\n      0x00\n        /* \"#utility.yul\":670:675   */\n      dup2\n        /* \"#utility.yul\":663:676   */\n      iszero\n        /* \"#utility.yul\":656:677   */\n      iszero\n        /* \"#utility.yul\":645:677   */\n      swap1\n      pop\n        /* \"#utility.yul\":593:683   */\n      swap2\n      swap1\n      pop\n      jump\t// out\n        /* \"#utility.yul\":689:798   */\n    tag_29:\n        /* \"#utility.yul\":770:791   */\n      tag_46\n        /* \"#utility.yul\":785:790   */\n      dup2\n        /* \"#utility.yul\":770:791   */\n      tag_28\n      jump\t// in\n    tag_46:\n        /* \"#utility.yul\":765:768   */\n      dup3\n        /* \"#utility.yul\":758:792   */\n      mstore\n        /* \"#utility.yul\":689:798   */\n      pop\n      pop\n      jump\t// out\n        /* \"#utility.yul\":804:1014   */\n    tag_15:\n        /* \"#utility.yul\":891:895   */\n      0x00\n        /* \"#utility.yul\":929:931   */\n      0x20\n        /* \"#utility.yul\":918:927   */\n      dup3\n        /* \"#utility.yul\":914:932   */\n      add\n        /* \"#utility.yul\":906:932   */\n      swap1\n      pop\n        /* \"#utility.yul\":942:1007   */\n      tag_48\n        /* \"#utility.yul\":1004:1005   */\n      0x00\n        /* \"#utility.yul\":993:1002   */\n      dup4\n        /* \"#utility.yul\":989:1006   */\n      add\n        /* \"#utility.yul\":980:986   */\n      dup5\n        /* \"#utility.yul\":942:1007   */\n      tag_29\n      jump\t// in\n    tag_48:\n        /* \"#utility.yul\":804:1014   */\n      swap3\n      swap2\n      pop\n      pop\n      jump\t// out\n        /* \"#utility.yul\":1020:1189   */\n    tag_30:\n        /* \"#utility.yul\":1104:1115   */\n      0x00\n        /* \"#utility.yul\":1138:1144   */\n      dup3\n        /* \"#utility.yul\":1133:1136   */\n      dup3\n        /* \"#utility.yul\":1126:1145   */\n      mstore\n        /* \"#utility.yul\":1178:1182   */\n      0x20\n        /* \"#utility.yul\":1173:1176   */\n      dup3\n        /* \"#utility.yul\":1169:1183   */\n      add\n        /* \"#utility.yul\":1154:1183   */\n      swap1\n      pop\n        /* \"#utility.yul\":1020:1189   */\n      swap3\n      swap2\n      pop\n      pop\n      jump\t// out\n        /* \"#utility.yul\":1195:1376   */\n    tag_31:\n        /* \"#utility.yul\":1335:1368   */\n      0x54686520616d6f756e742069732067726561746572207468616e207a65726f00\n        /* \"#utility.yul\":1331:1332   */\n      0x00\n        /* \"#utility.yul\":1323:1329   */\n      dup3\n        /* \"#utility.yul\":1319:1333   */\n      add\n        /* \"#utility.yul\":1312:1369   */\n      mstore\n        /* \"#utility.yul\":1195:1376   */\n      pop\n      jump\t// out\n        /* \"#utility.yul\":1382:1748   */\n    tag_32:\n        /* \"#utility.yul\":1524:1527   */\n      0x00\n        /* \"#utility.yul\":1545:1612   */\n      tag_52\n        /* \"#utility.yul\":1609:1611   */\n      0x1f\n        /* \"#utility.yul\":1604:1607   */\n      dup4\n        /* \"#utility.yul\":1545:1612   */\n      tag_30\n      jump\t// in\n    tag_52:\n        /* \"#utility.yul\":1538:1612   */\n      swap2\n      pop\n        /* \"#utility.yul\":1621:1714   */\n      tag_53\n        /* \"#utility.yul\":1710:1713   */\n      dup3\n        /* \"#utility.yul\":1621:1714   */\n      tag_31\n      jump\t// in\n    tag_53:\n        /* \"#utility.yul\":1739:1741   */\n      0x20\n        /* \"#utility.yul\":1734:1737   */\n      dup3\n        /* \"#utility.yul\":1730:1742   */\n      add\n        /* \"#utility.yul\":1723:1742   */\n      swap1\n      pop\n        /* \"#utility.yul\":1382:1748   */\n      swap2\n      swap1\n      pop\n      jump\t// out\n        /* \"#utility.yul\":1754:2173   */\n    tag_19:\n        /* \"#utility.yul\":1920:1924   */\n      0x00\n        /* \"#utility.yul\":1958:1960   */\n      0x20\n        /* \"#utility.yul\":1947:1956   */\n      dup3\n        /* \"#utility.yul\":1943:1961   */\n      add\n        /* \"#utility.yul\":1935:1961   */\n      swap1\n      pop\n        /* \"#utility.yul\":2007:2016   */\n      dup2\n        /* \"#utility.yul\":2001:2005   */\n      dup2\n        /* \"#utility.yul\":1997:2017   */\n      sub\n        /* \"#utility.yul\":1993:1994   */\n      0x00\n        /* \"#utility.yul\":1982:1991   */\n      dup4\n        /* \"#utility.yul\":1978:1995   */\n      add\n        /* \"#utility.yul\":1971:2018   */\n      mstore\n        /* \"#utility.yul\":2035:2166   */\n      tag_55\n        /* \"#utility.yul\":2161:2165   */\n      dup2\n        /* \"#utility.yul\":2035:2166   */\n      tag_32\n      jump\t// in\n    tag_55:\n        /* \"#utility.yul\":2027:2166   */\n      swap1\n      pop\n        /* \"#utility.yul\":1754:2173   */\n      swap2\n      swap1\n      pop\n      jump\t// out\n        /* \"#utility.yul\":2179:2326   */\n    tag_33:\n        /* \"#utility.yul\":2280:2291   */\n      0x00\n        /* \"#utility.yul\":2317:2320   */\n      dup2\n        /* \"#utility.yul\":2302:2320   */\n      swap1\n      pop\n        /* \"#utility.yul\":2179:2326   */\n      swap3\n      swap2\n      pop\n      pop\n      jump\t// out\n        /* \"#utility.yul\":2332:2446   */\n    tag_34:\n      pop\n      jump\t// out\n        /* \"#utility.yul\":2452:2850   */\n    tag_35:\n        /* \"#utility.yul\":2611:2614   */\n      0x00\n        /* \"#utility.yul\":2632:2715   */\n      tag_59\n        /* \"#utility.yul\":2713:2714   */\n      0x00\n        /* \"#utility.yul\":2708:2711   */\n      dup4\n        /* \"#utility.yul\":2632:2715   */\n      tag_33\n      jump\t// in\n    tag_59:\n        /* \"#utility.yul\":2625:2715   */\n      swap2\n      pop\n        /* \"#utility.yul\":2724:2817   */\n      tag_60\n        /* \"#utility.yul\":2813:2816   */\n      dup3\n        /* \"#utility.yul\":2724:2817   */\n      tag_34\n      jump\t// in\n    tag_60:\n        /* \"#utility.yul\":2842:2843   */\n      0x00\n        /* \"#utility.yul\":2837:2840   */\n      dup3\n        /* \"#utility.yul\":2833:2844   */\n      add\n        /* \"#utility.yul\":2826:2844   */\n      swap1\n      pop\n        /* \"#utility.yul\":2452:2850   */\n      swap2\n      swap1\n      pop\n      jump\t// out\n        /* \"#utility.yul\":2856:3235   */\n    tag_21:\n        /* \"#utility.yul\":3040:3043   */\n      0x00\n        /* \"#utility.yul\":3062:3209   */\n      tag_62\n        /* \"#utility.yul\":3205:3208   */\n      dup3\n        /* \"#utility.yul\":3062:3209   */\n      tag_35\n      jump\t// in\n    tag_62:\n        /* \"#utility.yul\":3055:3209   */\n      swap2\n      pop\n        /* \"#utility.yul\":3226:3229   */\n      dup2\n        /* \"#utility.yul\":3219:3229   */\n      swap1\n      pop\n        /* \"#utility.yul\":2856:3235   */\n      swap2\n      swap1\n      pop\n      jump\t// out\n\n    auxdata: 0xa2646970667358221220eb25de227f61dda935f366e41612d54579ae58127fa233d6d7c57839fa34a14f64736f6c63430008190033\n}\n",
				"bytecode": {
					"linkReferences": {},
					"object": "608060405273030d4fdcf51a97e60b513fc878ac8dcc8d5e673b5f806101000a81548173ffffffffffffffffffffffffffffffffffffffff021916908373ffffffffffffffffffffffffffffffffffffffff1602179055503480156061575f80fd5b506102f38061006f5f395ff3fe60806040526004361061002c575f3560e01c8063b70b8bc414610037578063d774112f1461006157610033565b3661003357005b5f80fd5b348015610042575f80fd5b5061004b61007f565b60405161005891906101b8565b60405180910390f35b6100696100a2565b60405161007691906101eb565b60405180910390f35b5f8054906101000a900473ffffffffffffffffffffffffffffffffffffffff1681565b5f8034116100e5576040517f08c379a00000000000000000000000000000000000000000000000000000000081526004016100dc9061025e565b60405180910390fd5b5f3490505f805f9054906101000a900473ffffffffffffffffffffffffffffffffffffffff1673ffffffffffffffffffffffffffffffffffffffff168260405161012e906102a9565b5f6040518083038185875af1925050503d805f8114610168576040519150601f19603f3d011682016040523d82523d5f602084013e61016d565b606091505b50509050809250505090565b5f73ffffffffffffffffffffffffffffffffffffffff82169050919050565b5f6101a282610179565b9050919050565b6101b281610198565b82525050565b5f6020820190506101cb5f8301846101a9565b92915050565b5f8115159050919050565b6101e5816101d1565b82525050565b5f6020820190506101fe5f8301846101dc565b92915050565b5f82825260208201905092915050565b7f54686520616d6f756e742069732067726561746572207468616e207a65726f005f82015250565b5f610248601f83610204565b915061025382610214565b602082019050919050565b5f6020820190508181035f8301526102758161023c565b9050919050565b5f81905092915050565b50565b5f6102945f8361027c565b915061029f82610286565b5f82019050919050565b5f6102b382610289565b915081905091905056fea2646970667358221220eb25de227f61dda935f366e41612d54579ae58127fa233d6d7c57839fa34a14f64736f6c63430008190033",
					"opcodes": "PUSH1 0x80 PUSH1 0x40 MSTORE PUSH20 0x30D4FDCF51A97E60B513FC878AC8DCC8D5E673B PUSH0 DUP1 PUSH2 0x100 EXP DUP2 SLOAD DUP2 PUSH20 0xFFFFFFFFFFFFFFFFFFFFFFFFFFFFFFFFFFFFFFFF MUL NOT AND SWAP1 DUP4 PUSH20 0xFFFFFFFFFFFFFFFFFFFFFFFFFFFFFFFFFFFFFFFF AND MUL OR SWAP1 SSTORE POP CALLVALUE DUP1 ISZERO PUSH1 0x61 JUMPI PUSH0 DUP1 REVERT JUMPDEST POP PUSH2 0x2F3 DUP1 PUSH2 0x6F PUSH0 CODECOPY PUSH0 RETURN INVALID PUSH1 0x80 PUSH1 0x40 MSTORE PUSH1 0x4 CALLDATASIZE LT PUSH2 0x2C JUMPI PUSH0 CALLDATALOAD PUSH1 0xE0 SHR DUP1 PUSH4 0xB70B8BC4 EQ PUSH2 0x37 JUMPI DUP1 PUSH4 0xD774112F EQ PUSH2 0x61 JUMPI PUSH2 0x33 JUMP JUMPDEST CALLDATASIZE PUSH2 0x33 JUMPI STOP JUMPDEST PUSH0 DUP1 REVERT JUMPDEST CALLVALUE DUP1 ISZERO PUSH2 0x42 JUMPI PUSH0 DUP1 REVERT JUMPDEST POP PUSH2 0x4B PUSH2 0x7F JUMP JUMPDEST PUSH1 0x40 MLOAD PUSH2 0x58 SWAP2 SWAP1 PUSH2 0x1B8 JUMP JUMPDEST PUSH1 0x40 MLOAD DUP1 SWAP2 SUB SWAP1 RETURN JUMPDEST PUSH2 0x69 PUSH2 0xA2 JUMP JUMPDEST PUSH1 0x40 MLOAD PUSH2 0x76 SWAP2 SWAP1 PUSH2 0x1EB JUMP JUMPDEST PUSH1 0x40 MLOAD DUP1 SWAP2 SUB SWAP1 RETURN JUMPDEST PUSH0 DUP1 SLOAD SWAP1 PUSH2 0x100 EXP SWAP1 DIV PUSH20 0xFFFFFFFFFFFFFFFFFFFFFFFFFFFFFFFFFFFFFFFF AND DUP2 JUMP JUMPDEST PUSH0 DUP1 CALLVALUE GT PUSH2 0xE5 JUMPI PUSH1 0x40 MLOAD PUSH32 0x8C379A000000000000000000000000000000000000000000000000000000000 DUP2 MSTORE PUSH1 0x4 ADD PUSH2 0xDC SWAP1 PUSH2 0x25E JUMP JUMPDEST PUSH1 0x40 MLOAD DUP1 SWAP2 SUB SWAP1 REVERT JUMPDEST PUSH0 CALLVALUE SWAP1 POP PUSH0 DUP1 PUSH0 SWAP1 SLOAD SWAP1 PUSH2 0x100 EXP SWAP1 DIV PUSH20 0xFFFFFFFFFFFFFFFFFFFFFFFFFFFFFFFFFFFFFFFF AND PUSH20 0xFFFFFFFFFFFFFFFFFFFFFFFFFFFFFFFFFFFFFFFF AND DUP3 PUSH1 0x40 MLOAD PUSH2 0x12E SWAP1 PUSH2 0x2A9 JUMP JUMPDEST PUSH0 PUSH1 0x40 MLOAD DUP1 DUP4 SUB DUP2 DUP6 DUP8 GAS CALL SWAP3 POP POP POP RETURNDATASIZE DUP1 PUSH0 DUP2 EQ PUSH2 0x168 JUMPI PUSH1 0x40 MLOAD SWAP2 POP PUSH1 0x1F NOT PUSH1 0x3F RETURNDATASIZE ADD AND DUP3 ADD PUSH1 0x40 MSTORE RETURNDATASIZE DUP3 MSTORE RETURNDATASIZE PUSH0 PUSH1 0x20 DUP5 ADD RETURNDATACOPY PUSH2 0x16D JUMP JUMPDEST PUSH1 0x60 SWAP2 POP JUMPDEST POP POP SWAP1 POP DUP1 SWAP3 POP POP POP SWAP1 JUMP JUMPDEST PUSH0 PUSH20 0xFFFFFFFFFFFFFFFFFFFFFFFFFFFFFFFFFFFFFFFF DUP3 AND SWAP1 POP SWAP2 SWAP1 POP JUMP JUMPDEST PUSH0 PUSH2 0x1A2 DUP3 PUSH2 0x179 JUMP JUMPDEST SWAP1 POP SWAP2 SWAP1 POP JUMP JUMPDEST PUSH2 0x1B2 DUP2 PUSH2 0x198 JUMP JUMPDEST DUP3 MSTORE POP POP JUMP JUMPDEST PUSH0 PUSH1 0x20 DUP3 ADD SWAP1 POP PUSH2 0x1CB PUSH0 DUP4 ADD DUP5 PUSH2 0x1A9 JUMP JUMPDEST SWAP3 SWAP2 POP POP JUMP JUMPDEST PUSH0 DUP2 ISZERO ISZERO SWAP1 POP SWAP2 SWAP1 POP JUMP JUMPDEST PUSH2 0x1E5 DUP2 PUSH2 0x1D1 JUMP JUMPDEST DUP3 MSTORE POP POP JUMP JUMPDEST PUSH0 PUSH1 0x20 DUP3 ADD SWAP1 POP PUSH2 0x1FE PUSH0 DUP4 ADD DUP5 PUSH2 0x1DC JUMP JUMPDEST SWAP3 SWAP2 POP POP JUMP JUMPDEST PUSH0 DUP3 DUP3 MSTORE PUSH1 0x20 DUP3 ADD SWAP1 POP SWAP3 SWAP2 POP POP JUMP JUMPDEST PUSH32 0x54686520616D6F756E742069732067726561746572207468616E207A65726F00 PUSH0 DUP3 ADD MSTORE POP JUMP JUMPDEST PUSH0 PUSH2 0x248 PUSH1 0x1F DUP4 PUSH2 0x204 JUMP JUMPDEST SWAP2 POP PUSH2 0x253 DUP3 PUSH2 0x214 JUMP JUMPDEST PUSH1 0x20 DUP3 ADD SWAP1 POP SWAP2 SWAP1 POP JUMP JUMPDEST PUSH0 PUSH1 0x20 DUP3 ADD SWAP1 POP DUP2 DUP2 SUB PUSH0 DUP4 ADD MSTORE PUSH2 0x275 DUP2 PUSH2 0x23C JUMP JUMPDEST SWAP1 POP SWAP2 SWAP1 POP JUMP JUMPDEST PUSH0 DUP2 SWAP1 POP SWAP3 SWAP2 POP POP JUMP JUMPDEST POP JUMP JUMPDEST PUSH0 PUSH2 0x294 PUSH0 DUP4 PUSH2 0x27C JUMP JUMPDEST SWAP2 POP PUSH2 0x29F DUP3 PUSH2 0x286 JUMP JUMPDEST PUSH0 DUP3 ADD SWAP1 POP SWAP2 SWAP1 POP JUMP JUMPDEST PUSH0 PUSH2 0x2B3 DUP3 PUSH2 0x289 JUMP JUMPDEST SWAP2 POP DUP2 SWAP1 POP SWAP2 SWAP1 POP JUMP INVALID LOG2 PUSH5 0x6970667358 0x22 SLT KECCAK256 0xEB 0x25 0xDE 0x22 PUSH32 0x61DDA935F366E41612D54579AE58127FA233D6D7C57839FA34A14F64736F6C63 NUMBER STOP ADDMOD NOT STOP CALLER "
				},
				"gasEstimates": {
					"creation": {
						"codeDepositCost": "151000",
						"executionCost": "24460",
						"totalCost": "175460"
					},
					"external": {
						"increseBalance()": "infinite",
						"targetaddress()": "2483"
					}
				},
				"methodIdentifiers": {
					"increseBalance()": "d774112f",
					"targetaddress()": "b70b8bc4"
				}
			},
			"storageLayout": {
				"storage": [
					{
						"astId": 4,
						"contract": "contracts/Test1.sol:abc",
						"label": "targetaddress",
						"offset": 0,
						"slot": "0",
						"type": "t_address"
					}
				],
				"types": {
					"t_address": {
						"encoding": "inplace",
						"label": "address",
						"numberOfBytes": "20"
					}
				}
			},
			"userdoc": {
				"kind": "user",
				"methods": {},
				"version": 1
			}
		}
	}
}