{
	"contracts/Userregister_flattened.sol": {
		"Checker": {
			"abi": [
				{
					"inputs": [
						{
							"internalType": "address",
							"name": "_token",
							"type": "address"
						}
					],
					"stateMutability": "nonpayable",
					"type": "constructor"
				},
				{
					"inputs": [
						{
							"internalType": "address",
							"name": "owner",
							"type": "address"
						}
					],
					"name": "OwnableInvalidOwner",
					"type": "error"
				},
				{
					"inputs": [
						{
							"internalType": "address",
							"name": "account",
							"type": "address"
						}
					],
					"name": "OwnableUnauthorizedAccount",
					"type": "error"
				},
				{
					"inputs": [],
					"name": "ReentrancyGuardReentrantCall",
					"type": "error"
				},
				{
					"anonymous": false,
					"inputs": [
						{
							"indexed": true,
							"internalType": "address",
							"name": "previousOwner",
							"type": "address"
						},
						{
							"indexed": true,
							"internalType": "address",
							"name": "newOwner",
							"type": "address"
						}
					],
					"name": "OwnershipTransferred",
					"type": "event"
				},
				{
					"inputs": [],
					"name": "firstId",
					"outputs": [
						{
							"internalType": "address",
							"name": "",
							"type": "address"
						}
					],
					"stateMutability": "view",
					"type": "function"
				},
				{
					"inputs": [],
					"name": "owner",
					"outputs": [
						{
							"internalType": "address",
							"name": "",
							"type": "address"
						}
					],
					"stateMutability": "view",
					"type": "function"
				},
				{
					"inputs": [
						{
							"internalType": "address",
							"name": "sponsor",
							"type": "address"
						}
					],
					"name": "registerUser",
					"outputs": [],
					"stateMutability": "nonpayable",
					"type": "function"
				},
				{
					"inputs": [],
					"name": "renounceOwnership",
					"outputs": [],
					"stateMutability": "nonpayable",
					"type": "function"
				},
				{
					"inputs": [],
					"name": "token",
					"outputs": [
						{
							"internalType": "contract IERC20",
							"name": "",
							"type": "address"
						}
					],
					"stateMutability": "view",
					"type": "function"
				},
				{
					"inputs": [
						{
							"internalType": "address",
							"name": "newOwner",
							"type": "address"
						}
					],
					"name": "transferOwnership",
					"outputs": [],
					"stateMutability": "nonpayable",
					"type": "function"
				},
				{
					"inputs": [],
					"name": "userIdCounter",
					"outputs": [
						{
							"internalType": "uint256",
							"name": "",
							"type": "uint256"
						}
					],
					"stateMutability": "view",
					"type": "function"
				},
				{
					"inputs": [
						{
							"internalType": "address",
							"name": "",
							"type": "address"
						}
					],
					"name": "users",
					"outputs": [
						{
							"internalType": "address",
							"name": "sponsor",
							"type": "address"
						},
						{
							"internalType": "uint256",
							"name": "id",
							"type": "uint256"
						},
						{
							"internalType": "bool",
							"name": "exists",
							"type": "bool"
						}
					],
					"stateMutability": "view",
					"type": "function"
				}
			],
			"devdoc": {
				"errors": {
					"OwnableInvalidOwner(address)": [
						{
							"details": "The owner is not a valid owner account. (eg. `address(0)`)"
						}
					],
					"OwnableUnauthorizedAccount(address)": [
						{
							"details": "The caller account is not authorized to perform an operation."
						}
					],
					"ReentrancyGuardReentrantCall()": [
						{
							"details": "Unauthorized reentrant call."
						}
					]
				},
				"kind": "dev",
				"methods": {
					"owner()": {
						"details": "Returns the address of the current owner."
					},
					"renounceOwnership()": {
						"details": "Leaves the contract without owner. It will not be possible to call `onlyOwner` functions. Can only be called by the current owner. NOTE: Renouncing ownership will leave the contract without an owner, thereby disabling any functionality that is only available to the owner."
					},
					"transferOwnership(address)": {
						"details": "Transfers ownership of the contract to a new account (`newOwner`). Can only be called by the current owner."
					}
				},
				"version": 1
			},
			"evm": {
				"assembly": "    /* \"contracts/Userregister_flattened.sol\":10208:11971  contract Checker is Ownable, ReentrancyGuard {... */\n  mstore(0x40, 0x80)\n    /* \"contracts/Userregister_flattened.sol\":10560:10780  constructor(address _token) Ownable(msg.sender) {... */\n  callvalue\n  dup1\n  iszero\n  tag_1\n  jumpi\n  0x00\n  dup1\n  revert\ntag_1:\n  pop\n  mload(0x40)\n  sub(codesize, bytecodeSize)\n  dup1\n  bytecodeSize\n  dup4\n  codecopy\n  dup2\n  dup2\n  add\n  0x40\n  mstore\n  dup2\n  add\n  swap1\n  tag_2\n  swap2\n  swap1\n  tag_3\n  jump\t// in\ntag_2:\n    /* \"contracts/Userregister_flattened.sol\":10596:10606  msg.sender */\n  caller\n    /* \"contracts/Userregister_flattened.sol\":5529:5530  0 */\n  0x00\n    /* \"contracts/Userregister_flattened.sol\":5505:5531  initialOwner == address(0) */\n  0xffffffffffffffffffffffffffffffffffffffff\n  and\n    /* \"contracts/Userregister_flattened.sol\":5505:5517  initialOwner */\n  dup2\n    /* \"contracts/Userregister_flattened.sol\":5505:5531  initialOwner == address(0) */\n  0xffffffffffffffffffffffffffffffffffffffff\n  and\n  sub\n    /* \"contracts/Userregister_flattened.sol\":5501:5596  if (initialOwner == address(0)) {... */\n  tag_8\n  jumpi\n    /* \"contracts/Userregister_flattened.sol\":5582:5583  0 */\n  0x00\n    /* \"contracts/Userregister_flattened.sol\":5554:5585  OwnableInvalidOwner(address(0)) */\n  mload(0x40)\n  0x1e4fbdf700000000000000000000000000000000000000000000000000000000\n  dup2\n  mstore\n  0x04\n  add\n  tag_9\n  swap2\n  swap1\n  tag_10\n  jump\t// in\ntag_9:\n  mload(0x40)\n  dup1\n  swap2\n  sub\n  swap1\n  revert\n    /* \"contracts/Userregister_flattened.sol\":5501:5596  if (initialOwner == address(0)) {... */\ntag_8:\n    /* \"contracts/Userregister_flattened.sol\":5605:5637  _transferOwnership(initialOwner) */\n  tag_11\n    /* \"contracts/Userregister_flattened.sol\":5624:5636  initialOwner */\n  dup2\n    /* \"contracts/Userregister_flattened.sol\":5605:5623  _transferOwnership */\n  shl(0x20, tag_12)\n    /* \"contracts/Userregister_flattened.sol\":5605:5637  _transferOwnership(initialOwner) */\n  0x20\n  shr\n  jump\t// in\ntag_11:\n    /* \"contracts/Userregister_flattened.sol\":5457:5644  constructor(address initialOwner) {... */\n  pop\n    /* \"contracts/Userregister_flattened.sol\":1743:1744  1 */\n  0x01\n    /* \"contracts/Userregister_flattened.sol\":1947:1954  _status */\n  dup1\n    /* \"contracts/Userregister_flattened.sol\":1947:1968  _status = NOT_ENTERED */\n  dup2\n  swap1\n  sstore\n  pop\n    /* \"contracts/Userregister_flattened.sol\":10633:10639  _token */\n  dup1\n    /* \"contracts/Userregister_flattened.sol\":10618:10623  token */\n  0x02\n  0x00\n    /* \"contracts/Userregister_flattened.sol\":10618:10640  token = IERC20(_token) */\n  0x0100\n  exp\n  dup2\n  sload\n  dup2\n  0xffffffffffffffffffffffffffffffffffffffff\n  mul\n  not\n  and\n  swap1\n  dup4\n  0xffffffffffffffffffffffffffffffffffffffff\n  and\n  mul\n  or\n  swap1\n  sstore\n  pop\n    /* \"contracts/Userregister_flattened.sol\":10660:10702  0x87daB07Ec49e2eBdC126747FfA39488411b0d620 */\n  0x87dab07ec49e2ebdc126747ffa39488411b0d620\n    /* \"contracts/Userregister_flattened.sol\":10650:10657  firstId */\n  0x03\n  0x00\n    /* \"contracts/Userregister_flattened.sol\":10650:10702  firstId = 0x87daB07Ec49e2eBdC126747FfA39488411b0d620 */\n  0x0100\n  exp\n  dup2\n  sload\n  dup2\n  0xffffffffffffffffffffffffffffffffffffffff\n  mul\n  not\n  and\n  swap1\n  dup4\n  0xffffffffffffffffffffffffffffffffffffffff\n  and\n  mul\n  or\n  swap1\n  sstore\n  pop\n    /* \"contracts/Userregister_flattened.sol\":10743:10773  _saveUser(firstId, address(0)) */\n  tag_15\n    /* \"contracts/Userregister_flattened.sol\":10753:10760  firstId */\n  0x03\n  0x00\n  swap1\n  sload\n  swap1\n  0x0100\n  exp\n  swap1\n  div\n  0xffffffffffffffffffffffffffffffffffffffff\n  and\n    /* \"contracts/Userregister_flattened.sol\":10770:10771  0 */\n  0x00\n    /* \"contracts/Userregister_flattened.sol\":10743:10752  _saveUser */\n  shl(0x20, tag_16)\n    /* \"contracts/Userregister_flattened.sol\":10743:10773  _saveUser(firstId, address(0)) */\n  0x20\n  shr\n  jump\t// in\ntag_15:\n    /* \"contracts/Userregister_flattened.sol\":10560:10780  constructor(address _token) Ownable(msg.sender) {... */\n  pop\n    /* \"contracts/Userregister_flattened.sol\":10208:11971  contract Checker is Ownable, ReentrancyGuard {... */\n  jump(tag_17)\n    /* \"contracts/Userregister_flattened.sol\":7144:7331  function _transferOwnership(address newOwner) internal virtual {... */\ntag_12:\n    /* \"contracts/Userregister_flattened.sol\":7217:7233  address oldOwner */\n  0x00\n    /* \"contracts/Userregister_flattened.sol\":7236:7242  _owner */\n  dup1\n  0x00\n  swap1\n  sload\n  swap1\n  0x0100\n  exp\n  swap1\n  div\n  0xffffffffffffffffffffffffffffffffffffffff\n  and\n    /* \"contracts/Userregister_flattened.sol\":7217:7242  address oldOwner = _owner */\n  swap1\n  pop\n    /* \"contracts/Userregister_flattened.sol\":7261:7269  newOwner */\n  dup2\n    /* \"contracts/Userregister_flattened.sol\":7252:7258  _owner */\n  0x00\n  dup1\n    /* \"contracts/Userregister_flattened.sol\":7252:7269  _owner = newOwner */\n  0x0100\n  exp\n  dup2\n  sload\n  dup2\n  0xffffffffffffffffffffffffffffffffffffffff\n  mul\n  not\n  and\n  swap1\n  dup4\n  0xffffffffffffffffffffffffffffffffffffffff\n  and\n  mul\n  or\n  swap1\n  sstore\n  pop\n    /* \"contracts/Userregister_flattened.sol\":7315:7323  newOwner */\n  dup2\n    /* \"contracts/Userregister_flattened.sol\":7284:7324  OwnershipTransferred(oldOwner, newOwner) */\n  0xffffffffffffffffffffffffffffffffffffffff\n  and\n    /* \"contracts/Userregister_flattened.sol\":7305:7313  oldOwner */\n  dup2\n    /* \"contracts/Userregister_flattened.sol\":7284:7324  OwnershipTransferred(oldOwner, newOwner) */\n  0xffffffffffffffffffffffffffffffffffffffff\n  and\n  0x8be0079c531659141344cd1fd0a4f28419497f9722a3daafe3b4186f6b6457e0\n  mload(0x40)\n  mload(0x40)\n  dup1\n  swap2\n  sub\n  swap1\n  log3\n    /* \"contracts/Userregister_flattened.sol\":7207:7331  {... */\n  pop\n    /* \"contracts/Userregister_flattened.sol\":7144:7331  function _transferOwnership(address newOwner) internal virtual {... */\n  pop\n  jump\t// out\n    /* \"contracts/Userregister_flattened.sol\":11605:11850  function _saveUser(address user, address sponsor) private nonReentrant {... */\ntag_16:\n    /* \"contracts/Userregister_flattened.sol\":2386:2407  _nonReentrantBefore() */\n  tag_20\n    /* \"contracts/Userregister_flattened.sol\":2386:2405  _nonReentrantBefore */\n  shl(0x20, tag_21)\n    /* \"contracts/Userregister_flattened.sol\":2386:2407  _nonReentrantBefore() */\n  0x20\n  shr\n  jump\t// in\ntag_20:\n    /* \"contracts/Userregister_flattened.sol\":11705:11718  userIdCounter */\n  0x04\n  0x00\n    /* \"contracts/Userregister_flattened.sol\":11703:11718  ++userIdCounter */\n  dup2\n  sload\n  tag_23\n  swap1\n  tag_24\n  jump\t// in\ntag_23:\n  swap2\n  swap1\n  pop\n  dup2\n  swap1\n  sstore\n    /* \"contracts/Userregister_flattened.sol\":11686:11691  users */\n  0x05\n    /* \"contracts/Userregister_flattened.sol\":11686:11697  users[user] */\n  0x00\n    /* \"contracts/Userregister_flattened.sol\":11692:11696  user */\n  dup5\n    /* \"contracts/Userregister_flattened.sol\":11686:11697  users[user] */\n  0xffffffffffffffffffffffffffffffffffffffff\n  and\n  0xffffffffffffffffffffffffffffffffffffffff\n  and\n  dup2\n  mstore\n  0x20\n  add\n  swap1\n  dup2\n  mstore\n  0x20\n  add\n  0x00\n  keccak256\n    /* \"contracts/Userregister_flattened.sol\":11686:11700  users[user].id */\n  0x01\n  add\n    /* \"contracts/Userregister_flattened.sol\":11686:11718  users[user].id = ++userIdCounter */\n  dup2\n  swap1\n  sstore\n  pop\n    /* \"contracts/Userregister_flattened.sol\":11749:11753  true */\n  0x01\n    /* \"contracts/Userregister_flattened.sol\":11728:11733  users */\n  0x05\n    /* \"contracts/Userregister_flattened.sol\":11728:11739  users[user] */\n  0x00\n    /* \"contracts/Userregister_flattened.sol\":11734:11738  user */\n  dup5\n    /* \"contracts/Userregister_flattened.sol\":11728:11739  users[user] */\n  0xffffffffffffffffffffffffffffffffffffffff\n  and\n  0xffffffffffffffffffffffffffffffffffffffff\n  and\n  dup2\n  mstore\n  0x20\n  add\n  swap1\n  dup2\n  mstore\n  0x20\n  add\n  0x00\n  keccak256\n    /* \"contracts/Userregister_flattened.sol\":11728:11746  users[user].exists */\n  0x02\n  add\n  0x00\n    /* \"contracts/Userregister_flattened.sol\":11728:11753  users[user].exists = true */\n  0x0100\n  exp\n  dup2\n  sload\n  dup2\n  0xff\n  mul\n  not\n  and\n  swap1\n  dup4\n  iszero\n  iszero\n  mul\n  or\n  swap1\n  sstore\n  pop\n    /* \"contracts/Userregister_flattened.sol\":11786:11787  0 */\n  0x00\n    /* \"contracts/Userregister_flattened.sol\":11767:11788  sponsor != address(0) */\n  0xffffffffffffffffffffffffffffffffffffffff\n  and\n    /* \"contracts/Userregister_flattened.sol\":11767:11774  sponsor */\n  dup2\n    /* \"contracts/Userregister_flattened.sol\":11767:11788  sponsor != address(0) */\n  0xffffffffffffffffffffffffffffffffffffffff\n  and\n  eq\n    /* \"contracts/Userregister_flattened.sol\":11763:11844  if (sponsor != address(0)) {... */\n  tag_25\n  jumpi\n    /* \"contracts/Userregister_flattened.sol\":11826:11833  sponsor */\n  dup1\n    /* \"contracts/Userregister_flattened.sol\":11804:11809  users */\n  0x05\n    /* \"contracts/Userregister_flattened.sol\":11804:11815  users[user] */\n  0x00\n    /* \"contracts/Userregister_flattened.sol\":11810:11814  user */\n  dup5\n    /* \"contracts/Userregister_flattened.sol\":11804:11815  users[user] */\n  0xffffffffffffffffffffffffffffffffffffffff\n  and\n  0xffffffffffffffffffffffffffffffffffffffff\n  and\n  dup2\n  mstore\n  0x20\n  add\n  swap1\n  dup2\n  mstore\n  0x20\n  add\n  0x00\n  keccak256\n    /* \"contracts/Userregister_flattened.sol\":11804:11823  users[user].sponsor */\n  0x00\n  add\n  0x00\n    /* \"contracts/Userregister_flattened.sol\":11804:11833  users[user].sponsor = sponsor */\n  0x0100\n  exp\n  dup2\n  sload\n  dup2\n  0xffffffffffffffffffffffffffffffffffffffff\n  mul\n  not\n  and\n  swap1\n  dup4\n  0xffffffffffffffffffffffffffffffffffffffff\n  and\n  mul\n  or\n  swap1\n  sstore\n  pop\n    /* \"contracts/Userregister_flattened.sol\":11763:11844  if (sponsor != address(0)) {... */\ntag_25:\n    /* \"contracts/Userregister_flattened.sol\":2428:2448  _nonReentrantAfter() */\n  tag_26\n    /* \"contracts/Userregister_flattened.sol\":2428:2446  _nonReentrantAfter */\n  shl(0x20, tag_27)\n    /* \"contracts/Userregister_flattened.sol\":2428:2448  _nonReentrantAfter() */\n  0x20\n  shr\n  jump\t// in\ntag_26:\n    /* \"contracts/Userregister_flattened.sol\":11605:11850  function _saveUser(address user, address sponsor) private nonReentrant {... */\n  pop\n  pop\n  jump\t// out\n    /* \"contracts/Userregister_flattened.sol\":2461:2768  function _nonReentrantBefore() private {... */\ntag_21:\n    /* \"contracts/Userregister_flattened.sol\":1785:1786  2 */\n  0x02\n    /* \"contracts/Userregister_flattened.sol\":2588:2595  _status */\n  sload(0x01)\n    /* \"contracts/Userregister_flattened.sol\":2588:2606  _status == ENTERED */\n  sub\n    /* \"contracts/Userregister_flattened.sol\":2584:2670  if (_status == ENTERED) {... */\n  tag_29\n  jumpi\n    /* \"contracts/Userregister_flattened.sol\":2629:2659  ReentrancyGuardReentrantCall() */\n  mload(0x40)\n  0x3ee5aeb500000000000000000000000000000000000000000000000000000000\n  dup2\n  mstore\n  0x04\n  add\n  mload(0x40)\n  dup1\n  swap2\n  sub\n  swap1\n  revert\n    /* \"contracts/Userregister_flattened.sol\":2584:2670  if (_status == ENTERED) {... */\ntag_29:\n    /* \"contracts/Userregister_flattened.sol\":1785:1786  2 */\n  0x02\n    /* \"contracts/Userregister_flattened.sol\":2744:2751  _status */\n  0x01\n    /* \"contracts/Userregister_flattened.sol\":2744:2761  _status = ENTERED */\n  dup2\n  swap1\n  sstore\n  pop\n    /* \"contracts/Userregister_flattened.sol\":2461:2768  function _nonReentrantBefore() private {... */\n  jump\t// out\n    /* \"contracts/Userregister_flattened.sol\":2774:2982  function _nonReentrantAfter() private {... */\ntag_27:\n    /* \"contracts/Userregister_flattened.sol\":1743:1744  1 */\n  0x01\n    /* \"contracts/Userregister_flattened.sol\":2954:2961  _status */\n  dup1\n    /* \"contracts/Userregister_flattened.sol\":2954:2975  _status = NOT_ENTERED */\n  dup2\n  swap1\n  sstore\n  pop\n    /* \"contracts/Userregister_flattened.sol\":2774:2982  function _nonReentrantAfter() private {... */\n  jump\t// out\n    /* \"#utility.yul\":88:205   */\ntag_32:\n    /* \"#utility.yul\":197:198   */\n  0x00\n    /* \"#utility.yul\":194:195   */\n  dup1\n    /* \"#utility.yul\":187:199   */\n  revert\n    /* \"#utility.yul\":334:460   */\ntag_34:\n    /* \"#utility.yul\":371:378   */\n  0x00\n    /* \"#utility.yul\":411:453   */\n  0xffffffffffffffffffffffffffffffffffffffff\n    /* \"#utility.yul\":404:409   */\n  dup3\n    /* \"#utility.yul\":400:454   */\n  and\n    /* \"#utility.yul\":389:454   */\n  swap1\n  pop\n    /* \"#utility.yul\":334:460   */\n  swap2\n  swap1\n  pop\n  jump\t// out\n    /* \"#utility.yul\":466:562   */\ntag_35:\n    /* \"#utility.yul\":503:510   */\n  0x00\n    /* \"#utility.yul\":532:556   */\n  tag_47\n    /* \"#utility.yul\":550:555   */\n  dup3\n    /* \"#utility.yul\":532:556   */\n  tag_34\n  jump\t// in\ntag_47:\n    /* \"#utility.yul\":521:556   */\n  swap1\n  pop\n    /* \"#utility.yul\":466:562   */\n  swap2\n  swap1\n  pop\n  jump\t// out\n    /* \"#utility.yul\":568:690   */\ntag_36:\n    /* \"#utility.yul\":641:665   */\n  tag_49\n    /* \"#utility.yul\":659:664   */\n  dup2\n    /* \"#utility.yul\":641:665   */\n  tag_35\n  jump\t// in\ntag_49:\n    /* \"#utility.yul\":634:639   */\n  dup2\n    /* \"#utility.yul\":631:666   */\n  eq\n    /* \"#utility.yul\":621:684   */\n  tag_50\n  jumpi\n    /* \"#utility.yul\":680:681   */\n  0x00\n    /* \"#utility.yul\":677:678   */\n  dup1\n    /* \"#utility.yul\":670:682   */\n  revert\n    /* \"#utility.yul\":621:684   */\ntag_50:\n    /* \"#utility.yul\":568:690   */\n  pop\n  jump\t// out\n    /* \"#utility.yul\":696:839   */\ntag_37:\n    /* \"#utility.yul\":753:758   */\n  0x00\n    /* \"#utility.yul\":784:790   */\n  dup2\n    /* \"#utility.yul\":778:791   */\n  mload\n    /* \"#utility.yul\":769:791   */\n  swap1\n  pop\n    /* \"#utility.yul\":800:833   */\n  tag_52\n    /* \"#utility.yul\":827:832   */\n  dup2\n    /* \"#utility.yul\":800:833   */\n  tag_36\n  jump\t// in\ntag_52:\n    /* \"#utility.yul\":696:839   */\n  swap3\n  swap2\n  pop\n  pop\n  jump\t// out\n    /* \"#utility.yul\":845:1196   */\ntag_3:\n    /* \"#utility.yul\":915:921   */\n  0x00\n    /* \"#utility.yul\":964:966   */\n  0x20\n    /* \"#utility.yul\":952:961   */\n  dup3\n    /* \"#utility.yul\":943:950   */\n  dup5\n    /* \"#utility.yul\":939:962   */\n  sub\n    /* \"#utility.yul\":935:967   */\n  slt\n    /* \"#utility.yul\":932:1051   */\n  iszero\n  tag_54\n  jumpi\n    /* \"#utility.yul\":970:1049   */\n  tag_55\n  tag_32\n  jump\t// in\ntag_55:\n    /* \"#utility.yul\":932:1051   */\ntag_54:\n    /* \"#utility.yul\":1090:1091   */\n  0x00\n    /* \"#utility.yul\":1115:1179   */\n  tag_56\n    /* \"#utility.yul\":1171:1178   */\n  dup5\n    /* \"#utility.yul\":1162:1168   */\n  dup3\n    /* \"#utility.yul\":1151:1160   */\n  dup6\n    /* \"#utility.yul\":1147:1169   */\n  add\n    /* \"#utility.yul\":1115:1179   */\n  tag_37\n  jump\t// in\ntag_56:\n    /* \"#utility.yul\":1105:1179   */\n  swap2\n  pop\n    /* \"#utility.yul\":1061:1189   */\n  pop\n    /* \"#utility.yul\":845:1196   */\n  swap3\n  swap2\n  pop\n  pop\n  jump\t// out\n    /* \"#utility.yul\":1202:1320   */\ntag_38:\n    /* \"#utility.yul\":1289:1313   */\n  tag_58\n    /* \"#utility.yul\":1307:1312   */\n  dup2\n    /* \"#utility.yul\":1289:1313   */\n  tag_35\n  jump\t// in\ntag_58:\n    /* \"#utility.yul\":1284:1287   */\n  dup3\n    /* \"#utility.yul\":1277:1314   */\n  mstore\n    /* \"#utility.yul\":1202:1320   */\n  pop\n  pop\n  jump\t// out\n    /* \"#utility.yul\":1326:1548   */\ntag_10:\n    /* \"#utility.yul\":1419:1423   */\n  0x00\n    /* \"#utility.yul\":1457:1459   */\n  0x20\n    /* \"#utility.yul\":1446:1455   */\n  dup3\n    /* \"#utility.yul\":1442:1460   */\n  add\n    /* \"#utility.yul\":1434:1460   */\n  swap1\n  pop\n    /* \"#utility.yul\":1470:1541   */\n  tag_60\n    /* \"#utility.yul\":1538:1539   */\n  0x00\n    /* \"#utility.yul\":1527:1536   */\n  dup4\n    /* \"#utility.yul\":1523:1540   */\n  add\n    /* \"#utility.yul\":1514:1520   */\n  dup5\n    /* \"#utility.yul\":1470:1541   */\n  tag_38\n  jump\t// in\ntag_60:\n    /* \"#utility.yul\":1326:1548   */\n  swap3\n  swap2\n  pop\n  pop\n  jump\t// out\n    /* \"#utility.yul\":1554:1734   */\ntag_39:\n    /* \"#utility.yul\":1602:1679   */\n  0x4e487b7100000000000000000000000000000000000000000000000000000000\n    /* \"#utility.yul\":1599:1600   */\n  0x00\n    /* \"#utility.yul\":1592:1680   */\n  mstore\n    /* \"#utility.yul\":1699:1703   */\n  0x11\n    /* \"#utility.yul\":1696:1697   */\n  0x04\n    /* \"#utility.yul\":1689:1704   */\n  mstore\n    /* \"#utility.yul\":1723:1727   */\n  0x24\n    /* \"#utility.yul\":1720:1721   */\n  0x00\n    /* \"#utility.yul\":1713:1728   */\n  revert\n    /* \"#utility.yul\":1740:1817   */\ntag_40:\n    /* \"#utility.yul\":1777:1784   */\n  0x00\n    /* \"#utility.yul\":1806:1811   */\n  dup2\n    /* \"#utility.yul\":1795:1811   */\n  swap1\n  pop\n    /* \"#utility.yul\":1740:1817   */\n  swap2\n  swap1\n  pop\n  jump\t// out\n    /* \"#utility.yul\":1823:2056   */\ntag_24:\n    /* \"#utility.yul\":1862:1865   */\n  0x00\n    /* \"#utility.yul\":1885:1909   */\n  tag_64\n    /* \"#utility.yul\":1903:1908   */\n  dup3\n    /* \"#utility.yul\":1885:1909   */\n  tag_40\n  jump\t// in\ntag_64:\n    /* \"#utility.yul\":1876:1909   */\n  swap2\n  pop\n    /* \"#utility.yul\":1931:1997   */\n  0xffffffffffffffffffffffffffffffffffffffffffffffffffffffffffffffff\n    /* \"#utility.yul\":1924:1929   */\n  dup3\n    /* \"#utility.yul\":1921:1998   */\n  sub\n    /* \"#utility.yul\":1918:2021   */\n  tag_65\n  jumpi\n    /* \"#utility.yul\":2001:2019   */\n  tag_66\n  tag_39\n  jump\t// in\ntag_66:\n    /* \"#utility.yul\":1918:2021   */\ntag_65:\n    /* \"#utility.yul\":2048:2049   */\n  0x01\n    /* \"#utility.yul\":2041:2046   */\n  dup3\n    /* \"#utility.yul\":2037:2050   */\n  add\n    /* \"#utility.yul\":2030:2050   */\n  swap1\n  pop\n    /* \"#utility.yul\":1823:2056   */\n  swap2\n  swap1\n  pop\n  jump\t// out\n    /* \"contracts/Userregister_flattened.sol\":10208:11971  contract Checker is Ownable, ReentrancyGuard {... */\ntag_17:\n  dataSize(sub_0)\n  dup1\n  dataOffset(sub_0)\n  0x00\n  codecopy\n  0x00\n  return\nstop\n\nsub_0: assembly {\n        /* \"contracts/Userregister_flattened.sol\":10208:11971  contract Checker is Ownable, ReentrancyGuard {... */\n      mstore(0x40, 0x80)\n      callvalue\n      dup1\n      iszero\n      tag_1\n      jumpi\n      0x00\n      dup1\n      revert\n    tag_1:\n      pop\n      jumpi(tag_2, lt(calldatasize, 0x04))\n      shr(0xe0, calldataload(0x00))\n      dup1\n      0x8da5cb5b\n      gt\n      tag_11\n      jumpi\n      dup1\n      0x8da5cb5b\n      eq\n      tag_7\n      jumpi\n      dup1\n      0xa87430ba\n      eq\n      tag_8\n      jumpi\n      dup1\n      0xf2fde38b\n      eq\n      tag_9\n      jumpi\n      dup1\n      0xfc0c546a\n      eq\n      tag_10\n      jumpi\n      jump(tag_2)\n    tag_11:\n      dup1\n      0x2199d5cd\n      eq\n      tag_3\n      jumpi\n      dup1\n      0x2faba6ae\n      eq\n      tag_4\n      jumpi\n      dup1\n      0x401576a2\n      eq\n      tag_5\n      jumpi\n      dup1\n      0x715018a6\n      eq\n      tag_6\n      jumpi\n    tag_2:\n      0x00\n      dup1\n      revert\n        /* \"contracts/Userregister_flattened.sol\":10786:11599  function registerUser(address sponsor) public nonReentrant {... */\n    tag_3:\n      tag_12\n      0x04\n      dup1\n      calldatasize\n      sub\n      dup2\n      add\n      swap1\n      tag_13\n      swap2\n      swap1\n      tag_14\n      jump\t// in\n    tag_13:\n      tag_15\n      jump\t// in\n    tag_12:\n      stop\n        /* \"contracts/Userregister_flattened.sol\":10403:10431  uint256 public userIdCounter */\n    tag_4:\n      tag_16\n      tag_17\n      jump\t// in\n    tag_16:\n      mload(0x40)\n      tag_18\n      swap2\n      swap1\n      tag_19\n      jump\t// in\n    tag_18:\n      mload(0x40)\n      dup1\n      swap2\n      sub\n      swap1\n      return\n        /* \"contracts/Userregister_flattened.sol\":10375:10397  address public firstId */\n    tag_5:\n      tag_20\n      tag_21\n      jump\t// in\n    tag_20:\n      mload(0x40)\n      tag_22\n      swap2\n      swap1\n      tag_23\n      jump\t// in\n    tag_22:\n      mload(0x40)\n      dup1\n      swap2\n      sub\n      swap1\n      return\n        /* \"contracts/Userregister_flattened.sol\":6525:6626  function renounceOwnership() public virtual onlyOwner {... */\n    tag_6:\n      tag_24\n      tag_25\n      jump\t// in\n    tag_24:\n      stop\n        /* \"contracts/Userregister_flattened.sol\":5870:5955  function owner() public view virtual returns (address) {... */\n    tag_7:\n      tag_26\n      tag_27\n      jump\t// in\n    tag_26:\n      mload(0x40)\n      tag_28\n      swap2\n      swap1\n      tag_23\n      jump\t// in\n    tag_28:\n      mload(0x40)\n      dup1\n      swap2\n      sub\n      swap1\n      return\n        /* \"contracts/Userregister_flattened.sol\":10515:10553  mapping (address => User) public users */\n    tag_8:\n      tag_29\n      0x04\n      dup1\n      calldatasize\n      sub\n      dup2\n      add\n      swap1\n      tag_30\n      swap2\n      swap1\n      tag_14\n      jump\t// in\n    tag_30:\n      tag_31\n      jump\t// in\n    tag_29:\n      mload(0x40)\n      tag_32\n      swap4\n      swap3\n      swap2\n      swap1\n      tag_33\n      jump\t// in\n    tag_32:\n      mload(0x40)\n      dup1\n      swap2\n      sub\n      swap1\n      return\n        /* \"contracts/Userregister_flattened.sol\":6775:6990  function transferOwnership(address newOwner) public virtual onlyOwner {... */\n    tag_9:\n      tag_34\n      0x04\n      dup1\n      calldatasize\n      sub\n      dup2\n      add\n      swap1\n      tag_35\n      swap2\n      swap1\n      tag_14\n      jump\t// in\n    tag_35:\n      tag_36\n      jump\t// in\n    tag_34:\n      stop\n        /* \"contracts/Userregister_flattened.sol\":10350:10369  IERC20 public token */\n    tag_10:\n      tag_37\n      tag_38\n      jump\t// in\n    tag_37:\n      mload(0x40)\n      tag_39\n      swap2\n      swap1\n      tag_40\n      jump\t// in\n    tag_39:\n      mload(0x40)\n      dup1\n      swap2\n      sub\n      swap1\n      return\n        /* \"contracts/Userregister_flattened.sol\":10786:11599  function registerUser(address sponsor) public nonReentrant {... */\n    tag_15:\n        /* \"contracts/Userregister_flattened.sol\":2386:2407  _nonReentrantBefore() */\n      tag_42\n        /* \"contracts/Userregister_flattened.sol\":2386:2405  _nonReentrantBefore */\n      tag_43\n        /* \"contracts/Userregister_flattened.sol\":2386:2407  _nonReentrantBefore() */\n      jump\t// in\n    tag_42:\n        /* \"contracts/Userregister_flattened.sol\":10904:10909  users */\n      0x05\n        /* \"contracts/Userregister_flattened.sol\":10904:10921  users[msg.sender] */\n      0x00\n        /* \"contracts/Userregister_flattened.sol\":10910:10920  msg.sender */\n      caller\n        /* \"contracts/Userregister_flattened.sol\":10904:10921  users[msg.sender] */\n      0xffffffffffffffffffffffffffffffffffffffff\n      and\n      0xffffffffffffffffffffffffffffffffffffffff\n      and\n      dup2\n      mstore\n      0x20\n      add\n      swap1\n      dup2\n      mstore\n      0x20\n      add\n      0x00\n      keccak256\n        /* \"contracts/Userregister_flattened.sol\":10904:10928  users[msg.sender].exists */\n      0x02\n      add\n      0x00\n      swap1\n      sload\n      swap1\n      0x0100\n      exp\n      swap1\n      div\n      0xff\n      and\n        /* \"contracts/Userregister_flattened.sol\":10903:10928  !users[msg.sender].exists */\n      iszero\n        /* \"contracts/Userregister_flattened.sol\":10895:10959  require(!users[msg.sender].exists, \"User is already registered\") */\n      tag_45\n      jumpi\n      mload(0x40)\n      0x08c379a000000000000000000000000000000000000000000000000000000000\n      dup2\n      mstore\n      0x04\n      add\n      tag_46\n      swap1\n      tag_47\n      jump\t// in\n    tag_46:\n      mload(0x40)\n      dup1\n      swap2\n      sub\n      swap1\n      revert\n    tag_45:\n        /* \"contracts/Userregister_flattened.sol\":11041:11042  0 */\n      0x00\n        /* \"contracts/Userregister_flattened.sol\":11022:11043  sponsor == address(0) */\n      0xffffffffffffffffffffffffffffffffffffffff\n      and\n        /* \"contracts/Userregister_flattened.sol\":11022:11029  sponsor */\n      dup2\n        /* \"contracts/Userregister_flattened.sol\":11022:11043  sponsor == address(0) */\n      0xffffffffffffffffffffffffffffffffffffffff\n      and\n      sub\n        /* \"contracts/Userregister_flattened.sol\":11018:11087  if (sponsor == address(0)) {... */\n      tag_48\n      jumpi\n        /* \"contracts/Userregister_flattened.sol\":11069:11076  firstId */\n      0x03\n      0x00\n      swap1\n      sload\n      swap1\n      0x0100\n      exp\n      swap1\n      div\n      0xffffffffffffffffffffffffffffffffffffffff\n      and\n        /* \"contracts/Userregister_flattened.sol\":11059:11076  sponsor = firstId */\n      swap1\n      pop\n        /* \"contracts/Userregister_flattened.sol\":11018:11087  if (sponsor == address(0)) {... */\n    tag_48:\n        /* \"contracts/Userregister_flattened.sol\":11140:11145  users */\n      0x05\n        /* \"contracts/Userregister_flattened.sol\":11140:11154  users[sponsor] */\n      0x00\n        /* \"contracts/Userregister_flattened.sol\":11146:11153  sponsor */\n      dup3\n        /* \"contracts/Userregister_flattened.sol\":11140:11154  users[sponsor] */\n      0xffffffffffffffffffffffffffffffffffffffff\n      and\n      0xffffffffffffffffffffffffffffffffffffffff\n      and\n      dup2\n      mstore\n      0x20\n      add\n      swap1\n      dup2\n      mstore\n      0x20\n      add\n      0x00\n      keccak256\n        /* \"contracts/Userregister_flattened.sol\":11140:11161  users[sponsor].exists */\n      0x02\n      add\n      0x00\n      swap1\n      sload\n      swap1\n      0x0100\n      exp\n      swap1\n      div\n      0xff\n      and\n        /* \"contracts/Userregister_flattened.sol\":11132:11188  require(users[sponsor].exists, \"Sponsor does not exist\") */\n      tag_49\n      jumpi\n      mload(0x40)\n      0x08c379a000000000000000000000000000000000000000000000000000000000\n      dup2\n      mstore\n      0x04\n      add\n      tag_50\n      swap1\n      tag_51\n      jump\t// in\n    tag_50:\n      mload(0x40)\n      dup1\n      swap2\n      sub\n      swap1\n      revert\n    tag_49:\n        /* \"contracts/Userregister_flattened.sol\":11333:11341  30 ether */\n      0x01a055690d9db80000\n        /* \"contracts/Userregister_flattened.sol\":11287:11292  token */\n      0x02\n      0x00\n      swap1\n      sload\n      swap1\n      0x0100\n      exp\n      swap1\n      div\n      0xffffffffffffffffffffffffffffffffffffffff\n      and\n        /* \"contracts/Userregister_flattened.sol\":11287:11302  token.allowance */\n      0xffffffffffffffffffffffffffffffffffffffff\n      and\n      0xdd62ed3e\n        /* \"contracts/Userregister_flattened.sol\":11303:11313  msg.sender */\n      caller\n        /* \"contracts/Userregister_flattened.sol\":11323:11327  this */\n      address\n        /* \"contracts/Userregister_flattened.sol\":11287:11329  token.allowance(msg.sender, address(this)) */\n      mload(0x40)\n      dup4\n      0xffffffff\n      and\n      0xe0\n      shl\n      dup2\n      mstore\n      0x04\n      add\n      tag_52\n      swap3\n      swap2\n      swap1\n      tag_53\n      jump\t// in\n    tag_52:\n      0x20\n      mload(0x40)\n      dup1\n      dup4\n      sub\n      dup2\n      dup7\n      gas\n      staticcall\n      iszero\n      dup1\n      iszero\n      tag_55\n      jumpi\n      returndatasize\n      0x00\n      dup1\n      returndatacopy\n      revert(0x00, returndatasize)\n    tag_55:\n      pop\n      pop\n      pop\n      pop\n      mload(0x40)\n      returndatasize\n      not(0x1f)\n      0x1f\n      dup3\n      add\n      and\n      dup3\n      add\n      dup1\n      0x40\n      mstore\n      pop\n      dup2\n      add\n      swap1\n      tag_56\n      swap2\n      swap1\n      tag_57\n      jump\t// in\n    tag_56:\n        /* \"contracts/Userregister_flattened.sol\":11287:11341  token.allowance(msg.sender, address(this)) >= 30 ether */\n      lt\n      iszero\n        /* \"contracts/Userregister_flattened.sol\":11279:11368  require(token.allowance(msg.sender, address(this)) >= 30 ether, \"Insufficient allowance\") */\n      tag_58\n      jumpi\n      mload(0x40)\n      0x08c379a000000000000000000000000000000000000000000000000000000000\n      dup2\n      mstore\n      0x04\n      add\n      tag_59\n      swap1\n      tag_60\n      jump\t// in\n    tag_59:\n      mload(0x40)\n      dup1\n      swap2\n      sub\n      swap1\n      revert\n    tag_58:\n        /* \"contracts/Userregister_flattened.sol\":11431:11436  token */\n      0x02\n      0x00\n      swap1\n      sload\n      swap1\n      0x0100\n      exp\n      swap1\n      div\n      0xffffffffffffffffffffffffffffffffffffffff\n      and\n        /* \"contracts/Userregister_flattened.sol\":11431:11449  token.transferFrom */\n      0xffffffffffffffffffffffffffffffffffffffff\n      and\n      0x23b872dd\n        /* \"contracts/Userregister_flattened.sol\":11450:11460  msg.sender */\n      caller\n        /* \"contracts/Userregister_flattened.sol\":11470:11474  this */\n      address\n        /* \"contracts/Userregister_flattened.sol\":11477:11485  30 ether */\n      0x01a055690d9db80000\n        /* \"contracts/Userregister_flattened.sol\":11431:11486  token.transferFrom(msg.sender, address(this), 30 ether) */\n      mload(0x40)\n      dup5\n      0xffffffff\n      and\n      0xe0\n      shl\n      dup2\n      mstore\n      0x04\n      add\n      tag_61\n      swap4\n      swap3\n      swap2\n      swap1\n      tag_62\n      jump\t// in\n    tag_61:\n      0x20\n      mload(0x40)\n      dup1\n      dup4\n      sub\n      dup2\n      0x00\n      dup8\n      gas\n      call\n      iszero\n      dup1\n      iszero\n      tag_64\n      jumpi\n      returndatasize\n      0x00\n      dup1\n      returndatacopy\n      revert(0x00, returndatasize)\n    tag_64:\n      pop\n      pop\n      pop\n      pop\n      mload(0x40)\n      returndatasize\n      not(0x1f)\n      0x1f\n      dup3\n      add\n      and\n      dup3\n      add\n      dup1\n      0x40\n      mstore\n      pop\n      dup2\n      add\n      swap1\n      tag_65\n      swap2\n      swap1\n      tag_66\n      jump\t// in\n    tag_65:\n      pop\n        /* \"contracts/Userregister_flattened.sol\":11496:11525  _sendBonus(sponsor, 10 ether) */\n      tag_67\n        /* \"contracts/Userregister_flattened.sol\":11507:11514  sponsor */\n      dup2\n        /* \"contracts/Userregister_flattened.sol\":11516:11524  10 ether */\n      0x8ac7230489e80000\n        /* \"contracts/Userregister_flattened.sol\":11496:11506  _sendBonus */\n      tag_68\n        /* \"contracts/Userregister_flattened.sol\":11496:11525  _sendBonus(sponsor, 10 ether) */\n      jump\t// in\n    tag_67:\n        /* \"contracts/Userregister_flattened.sol\":11562:11592  _saveUser(msg.sender, sponsor) */\n      tag_69\n        /* \"contracts/Userregister_flattened.sol\":11572:11582  msg.sender */\n      caller\n        /* \"contracts/Userregister_flattened.sol\":11584:11591  sponsor */\n      dup3\n        /* \"contracts/Userregister_flattened.sol\":11562:11571  _saveUser */\n      tag_70\n        /* \"contracts/Userregister_flattened.sol\":11562:11592  _saveUser(msg.sender, sponsor) */\n      jump\t// in\n    tag_69:\n        /* \"contracts/Userregister_flattened.sol\":2428:2448  _nonReentrantAfter() */\n      tag_71\n        /* \"contracts/Userregister_flattened.sol\":2428:2446  _nonReentrantAfter */\n      tag_72\n        /* \"contracts/Userregister_flattened.sol\":2428:2448  _nonReentrantAfter() */\n      jump\t// in\n    tag_71:\n        /* \"contracts/Userregister_flattened.sol\":10786:11599  function registerUser(address sponsor) public nonReentrant {... */\n      pop\n      jump\t// out\n        /* \"contracts/Userregister_flattened.sol\":10403:10431  uint256 public userIdCounter */\n    tag_17:\n      sload(0x04)\n      dup2\n      jump\t// out\n        /* \"contracts/Userregister_flattened.sol\":10375:10397  address public firstId */\n    tag_21:\n      0x03\n      0x00\n      swap1\n      sload\n      swap1\n      0x0100\n      exp\n      swap1\n      div\n      0xffffffffffffffffffffffffffffffffffffffff\n      and\n      dup2\n      jump\t// out\n        /* \"contracts/Userregister_flattened.sol\":6525:6626  function renounceOwnership() public virtual onlyOwner {... */\n    tag_25:\n        /* \"contracts/Userregister_flattened.sol\":5763:5776  _checkOwner() */\n      tag_74\n        /* \"contracts/Userregister_flattened.sol\":5763:5774  _checkOwner */\n      tag_75\n        /* \"contracts/Userregister_flattened.sol\":5763:5776  _checkOwner() */\n      jump\t// in\n    tag_74:\n        /* \"contracts/Userregister_flattened.sol\":6589:6619  _transferOwnership(address(0)) */\n      tag_77\n        /* \"contracts/Userregister_flattened.sol\":6616:6617  0 */\n      0x00\n        /* \"contracts/Userregister_flattened.sol\":6589:6607  _transferOwnership */\n      tag_78\n        /* \"contracts/Userregister_flattened.sol\":6589:6619  _transferOwnership(address(0)) */\n      jump\t// in\n    tag_77:\n        /* \"contracts/Userregister_flattened.sol\":6525:6626  function renounceOwnership() public virtual onlyOwner {... */\n      jump\t// out\n        /* \"contracts/Userregister_flattened.sol\":5870:5955  function owner() public view virtual returns (address) {... */\n    tag_27:\n        /* \"contracts/Userregister_flattened.sol\":5916:5923  address */\n      0x00\n        /* \"contracts/Userregister_flattened.sol\":5942:5948  _owner */\n      dup1\n      0x00\n      swap1\n      sload\n      swap1\n      0x0100\n      exp\n      swap1\n      div\n      0xffffffffffffffffffffffffffffffffffffffff\n      and\n        /* \"contracts/Userregister_flattened.sol\":5935:5948  return _owner */\n      swap1\n      pop\n        /* \"contracts/Userregister_flattened.sol\":5870:5955  function owner() public view virtual returns (address) {... */\n      swap1\n      jump\t// out\n        /* \"contracts/Userregister_flattened.sol\":10515:10553  mapping (address => User) public users */\n    tag_31:\n      mstore(0x20, 0x05)\n      dup1\n      0x00\n      mstore\n      keccak256(0x00, 0x40)\n      0x00\n      swap2\n      pop\n      swap1\n      pop\n      dup1\n      0x00\n      add\n      0x00\n      swap1\n      sload\n      swap1\n      0x0100\n      exp\n      swap1\n      div\n      0xffffffffffffffffffffffffffffffffffffffff\n      and\n      swap1\n      dup1\n      0x01\n      add\n      sload\n      swap1\n      dup1\n      0x02\n      add\n      0x00\n      swap1\n      sload\n      swap1\n      0x0100\n      exp\n      swap1\n      div\n      0xff\n      and\n      swap1\n      pop\n      dup4\n      jump\t// out\n        /* \"contracts/Userregister_flattened.sol\":6775:6990  function transferOwnership(address newOwner) public virtual onlyOwner {... */\n    tag_36:\n        /* \"contracts/Userregister_flattened.sol\":5763:5776  _checkOwner() */\n      tag_81\n        /* \"contracts/Userregister_flattened.sol\":5763:5774  _checkOwner */\n      tag_75\n        /* \"contracts/Userregister_flattened.sol\":5763:5776  _checkOwner() */\n      jump\t// in\n    tag_81:\n        /* \"contracts/Userregister_flattened.sol\":6879:6880  0 */\n      0x00\n        /* \"contracts/Userregister_flattened.sol\":6859:6881  newOwner == address(0) */\n      0xffffffffffffffffffffffffffffffffffffffff\n      and\n        /* \"contracts/Userregister_flattened.sol\":6859:6867  newOwner */\n      dup2\n        /* \"contracts/Userregister_flattened.sol\":6859:6881  newOwner == address(0) */\n      0xffffffffffffffffffffffffffffffffffffffff\n      and\n      sub\n        /* \"contracts/Userregister_flattened.sol\":6855:6946  if (newOwner == address(0)) {... */\n      tag_83\n      jumpi\n        /* \"contracts/Userregister_flattened.sol\":6932:6933  0 */\n      0x00\n        /* \"contracts/Userregister_flattened.sol\":6904:6935  OwnableInvalidOwner(address(0)) */\n      mload(0x40)\n      0x1e4fbdf700000000000000000000000000000000000000000000000000000000\n      dup2\n      mstore\n      0x04\n      add\n      tag_84\n      swap2\n      swap1\n      tag_23\n      jump\t// in\n    tag_84:\n      mload(0x40)\n      dup1\n      swap2\n      sub\n      swap1\n      revert\n        /* \"contracts/Userregister_flattened.sol\":6855:6946  if (newOwner == address(0)) {... */\n    tag_83:\n        /* \"contracts/Userregister_flattened.sol\":6955:6983  _transferOwnership(newOwner) */\n      tag_85\n        /* \"contracts/Userregister_flattened.sol\":6974:6982  newOwner */\n      dup2\n        /* \"contracts/Userregister_flattened.sol\":6955:6973  _transferOwnership */\n      tag_78\n        /* \"contracts/Userregister_flattened.sol\":6955:6983  _transferOwnership(newOwner) */\n      jump\t// in\n    tag_85:\n        /* \"contracts/Userregister_flattened.sol\":6775:6990  function transferOwnership(address newOwner) public virtual onlyOwner {... */\n      pop\n      jump\t// out\n        /* \"contracts/Userregister_flattened.sol\":10350:10369  IERC20 public token */\n    tag_38:\n      0x02\n      0x00\n      swap1\n      sload\n      swap1\n      0x0100\n      exp\n      swap1\n      div\n      0xffffffffffffffffffffffffffffffffffffffff\n      and\n      dup2\n      jump\t// out\n        /* \"contracts/Userregister_flattened.sol\":2461:2768  function _nonReentrantBefore() private {... */\n    tag_43:\n        /* \"contracts/Userregister_flattened.sol\":1785:1786  2 */\n      0x02\n        /* \"contracts/Userregister_flattened.sol\":2588:2595  _status */\n      sload(0x01)\n        /* \"contracts/Userregister_flattened.sol\":2588:2606  _status == ENTERED */\n      sub\n        /* \"contracts/Userregister_flattened.sol\":2584:2670  if (_status == ENTERED) {... */\n      tag_87\n      jumpi\n        /* \"contracts/Userregister_flattened.sol\":2629:2659  ReentrancyGuardReentrantCall() */\n      mload(0x40)\n      0x3ee5aeb500000000000000000000000000000000000000000000000000000000\n      dup2\n      mstore\n      0x04\n      add\n      mload(0x40)\n      dup1\n      swap2\n      sub\n      swap1\n      revert\n        /* \"contracts/Userregister_flattened.sol\":2584:2670  if (_status == ENTERED) {... */\n    tag_87:\n        /* \"contracts/Userregister_flattened.sol\":1785:1786  2 */\n      0x02\n        /* \"contracts/Userregister_flattened.sol\":2744:2751  _status */\n      0x01\n        /* \"contracts/Userregister_flattened.sol\":2744:2761  _status = ENTERED */\n      dup2\n      swap1\n      sstore\n      pop\n        /* \"contracts/Userregister_flattened.sol\":2461:2768  function _nonReentrantBefore() private {... */\n      jump\t// out\n        /* \"contracts/Userregister_flattened.sol\":11856:11969  function _sendBonus(address recipient, uint256 amount) private {... */\n    tag_68:\n        /* \"contracts/Userregister_flattened.sol\":11929:11934  token */\n      0x02\n      0x00\n      swap1\n      sload\n      swap1\n      0x0100\n      exp\n      swap1\n      div\n      0xffffffffffffffffffffffffffffffffffffffff\n      and\n        /* \"contracts/Userregister_flattened.sol\":11929:11943  token.transfer */\n      0xffffffffffffffffffffffffffffffffffffffff\n      and\n      0xa9059cbb\n        /* \"contracts/Userregister_flattened.sol\":11944:11953  recipient */\n      dup4\n        /* \"contracts/Userregister_flattened.sol\":11955:11961  amount */\n      dup4\n        /* \"contracts/Userregister_flattened.sol\":11929:11962  token.transfer(recipient, amount) */\n      mload(0x40)\n      dup4\n      0xffffffff\n      and\n      0xe0\n      shl\n      dup2\n      mstore\n      0x04\n      add\n      tag_89\n      swap3\n      swap2\n      swap1\n      tag_90\n      jump\t// in\n    tag_89:\n      0x20\n      mload(0x40)\n      dup1\n      dup4\n      sub\n      dup2\n      0x00\n      dup8\n      gas\n      call\n      iszero\n      dup1\n      iszero\n      tag_92\n      jumpi\n      returndatasize\n      0x00\n      dup1\n      returndatacopy\n      revert(0x00, returndatasize)\n    tag_92:\n      pop\n      pop\n      pop\n      pop\n      mload(0x40)\n      returndatasize\n      not(0x1f)\n      0x1f\n      dup3\n      add\n      and\n      dup3\n      add\n      dup1\n      0x40\n      mstore\n      pop\n      dup2\n      add\n      swap1\n      tag_93\n      swap2\n      swap1\n      tag_66\n      jump\t// in\n    tag_93:\n      pop\n        /* \"contracts/Userregister_flattened.sol\":11856:11969  function _sendBonus(address recipient, uint256 amount) private {... */\n      pop\n      pop\n      jump\t// out\n        /* \"contracts/Userregister_flattened.sol\":11605:11850  function _saveUser(address user, address sponsor) private nonReentrant {... */\n    tag_70:\n        /* \"contracts/Userregister_flattened.sol\":2386:2407  _nonReentrantBefore() */\n      tag_95\n        /* \"contracts/Userregister_flattened.sol\":2386:2405  _nonReentrantBefore */\n      tag_43\n        /* \"contracts/Userregister_flattened.sol\":2386:2407  _nonReentrantBefore() */\n      jump\t// in\n    tag_95:\n        /* \"contracts/Userregister_flattened.sol\":11705:11718  userIdCounter */\n      0x04\n      0x00\n        /* \"contracts/Userregister_flattened.sol\":11703:11718  ++userIdCounter */\n      dup2\n      sload\n      tag_97\n      swap1\n      tag_98\n      jump\t// in\n    tag_97:\n      swap2\n      swap1\n      pop\n      dup2\n      swap1\n      sstore\n        /* \"contracts/Userregister_flattened.sol\":11686:11691  users */\n      0x05\n        /* \"contracts/Userregister_flattened.sol\":11686:11697  users[user] */\n      0x00\n        /* \"contracts/Userregister_flattened.sol\":11692:11696  user */\n      dup5\n        /* \"contracts/Userregister_flattened.sol\":11686:11697  users[user] */\n      0xffffffffffffffffffffffffffffffffffffffff\n      and\n      0xffffffffffffffffffffffffffffffffffffffff\n      and\n      dup2\n      mstore\n      0x20\n      add\n      swap1\n      dup2\n      mstore\n      0x20\n      add\n      0x00\n      keccak256\n        /* \"contracts/Userregister_flattened.sol\":11686:11700  users[user].id */\n      0x01\n      add\n        /* \"contracts/Userregister_flattened.sol\":11686:11718  users[user].id = ++userIdCounter */\n      dup2\n      swap1\n      sstore\n      pop\n        /* \"contracts/Userregister_flattened.sol\":11749:11753  true */\n      0x01\n        /* \"contracts/Userregister_flattened.sol\":11728:11733  users */\n      0x05\n        /* \"contracts/Userregister_flattened.sol\":11728:11739  users[user] */\n      0x00\n        /* \"contracts/Userregister_flattened.sol\":11734:11738  user */\n      dup5\n        /* \"contracts/Userregister_flattened.sol\":11728:11739  users[user] */\n      0xffffffffffffffffffffffffffffffffffffffff\n      and\n      0xffffffffffffffffffffffffffffffffffffffff\n      and\n      dup2\n      mstore\n      0x20\n      add\n      swap1\n      dup2\n      mstore\n      0x20\n      add\n      0x00\n      keccak256\n        /* \"contracts/Userregister_flattened.sol\":11728:11746  users[user].exists */\n      0x02\n      add\n      0x00\n        /* \"contracts/Userregister_flattened.sol\":11728:11753  users[user].exists = true */\n      0x0100\n      exp\n      dup2\n      sload\n      dup2\n      0xff\n      mul\n      not\n      and\n      swap1\n      dup4\n      iszero\n      iszero\n      mul\n      or\n      swap1\n      sstore\n      pop\n        /* \"contracts/Userregister_flattened.sol\":11786:11787  0 */\n      0x00\n        /* \"contracts/Userregister_flattened.sol\":11767:11788  sponsor != address(0) */\n      0xffffffffffffffffffffffffffffffffffffffff\n      and\n        /* \"contracts/Userregister_flattened.sol\":11767:11774  sponsor */\n      dup2\n        /* \"contracts/Userregister_flattened.sol\":11767:11788  sponsor != address(0) */\n      0xffffffffffffffffffffffffffffffffffffffff\n      and\n      eq\n        /* \"contracts/Userregister_flattened.sol\":11763:11844  if (sponsor != address(0)) {... */\n      tag_99\n      jumpi\n        /* \"contracts/Userregister_flattened.sol\":11826:11833  sponsor */\n      dup1\n        /* \"contracts/Userregister_flattened.sol\":11804:11809  users */\n      0x05\n        /* \"contracts/Userregister_flattened.sol\":11804:11815  users[user] */\n      0x00\n        /* \"contracts/Userregister_flattened.sol\":11810:11814  user */\n      dup5\n        /* \"contracts/Userregister_flattened.sol\":11804:11815  users[user] */\n      0xffffffffffffffffffffffffffffffffffffffff\n      and\n      0xffffffffffffffffffffffffffffffffffffffff\n      and\n      dup2\n      mstore\n      0x20\n      add\n      swap1\n      dup2\n      mstore\n      0x20\n      add\n      0x00\n      keccak256\n        /* \"contracts/Userregister_flattened.sol\":11804:11823  users[user].sponsor */\n      0x00\n      add\n      0x00\n        /* \"contracts/Userregister_flattened.sol\":11804:11833  users[user].sponsor = sponsor */\n      0x0100\n      exp\n      dup2\n      sload\n      dup2\n      0xffffffffffffffffffffffffffffffffffffffff\n      mul\n      not\n      and\n      swap1\n      dup4\n      0xffffffffffffffffffffffffffffffffffffffff\n      and\n      mul\n      or\n      swap1\n      sstore\n      pop\n        /* \"contracts/Userregister_flattened.sol\":11763:11844  if (sponsor != address(0)) {... */\n    tag_99:\n        /* \"contracts/Userregister_flattened.sol\":2428:2448  _nonReentrantAfter() */\n      tag_100\n        /* \"contracts/Userregister_flattened.sol\":2428:2446  _nonReentrantAfter */\n      tag_72\n        /* \"contracts/Userregister_flattened.sol\":2428:2448  _nonReentrantAfter() */\n      jump\t// in\n    tag_100:\n        /* \"contracts/Userregister_flattened.sol\":11605:11850  function _saveUser(address user, address sponsor) private nonReentrant {... */\n      pop\n      pop\n      jump\t// out\n        /* \"contracts/Userregister_flattened.sol\":2774:2982  function _nonReentrantAfter() private {... */\n    tag_72:\n        /* \"contracts/Userregister_flattened.sol\":1743:1744  1 */\n      0x01\n        /* \"contracts/Userregister_flattened.sol\":2954:2961  _status */\n      dup1\n        /* \"contracts/Userregister_flattened.sol\":2954:2975  _status = NOT_ENTERED */\n      dup2\n      swap1\n      sstore\n      pop\n        /* \"contracts/Userregister_flattened.sol\":2774:2982  function _nonReentrantAfter() private {... */\n      jump\t// out\n        /* \"contracts/Userregister_flattened.sol\":6028:6190  function _checkOwner() internal view virtual {... */\n    tag_75:\n        /* \"contracts/Userregister_flattened.sol\":6098:6110  _msgSender() */\n      tag_103\n        /* \"contracts/Userregister_flattened.sol\":6098:6108  _msgSender */\n      tag_104\n        /* \"contracts/Userregister_flattened.sol\":6098:6110  _msgSender() */\n      jump\t// in\n    tag_103:\n        /* \"contracts/Userregister_flattened.sol\":6087:6110  owner() != _msgSender() */\n      0xffffffffffffffffffffffffffffffffffffffff\n      and\n        /* \"contracts/Userregister_flattened.sol\":6087:6094  owner() */\n      tag_105\n        /* \"contracts/Userregister_flattened.sol\":6087:6092  owner */\n      tag_27\n        /* \"contracts/Userregister_flattened.sol\":6087:6094  owner() */\n      jump\t// in\n    tag_105:\n        /* \"contracts/Userregister_flattened.sol\":6087:6110  owner() != _msgSender() */\n      0xffffffffffffffffffffffffffffffffffffffff\n      and\n      eq\n        /* \"contracts/Userregister_flattened.sol\":6083:6184  if (owner() != _msgSender()) {... */\n      tag_106\n      jumpi\n        /* \"contracts/Userregister_flattened.sol\":6160:6172  _msgSender() */\n      tag_107\n        /* \"contracts/Userregister_flattened.sol\":6160:6170  _msgSender */\n      tag_104\n        /* \"contracts/Userregister_flattened.sol\":6160:6172  _msgSender() */\n      jump\t// in\n    tag_107:\n        /* \"contracts/Userregister_flattened.sol\":6133:6173  OwnableUnauthorizedAccount(_msgSender()) */\n      mload(0x40)\n      0x118cdaa700000000000000000000000000000000000000000000000000000000\n      dup2\n      mstore\n      0x04\n      add\n      tag_108\n      swap2\n      swap1\n      tag_23\n      jump\t// in\n    tag_108:\n      mload(0x40)\n      dup1\n      swap2\n      sub\n      swap1\n      revert\n        /* \"contracts/Userregister_flattened.sol\":6083:6184  if (owner() != _msgSender()) {... */\n    tag_106:\n        /* \"contracts/Userregister_flattened.sol\":6028:6190  function _checkOwner() internal view virtual {... */\n      jump\t// out\n        /* \"contracts/Userregister_flattened.sol\":7144:7331  function _transferOwnership(address newOwner) internal virtual {... */\n    tag_78:\n        /* \"contracts/Userregister_flattened.sol\":7217:7233  address oldOwner */\n      0x00\n        /* \"contracts/Userregister_flattened.sol\":7236:7242  _owner */\n      dup1\n      0x00\n      swap1\n      sload\n      swap1\n      0x0100\n      exp\n      swap1\n      div\n      0xffffffffffffffffffffffffffffffffffffffff\n      and\n        /* \"contracts/Userregister_flattened.sol\":7217:7242  address oldOwner = _owner */\n      swap1\n      pop\n        /* \"contracts/Userregister_flattened.sol\":7261:7269  newOwner */\n      dup2\n        /* \"contracts/Userregister_flattened.sol\":7252:7258  _owner */\n      0x00\n      dup1\n        /* \"contracts/Userregister_flattened.sol\":7252:7269  _owner = newOwner */\n      0x0100\n      exp\n      dup2\n      sload\n      dup2\n      0xffffffffffffffffffffffffffffffffffffffff\n      mul\n      not\n      and\n      swap1\n      dup4\n      0xffffffffffffffffffffffffffffffffffffffff\n      and\n      mul\n      or\n      swap1\n      sstore\n      pop\n        /* \"contracts/Userregister_flattened.sol\":7315:7323  newOwner */\n      dup2\n        /* \"contracts/Userregister_flattened.sol\":7284:7324  OwnershipTransferred(oldOwner, newOwner) */\n      0xffffffffffffffffffffffffffffffffffffffff\n      and\n        /* \"contracts/Userregister_flattened.sol\":7305:7313  oldOwner */\n      dup2\n        /* \"contracts/Userregister_flattened.sol\":7284:7324  OwnershipTransferred(oldOwner, newOwner) */\n      0xffffffffffffffffffffffffffffffffffffffff\n      and\n      0x8be0079c531659141344cd1fd0a4f28419497f9722a3daafe3b4186f6b6457e0\n      mload(0x40)\n      mload(0x40)\n      dup1\n      swap2\n      sub\n      swap1\n      log3\n        /* \"contracts/Userregister_flattened.sol\":7207:7331  {... */\n      pop\n        /* \"contracts/Userregister_flattened.sol\":7144:7331  function _transferOwnership(address newOwner) internal virtual {... */\n      pop\n      jump\t// out\n        /* \"contracts/Userregister_flattened.sol\":3948:4044  function _msgSender() internal view virtual returns (address) {... */\n    tag_104:\n        /* \"contracts/Userregister_flattened.sol\":4001:4008  address */\n      0x00\n        /* \"contracts/Userregister_flattened.sol\":4027:4037  msg.sender */\n      caller\n        /* \"contracts/Userregister_flattened.sol\":4020:4037  return msg.sender */\n      swap1\n      pop\n        /* \"contracts/Userregister_flattened.sol\":3948:4044  function _msgSender() internal view virtual returns (address) {... */\n      swap1\n      jump\t// out\n        /* \"#utility.yul\":88:205   */\n    tag_112:\n        /* \"#utility.yul\":197:198   */\n      0x00\n        /* \"#utility.yul\":194:195   */\n      dup1\n        /* \"#utility.yul\":187:199   */\n      revert\n        /* \"#utility.yul\":334:460   */\n    tag_114:\n        /* \"#utility.yul\":371:378   */\n      0x00\n        /* \"#utility.yul\":411:453   */\n      0xffffffffffffffffffffffffffffffffffffffff\n        /* \"#utility.yul\":404:409   */\n      dup3\n        /* \"#utility.yul\":400:454   */\n      and\n        /* \"#utility.yul\":389:454   */\n      swap1\n      pop\n        /* \"#utility.yul\":334:460   */\n      swap2\n      swap1\n      pop\n      jump\t// out\n        /* \"#utility.yul\":466:562   */\n    tag_115:\n        /* \"#utility.yul\":503:510   */\n      0x00\n        /* \"#utility.yul\":532:556   */\n      tag_149\n        /* \"#utility.yul\":550:555   */\n      dup3\n        /* \"#utility.yul\":532:556   */\n      tag_114\n      jump\t// in\n    tag_149:\n        /* \"#utility.yul\":521:556   */\n      swap1\n      pop\n        /* \"#utility.yul\":466:562   */\n      swap2\n      swap1\n      pop\n      jump\t// out\n        /* \"#utility.yul\":568:690   */\n    tag_116:\n        /* \"#utility.yul\":641:665   */\n      tag_151\n        /* \"#utility.yul\":659:664   */\n      dup2\n        /* \"#utility.yul\":641:665   */\n      tag_115\n      jump\t// in\n    tag_151:\n        /* \"#utility.yul\":634:639   */\n      dup2\n        /* \"#utility.yul\":631:666   */\n      eq\n        /* \"#utility.yul\":621:684   */\n      tag_152\n      jumpi\n        /* \"#utility.yul\":680:681   */\n      0x00\n        /* \"#utility.yul\":677:678   */\n      dup1\n        /* \"#utility.yul\":670:682   */\n      revert\n        /* \"#utility.yul\":621:684   */\n    tag_152:\n        /* \"#utility.yul\":568:690   */\n      pop\n      jump\t// out\n        /* \"#utility.yul\":696:835   */\n    tag_117:\n        /* \"#utility.yul\":742:747   */\n      0x00\n        /* \"#utility.yul\":780:786   */\n      dup2\n        /* \"#utility.yul\":767:787   */\n      calldataload\n        /* \"#utility.yul\":758:787   */\n      swap1\n      pop\n        /* \"#utility.yul\":796:829   */\n      tag_154\n        /* \"#utility.yul\":823:828   */\n      dup2\n        /* \"#utility.yul\":796:829   */\n      tag_116\n      jump\t// in\n    tag_154:\n        /* \"#utility.yul\":696:835   */\n      swap3\n      swap2\n      pop\n      pop\n      jump\t// out\n        /* \"#utility.yul\":841:1170   */\n    tag_14:\n        /* \"#utility.yul\":900:906   */\n      0x00\n        /* \"#utility.yul\":949:951   */\n      0x20\n        /* \"#utility.yul\":937:946   */\n      dup3\n        /* \"#utility.yul\":928:935   */\n      dup5\n        /* \"#utility.yul\":924:947   */\n      sub\n        /* \"#utility.yul\":920:952   */\n      slt\n        /* \"#utility.yul\":917:1036   */\n      iszero\n      tag_156\n      jumpi\n        /* \"#utility.yul\":955:1034   */\n      tag_157\n      tag_112\n      jump\t// in\n    tag_157:\n        /* \"#utility.yul\":917:1036   */\n    tag_156:\n        /* \"#utility.yul\":1075:1076   */\n      0x00\n        /* \"#utility.yul\":1100:1153   */\n      tag_158\n        /* \"#utility.yul\":1145:1152   */\n      dup5\n        /* \"#utility.yul\":1136:1142   */\n      dup3\n        /* \"#utility.yul\":1125:1134   */\n      dup6\n        /* \"#utility.yul\":1121:1143   */\n      add\n        /* \"#utility.yul\":1100:1153   */\n      tag_117\n      jump\t// in\n    tag_158:\n        /* \"#utility.yul\":1090:1153   */\n      swap2\n      pop\n        /* \"#utility.yul\":1046:1163   */\n      pop\n        /* \"#utility.yul\":841:1170   */\n      swap3\n      swap2\n      pop\n      pop\n      jump\t// out\n        /* \"#utility.yul\":1176:1253   */\n    tag_118:\n        /* \"#utility.yul\":1213:1220   */\n      0x00\n        /* \"#utility.yul\":1242:1247   */\n      dup2\n        /* \"#utility.yul\":1231:1247   */\n      swap1\n      pop\n        /* \"#utility.yul\":1176:1253   */\n      swap2\n      swap1\n      pop\n      jump\t// out\n        /* \"#utility.yul\":1259:1377   */\n    tag_119:\n        /* \"#utility.yul\":1346:1370   */\n      tag_161\n        /* \"#utility.yul\":1364:1369   */\n      dup2\n        /* \"#utility.yul\":1346:1370   */\n      tag_118\n      jump\t// in\n    tag_161:\n        /* \"#utility.yul\":1341:1344   */\n      dup3\n        /* \"#utility.yul\":1334:1371   */\n      mstore\n        /* \"#utility.yul\":1259:1377   */\n      pop\n      pop\n      jump\t// out\n        /* \"#utility.yul\":1383:1605   */\n    tag_19:\n        /* \"#utility.yul\":1476:1480   */\n      0x00\n        /* \"#utility.yul\":1514:1516   */\n      0x20\n        /* \"#utility.yul\":1503:1512   */\n      dup3\n        /* \"#utility.yul\":1499:1517   */\n      add\n        /* \"#utility.yul\":1491:1517   */\n      swap1\n      pop\n        /* \"#utility.yul\":1527:1598   */\n      tag_163\n        /* \"#utility.yul\":1595:1596   */\n      0x00\n        /* \"#utility.yul\":1584:1593   */\n      dup4\n        /* \"#utility.yul\":1580:1597   */\n      add\n        /* \"#utility.yul\":1571:1577   */\n      dup5\n        /* \"#utility.yul\":1527:1598   */\n      tag_119\n      jump\t// in\n    tag_163:\n        /* \"#utility.yul\":1383:1605   */\n      swap3\n      swap2\n      pop\n      pop\n      jump\t// out\n        /* \"#utility.yul\":1611:1729   */\n    tag_120:\n        /* \"#utility.yul\":1698:1722   */\n      tag_165\n        /* \"#utility.yul\":1716:1721   */\n      dup2\n        /* \"#utility.yul\":1698:1722   */\n      tag_115\n      jump\t// in\n    tag_165:\n        /* \"#utility.yul\":1693:1696   */\n      dup3\n        /* \"#utility.yul\":1686:1723   */\n      mstore\n        /* \"#utility.yul\":1611:1729   */\n      pop\n      pop\n      jump\t// out\n        /* \"#utility.yul\":1735:1957   */\n    tag_23:\n        /* \"#utility.yul\":1828:1832   */\n      0x00\n        /* \"#utility.yul\":1866:1868   */\n      0x20\n        /* \"#utility.yul\":1855:1864   */\n      dup3\n        /* \"#utility.yul\":1851:1869   */\n      add\n        /* \"#utility.yul\":1843:1869   */\n      swap1\n      pop\n        /* \"#utility.yul\":1879:1950   */\n      tag_167\n        /* \"#utility.yul\":1947:1948   */\n      0x00\n        /* \"#utility.yul\":1936:1945   */\n      dup4\n        /* \"#utility.yul\":1932:1949   */\n      add\n        /* \"#utility.yul\":1923:1929   */\n      dup5\n        /* \"#utility.yul\":1879:1950   */\n      tag_120\n      jump\t// in\n    tag_167:\n        /* \"#utility.yul\":1735:1957   */\n      swap3\n      swap2\n      pop\n      pop\n      jump\t// out\n        /* \"#utility.yul\":1963:2053   */\n    tag_121:\n        /* \"#utility.yul\":1997:2004   */\n      0x00\n        /* \"#utility.yul\":2040:2045   */\n      dup2\n        /* \"#utility.yul\":2033:2046   */\n      iszero\n        /* \"#utility.yul\":2026:2047   */\n      iszero\n        /* \"#utility.yul\":2015:2047   */\n      swap1\n      pop\n        /* \"#utility.yul\":1963:2053   */\n      swap2\n      swap1\n      pop\n      jump\t// out\n        /* \"#utility.yul\":2059:2168   */\n    tag_122:\n        /* \"#utility.yul\":2140:2161   */\n      tag_170\n        /* \"#utility.yul\":2155:2160   */\n      dup2\n        /* \"#utility.yul\":2140:2161   */\n      tag_121\n      jump\t// in\n    tag_170:\n        /* \"#utility.yul\":2135:2138   */\n      dup3\n        /* \"#utility.yul\":2128:2162   */\n      mstore\n        /* \"#utility.yul\":2059:2168   */\n      pop\n      pop\n      jump\t// out\n        /* \"#utility.yul\":2174:2604   */\n    tag_33:\n        /* \"#utility.yul\":2317:2321   */\n      0x00\n        /* \"#utility.yul\":2355:2357   */\n      0x60\n        /* \"#utility.yul\":2344:2353   */\n      dup3\n        /* \"#utility.yul\":2340:2358   */\n      add\n        /* \"#utility.yul\":2332:2358   */\n      swap1\n      pop\n        /* \"#utility.yul\":2368:2439   */\n      tag_172\n        /* \"#utility.yul\":2436:2437   */\n      0x00\n        /* \"#utility.yul\":2425:2434   */\n      dup4\n        /* \"#utility.yul\":2421:2438   */\n      add\n        /* \"#utility.yul\":2412:2418   */\n      dup7\n        /* \"#utility.yul\":2368:2439   */\n      tag_120\n      jump\t// in\n    tag_172:\n        /* \"#utility.yul\":2449:2521   */\n      tag_173\n        /* \"#utility.yul\":2517:2519   */\n      0x20\n        /* \"#utility.yul\":2506:2515   */\n      dup4\n        /* \"#utility.yul\":2502:2520   */\n      add\n        /* \"#utility.yul\":2493:2499   */\n      dup6\n        /* \"#utility.yul\":2449:2521   */\n      tag_119\n      jump\t// in\n    tag_173:\n        /* \"#utility.yul\":2531:2597   */\n      tag_174\n        /* \"#utility.yul\":2593:2595   */\n      0x40\n        /* \"#utility.yul\":2582:2591   */\n      dup4\n        /* \"#utility.yul\":2578:2596   */\n      add\n        /* \"#utility.yul\":2569:2575   */\n      dup5\n        /* \"#utility.yul\":2531:2597   */\n      tag_122\n      jump\t// in\n    tag_174:\n        /* \"#utility.yul\":2174:2604   */\n      swap5\n      swap4\n      pop\n      pop\n      pop\n      pop\n      jump\t// out\n        /* \"#utility.yul\":2610:2670   */\n    tag_123:\n        /* \"#utility.yul\":2638:2641   */\n      0x00\n        /* \"#utility.yul\":2659:2664   */\n      dup2\n        /* \"#utility.yul\":2652:2664   */\n      swap1\n      pop\n        /* \"#utility.yul\":2610:2670   */\n      swap2\n      swap1\n      pop\n      jump\t// out\n        /* \"#utility.yul\":2676:2818   */\n    tag_124:\n        /* \"#utility.yul\":2726:2735   */\n      0x00\n        /* \"#utility.yul\":2759:2812   */\n      tag_177\n        /* \"#utility.yul\":2777:2811   */\n      tag_178\n        /* \"#utility.yul\":2786:2810   */\n      tag_179\n        /* \"#utility.yul\":2804:2809   */\n      dup5\n        /* \"#utility.yul\":2786:2810   */\n      tag_114\n      jump\t// in\n    tag_179:\n        /* \"#utility.yul\":2777:2811   */\n      tag_123\n      jump\t// in\n    tag_178:\n        /* \"#utility.yul\":2759:2812   */\n      tag_114\n      jump\t// in\n    tag_177:\n        /* \"#utility.yul\":2746:2812   */\n      swap1\n      pop\n        /* \"#utility.yul\":2676:2818   */\n      swap2\n      swap1\n      pop\n      jump\t// out\n        /* \"#utility.yul\":2824:2950   */\n    tag_125:\n        /* \"#utility.yul\":2874:2883   */\n      0x00\n        /* \"#utility.yul\":2907:2944   */\n      tag_181\n        /* \"#utility.yul\":2938:2943   */\n      dup3\n        /* \"#utility.yul\":2907:2944   */\n      tag_124\n      jump\t// in\n    tag_181:\n        /* \"#utility.yul\":2894:2944   */\n      swap1\n      pop\n        /* \"#utility.yul\":2824:2950   */\n      swap2\n      swap1\n      pop\n      jump\t// out\n        /* \"#utility.yul\":2956:3096   */\n    tag_126:\n        /* \"#utility.yul\":3020:3029   */\n      0x00\n        /* \"#utility.yul\":3053:3090   */\n      tag_183\n        /* \"#utility.yul\":3084:3089   */\n      dup3\n        /* \"#utility.yul\":3053:3090   */\n      tag_125\n      jump\t// in\n    tag_183:\n        /* \"#utility.yul\":3040:3090   */\n      swap1\n      pop\n        /* \"#utility.yul\":2956:3096   */\n      swap2\n      swap1\n      pop\n      jump\t// out\n        /* \"#utility.yul\":3102:3261   */\n    tag_127:\n        /* \"#utility.yul\":3203:3254   */\n      tag_185\n        /* \"#utility.yul\":3248:3253   */\n      dup2\n        /* \"#utility.yul\":3203:3254   */\n      tag_126\n      jump\t// in\n    tag_185:\n        /* \"#utility.yul\":3198:3201   */\n      dup3\n        /* \"#utility.yul\":3191:3255   */\n      mstore\n        /* \"#utility.yul\":3102:3261   */\n      pop\n      pop\n      jump\t// out\n        /* \"#utility.yul\":3267:3517   */\n    tag_40:\n        /* \"#utility.yul\":3374:3378   */\n      0x00\n        /* \"#utility.yul\":3412:3414   */\n      0x20\n        /* \"#utility.yul\":3401:3410   */\n      dup3\n        /* \"#utility.yul\":3397:3415   */\n      add\n        /* \"#utility.yul\":3389:3415   */\n      swap1\n      pop\n        /* \"#utility.yul\":3425:3510   */\n      tag_187\n        /* \"#utility.yul\":3507:3508   */\n      0x00\n        /* \"#utility.yul\":3496:3505   */\n      dup4\n        /* \"#utility.yul\":3492:3509   */\n      add\n        /* \"#utility.yul\":3483:3489   */\n      dup5\n        /* \"#utility.yul\":3425:3510   */\n      tag_127\n      jump\t// in\n    tag_187:\n        /* \"#utility.yul\":3267:3517   */\n      swap3\n      swap2\n      pop\n      pop\n      jump\t// out\n        /* \"#utility.yul\":3523:3692   */\n    tag_128:\n        /* \"#utility.yul\":3607:3618   */\n      0x00\n        /* \"#utility.yul\":3641:3647   */\n      dup3\n        /* \"#utility.yul\":3636:3639   */\n      dup3\n        /* \"#utility.yul\":3629:3648   */\n      mstore\n        /* \"#utility.yul\":3681:3685   */\n      0x20\n        /* \"#utility.yul\":3676:3679   */\n      dup3\n        /* \"#utility.yul\":3672:3686   */\n      add\n        /* \"#utility.yul\":3657:3686   */\n      swap1\n      pop\n        /* \"#utility.yul\":3523:3692   */\n      swap3\n      swap2\n      pop\n      pop\n      jump\t// out\n        /* \"#utility.yul\":3698:3874   */\n    tag_129:\n        /* \"#utility.yul\":3838:3866   */\n      0x5573657220697320616c72656164792072656769737465726564000000000000\n        /* \"#utility.yul\":3834:3835   */\n      0x00\n        /* \"#utility.yul\":3826:3832   */\n      dup3\n        /* \"#utility.yul\":3822:3836   */\n      add\n        /* \"#utility.yul\":3815:3867   */\n      mstore\n        /* \"#utility.yul\":3698:3874   */\n      pop\n      jump\t// out\n        /* \"#utility.yul\":3880:4246   */\n    tag_130:\n        /* \"#utility.yul\":4022:4025   */\n      0x00\n        /* \"#utility.yul\":4043:4110   */\n      tag_191\n        /* \"#utility.yul\":4107:4109   */\n      0x1a\n        /* \"#utility.yul\":4102:4105   */\n      dup4\n        /* \"#utility.yul\":4043:4110   */\n      tag_128\n      jump\t// in\n    tag_191:\n        /* \"#utility.yul\":4036:4110   */\n      swap2\n      pop\n        /* \"#utility.yul\":4119:4212   */\n      tag_192\n        /* \"#utility.yul\":4208:4211   */\n      dup3\n        /* \"#utility.yul\":4119:4212   */\n      tag_129\n      jump\t// in\n    tag_192:\n        /* \"#utility.yul\":4237:4239   */\n      0x20\n        /* \"#utility.yul\":4232:4235   */\n      dup3\n        /* \"#utility.yul\":4228:4240   */\n      add\n        /* \"#utility.yul\":4221:4240   */\n      swap1\n      pop\n        /* \"#utility.yul\":3880:4246   */\n      swap2\n      swap1\n      pop\n      jump\t// out\n        /* \"#utility.yul\":4252:4671   */\n    tag_47:\n        /* \"#utility.yul\":4418:4422   */\n      0x00\n        /* \"#utility.yul\":4456:4458   */\n      0x20\n        /* \"#utility.yul\":4445:4454   */\n      dup3\n        /* \"#utility.yul\":4441:4459   */\n      add\n        /* \"#utility.yul\":4433:4459   */\n      swap1\n      pop\n        /* \"#utility.yul\":4505:4514   */\n      dup2\n        /* \"#utility.yul\":4499:4503   */\n      dup2\n        /* \"#utility.yul\":4495:4515   */\n      sub\n        /* \"#utility.yul\":4491:4492   */\n      0x00\n        /* \"#utility.yul\":4480:4489   */\n      dup4\n        /* \"#utility.yul\":4476:4493   */\n      add\n        /* \"#utility.yul\":4469:4516   */\n      mstore\n        /* \"#utility.yul\":4533:4664   */\n      tag_194\n        /* \"#utility.yul\":4659:4663   */\n      dup2\n        /* \"#utility.yul\":4533:4664   */\n      tag_130\n      jump\t// in\n    tag_194:\n        /* \"#utility.yul\":4525:4664   */\n      swap1\n      pop\n        /* \"#utility.yul\":4252:4671   */\n      swap2\n      swap1\n      pop\n      jump\t// out\n        /* \"#utility.yul\":4677:4849   */\n    tag_131:\n        /* \"#utility.yul\":4817:4841   */\n      0x53706f6e736f7220646f6573206e6f7420657869737400000000000000000000\n        /* \"#utility.yul\":4813:4814   */\n      0x00\n        /* \"#utility.yul\":4805:4811   */\n      dup3\n        /* \"#utility.yul\":4801:4815   */\n      add\n        /* \"#utility.yul\":4794:4842   */\n      mstore\n        /* \"#utility.yul\":4677:4849   */\n      pop\n      jump\t// out\n        /* \"#utility.yul\":4855:5221   */\n    tag_132:\n        /* \"#utility.yul\":4997:5000   */\n      0x00\n        /* \"#utility.yul\":5018:5085   */\n      tag_197\n        /* \"#utility.yul\":5082:5084   */\n      0x16\n        /* \"#utility.yul\":5077:5080   */\n      dup4\n        /* \"#utility.yul\":5018:5085   */\n      tag_128\n      jump\t// in\n    tag_197:\n        /* \"#utility.yul\":5011:5085   */\n      swap2\n      pop\n        /* \"#utility.yul\":5094:5187   */\n      tag_198\n        /* \"#utility.yul\":5183:5186   */\n      dup3\n        /* \"#utility.yul\":5094:5187   */\n      tag_131\n      jump\t// in\n    tag_198:\n        /* \"#utility.yul\":5212:5214   */\n      0x20\n        /* \"#utility.yul\":5207:5210   */\n      dup3\n        /* \"#utility.yul\":5203:5215   */\n      add\n        /* \"#utility.yul\":5196:5215   */\n      swap1\n      pop\n        /* \"#utility.yul\":4855:5221   */\n      swap2\n      swap1\n      pop\n      jump\t// out\n        /* \"#utility.yul\":5227:5646   */\n    tag_51:\n        /* \"#utility.yul\":5393:5397   */\n      0x00\n        /* \"#utility.yul\":5431:5433   */\n      0x20\n        /* \"#utility.yul\":5420:5429   */\n      dup3\n        /* \"#utility.yul\":5416:5434   */\n      add\n        /* \"#utility.yul\":5408:5434   */\n      swap1\n      pop\n        /* \"#utility.yul\":5480:5489   */\n      dup2\n        /* \"#utility.yul\":5474:5478   */\n      dup2\n        /* \"#utility.yul\":5470:5490   */\n      sub\n        /* \"#utility.yul\":5466:5467   */\n      0x00\n        /* \"#utility.yul\":5455:5464   */\n      dup4\n        /* \"#utility.yul\":5451:5468   */\n      add\n        /* \"#utility.yul\":5444:5491   */\n      mstore\n        /* \"#utility.yul\":5508:5639   */\n      tag_200\n        /* \"#utility.yul\":5634:5638   */\n      dup2\n        /* \"#utility.yul\":5508:5639   */\n      tag_132\n      jump\t// in\n    tag_200:\n        /* \"#utility.yul\":5500:5639   */\n      swap1\n      pop\n        /* \"#utility.yul\":5227:5646   */\n      swap2\n      swap1\n      pop\n      jump\t// out\n        /* \"#utility.yul\":5652:5984   */\n    tag_53:\n        /* \"#utility.yul\":5773:5777   */\n      0x00\n        /* \"#utility.yul\":5811:5813   */\n      0x40\n        /* \"#utility.yul\":5800:5809   */\n      dup3\n        /* \"#utility.yul\":5796:5814   */\n      add\n        /* \"#utility.yul\":5788:5814   */\n      swap1\n      pop\n        /* \"#utility.yul\":5824:5895   */\n      tag_202\n        /* \"#utility.yul\":5892:5893   */\n      0x00\n        /* \"#utility.yul\":5881:5890   */\n      dup4\n        /* \"#utility.yul\":5877:5894   */\n      add\n        /* \"#utility.yul\":5868:5874   */\n      dup6\n        /* \"#utility.yul\":5824:5895   */\n      tag_120\n      jump\t// in\n    tag_202:\n        /* \"#utility.yul\":5905:5977   */\n      tag_203\n        /* \"#utility.yul\":5973:5975   */\n      0x20\n        /* \"#utility.yul\":5962:5971   */\n      dup4\n        /* \"#utility.yul\":5958:5976   */\n      add\n        /* \"#utility.yul\":5949:5955   */\n      dup5\n        /* \"#utility.yul\":5905:5977   */\n      tag_120\n      jump\t// in\n    tag_203:\n        /* \"#utility.yul\":5652:5984   */\n      swap4\n      swap3\n      pop\n      pop\n      pop\n      jump\t// out\n        /* \"#utility.yul\":5990:6112   */\n    tag_133:\n        /* \"#utility.yul\":6063:6087   */\n      tag_205\n        /* \"#utility.yul\":6081:6086   */\n      dup2\n        /* \"#utility.yul\":6063:6087   */\n      tag_118\n      jump\t// in\n    tag_205:\n        /* \"#utility.yul\":6056:6061   */\n      dup2\n        /* \"#utility.yul\":6053:6088   */\n      eq\n        /* \"#utility.yul\":6043:6106   */\n      tag_206\n      jumpi\n        /* \"#utility.yul\":6102:6103   */\n      0x00\n        /* \"#utility.yul\":6099:6100   */\n      dup1\n        /* \"#utility.yul\":6092:6104   */\n      revert\n        /* \"#utility.yul\":6043:6106   */\n    tag_206:\n        /* \"#utility.yul\":5990:6112   */\n      pop\n      jump\t// out\n        /* \"#utility.yul\":6118:6261   */\n    tag_134:\n        /* \"#utility.yul\":6175:6180   */\n      0x00\n        /* \"#utility.yul\":6206:6212   */\n      dup2\n        /* \"#utility.yul\":6200:6213   */\n      mload\n        /* \"#utility.yul\":6191:6213   */\n      swap1\n      pop\n        /* \"#utility.yul\":6222:6255   */\n      tag_208\n        /* \"#utility.yul\":6249:6254   */\n      dup2\n        /* \"#utility.yul\":6222:6255   */\n      tag_133\n      jump\t// in\n    tag_208:\n        /* \"#utility.yul\":6118:6261   */\n      swap3\n      swap2\n      pop\n      pop\n      jump\t// out\n        /* \"#utility.yul\":6267:6618   */\n    tag_57:\n        /* \"#utility.yul\":6337:6343   */\n      0x00\n        /* \"#utility.yul\":6386:6388   */\n      0x20\n        /* \"#utility.yul\":6374:6383   */\n      dup3\n        /* \"#utility.yul\":6365:6372   */\n      dup5\n        /* \"#utility.yul\":6361:6384   */\n      sub\n        /* \"#utility.yul\":6357:6389   */\n      slt\n        /* \"#utility.yul\":6354:6473   */\n      iszero\n      tag_210\n      jumpi\n        /* \"#utility.yul\":6392:6471   */\n      tag_211\n      tag_112\n      jump\t// in\n    tag_211:\n        /* \"#utility.yul\":6354:6473   */\n    tag_210:\n        /* \"#utility.yul\":6512:6513   */\n      0x00\n        /* \"#utility.yul\":6537:6601   */\n      tag_212\n        /* \"#utility.yul\":6593:6600   */\n      dup5\n        /* \"#utility.yul\":6584:6590   */\n      dup3\n        /* \"#utility.yul\":6573:6582   */\n      dup6\n        /* \"#utility.yul\":6569:6591   */\n      add\n        /* \"#utility.yul\":6537:6601   */\n      tag_134\n      jump\t// in\n    tag_212:\n        /* \"#utility.yul\":6527:6601   */\n      swap2\n      pop\n        /* \"#utility.yul\":6483:6611   */\n      pop\n        /* \"#utility.yul\":6267:6618   */\n      swap3\n      swap2\n      pop\n      pop\n      jump\t// out\n        /* \"#utility.yul\":6624:6796   */\n    tag_135:\n        /* \"#utility.yul\":6764:6788   */\n      0x496e73756666696369656e7420616c6c6f77616e636500000000000000000000\n        /* \"#utility.yul\":6760:6761   */\n      0x00\n        /* \"#utility.yul\":6752:6758   */\n      dup3\n        /* \"#utility.yul\":6748:6762   */\n      add\n        /* \"#utility.yul\":6741:6789   */\n      mstore\n        /* \"#utility.yul\":6624:6796   */\n      pop\n      jump\t// out\n        /* \"#utility.yul\":6802:7168   */\n    tag_136:\n        /* \"#utility.yul\":6944:6947   */\n      0x00\n        /* \"#utility.yul\":6965:7032   */\n      tag_215\n        /* \"#utility.yul\":7029:7031   */\n      0x16\n        /* \"#utility.yul\":7024:7027   */\n      dup4\n        /* \"#utility.yul\":6965:7032   */\n      tag_128\n      jump\t// in\n    tag_215:\n        /* \"#utility.yul\":6958:7032   */\n      swap2\n      pop\n        /* \"#utility.yul\":7041:7134   */\n      tag_216\n        /* \"#utility.yul\":7130:7133   */\n      dup3\n        /* \"#utility.yul\":7041:7134   */\n      tag_135\n      jump\t// in\n    tag_216:\n        /* \"#utility.yul\":7159:7161   */\n      0x20\n        /* \"#utility.yul\":7154:7157   */\n      dup3\n        /* \"#utility.yul\":7150:7162   */\n      add\n        /* \"#utility.yul\":7143:7162   */\n      swap1\n      pop\n        /* \"#utility.yul\":6802:7168   */\n      swap2\n      swap1\n      pop\n      jump\t// out\n        /* \"#utility.yul\":7174:7593   */\n    tag_60:\n        /* \"#utility.yul\":7340:7344   */\n      0x00\n        /* \"#utility.yul\":7378:7380   */\n      0x20\n        /* \"#utility.yul\":7367:7376   */\n      dup3\n        /* \"#utility.yul\":7363:7381   */\n      add\n        /* \"#utility.yul\":7355:7381   */\n      swap1\n      pop\n        /* \"#utility.yul\":7427:7436   */\n      dup2\n        /* \"#utility.yul\":7421:7425   */\n      dup2\n        /* \"#utility.yul\":7417:7437   */\n      sub\n        /* \"#utility.yul\":7413:7414   */\n      0x00\n        /* \"#utility.yul\":7402:7411   */\n      dup4\n        /* \"#utility.yul\":7398:7415   */\n      add\n        /* \"#utility.yul\":7391:7438   */\n      mstore\n        /* \"#utility.yul\":7455:7586   */\n      tag_218\n        /* \"#utility.yul\":7581:7585   */\n      dup2\n        /* \"#utility.yul\":7455:7586   */\n      tag_136\n      jump\t// in\n    tag_218:\n        /* \"#utility.yul\":7447:7586   */\n      swap1\n      pop\n        /* \"#utility.yul\":7174:7593   */\n      swap2\n      swap1\n      pop\n      jump\t// out\n        /* \"#utility.yul\":7599:7703   */\n    tag_137:\n        /* \"#utility.yul\":7663:7670   */\n      0x00\n        /* \"#utility.yul\":7692:7697   */\n      dup2\n        /* \"#utility.yul\":7681:7697   */\n      swap1\n      pop\n        /* \"#utility.yul\":7599:7703   */\n      swap2\n      swap1\n      pop\n      jump\t// out\n        /* \"#utility.yul\":7709:7905   */\n    tag_138:\n        /* \"#utility.yul\":7786:7795   */\n      0x00\n        /* \"#utility.yul\":7819:7899   */\n      tag_221\n        /* \"#utility.yul\":7837:7898   */\n      tag_222\n        /* \"#utility.yul\":7846:7897   */\n      tag_223\n        /* \"#utility.yul\":7891:7896   */\n      dup5\n        /* \"#utility.yul\":7846:7897   */\n      tag_137\n      jump\t// in\n    tag_223:\n        /* \"#utility.yul\":7837:7898   */\n      tag_123\n      jump\t// in\n    tag_222:\n        /* \"#utility.yul\":7819:7899   */\n      tag_118\n      jump\t// in\n    tag_221:\n        /* \"#utility.yul\":7806:7899   */\n      swap1\n      pop\n        /* \"#utility.yul\":7709:7905   */\n      swap2\n      swap1\n      pop\n      jump\t// out\n        /* \"#utility.yul\":7911:8096   */\n    tag_139:\n        /* \"#utility.yul\":8025:8089   */\n      tag_225\n        /* \"#utility.yul\":8083:8088   */\n      dup2\n        /* \"#utility.yul\":8025:8089   */\n      tag_138\n      jump\t// in\n    tag_225:\n        /* \"#utility.yul\":8020:8023   */\n      dup3\n        /* \"#utility.yul\":8013:8090   */\n      mstore\n        /* \"#utility.yul\":7911:8096   */\n      pop\n      pop\n      jump\t// out\n        /* \"#utility.yul\":8102:8598   */\n    tag_62:\n        /* \"#utility.yul\":8278:8282   */\n      0x00\n        /* \"#utility.yul\":8316:8318   */\n      0x60\n        /* \"#utility.yul\":8305:8314   */\n      dup3\n        /* \"#utility.yul\":8301:8319   */\n      add\n        /* \"#utility.yul\":8293:8319   */\n      swap1\n      pop\n        /* \"#utility.yul\":8329:8400   */\n      tag_227\n        /* \"#utility.yul\":8397:8398   */\n      0x00\n        /* \"#utility.yul\":8386:8395   */\n      dup4\n        /* \"#utility.yul\":8382:8399   */\n      add\n        /* \"#utility.yul\":8373:8379   */\n      dup7\n        /* \"#utility.yul\":8329:8400   */\n      tag_120\n      jump\t// in\n    tag_227:\n        /* \"#utility.yul\":8410:8482   */\n      tag_228\n        /* \"#utility.yul\":8478:8480   */\n      0x20\n        /* \"#utility.yul\":8467:8476   */\n      dup4\n        /* \"#utility.yul\":8463:8481   */\n      add\n        /* \"#utility.yul\":8454:8460   */\n      dup6\n        /* \"#utility.yul\":8410:8482   */\n      tag_120\n      jump\t// in\n    tag_228:\n        /* \"#utility.yul\":8492:8591   */\n      tag_229\n        /* \"#utility.yul\":8587:8589   */\n      0x40\n        /* \"#utility.yul\":8576:8585   */\n      dup4\n        /* \"#utility.yul\":8572:8590   */\n      add\n        /* \"#utility.yul\":8563:8569   */\n      dup5\n        /* \"#utility.yul\":8492:8591   */\n      tag_139\n      jump\t// in\n    tag_229:\n        /* \"#utility.yul\":8102:8598   */\n      swap5\n      swap4\n      pop\n      pop\n      pop\n      pop\n      jump\t// out\n        /* \"#utility.yul\":8604:8720   */\n    tag_140:\n        /* \"#utility.yul\":8674:8695   */\n      tag_231\n        /* \"#utility.yul\":8689:8694   */\n      dup2\n        /* \"#utility.yul\":8674:8695   */\n      tag_121\n      jump\t// in\n    tag_231:\n        /* \"#utility.yul\":8667:8672   */\n      dup2\n        /* \"#utility.yul\":8664:8696   */\n      eq\n        /* \"#utility.yul\":8654:8714   */\n      tag_232\n      jumpi\n        /* \"#utility.yul\":8710:8711   */\n      0x00\n        /* \"#utility.yul\":8707:8708   */\n      dup1\n        /* \"#utility.yul\":8700:8712   */\n      revert\n        /* \"#utility.yul\":8654:8714   */\n    tag_232:\n        /* \"#utility.yul\":8604:8720   */\n      pop\n      jump\t// out\n        /* \"#utility.yul\":8726:8863   */\n    tag_141:\n        /* \"#utility.yul\":8780:8785   */\n      0x00\n        /* \"#utility.yul\":8811:8817   */\n      dup2\n        /* \"#utility.yul\":8805:8818   */\n      mload\n        /* \"#utility.yul\":8796:8818   */\n      swap1\n      pop\n        /* \"#utility.yul\":8827:8857   */\n      tag_234\n        /* \"#utility.yul\":8851:8856   */\n      dup2\n        /* \"#utility.yul\":8827:8857   */\n      tag_140\n      jump\t// in\n    tag_234:\n        /* \"#utility.yul\":8726:8863   */\n      swap3\n      swap2\n      pop\n      pop\n      jump\t// out\n        /* \"#utility.yul\":8869:9214   */\n    tag_66:\n        /* \"#utility.yul\":8936:8942   */\n      0x00\n        /* \"#utility.yul\":8985:8987   */\n      0x20\n        /* \"#utility.yul\":8973:8982   */\n      dup3\n        /* \"#utility.yul\":8964:8971   */\n      dup5\n        /* \"#utility.yul\":8960:8983   */\n      sub\n        /* \"#utility.yul\":8956:8988   */\n      slt\n        /* \"#utility.yul\":8953:9072   */\n      iszero\n      tag_236\n      jumpi\n        /* \"#utility.yul\":8991:9070   */\n      tag_237\n      tag_112\n      jump\t// in\n    tag_237:\n        /* \"#utility.yul\":8953:9072   */\n    tag_236:\n        /* \"#utility.yul\":9111:9112   */\n      0x00\n        /* \"#utility.yul\":9136:9197   */\n      tag_238\n        /* \"#utility.yul\":9189:9196   */\n      dup5\n        /* \"#utility.yul\":9180:9186   */\n      dup3\n        /* \"#utility.yul\":9169:9178   */\n      dup6\n        /* \"#utility.yul\":9165:9187   */\n      add\n        /* \"#utility.yul\":9136:9197   */\n      tag_141\n      jump\t// in\n    tag_238:\n        /* \"#utility.yul\":9126:9197   */\n      swap2\n      pop\n        /* \"#utility.yul\":9082:9207   */\n      pop\n        /* \"#utility.yul\":8869:9214   */\n      swap3\n      swap2\n      pop\n      pop\n      jump\t// out\n        /* \"#utility.yul\":9220:9552   */\n    tag_90:\n        /* \"#utility.yul\":9341:9345   */\n      0x00\n        /* \"#utility.yul\":9379:9381   */\n      0x40\n        /* \"#utility.yul\":9368:9377   */\n      dup3\n        /* \"#utility.yul\":9364:9382   */\n      add\n        /* \"#utility.yul\":9356:9382   */\n      swap1\n      pop\n        /* \"#utility.yul\":9392:9463   */\n      tag_240\n        /* \"#utility.yul\":9460:9461   */\n      0x00\n        /* \"#utility.yul\":9449:9458   */\n      dup4\n        /* \"#utility.yul\":9445:9462   */\n      add\n        /* \"#utility.yul\":9436:9442   */\n      dup6\n        /* \"#utility.yul\":9392:9463   */\n      tag_120\n      jump\t// in\n    tag_240:\n        /* \"#utility.yul\":9473:9545   */\n      tag_241\n        /* \"#utility.yul\":9541:9543   */\n      0x20\n        /* \"#utility.yul\":9530:9539   */\n      dup4\n        /* \"#utility.yul\":9526:9544   */\n      add\n        /* \"#utility.yul\":9517:9523   */\n      dup5\n        /* \"#utility.yul\":9473:9545   */\n      tag_119\n      jump\t// in\n    tag_241:\n        /* \"#utility.yul\":9220:9552   */\n      swap4\n      swap3\n      pop\n      pop\n      pop\n      jump\t// out\n        /* \"#utility.yul\":9558:9738   */\n    tag_142:\n        /* \"#utility.yul\":9606:9683   */\n      0x4e487b7100000000000000000000000000000000000000000000000000000000\n        /* \"#utility.yul\":9603:9604   */\n      0x00\n        /* \"#utility.yul\":9596:9684   */\n      mstore\n        /* \"#utility.yul\":9703:9707   */\n      0x11\n        /* \"#utility.yul\":9700:9701   */\n      0x04\n        /* \"#utility.yul\":9693:9708   */\n      mstore\n        /* \"#utility.yul\":9727:9731   */\n      0x24\n        /* \"#utility.yul\":9724:9725   */\n      0x00\n        /* \"#utility.yul\":9717:9732   */\n      revert\n        /* \"#utility.yul\":9744:9977   */\n    tag_98:\n        /* \"#utility.yul\":9783:9786   */\n      0x00\n        /* \"#utility.yul\":9806:9830   */\n      tag_244\n        /* \"#utility.yul\":9824:9829   */\n      dup3\n        /* \"#utility.yul\":9806:9830   */\n      tag_118\n      jump\t// in\n    tag_244:\n        /* \"#utility.yul\":9797:9830   */\n      swap2\n      pop\n        /* \"#utility.yul\":9852:9918   */\n      0xffffffffffffffffffffffffffffffffffffffffffffffffffffffffffffffff\n        /* \"#utility.yul\":9845:9850   */\n      dup3\n        /* \"#utility.yul\":9842:9919   */\n      sub\n        /* \"#utility.yul\":9839:9942   */\n      tag_245\n      jumpi\n        /* \"#utility.yul\":9922:9940   */\n      tag_246\n      tag_142\n      jump\t// in\n    tag_246:\n        /* \"#utility.yul\":9839:9942   */\n    tag_245:\n        /* \"#utility.yul\":9969:9970   */\n      0x01\n        /* \"#utility.yul\":9962:9967   */\n      dup3\n        /* \"#utility.yul\":9958:9971   */\n      add\n        /* \"#utility.yul\":9951:9971   */\n      swap1\n      pop\n        /* \"#utility.yul\":9744:9977   */\n      swap2\n      swap1\n      pop\n      jump\t// out\n\n    auxdata: 0xa2646970667358221220cbb6c7658ce551a91b327fb9c0d0e49b6457577c515dd4b39b69b437f682715c64736f6c63430008190033\n}\n",
				"bytecode": {
					"linkReferences": {},
					"object": "608060405234801561000f575f80fd5b5060405161140438038061140483398181016040528101906100319190610473565b335f73ffffffffffffffffffffffffffffffffffffffff168173ffffffffffffffffffffffffffffffffffffffff16036100a2575f6040517f1e4fbdf700000000000000000000000000000000000000000000000000000000815260040161009991906104ad565b60405180910390fd5b6100b18161018460201b60201c565b50600180819055508060025f6101000a81548173ffffffffffffffffffffffffffffffffffffffff021916908373ffffffffffffffffffffffffffffffffffffffff1602179055507387dab07ec49e2ebdc126747ffa39488411b0d62060035f6101000a81548173ffffffffffffffffffffffffffffffffffffffff021916908373ffffffffffffffffffffffffffffffffffffffff16021790555061017e60035f9054906101000a900473ffffffffffffffffffffffffffffffffffffffff165f61024560201b60201c565b50610543565b5f805f9054906101000a900473ffffffffffffffffffffffffffffffffffffffff169050815f806101000a81548173ffffffffffffffffffffffffffffffffffffffff021916908373ffffffffffffffffffffffffffffffffffffffff1602179055508173ffffffffffffffffffffffffffffffffffffffff168173ffffffffffffffffffffffffffffffffffffffff167f8be0079c531659141344cd1fd0a4f28419497f9722a3daafe3b4186f6b6457e060405160405180910390a35050565b6102536103c660201b60201c565b60045f8154610261906104fc565b91905081905560055f8473ffffffffffffffffffffffffffffffffffffffff1673ffffffffffffffffffffffffffffffffffffffff1681526020019081526020015f2060010181905550600160055f8473ffffffffffffffffffffffffffffffffffffffff1673ffffffffffffffffffffffffffffffffffffffff1681526020019081526020015f206002015f6101000a81548160ff0219169083151502179055505f73ffffffffffffffffffffffffffffffffffffffff168173ffffffffffffffffffffffffffffffffffffffff16146103b4578060055f8473ffffffffffffffffffffffffffffffffffffffff1673ffffffffffffffffffffffffffffffffffffffff1681526020019081526020015f205f015f6101000a81548173ffffffffffffffffffffffffffffffffffffffff021916908373ffffffffffffffffffffffffffffffffffffffff1602179055505b6103c261040c60201b60201c565b5050565b600260015403610402576040517f3ee5aeb500000000000000000000000000000000000000000000000000000000815260040160405180910390fd5b6002600181905550565b60018081905550565b5f80fd5b5f73ffffffffffffffffffffffffffffffffffffffff82169050919050565b5f61044282610419565b9050919050565b61045281610438565b811461045c575f80fd5b50565b5f8151905061046d81610449565b92915050565b5f6020828403121561048857610487610415565b5b5f6104958482850161045f565b91505092915050565b6104a781610438565b82525050565b5f6020820190506104c05f83018461049e565b92915050565b7f4e487b71000000000000000000000000000000000000000000000000000000005f52601160045260245ffd5b5f819050919050565b5f610506826104f3565b91507fffffffffffffffffffffffffffffffffffffffffffffffffffffffffffffffff8203610538576105376104c6565b5b600182019050919050565b610eb4806105505f395ff3fe608060405234801561000f575f80fd5b5060043610610086575f3560e01c80638da5cb5b116100595780638da5cb5b146100ec578063a87430ba1461010a578063f2fde38b1461013c578063fc0c546a1461015857610086565b80632199d5cd1461008a5780632faba6ae146100a6578063401576a2146100c4578063715018a6146100e2575b5f80fd5b6100a4600480360381019061009f9190610a15565b610176565b005b6100ae6104a4565b6040516100bb9190610a58565b60405180910390f35b6100cc6104aa565b6040516100d99190610a80565b60405180910390f35b6100ea6104cf565b005b6100f46104e2565b6040516101019190610a80565b60405180910390f35b610124600480360381019061011f9190610a15565b610509565b60405161013393929190610ab3565b60405180910390f35b61015660048036038101906101519190610a15565b61055a565b005b6101606105de565b60405161016d9190610b43565b60405180910390f35b61017e610603565b60055f3373ffffffffffffffffffffffffffffffffffffffff1673ffffffffffffffffffffffffffffffffffffffff1681526020019081526020015f206002015f9054906101000a900460ff161561020b576040517f08c379a000000000000000000000000000000000000000000000000000000000815260040161020290610bb6565b60405180910390fd5b5f73ffffffffffffffffffffffffffffffffffffffff168173ffffffffffffffffffffffffffffffffffffffff16036102635760035f9054906101000a900473ffffffffffffffffffffffffffffffffffffffff1690505b60055f8273ffffffffffffffffffffffffffffffffffffffff1673ffffffffffffffffffffffffffffffffffffffff1681526020019081526020015f206002015f9054906101000a900460ff166102ef576040517f08c379a00000000000000000000000000000000000000000000000000000000081526004016102e690610c1e565b60405180910390fd5b6801a055690d9db8000060025f9054906101000a900473ffffffffffffffffffffffffffffffffffffffff1673ffffffffffffffffffffffffffffffffffffffff1663dd62ed3e33306040518363ffffffff1660e01b8152600401610355929190610c3c565b602060405180830381865afa158015610370573d5f803e3d5ffd5b505050506040513d601f19601f820116820180604052508101906103949190610c8d565b10156103d5576040517f08c379a00000000000000000000000000000000000000000000000000000000081526004016103cc90610d02565b60405180910390fd5b60025f9054906101000a900473ffffffffffffffffffffffffffffffffffffffff1673ffffffffffffffffffffffffffffffffffffffff166323b872dd33306801a055690d9db800006040518463ffffffff1660e01b815260040161043c93929190610d59565b6020604051808303815f875af1158015610458573d5f803e3d5ffd5b505050506040513d601f19601f8201168201806040525081019061047c9190610db8565b5061048f81678ac7230489e80000610649565b61049933826106ea565b6104a161085f565b50565b60045481565b60035f9054906101000a900473ffffffffffffffffffffffffffffffffffffffff1681565b6104d7610868565b6104e05f6108ef565b565b5f805f9054906101000a900473ffffffffffffffffffffffffffffffffffffffff16905090565b6005602052805f5260405f205f91509050805f015f9054906101000a900473ffffffffffffffffffffffffffffffffffffffff1690806001015490806002015f9054906101000a900460ff16905083565b610562610868565b5f73ffffffffffffffffffffffffffffffffffffffff168173ffffffffffffffffffffffffffffffffffffffff16036105d2575f6040517f1e4fbdf70000000000000000000000000000000000000000000000000000000081526004016105c99190610a80565b60405180910390fd5b6105db816108ef565b50565b60025f9054906101000a900473ffffffffffffffffffffffffffffffffffffffff1681565b60026001540361063f576040517f3ee5aeb500000000000000000000000000000000000000000000000000000000815260040160405180910390fd5b6002600181905550565b60025f9054906101000a900473ffffffffffffffffffffffffffffffffffffffff1673ffffffffffffffffffffffffffffffffffffffff1663a9059cbb83836040518363ffffffff1660e01b81526004016106a5929190610de3565b6020604051808303815f875af11580156106c1573d5f803e3d5ffd5b505050506040513d601f19601f820116820180604052508101906106e59190610db8565b505050565b6106f2610603565b60045f815461070090610e37565b91905081905560055f8473ffffffffffffffffffffffffffffffffffffffff1673ffffffffffffffffffffffffffffffffffffffff1681526020019081526020015f2060010181905550600160055f8473ffffffffffffffffffffffffffffffffffffffff1673ffffffffffffffffffffffffffffffffffffffff1681526020019081526020015f206002015f6101000a81548160ff0219169083151502179055505f73ffffffffffffffffffffffffffffffffffffffff168173ffffffffffffffffffffffffffffffffffffffff1614610853578060055f8473ffffffffffffffffffffffffffffffffffffffff1673ffffffffffffffffffffffffffffffffffffffff1681526020019081526020015f205f015f6101000a81548173ffffffffffffffffffffffffffffffffffffffff021916908373ffffffffffffffffffffffffffffffffffffffff1602179055505b61085b61085f565b5050565b60018081905550565b6108706109b0565b73ffffffffffffffffffffffffffffffffffffffff1661088e6104e2565b73ffffffffffffffffffffffffffffffffffffffff16146108ed576108b16109b0565b6040517f118cdaa70000000000000000000000000000000000000000000000000000000081526004016108e49190610a80565b60405180910390fd5b565b5f805f9054906101000a900473ffffffffffffffffffffffffffffffffffffffff169050815f806101000a81548173ffffffffffffffffffffffffffffffffffffffff021916908373ffffffffffffffffffffffffffffffffffffffff1602179055508173ffffffffffffffffffffffffffffffffffffffff168173ffffffffffffffffffffffffffffffffffffffff167f8be0079c531659141344cd1fd0a4f28419497f9722a3daafe3b4186f6b6457e060405160405180910390a35050565b5f33905090565b5f80fd5b5f73ffffffffffffffffffffffffffffffffffffffff82169050919050565b5f6109e4826109bb565b9050919050565b6109f4816109da565b81146109fe575f80fd5b50565b5f81359050610a0f816109eb565b92915050565b5f60208284031215610a2a57610a296109b7565b5b5f610a3784828501610a01565b91505092915050565b5f819050919050565b610a5281610a40565b82525050565b5f602082019050610a6b5f830184610a49565b92915050565b610a7a816109da565b82525050565b5f602082019050610a935f830184610a71565b92915050565b5f8115159050919050565b610aad81610a99565b82525050565b5f606082019050610ac65f830186610a71565b610ad36020830185610a49565b610ae06040830184610aa4565b949350505050565b5f819050919050565b5f610b0b610b06610b01846109bb565b610ae8565b6109bb565b9050919050565b5f610b1c82610af1565b9050919050565b5f610b2d82610b12565b9050919050565b610b3d81610b23565b82525050565b5f602082019050610b565f830184610b34565b92915050565b5f82825260208201905092915050565b7f5573657220697320616c726561647920726567697374657265640000000000005f82015250565b5f610ba0601a83610b5c565b9150610bab82610b6c565b602082019050919050565b5f6020820190508181035f830152610bcd81610b94565b9050919050565b7f53706f6e736f7220646f6573206e6f74206578697374000000000000000000005f82015250565b5f610c08601683610b5c565b9150610c1382610bd4565b602082019050919050565b5f6020820190508181035f830152610c3581610bfc565b9050919050565b5f604082019050610c4f5f830185610a71565b610c5c6020830184610a71565b9392505050565b610c6c81610a40565b8114610c76575f80fd5b50565b5f81519050610c8781610c63565b92915050565b5f60208284031215610ca257610ca16109b7565b5b5f610caf84828501610c79565b91505092915050565b7f496e73756666696369656e7420616c6c6f77616e6365000000000000000000005f82015250565b5f610cec601683610b5c565b9150610cf782610cb8565b602082019050919050565b5f6020820190508181035f830152610d1981610ce0565b9050919050565b5f819050919050565b5f610d43610d3e610d3984610d20565b610ae8565b610a40565b9050919050565b610d5381610d29565b82525050565b5f606082019050610d6c5f830186610a71565b610d796020830185610a71565b610d866040830184610d4a565b949350505050565b610d9781610a99565b8114610da1575f80fd5b50565b5f81519050610db281610d8e565b92915050565b5f60208284031215610dcd57610dcc6109b7565b5b5f610dda84828501610da4565b91505092915050565b5f604082019050610df65f830185610a71565b610e036020830184610a49565b9392505050565b7f4e487b71000000000000000000000000000000000000000000000000000000005f52601160045260245ffd5b5f610e4182610a40565b91507fffffffffffffffffffffffffffffffffffffffffffffffffffffffffffffffff8203610e7357610e72610e0a565b5b60018201905091905056fea2646970667358221220cbb6c7658ce551a91b327fb9c0d0e49b6457577c515dd4b39b69b437f682715c64736f6c63430008190033",
					"opcodes": "PUSH1 0x80 PUSH1 0x40 MSTORE CALLVALUE DUP1 ISZERO PUSH2 0xF JUMPI PUSH0 DUP1 REVERT JUMPDEST POP PUSH1 0x40 MLOAD PUSH2 0x1404 CODESIZE SUB DUP1 PUSH2 0x1404 DUP4 CODECOPY DUP2 DUP2 ADD PUSH1 0x40 MSTORE DUP2 ADD SWAP1 PUSH2 0x31 SWAP2 SWAP1 PUSH2 0x473 JUMP JUMPDEST CALLER PUSH0 PUSH20 0xFFFFFFFFFFFFFFFFFFFFFFFFFFFFFFFFFFFFFFFF AND DUP2 PUSH20 0xFFFFFFFFFFFFFFFFFFFFFFFFFFFFFFFFFFFFFFFF AND SUB PUSH2 0xA2 JUMPI PUSH0 PUSH1 0x40 MLOAD PUSH32 0x1E4FBDF700000000000000000000000000000000000000000000000000000000 DUP2 MSTORE PUSH1 0x4 ADD PUSH2 0x99 SWAP2 SWAP1 PUSH2 0x4AD JUMP JUMPDEST PUSH1 0x40 MLOAD DUP1 SWAP2 SUB SWAP1 REVERT JUMPDEST PUSH2 0xB1 DUP2 PUSH2 0x184 PUSH1 0x20 SHL PUSH1 0x20 SHR JUMP JUMPDEST POP PUSH1 0x1 DUP1 DUP2 SWAP1 SSTORE POP DUP1 PUSH1 0x2 PUSH0 PUSH2 0x100 EXP DUP2 SLOAD DUP2 PUSH20 0xFFFFFFFFFFFFFFFFFFFFFFFFFFFFFFFFFFFFFFFF MUL NOT AND SWAP1 DUP4 PUSH20 0xFFFFFFFFFFFFFFFFFFFFFFFFFFFFFFFFFFFFFFFF AND MUL OR SWAP1 SSTORE POP PUSH20 0x87DAB07EC49E2EBDC126747FFA39488411B0D620 PUSH1 0x3 PUSH0 PUSH2 0x100 EXP DUP2 SLOAD DUP2 PUSH20 0xFFFFFFFFFFFFFFFFFFFFFFFFFFFFFFFFFFFFFFFF MUL NOT AND SWAP1 DUP4 PUSH20 0xFFFFFFFFFFFFFFFFFFFFFFFFFFFFFFFFFFFFFFFF AND MUL OR SWAP1 SSTORE POP PUSH2 0x17E PUSH1 0x3 PUSH0 SWAP1 SLOAD SWAP1 PUSH2 0x100 EXP SWAP1 DIV PUSH20 0xFFFFFFFFFFFFFFFFFFFFFFFFFFFFFFFFFFFFFFFF AND PUSH0 PUSH2 0x245 PUSH1 0x20 SHL PUSH1 0x20 SHR JUMP JUMPDEST POP PUSH2 0x543 JUMP JUMPDEST PUSH0 DUP1 PUSH0 SWAP1 SLOAD SWAP1 PUSH2 0x100 EXP SWAP1 DIV PUSH20 0xFFFFFFFFFFFFFFFFFFFFFFFFFFFFFFFFFFFFFFFF AND SWAP1 POP DUP2 PUSH0 DUP1 PUSH2 0x100 EXP DUP2 SLOAD DUP2 PUSH20 0xFFFFFFFFFFFFFFFFFFFFFFFFFFFFFFFFFFFFFFFF MUL NOT AND SWAP1 DUP4 PUSH20 0xFFFFFFFFFFFFFFFFFFFFFFFFFFFFFFFFFFFFFFFF AND MUL OR SWAP1 SSTORE POP DUP2 PUSH20 0xFFFFFFFFFFFFFFFFFFFFFFFFFFFFFFFFFFFFFFFF AND DUP2 PUSH20 0xFFFFFFFFFFFFFFFFFFFFFFFFFFFFFFFFFFFFFFFF AND PUSH32 0x8BE0079C531659141344CD1FD0A4F28419497F9722A3DAAFE3B4186F6B6457E0 PUSH1 0x40 MLOAD PUSH1 0x40 MLOAD DUP1 SWAP2 SUB SWAP1 LOG3 POP POP JUMP JUMPDEST PUSH2 0x253 PUSH2 0x3C6 PUSH1 0x20 SHL PUSH1 0x20 SHR JUMP JUMPDEST PUSH1 0x4 PUSH0 DUP2 SLOAD PUSH2 0x261 SWAP1 PUSH2 0x4FC JUMP JUMPDEST SWAP2 SWAP1 POP DUP2 SWAP1 SSTORE PUSH1 0x5 PUSH0 DUP5 PUSH20 0xFFFFFFFFFFFFFFFFFFFFFFFFFFFFFFFFFFFFFFFF AND PUSH20 0xFFFFFFFFFFFFFFFFFFFFFFFFFFFFFFFFFFFFFFFF AND DUP2 MSTORE PUSH1 0x20 ADD SWAP1 DUP2 MSTORE PUSH1 0x20 ADD PUSH0 KECCAK256 PUSH1 0x1 ADD DUP2 SWAP1 SSTORE POP PUSH1 0x1 PUSH1 0x5 PUSH0 DUP5 PUSH20 0xFFFFFFFFFFFFFFFFFFFFFFFFFFFFFFFFFFFFFFFF AND PUSH20 0xFFFFFFFFFFFFFFFFFFFFFFFFFFFFFFFFFFFFFFFF AND DUP2 MSTORE PUSH1 0x20 ADD SWAP1 DUP2 MSTORE PUSH1 0x20 ADD PUSH0 KECCAK256 PUSH1 0x2 ADD PUSH0 PUSH2 0x100 EXP DUP2 SLOAD DUP2 PUSH1 0xFF MUL NOT AND SWAP1 DUP4 ISZERO ISZERO MUL OR SWAP1 SSTORE POP PUSH0 PUSH20 0xFFFFFFFFFFFFFFFFFFFFFFFFFFFFFFFFFFFFFFFF AND DUP2 PUSH20 0xFFFFFFFFFFFFFFFFFFFFFFFFFFFFFFFFFFFFFFFF AND EQ PUSH2 0x3B4 JUMPI DUP1 PUSH1 0x5 PUSH0 DUP5 PUSH20 0xFFFFFFFFFFFFFFFFFFFFFFFFFFFFFFFFFFFFFFFF AND PUSH20 0xFFFFFFFFFFFFFFFFFFFFFFFFFFFFFFFFFFFFFFFF AND DUP2 MSTORE PUSH1 0x20 ADD SWAP1 DUP2 MSTORE PUSH1 0x20 ADD PUSH0 KECCAK256 PUSH0 ADD PUSH0 PUSH2 0x100 EXP DUP2 SLOAD DUP2 PUSH20 0xFFFFFFFFFFFFFFFFFFFFFFFFFFFFFFFFFFFFFFFF MUL NOT AND SWAP1 DUP4 PUSH20 0xFFFFFFFFFFFFFFFFFFFFFFFFFFFFFFFFFFFFFFFF AND MUL OR SWAP1 SSTORE POP JUMPDEST PUSH2 0x3C2 PUSH2 0x40C PUSH1 0x20 SHL PUSH1 0x20 SHR JUMP JUMPDEST POP POP JUMP JUMPDEST PUSH1 0x2 PUSH1 0x1 SLOAD SUB PUSH2 0x402 JUMPI PUSH1 0x40 MLOAD PUSH32 0x3EE5AEB500000000000000000000000000000000000000000000000000000000 DUP2 MSTORE PUSH1 0x4 ADD PUSH1 0x40 MLOAD DUP1 SWAP2 SUB SWAP1 REVERT JUMPDEST PUSH1 0x2 PUSH1 0x1 DUP2 SWAP1 SSTORE POP JUMP JUMPDEST PUSH1 0x1 DUP1 DUP2 SWAP1 SSTORE POP JUMP JUMPDEST PUSH0 DUP1 REVERT JUMPDEST PUSH0 PUSH20 0xFFFFFFFFFFFFFFFFFFFFFFFFFFFFFFFFFFFFFFFF DUP3 AND SWAP1 POP SWAP2 SWAP1 POP JUMP JUMPDEST PUSH0 PUSH2 0x442 DUP3 PUSH2 0x419 JUMP JUMPDEST SWAP1 POP SWAP2 SWAP1 POP JUMP JUMPDEST PUSH2 0x452 DUP2 PUSH2 0x438 JUMP JUMPDEST DUP2 EQ PUSH2 0x45C JUMPI PUSH0 DUP1 REVERT JUMPDEST POP JUMP JUMPDEST PUSH0 DUP2 MLOAD SWAP1 POP PUSH2 0x46D DUP2 PUSH2 0x449 JUMP JUMPDEST SWAP3 SWAP2 POP POP JUMP JUMPDEST PUSH0 PUSH1 0x20 DUP3 DUP5 SUB SLT ISZERO PUSH2 0x488 JUMPI PUSH2 0x487 PUSH2 0x415 JUMP JUMPDEST JUMPDEST PUSH0 PUSH2 0x495 DUP5 DUP3 DUP6 ADD PUSH2 0x45F JUMP JUMPDEST SWAP2 POP POP SWAP3 SWAP2 POP POP JUMP JUMPDEST PUSH2 0x4A7 DUP2 PUSH2 0x438 JUMP JUMPDEST DUP3 MSTORE POP POP JUMP JUMPDEST PUSH0 PUSH1 0x20 DUP3 ADD SWAP1 POP PUSH2 0x4C0 PUSH0 DUP4 ADD DUP5 PUSH2 0x49E JUMP JUMPDEST SWAP3 SWAP2 POP POP JUMP JUMPDEST PUSH32 0x4E487B7100000000000000000000000000000000000000000000000000000000 PUSH0 MSTORE PUSH1 0x11 PUSH1 0x4 MSTORE PUSH1 0x24 PUSH0 REVERT JUMPDEST PUSH0 DUP2 SWAP1 POP SWAP2 SWAP1 POP JUMP JUMPDEST PUSH0 PUSH2 0x506 DUP3 PUSH2 0x4F3 JUMP JUMPDEST SWAP2 POP PUSH32 0xFFFFFFFFFFFFFFFFFFFFFFFFFFFFFFFFFFFFFFFFFFFFFFFFFFFFFFFFFFFFFFFF DUP3 SUB PUSH2 0x538 JUMPI PUSH2 0x537 PUSH2 0x4C6 JUMP JUMPDEST JUMPDEST PUSH1 0x1 DUP3 ADD SWAP1 POP SWAP2 SWAP1 POP JUMP JUMPDEST PUSH2 0xEB4 DUP1 PUSH2 0x550 PUSH0 CODECOPY PUSH0 RETURN INVALID PUSH1 0x80 PUSH1 0x40 MSTORE CALLVALUE DUP1 ISZERO PUSH2 0xF JUMPI PUSH0 DUP1 REVERT JUMPDEST POP PUSH1 0x4 CALLDATASIZE LT PUSH2 0x86 JUMPI PUSH0 CALLDATALOAD PUSH1 0xE0 SHR DUP1 PUSH4 0x8DA5CB5B GT PUSH2 0x59 JUMPI DUP1 PUSH4 0x8DA5CB5B EQ PUSH2 0xEC JUMPI DUP1 PUSH4 0xA87430BA EQ PUSH2 0x10A JUMPI DUP1 PUSH4 0xF2FDE38B EQ PUSH2 0x13C JUMPI DUP1 PUSH4 0xFC0C546A EQ PUSH2 0x158 JUMPI PUSH2 0x86 JUMP JUMPDEST DUP1 PUSH4 0x2199D5CD EQ PUSH2 0x8A JUMPI DUP1 PUSH4 0x2FABA6AE EQ PUSH2 0xA6 JUMPI DUP1 PUSH4 0x401576A2 EQ PUSH2 0xC4 JUMPI DUP1 PUSH4 0x715018A6 EQ PUSH2 0xE2 JUMPI JUMPDEST PUSH0 DUP1 REVERT JUMPDEST PUSH2 0xA4 PUSH1 0x4 DUP1 CALLDATASIZE SUB DUP2 ADD SWAP1 PUSH2 0x9F SWAP2 SWAP1 PUSH2 0xA15 JUMP JUMPDEST PUSH2 0x176 JUMP JUMPDEST STOP JUMPDEST PUSH2 0xAE PUSH2 0x4A4 JUMP JUMPDEST PUSH1 0x40 MLOAD PUSH2 0xBB SWAP2 SWAP1 PUSH2 0xA58 JUMP JUMPDEST PUSH1 0x40 MLOAD DUP1 SWAP2 SUB SWAP1 RETURN JUMPDEST PUSH2 0xCC PUSH2 0x4AA JUMP JUMPDEST PUSH1 0x40 MLOAD PUSH2 0xD9 SWAP2 SWAP1 PUSH2 0xA80 JUMP JUMPDEST PUSH1 0x40 MLOAD DUP1 SWAP2 SUB SWAP1 RETURN JUMPDEST PUSH2 0xEA PUSH2 0x4CF JUMP JUMPDEST STOP JUMPDEST PUSH2 0xF4 PUSH2 0x4E2 JUMP JUMPDEST PUSH1 0x40 MLOAD PUSH2 0x101 SWAP2 SWAP1 PUSH2 0xA80 JUMP JUMPDEST PUSH1 0x40 MLOAD DUP1 SWAP2 SUB SWAP1 RETURN JUMPDEST PUSH2 0x124 PUSH1 0x4 DUP1 CALLDATASIZE SUB DUP2 ADD SWAP1 PUSH2 0x11F SWAP2 SWAP1 PUSH2 0xA15 JUMP JUMPDEST PUSH2 0x509 JUMP JUMPDEST PUSH1 0x40 MLOAD PUSH2 0x133 SWAP4 SWAP3 SWAP2 SWAP1 PUSH2 0xAB3 JUMP JUMPDEST PUSH1 0x40 MLOAD DUP1 SWAP2 SUB SWAP1 RETURN JUMPDEST PUSH2 0x156 PUSH1 0x4 DUP1 CALLDATASIZE SUB DUP2 ADD SWAP1 PUSH2 0x151 SWAP2 SWAP1 PUSH2 0xA15 JUMP JUMPDEST PUSH2 0x55A JUMP JUMPDEST STOP JUMPDEST PUSH2 0x160 PUSH2 0x5DE JUMP JUMPDEST PUSH1 0x40 MLOAD PUSH2 0x16D SWAP2 SWAP1 PUSH2 0xB43 JUMP JUMPDEST PUSH1 0x40 MLOAD DUP1 SWAP2 SUB SWAP1 RETURN JUMPDEST PUSH2 0x17E PUSH2 0x603 JUMP JUMPDEST PUSH1 0x5 PUSH0 CALLER PUSH20 0xFFFFFFFFFFFFFFFFFFFFFFFFFFFFFFFFFFFFFFFF AND PUSH20 0xFFFFFFFFFFFFFFFFFFFFFFFFFFFFFFFFFFFFFFFF AND DUP2 MSTORE PUSH1 0x20 ADD SWAP1 DUP2 MSTORE PUSH1 0x20 ADD PUSH0 KECCAK256 PUSH1 0x2 ADD PUSH0 SWAP1 SLOAD SWAP1 PUSH2 0x100 EXP SWAP1 DIV PUSH1 0xFF AND ISZERO PUSH2 0x20B JUMPI PUSH1 0x40 MLOAD PUSH32 0x8C379A000000000000000000000000000000000000000000000000000000000 DUP2 MSTORE PUSH1 0x4 ADD PUSH2 0x202 SWAP1 PUSH2 0xBB6 JUMP JUMPDEST PUSH1 0x40 MLOAD DUP1 SWAP2 SUB SWAP1 REVERT JUMPDEST PUSH0 PUSH20 0xFFFFFFFFFFFFFFFFFFFFFFFFFFFFFFFFFFFFFFFF AND DUP2 PUSH20 0xFFFFFFFFFFFFFFFFFFFFFFFFFFFFFFFFFFFFFFFF AND SUB PUSH2 0x263 JUMPI PUSH1 0x3 PUSH0 SWAP1 SLOAD SWAP1 PUSH2 0x100 EXP SWAP1 DIV PUSH20 0xFFFFFFFFFFFFFFFFFFFFFFFFFFFFFFFFFFFFFFFF AND SWAP1 POP JUMPDEST PUSH1 0x5 PUSH0 DUP3 PUSH20 0xFFFFFFFFFFFFFFFFFFFFFFFFFFFFFFFFFFFFFFFF AND PUSH20 0xFFFFFFFFFFFFFFFFFFFFFFFFFFFFFFFFFFFFFFFF AND DUP2 MSTORE PUSH1 0x20 ADD SWAP1 DUP2 MSTORE PUSH1 0x20 ADD PUSH0 KECCAK256 PUSH1 0x2 ADD PUSH0 SWAP1 SLOAD SWAP1 PUSH2 0x100 EXP SWAP1 DIV PUSH1 0xFF AND PUSH2 0x2EF JUMPI PUSH1 0x40 MLOAD PUSH32 0x8C379A000000000000000000000000000000000000000000000000000000000 DUP2 MSTORE PUSH1 0x4 ADD PUSH2 0x2E6 SWAP1 PUSH2 0xC1E JUMP JUMPDEST PUSH1 0x40 MLOAD DUP1 SWAP2 SUB SWAP1 REVERT JUMPDEST PUSH9 0x1A055690D9DB80000 PUSH1 0x2 PUSH0 SWAP1 SLOAD SWAP1 PUSH2 0x100 EXP SWAP1 DIV PUSH20 0xFFFFFFFFFFFFFFFFFFFFFFFFFFFFFFFFFFFFFFFF AND PUSH20 0xFFFFFFFFFFFFFFFFFFFFFFFFFFFFFFFFFFFFFFFF AND PUSH4 0xDD62ED3E CALLER ADDRESS PUSH1 0x40 MLOAD DUP4 PUSH4 0xFFFFFFFF AND PUSH1 0xE0 SHL DUP2 MSTORE PUSH1 0x4 ADD PUSH2 0x355 SWAP3 SWAP2 SWAP1 PUSH2 0xC3C JUMP JUMPDEST PUSH1 0x20 PUSH1 0x40 MLOAD DUP1 DUP4 SUB DUP2 DUP7 GAS STATICCALL ISZERO DUP1 ISZERO PUSH2 0x370 JUMPI RETURNDATASIZE PUSH0 DUP1 RETURNDATACOPY RETURNDATASIZE PUSH0 REVERT JUMPDEST POP POP POP POP PUSH1 0x40 MLOAD RETURNDATASIZE PUSH1 0x1F NOT PUSH1 0x1F DUP3 ADD AND DUP3 ADD DUP1 PUSH1 0x40 MSTORE POP DUP2 ADD SWAP1 PUSH2 0x394 SWAP2 SWAP1 PUSH2 0xC8D JUMP JUMPDEST LT ISZERO PUSH2 0x3D5 JUMPI PUSH1 0x40 MLOAD PUSH32 0x8C379A000000000000000000000000000000000000000000000000000000000 DUP2 MSTORE PUSH1 0x4 ADD PUSH2 0x3CC SWAP1 PUSH2 0xD02 JUMP JUMPDEST PUSH1 0x40 MLOAD DUP1 SWAP2 SUB SWAP1 REVERT JUMPDEST PUSH1 0x2 PUSH0 SWAP1 SLOAD SWAP1 PUSH2 0x100 EXP SWAP1 DIV PUSH20 0xFFFFFFFFFFFFFFFFFFFFFFFFFFFFFFFFFFFFFFFF AND PUSH20 0xFFFFFFFFFFFFFFFFFFFFFFFFFFFFFFFFFFFFFFFF AND PUSH4 0x23B872DD CALLER ADDRESS PUSH9 0x1A055690D9DB80000 PUSH1 0x40 MLOAD DUP5 PUSH4 0xFFFFFFFF AND PUSH1 0xE0 SHL DUP2 MSTORE PUSH1 0x4 ADD PUSH2 0x43C SWAP4 SWAP3 SWAP2 SWAP1 PUSH2 0xD59 JUMP JUMPDEST PUSH1 0x20 PUSH1 0x40 MLOAD DUP1 DUP4 SUB DUP2 PUSH0 DUP8 GAS CALL ISZERO DUP1 ISZERO PUSH2 0x458 JUMPI RETURNDATASIZE PUSH0 DUP1 RETURNDATACOPY RETURNDATASIZE PUSH0 REVERT JUMPDEST POP POP POP POP PUSH1 0x40 MLOAD RETURNDATASIZE PUSH1 0x1F NOT PUSH1 0x1F DUP3 ADD AND DUP3 ADD DUP1 PUSH1 0x40 MSTORE POP DUP2 ADD SWAP1 PUSH2 0x47C SWAP2 SWAP1 PUSH2 0xDB8 JUMP JUMPDEST POP PUSH2 0x48F DUP2 PUSH8 0x8AC7230489E80000 PUSH2 0x649 JUMP JUMPDEST PUSH2 0x499 CALLER DUP3 PUSH2 0x6EA JUMP JUMPDEST PUSH2 0x4A1 PUSH2 0x85F JUMP JUMPDEST POP JUMP JUMPDEST PUSH1 0x4 SLOAD DUP2 JUMP JUMPDEST PUSH1 0x3 PUSH0 SWAP1 SLOAD SWAP1 PUSH2 0x100 EXP SWAP1 DIV PUSH20 0xFFFFFFFFFFFFFFFFFFFFFFFFFFFFFFFFFFFFFFFF AND DUP2 JUMP JUMPDEST PUSH2 0x4D7 PUSH2 0x868 JUMP JUMPDEST PUSH2 0x4E0 PUSH0 PUSH2 0x8EF JUMP JUMPDEST JUMP JUMPDEST PUSH0 DUP1 PUSH0 SWAP1 SLOAD SWAP1 PUSH2 0x100 EXP SWAP1 DIV PUSH20 0xFFFFFFFFFFFFFFFFFFFFFFFFFFFFFFFFFFFFFFFF AND SWAP1 POP SWAP1 JUMP JUMPDEST PUSH1 0x5 PUSH1 0x20 MSTORE DUP1 PUSH0 MSTORE PUSH1 0x40 PUSH0 KECCAK256 PUSH0 SWAP2 POP SWAP1 POP DUP1 PUSH0 ADD PUSH0 SWAP1 SLOAD SWAP1 PUSH2 0x100 EXP SWAP1 DIV PUSH20 0xFFFFFFFFFFFFFFFFFFFFFFFFFFFFFFFFFFFFFFFF AND SWAP1 DUP1 PUSH1 0x1 ADD SLOAD SWAP1 DUP1 PUSH1 0x2 ADD PUSH0 SWAP1 SLOAD SWAP1 PUSH2 0x100 EXP SWAP1 DIV PUSH1 0xFF AND SWAP1 POP DUP4 JUMP JUMPDEST PUSH2 0x562 PUSH2 0x868 JUMP JUMPDEST PUSH0 PUSH20 0xFFFFFFFFFFFFFFFFFFFFFFFFFFFFFFFFFFFFFFFF AND DUP2 PUSH20 0xFFFFFFFFFFFFFFFFFFFFFFFFFFFFFFFFFFFFFFFF AND SUB PUSH2 0x5D2 JUMPI PUSH0 PUSH1 0x40 MLOAD PUSH32 0x1E4FBDF700000000000000000000000000000000000000000000000000000000 DUP2 MSTORE PUSH1 0x4 ADD PUSH2 0x5C9 SWAP2 SWAP1 PUSH2 0xA80 JUMP JUMPDEST PUSH1 0x40 MLOAD DUP1 SWAP2 SUB SWAP1 REVERT JUMPDEST PUSH2 0x5DB DUP2 PUSH2 0x8EF JUMP JUMPDEST POP JUMP JUMPDEST PUSH1 0x2 PUSH0 SWAP1 SLOAD SWAP1 PUSH2 0x100 EXP SWAP1 DIV PUSH20 0xFFFFFFFFFFFFFFFFFFFFFFFFFFFFFFFFFFFFFFFF AND DUP2 JUMP JUMPDEST PUSH1 0x2 PUSH1 0x1 SLOAD SUB PUSH2 0x63F JUMPI PUSH1 0x40 MLOAD PUSH32 0x3EE5AEB500000000000000000000000000000000000000000000000000000000 DUP2 MSTORE PUSH1 0x4 ADD PUSH1 0x40 MLOAD DUP1 SWAP2 SUB SWAP1 REVERT JUMPDEST PUSH1 0x2 PUSH1 0x1 DUP2 SWAP1 SSTORE POP JUMP JUMPDEST PUSH1 0x2 PUSH0 SWAP1 SLOAD SWAP1 PUSH2 0x100 EXP SWAP1 DIV PUSH20 0xFFFFFFFFFFFFFFFFFFFFFFFFFFFFFFFFFFFFFFFF AND PUSH20 0xFFFFFFFFFFFFFFFFFFFFFFFFFFFFFFFFFFFFFFFF AND PUSH4 0xA9059CBB DUP4 DUP4 PUSH1 0x40 MLOAD DUP4 PUSH4 0xFFFFFFFF AND PUSH1 0xE0 SHL DUP2 MSTORE PUSH1 0x4 ADD PUSH2 0x6A5 SWAP3 SWAP2 SWAP1 PUSH2 0xDE3 JUMP JUMPDEST PUSH1 0x20 PUSH1 0x40 MLOAD DUP1 DUP4 SUB DUP2 PUSH0 DUP8 GAS CALL ISZERO DUP1 ISZERO PUSH2 0x6C1 JUMPI RETURNDATASIZE PUSH0 DUP1 RETURNDATACOPY RETURNDATASIZE PUSH0 REVERT JUMPDEST POP POP POP POP PUSH1 0x40 MLOAD RETURNDATASIZE PUSH1 0x1F NOT PUSH1 0x1F DUP3 ADD AND DUP3 ADD DUP1 PUSH1 0x40 MSTORE POP DUP2 ADD SWAP1 PUSH2 0x6E5 SWAP2 SWAP1 PUSH2 0xDB8 JUMP JUMPDEST POP POP POP JUMP JUMPDEST PUSH2 0x6F2 PUSH2 0x603 JUMP JUMPDEST PUSH1 0x4 PUSH0 DUP2 SLOAD PUSH2 0x700 SWAP1 PUSH2 0xE37 JUMP JUMPDEST SWAP2 SWAP1 POP DUP2 SWAP1 SSTORE PUSH1 0x5 PUSH0 DUP5 PUSH20 0xFFFFFFFFFFFFFFFFFFFFFFFFFFFFFFFFFFFFFFFF AND PUSH20 0xFFFFFFFFFFFFFFFFFFFFFFFFFFFFFFFFFFFFFFFF AND DUP2 MSTORE PUSH1 0x20 ADD SWAP1 DUP2 MSTORE PUSH1 0x20 ADD PUSH0 KECCAK256 PUSH1 0x1 ADD DUP2 SWAP1 SSTORE POP PUSH1 0x1 PUSH1 0x5 PUSH0 DUP5 PUSH20 0xFFFFFFFFFFFFFFFFFFFFFFFFFFFFFFFFFFFFFFFF AND PUSH20 0xFFFFFFFFFFFFFFFFFFFFFFFFFFFFFFFFFFFFFFFF AND DUP2 MSTORE PUSH1 0x20 ADD SWAP1 DUP2 MSTORE PUSH1 0x20 ADD PUSH0 KECCAK256 PUSH1 0x2 ADD PUSH0 PUSH2 0x100 EXP DUP2 SLOAD DUP2 PUSH1 0xFF MUL NOT AND SWAP1 DUP4 ISZERO ISZERO MUL OR SWAP1 SSTORE POP PUSH0 PUSH20 0xFFFFFFFFFFFFFFFFFFFFFFFFFFFFFFFFFFFFFFFF AND DUP2 PUSH20 0xFFFFFFFFFFFFFFFFFFFFFFFFFFFFFFFFFFFFFFFF AND EQ PUSH2 0x853 JUMPI DUP1 PUSH1 0x5 PUSH0 DUP5 PUSH20 0xFFFFFFFFFFFFFFFFFFFFFFFFFFFFFFFFFFFFFFFF AND PUSH20 0xFFFFFFFFFFFFFFFFFFFFFFFFFFFFFFFFFFFFFFFF AND DUP2 MSTORE PUSH1 0x20 ADD SWAP1 DUP2 MSTORE PUSH1 0x20 ADD PUSH0 KECCAK256 PUSH0 ADD PUSH0 PUSH2 0x100 EXP DUP2 SLOAD DUP2 PUSH20 0xFFFFFFFFFFFFFFFFFFFFFFFFFFFFFFFFFFFFFFFF MUL NOT AND SWAP1 DUP4 PUSH20 0xFFFFFFFFFFFFFFFFFFFFFFFFFFFFFFFFFFFFFFFF AND MUL OR SWAP1 SSTORE POP JUMPDEST PUSH2 0x85B PUSH2 0x85F JUMP JUMPDEST POP POP JUMP JUMPDEST PUSH1 0x1 DUP1 DUP2 SWAP1 SSTORE POP JUMP JUMPDEST PUSH2 0x870 PUSH2 0x9B0 JUMP JUMPDEST PUSH20 0xFFFFFFFFFFFFFFFFFFFFFFFFFFFFFFFFFFFFFFFF AND PUSH2 0x88E PUSH2 0x4E2 JUMP JUMPDEST PUSH20 0xFFFFFFFFFFFFFFFFFFFFFFFFFFFFFFFFFFFFFFFF AND EQ PUSH2 0x8ED JUMPI PUSH2 0x8B1 PUSH2 0x9B0 JUMP JUMPDEST PUSH1 0x40 MLOAD PUSH32 0x118CDAA700000000000000000000000000000000000000000000000000000000 DUP2 MSTORE PUSH1 0x4 ADD PUSH2 0x8E4 SWAP2 SWAP1 PUSH2 0xA80 JUMP JUMPDEST PUSH1 0x40 MLOAD DUP1 SWAP2 SUB SWAP1 REVERT JUMPDEST JUMP JUMPDEST PUSH0 DUP1 PUSH0 SWAP1 SLOAD SWAP1 PUSH2 0x100 EXP SWAP1 DIV PUSH20 0xFFFFFFFFFFFFFFFFFFFFFFFFFFFFFFFFFFFFFFFF AND SWAP1 POP DUP2 PUSH0 DUP1 PUSH2 0x100 EXP DUP2 SLOAD DUP2 PUSH20 0xFFFFFFFFFFFFFFFFFFFFFFFFFFFFFFFFFFFFFFFF MUL NOT AND SWAP1 DUP4 PUSH20 0xFFFFFFFFFFFFFFFFFFFFFFFFFFFFFFFFFFFFFFFF AND MUL OR SWAP1 SSTORE POP DUP2 PUSH20 0xFFFFFFFFFFFFFFFFFFFFFFFFFFFFFFFFFFFFFFFF AND DUP2 PUSH20 0xFFFFFFFFFFFFFFFFFFFFFFFFFFFFFFFFFFFFFFFF AND PUSH32 0x8BE0079C531659141344CD1FD0A4F28419497F9722A3DAAFE3B4186F6B6457E0 PUSH1 0x40 MLOAD PUSH1 0x40 MLOAD DUP1 SWAP2 SUB SWAP1 LOG3 POP POP JUMP JUMPDEST PUSH0 CALLER SWAP1 POP SWAP1 JUMP JUMPDEST PUSH0 DUP1 REVERT JUMPDEST PUSH0 PUSH20 0xFFFFFFFFFFFFFFFFFFFFFFFFFFFFFFFFFFFFFFFF DUP3 AND SWAP1 POP SWAP2 SWAP1 POP JUMP JUMPDEST PUSH0 PUSH2 0x9E4 DUP3 PUSH2 0x9BB JUMP JUMPDEST SWAP1 POP SWAP2 SWAP1 POP JUMP JUMPDEST PUSH2 0x9F4 DUP2 PUSH2 0x9DA JUMP JUMPDEST DUP2 EQ PUSH2 0x9FE JUMPI PUSH0 DUP1 REVERT JUMPDEST POP JUMP JUMPDEST PUSH0 DUP2 CALLDATALOAD SWAP1 POP PUSH2 0xA0F DUP2 PUSH2 0x9EB JUMP JUMPDEST SWAP3 SWAP2 POP POP JUMP JUMPDEST PUSH0 PUSH1 0x20 DUP3 DUP5 SUB SLT ISZERO PUSH2 0xA2A JUMPI PUSH2 0xA29 PUSH2 0x9B7 JUMP JUMPDEST JUMPDEST PUSH0 PUSH2 0xA37 DUP5 DUP3 DUP6 ADD PUSH2 0xA01 JUMP JUMPDEST SWAP2 POP POP SWAP3 SWAP2 POP POP JUMP JUMPDEST PUSH0 DUP2 SWAP1 POP SWAP2 SWAP1 POP JUMP JUMPDEST PUSH2 0xA52 DUP2 PUSH2 0xA40 JUMP JUMPDEST DUP3 MSTORE POP POP JUMP JUMPDEST PUSH0 PUSH1 0x20 DUP3 ADD SWAP1 POP PUSH2 0xA6B PUSH0 DUP4 ADD DUP5 PUSH2 0xA49 JUMP JUMPDEST SWAP3 SWAP2 POP POP JUMP JUMPDEST PUSH2 0xA7A DUP2 PUSH2 0x9DA JUMP JUMPDEST DUP3 MSTORE POP POP JUMP JUMPDEST PUSH0 PUSH1 0x20 DUP3 ADD SWAP1 POP PUSH2 0xA93 PUSH0 DUP4 ADD DUP5 PUSH2 0xA71 JUMP JUMPDEST SWAP3 SWAP2 POP POP JUMP JUMPDEST PUSH0 DUP2 ISZERO ISZERO SWAP1 POP SWAP2 SWAP1 POP JUMP JUMPDEST PUSH2 0xAAD DUP2 PUSH2 0xA99 JUMP JUMPDEST DUP3 MSTORE POP POP JUMP JUMPDEST PUSH0 PUSH1 0x60 DUP3 ADD SWAP1 POP PUSH2 0xAC6 PUSH0 DUP4 ADD DUP7 PUSH2 0xA71 JUMP JUMPDEST PUSH2 0xAD3 PUSH1 0x20 DUP4 ADD DUP6 PUSH2 0xA49 JUMP JUMPDEST PUSH2 0xAE0 PUSH1 0x40 DUP4 ADD DUP5 PUSH2 0xAA4 JUMP JUMPDEST SWAP5 SWAP4 POP POP POP POP JUMP JUMPDEST PUSH0 DUP2 SWAP1 POP SWAP2 SWAP1 POP JUMP JUMPDEST PUSH0 PUSH2 0xB0B PUSH2 0xB06 PUSH2 0xB01 DUP5 PUSH2 0x9BB JUMP JUMPDEST PUSH2 0xAE8 JUMP JUMPDEST PUSH2 0x9BB JUMP JUMPDEST SWAP1 POP SWAP2 SWAP1 POP JUMP JUMPDEST PUSH0 PUSH2 0xB1C DUP3 PUSH2 0xAF1 JUMP JUMPDEST SWAP1 POP SWAP2 SWAP1 POP JUMP JUMPDEST PUSH0 PUSH2 0xB2D DUP3 PUSH2 0xB12 JUMP JUMPDEST SWAP1 POP SWAP2 SWAP1 POP JUMP JUMPDEST PUSH2 0xB3D DUP2 PUSH2 0xB23 JUMP JUMPDEST DUP3 MSTORE POP POP JUMP JUMPDEST PUSH0 PUSH1 0x20 DUP3 ADD SWAP1 POP PUSH2 0xB56 PUSH0 DUP4 ADD DUP5 PUSH2 0xB34 JUMP JUMPDEST SWAP3 SWAP2 POP POP JUMP JUMPDEST PUSH0 DUP3 DUP3 MSTORE PUSH1 0x20 DUP3 ADD SWAP1 POP SWAP3 SWAP2 POP POP JUMP JUMPDEST PUSH32 0x5573657220697320616C72656164792072656769737465726564000000000000 PUSH0 DUP3 ADD MSTORE POP JUMP JUMPDEST PUSH0 PUSH2 0xBA0 PUSH1 0x1A DUP4 PUSH2 0xB5C JUMP JUMPDEST SWAP2 POP PUSH2 0xBAB DUP3 PUSH2 0xB6C JUMP JUMPDEST PUSH1 0x20 DUP3 ADD SWAP1 POP SWAP2 SWAP1 POP JUMP JUMPDEST PUSH0 PUSH1 0x20 DUP3 ADD SWAP1 POP DUP2 DUP2 SUB PUSH0 DUP4 ADD MSTORE PUSH2 0xBCD DUP2 PUSH2 0xB94 JUMP JUMPDEST SWAP1 POP SWAP2 SWAP1 POP JUMP JUMPDEST PUSH32 0x53706F6E736F7220646F6573206E6F7420657869737400000000000000000000 PUSH0 DUP3 ADD MSTORE POP JUMP JUMPDEST PUSH0 PUSH2 0xC08 PUSH1 0x16 DUP4 PUSH2 0xB5C JUMP JUMPDEST SWAP2 POP PUSH2 0xC13 DUP3 PUSH2 0xBD4 JUMP JUMPDEST PUSH1 0x20 DUP3 ADD SWAP1 POP SWAP2 SWAP1 POP JUMP JUMPDEST PUSH0 PUSH1 0x20 DUP3 ADD SWAP1 POP DUP2 DUP2 SUB PUSH0 DUP4 ADD MSTORE PUSH2 0xC35 DUP2 PUSH2 0xBFC JUMP JUMPDEST SWAP1 POP SWAP2 SWAP1 POP JUMP JUMPDEST PUSH0 PUSH1 0x40 DUP3 ADD SWAP1 POP PUSH2 0xC4F PUSH0 DUP4 ADD DUP6 PUSH2 0xA71 JUMP JUMPDEST PUSH2 0xC5C PUSH1 0x20 DUP4 ADD DUP5 PUSH2 0xA71 JUMP JUMPDEST SWAP4 SWAP3 POP POP POP JUMP JUMPDEST PUSH2 0xC6C DUP2 PUSH2 0xA40 JUMP JUMPDEST DUP2 EQ PUSH2 0xC76 JUMPI PUSH0 DUP1 REVERT JUMPDEST POP JUMP JUMPDEST PUSH0 DUP2 MLOAD SWAP1 POP PUSH2 0xC87 DUP2 PUSH2 0xC63 JUMP JUMPDEST SWAP3 SWAP2 POP POP JUMP JUMPDEST PUSH0 PUSH1 0x20 DUP3 DUP5 SUB SLT ISZERO PUSH2 0xCA2 JUMPI PUSH2 0xCA1 PUSH2 0x9B7 JUMP JUMPDEST JUMPDEST PUSH0 PUSH2 0xCAF DUP5 DUP3 DUP6 ADD PUSH2 0xC79 JUMP JUMPDEST SWAP2 POP POP SWAP3 SWAP2 POP POP JUMP JUMPDEST PUSH32 0x496E73756666696369656E7420616C6C6F77616E636500000000000000000000 PUSH0 DUP3 ADD MSTORE POP JUMP JUMPDEST PUSH0 PUSH2 0xCEC PUSH1 0x16 DUP4 PUSH2 0xB5C JUMP JUMPDEST SWAP2 POP PUSH2 0xCF7 DUP3 PUSH2 0xCB8 JUMP JUMPDEST PUSH1 0x20 DUP3 ADD SWAP1 POP SWAP2 SWAP1 POP JUMP JUMPDEST PUSH0 PUSH1 0x20 DUP3 ADD SWAP1 POP DUP2 DUP2 SUB PUSH0 DUP4 ADD MSTORE PUSH2 0xD19 DUP2 PUSH2 0xCE0 JUMP JUMPDEST SWAP1 POP SWAP2 SWAP1 POP JUMP JUMPDEST PUSH0 DUP2 SWAP1 POP SWAP2 SWAP1 POP JUMP JUMPDEST PUSH0 PUSH2 0xD43 PUSH2 0xD3E PUSH2 0xD39 DUP5 PUSH2 0xD20 JUMP JUMPDEST PUSH2 0xAE8 JUMP JUMPDEST PUSH2 0xA40 JUMP JUMPDEST SWAP1 POP SWAP2 SWAP1 POP JUMP JUMPDEST PUSH2 0xD53 DUP2 PUSH2 0xD29 JUMP JUMPDEST DUP3 MSTORE POP POP JUMP JUMPDEST PUSH0 PUSH1 0x60 DUP3 ADD SWAP1 POP PUSH2 0xD6C PUSH0 DUP4 ADD DUP7 PUSH2 0xA71 JUMP JUMPDEST PUSH2 0xD79 PUSH1 0x20 DUP4 ADD DUP6 PUSH2 0xA71 JUMP JUMPDEST PUSH2 0xD86 PUSH1 0x40 DUP4 ADD DUP5 PUSH2 0xD4A JUMP JUMPDEST SWAP5 SWAP4 POP POP POP POP JUMP JUMPDEST PUSH2 0xD97 DUP2 PUSH2 0xA99 JUMP JUMPDEST DUP2 EQ PUSH2 0xDA1 JUMPI PUSH0 DUP1 REVERT JUMPDEST POP JUMP JUMPDEST PUSH0 DUP2 MLOAD SWAP1 POP PUSH2 0xDB2 DUP2 PUSH2 0xD8E JUMP JUMPDEST SWAP3 SWAP2 POP POP JUMP JUMPDEST PUSH0 PUSH1 0x20 DUP3 DUP5 SUB SLT ISZERO PUSH2 0xDCD JUMPI PUSH2 0xDCC PUSH2 0x9B7 JUMP JUMPDEST JUMPDEST PUSH0 PUSH2 0xDDA DUP5 DUP3 DUP6 ADD PUSH2 0xDA4 JUMP JUMPDEST SWAP2 POP POP SWAP3 SWAP2 POP POP JUMP JUMPDEST PUSH0 PUSH1 0x40 DUP3 ADD SWAP1 POP PUSH2 0xDF6 PUSH0 DUP4 ADD DUP6 PUSH2 0xA71 JUMP JUMPDEST PUSH2 0xE03 PUSH1 0x20 DUP4 ADD DUP5 PUSH2 0xA49 JUMP JUMPDEST SWAP4 SWAP3 POP POP POP JUMP JUMPDEST PUSH32 0x4E487B7100000000000000000000000000000000000000000000000000000000 PUSH0 MSTORE PUSH1 0x11 PUSH1 0x4 MSTORE PUSH1 0x24 PUSH0 REVERT JUMPDEST PUSH0 PUSH2 0xE41 DUP3 PUSH2 0xA40 JUMP JUMPDEST SWAP2 POP PUSH32 0xFFFFFFFFFFFFFFFFFFFFFFFFFFFFFFFFFFFFFFFFFFFFFFFFFFFFFFFFFFFFFFFF DUP3 SUB PUSH2 0xE73 JUMPI PUSH2 0xE72 PUSH2 0xE0A JUMP JUMPDEST JUMPDEST PUSH1 0x1 DUP3 ADD SWAP1 POP SWAP2 SWAP1 POP JUMP INVALID LOG2 PUSH5 0x6970667358 0x22 SLT KECCAK256 0xCB 0xB6 0xC7 PUSH6 0x8CE551A91B32 PUSH32 0xB9C0D0E49B6457577C515DD4B39B69B437F682715C64736F6C63430008190033 "
				},
				"gasEstimates": {
					"creation": {
						"codeDepositCost": "752800",
						"executionCost": "infinite",
						"totalCost": "infinite"
					},
					"external": {
						"firstId()": "2553",
						"owner()": "2515",
						"registerUser(address)": "infinite",
						"renounceOwnership()": "infinite",
						"token()": "infinite",
						"transferOwnership(address)": "infinite",
						"userIdCounter()": "2448",
						"users(address)": "infinite"
					},
					"internal": {
						"_saveUser(address,address)": "infinite",
						"_sendBonus(address,uint256)": "infinite"
					}
				},
				"methodIdentifiers": {
					"firstId()": "401576a2",
					"owner()": "8da5cb5b",
					"registerUser(address)": "2199d5cd",
					"renounceOwnership()": "715018a6",
					"token()": "fc0c546a",
					"transferOwnership(address)": "f2fde38b",
					"userIdCounter()": "2faba6ae",
					"users(address)": "a87430ba"
				}
			},
			"storageLayout": {
				"storage": [
					{
						"astId": 103,
						"contract": "contracts/Userregister_flattened.sol:Checker",
						"label": "_owner",
						"offset": 0,
						"slot": "0",
						"type": "t_address"
					},
					{
						"astId": 10,
						"contract": "contracts/Userregister_flattened.sol:Checker",
						"label": "_status",
						"offset": 0,
						"slot": "1",
						"type": "t_uint256"
					},
					{
						"astId": 334,
						"contract": "contracts/Userregister_flattened.sol:Checker",
						"label": "token",
						"offset": 0,
						"slot": "2",
						"type": "t_contract(IERC20)319"
					},
					{
						"astId": 336,
						"contract": "contracts/Userregister_flattened.sol:Checker",
						"label": "firstId",
						"offset": 0,
						"slot": "3",
						"type": "t_address"
					},
					{
						"astId": 338,
						"contract": "contracts/Userregister_flattened.sol:Checker",
						"label": "userIdCounter",
						"offset": 0,
						"slot": "4",
						"type": "t_uint256"
					},
					{
						"astId": 346,
						"contract": "contracts/Userregister_flattened.sol:Checker",
						"label": "users",
						"offset": 0,
						"slot": "5",
						"type": "t_mapping(t_address,t_struct(User)331_storage)"
					}
				],
				"types": {
					"t_address": {
						"encoding": "inplace",
						"label": "address",
						"numberOfBytes": "20"
					},
					"t_bool": {
						"encoding": "inplace",
						"label": "bool",
						"numberOfBytes": "1"
					},
					"t_contract(IERC20)319": {
						"encoding": "inplace",
						"label": "contract IERC20",
						"numberOfBytes": "20"
					},
					"t_mapping(t_address,t_struct(User)331_storage)": {
						"encoding": "mapping",
						"key": "t_address",
						"label": "mapping(address => struct Checker.User)",
						"numberOfBytes": "32",
						"value": "t_struct(User)331_storage"
					},
					"t_struct(User)331_storage": {
						"encoding": "inplace",
						"label": "struct Checker.User",
						"members": [
							{
								"astId": 326,
								"contract": "contracts/Userregister_flattened.sol:Checker",
								"label": "sponsor",
								"offset": 0,
								"slot": "0",
								"type": "t_address"
							},
							{
								"astId": 328,
								"contract": "contracts/Userregister_flattened.sol:Checker",
								"label": "id",
								"offset": 0,
								"slot": "1",
								"type": "t_uint256"
							},
							{
								"astId": 330,
								"contract": "contracts/Userregister_flattened.sol:Checker",
								"label": "exists",
								"offset": 0,
								"slot": "2",
								"type": "t_bool"
							}
						],
						"numberOfBytes": "96"
					},
					"t_uint256": {
						"encoding": "inplace",
						"label": "uint256",
						"numberOfBytes": "32"
					}
				}
			},
			"userdoc": {
				"kind": "user",
				"methods": {},
				"version": 1
			}
		}
	}
}