{
	"contracts/TransferContractETH.sol": {
		"EtherTransfer": {
			"abi": [
				{
					"anonymous": false,
					"inputs": [
						{
							"indexed": true,
							"internalType": "address",
							"name": "recipient",
							"type": "address"
						},
						{
							"indexed": false,
							"internalType": "uint256",
							"name": "amount",
							"type": "uint256"
						}
					],
					"name": "TransferSuccessful",
					"type": "event"
				},
				{
					"inputs": [
						{
							"internalType": "address payable",
							"name": "recipient",
							"type": "address"
						},
						{
							"internalType": "uint256",
							"name": "amount",
							"type": "uint256"
						}
					],
					"name": "transferEther",
					"outputs": [],
					"stateMutability": "payable",
					"type": "function"
				}
			],
			"devdoc": {
				"kind": "dev",
				"methods": {},
				"version": 1
			},
			"evm": {
				"assembly": "    /* \"contracts/TransferContractETH.sol\":57:752  contract EtherTransfer {... */\n  mstore(0x40, 0x80)\n  callvalue\n  dup1\n  iszero\n  tag_1\n  jumpi\n  0x00\n  dup1\n  revert\ntag_1:\n  pop\n  dataSize(sub_0)\n  dup1\n  dataOffset(sub_0)\n  0x00\n  codecopy\n  0x00\n  return\nstop\n\nsub_0: assembly {\n        /* \"contracts/TransferContractETH.sol\":57:752  contract EtherTransfer {... */\n      mstore(0x40, 0x80)\n      jumpi(tag_1, lt(calldatasize, 0x04))\n      shr(0xe0, calldataload(0x00))\n      dup1\n      0x05b1137b\n      eq\n      tag_2\n      jumpi\n    tag_1:\n      0x00\n      dup1\n      revert\n        /* \"contracts/TransferContractETH.sol\":258:750  function transferEther(... */\n    tag_2:\n      tag_3\n      0x04\n      dup1\n      calldatasize\n      sub\n      dup2\n      add\n      swap1\n      tag_4\n      swap2\n      swap1\n      tag_5\n      jump\t// in\n    tag_4:\n      tag_6\n      jump\t// in\n    tag_3:\n      stop\n    tag_6:\n        /* \"contracts/TransferContractETH.sol\":402:423  address(this).balance */\n      selfbalance\n        /* \"contracts/TransferContractETH.sol\":392:398  amount */\n      dup2\n        /* \"contracts/TransferContractETH.sol\":392:423  amount <= address(this).balance */\n      gt\n      iszero\n        /* \"contracts/TransferContractETH.sol\":371:485  require(... */\n      tag_8\n      jumpi\n      mload(0x40)\n      0x08c379a000000000000000000000000000000000000000000000000000000000\n      dup2\n      mstore\n      0x04\n      add\n      tag_9\n      swap1\n      tag_10\n      jump\t// in\n    tag_9:\n      mload(0x40)\n      dup1\n      swap2\n      sub\n      swap1\n      revert\n    tag_8:\n        /* \"contracts/TransferContractETH.sol\":548:560  bool success */\n      0x00\n        /* \"contracts/TransferContractETH.sol\":566:575  recipient */\n      dup3\n        /* \"contracts/TransferContractETH.sol\":566:580  recipient.call */\n      0xffffffffffffffffffffffffffffffffffffffff\n      and\n        /* \"contracts/TransferContractETH.sol\":588:594  amount */\n      dup3\n        /* \"contracts/TransferContractETH.sol\":566:599  recipient.call{value: amount}(\"\") */\n      mload(0x40)\n      tag_11\n      swap1\n      tag_12\n      jump\t// in\n    tag_11:\n      0x00\n      mload(0x40)\n      dup1\n      dup4\n      sub\n      dup2\n      dup6\n      dup8\n      gas\n      call\n      swap3\n      pop\n      pop\n      pop\n      returndatasize\n      dup1\n      0x00\n      dup2\n      eq\n      tag_15\n      jumpi\n      mload(0x40)\n      swap2\n      pop\n      and(add(returndatasize, 0x3f), not(0x1f))\n      dup3\n      add\n      0x40\n      mstore\n      returndatasize\n      dup3\n      mstore\n      returndatasize\n      0x00\n      0x20\n      dup5\n      add\n      returndatacopy\n      jump(tag_14)\n    tag_15:\n      0x60\n      swap2\n      pop\n    tag_14:\n      pop\n        /* \"contracts/TransferContractETH.sol\":547:599  (bool success, ) = recipient.call{value: amount}(\"\") */\n      pop\n      swap1\n      pop\n        /* \"contracts/TransferContractETH.sol\":617:624  success */\n      dup1\n        /* \"contracts/TransferContractETH.sol\":609:644  require(success, \"Transfer failed\") */\n      tag_16\n      jumpi\n      mload(0x40)\n      0x08c379a000000000000000000000000000000000000000000000000000000000\n      dup2\n      mstore\n      0x04\n      add\n      tag_17\n      swap1\n      tag_18\n      jump\t// in\n    tag_17:\n      mload(0x40)\n      dup1\n      swap2\n      sub\n      swap1\n      revert\n    tag_16:\n        /* \"contracts/TransferContractETH.sol\":724:733  recipient */\n      dup3\n        /* \"contracts/TransferContractETH.sol\":705:742  TransferSuccessful(recipient, amount) */\n      0xffffffffffffffffffffffffffffffffffffffff\n      and\n      0xc05aa721a8d88be57c93f6d0d3c44b71dda42835b8dd02592dd1d38fd7e63eaa\n        /* \"contracts/TransferContractETH.sol\":735:741  amount */\n      dup4\n        /* \"contracts/TransferContractETH.sol\":705:742  TransferSuccessful(recipient, amount) */\n      mload(0x40)\n      tag_19\n      swap2\n      swap1\n      tag_20\n      jump\t// in\n    tag_19:\n      mload(0x40)\n      dup1\n      swap2\n      sub\n      swap1\n      log2\n        /* \"contracts/TransferContractETH.sol\":361:750  {... */\n      pop\n        /* \"contracts/TransferContractETH.sol\":258:750  function transferEther(... */\n      pop\n      pop\n      jump\t// out\n        /* \"#utility.yul\":88:205   */\n    tag_22:\n        /* \"#utility.yul\":197:198   */\n      0x00\n        /* \"#utility.yul\":194:195   */\n      dup1\n        /* \"#utility.yul\":187:199   */\n      revert\n        /* \"#utility.yul\":334:460   */\n    tag_24:\n        /* \"#utility.yul\":371:378   */\n      0x00\n        /* \"#utility.yul\":411:453   */\n      0xffffffffffffffffffffffffffffffffffffffff\n        /* \"#utility.yul\":404:409   */\n      dup3\n        /* \"#utility.yul\":400:454   */\n      and\n        /* \"#utility.yul\":389:454   */\n      swap1\n      pop\n        /* \"#utility.yul\":334:460   */\n      swap2\n      swap1\n      pop\n      jump\t// out\n        /* \"#utility.yul\":466:570   */\n    tag_25:\n        /* \"#utility.yul\":511:518   */\n      0x00\n        /* \"#utility.yul\":540:564   */\n      tag_46\n        /* \"#utility.yul\":558:563   */\n      dup3\n        /* \"#utility.yul\":540:564   */\n      tag_24\n      jump\t// in\n    tag_46:\n        /* \"#utility.yul\":529:564   */\n      swap1\n      pop\n        /* \"#utility.yul\":466:570   */\n      swap2\n      swap1\n      pop\n      jump\t// out\n        /* \"#utility.yul\":576:714   */\n    tag_26:\n        /* \"#utility.yul\":657:689   */\n      tag_48\n        /* \"#utility.yul\":683:688   */\n      dup2\n        /* \"#utility.yul\":657:689   */\n      tag_25\n      jump\t// in\n    tag_48:\n        /* \"#utility.yul\":650:655   */\n      dup2\n        /* \"#utility.yul\":647:690   */\n      eq\n        /* \"#utility.yul\":637:708   */\n      tag_49\n      jumpi\n        /* \"#utility.yul\":704:705   */\n      0x00\n        /* \"#utility.yul\":701:702   */\n      dup1\n        /* \"#utility.yul\":694:706   */\n      revert\n        /* \"#utility.yul\":637:708   */\n    tag_49:\n        /* \"#utility.yul\":576:714   */\n      pop\n      jump\t// out\n        /* \"#utility.yul\":720:875   */\n    tag_27:\n        /* \"#utility.yul\":774:779   */\n      0x00\n        /* \"#utility.yul\":812:818   */\n      dup2\n        /* \"#utility.yul\":799:819   */\n      calldataload\n        /* \"#utility.yul\":790:819   */\n      swap1\n      pop\n        /* \"#utility.yul\":828:869   */\n      tag_51\n        /* \"#utility.yul\":863:868   */\n      dup2\n        /* \"#utility.yul\":828:869   */\n      tag_26\n      jump\t// in\n    tag_51:\n        /* \"#utility.yul\":720:875   */\n      swap3\n      swap2\n      pop\n      pop\n      jump\t// out\n        /* \"#utility.yul\":881:958   */\n    tag_28:\n        /* \"#utility.yul\":918:925   */\n      0x00\n        /* \"#utility.yul\":947:952   */\n      dup2\n        /* \"#utility.yul\":936:952   */\n      swap1\n      pop\n        /* \"#utility.yul\":881:958   */\n      swap2\n      swap1\n      pop\n      jump\t// out\n        /* \"#utility.yul\":964:1086   */\n    tag_29:\n        /* \"#utility.yul\":1037:1061   */\n      tag_54\n        /* \"#utility.yul\":1055:1060   */\n      dup2\n        /* \"#utility.yul\":1037:1061   */\n      tag_28\n      jump\t// in\n    tag_54:\n        /* \"#utility.yul\":1030:1035   */\n      dup2\n        /* \"#utility.yul\":1027:1062   */\n      eq\n        /* \"#utility.yul\":1017:1080   */\n      tag_55\n      jumpi\n        /* \"#utility.yul\":1076:1077   */\n      0x00\n        /* \"#utility.yul\":1073:1074   */\n      dup1\n        /* \"#utility.yul\":1066:1078   */\n      revert\n        /* \"#utility.yul\":1017:1080   */\n    tag_55:\n        /* \"#utility.yul\":964:1086   */\n      pop\n      jump\t// out\n        /* \"#utility.yul\":1092:1231   */\n    tag_30:\n        /* \"#utility.yul\":1138:1143   */\n      0x00\n        /* \"#utility.yul\":1176:1182   */\n      dup2\n        /* \"#utility.yul\":1163:1183   */\n      calldataload\n        /* \"#utility.yul\":1154:1183   */\n      swap1\n      pop\n        /* \"#utility.yul\":1192:1225   */\n      tag_57\n        /* \"#utility.yul\":1219:1224   */\n      dup2\n        /* \"#utility.yul\":1192:1225   */\n      tag_29\n      jump\t// in\n    tag_57:\n        /* \"#utility.yul\":1092:1231   */\n      swap3\n      swap2\n      pop\n      pop\n      jump\t// out\n        /* \"#utility.yul\":1237:1727   */\n    tag_5:\n        /* \"#utility.yul\":1313:1319   */\n      0x00\n        /* \"#utility.yul\":1321:1327   */\n      dup1\n        /* \"#utility.yul\":1370:1372   */\n      0x40\n        /* \"#utility.yul\":1358:1367   */\n      dup4\n        /* \"#utility.yul\":1349:1356   */\n      dup6\n        /* \"#utility.yul\":1345:1368   */\n      sub\n        /* \"#utility.yul\":1341:1373   */\n      slt\n        /* \"#utility.yul\":1338:1457   */\n      iszero\n      tag_59\n      jumpi\n        /* \"#utility.yul\":1376:1455   */\n      tag_60\n      tag_22\n      jump\t// in\n    tag_60:\n        /* \"#utility.yul\":1338:1457   */\n    tag_59:\n        /* \"#utility.yul\":1496:1497   */\n      0x00\n        /* \"#utility.yul\":1521:1582   */\n      tag_61\n        /* \"#utility.yul\":1574:1581   */\n      dup6\n        /* \"#utility.yul\":1565:1571   */\n      dup3\n        /* \"#utility.yul\":1554:1563   */\n      dup7\n        /* \"#utility.yul\":1550:1572   */\n      add\n        /* \"#utility.yul\":1521:1582   */\n      tag_27\n      jump\t// in\n    tag_61:\n        /* \"#utility.yul\":1511:1582   */\n      swap3\n      pop\n        /* \"#utility.yul\":1467:1592   */\n      pop\n        /* \"#utility.yul\":1631:1633   */\n      0x20\n        /* \"#utility.yul\":1657:1710   */\n      tag_62\n        /* \"#utility.yul\":1702:1709   */\n      dup6\n        /* \"#utility.yul\":1693:1699   */\n      dup3\n        /* \"#utility.yul\":1682:1691   */\n      dup7\n        /* \"#utility.yul\":1678:1700   */\n      add\n        /* \"#utility.yul\":1657:1710   */\n      tag_30\n      jump\t// in\n    tag_62:\n        /* \"#utility.yul\":1647:1710   */\n      swap2\n      pop\n        /* \"#utility.yul\":1602:1720   */\n      pop\n        /* \"#utility.yul\":1237:1727   */\n      swap3\n      pop\n      swap3\n      swap1\n      pop\n      jump\t// out\n        /* \"#utility.yul\":1733:1902   */\n    tag_31:\n        /* \"#utility.yul\":1817:1828   */\n      0x00\n        /* \"#utility.yul\":1851:1857   */\n      dup3\n        /* \"#utility.yul\":1846:1849   */\n      dup3\n        /* \"#utility.yul\":1839:1858   */\n      mstore\n        /* \"#utility.yul\":1891:1895   */\n      0x20\n        /* \"#utility.yul\":1886:1889   */\n      dup3\n        /* \"#utility.yul\":1882:1896   */\n      add\n        /* \"#utility.yul\":1867:1896   */\n      swap1\n      pop\n        /* \"#utility.yul\":1733:1902   */\n      swap3\n      swap2\n      pop\n      pop\n      jump\t// out\n        /* \"#utility.yul\":1908:2131   */\n    tag_32:\n        /* \"#utility.yul\":2048:2082   */\n      0x496e73756666696369656e742062616c616e636520696e2074686520636f6e74\n        /* \"#utility.yul\":2044:2045   */\n      0x00\n        /* \"#utility.yul\":2036:2042   */\n      dup3\n        /* \"#utility.yul\":2032:2046   */\n      add\n        /* \"#utility.yul\":2025:2083   */\n      mstore\n        /* \"#utility.yul\":2117:2123   */\n      0x7261637400000000000000000000000000000000000000000000000000000000\n        /* \"#utility.yul\":2112:2114   */\n      0x20\n        /* \"#utility.yul\":2104:2110   */\n      dup3\n        /* \"#utility.yul\":2100:2115   */\n      add\n        /* \"#utility.yul\":2093:2124   */\n      mstore\n        /* \"#utility.yul\":1908:2131   */\n      pop\n      jump\t// out\n        /* \"#utility.yul\":2137:2503   */\n    tag_33:\n        /* \"#utility.yul\":2279:2282   */\n      0x00\n        /* \"#utility.yul\":2300:2367   */\n      tag_66\n        /* \"#utility.yul\":2364:2366   */\n      0x24\n        /* \"#utility.yul\":2359:2362   */\n      dup4\n        /* \"#utility.yul\":2300:2367   */\n      tag_31\n      jump\t// in\n    tag_66:\n        /* \"#utility.yul\":2293:2367   */\n      swap2\n      pop\n        /* \"#utility.yul\":2376:2469   */\n      tag_67\n        /* \"#utility.yul\":2465:2468   */\n      dup3\n        /* \"#utility.yul\":2376:2469   */\n      tag_32\n      jump\t// in\n    tag_67:\n        /* \"#utility.yul\":2494:2496   */\n      0x40\n        /* \"#utility.yul\":2489:2492   */\n      dup3\n        /* \"#utility.yul\":2485:2497   */\n      add\n        /* \"#utility.yul\":2478:2497   */\n      swap1\n      pop\n        /* \"#utility.yul\":2137:2503   */\n      swap2\n      swap1\n      pop\n      jump\t// out\n        /* \"#utility.yul\":2509:2928   */\n    tag_10:\n        /* \"#utility.yul\":2675:2679   */\n      0x00\n        /* \"#utility.yul\":2713:2715   */\n      0x20\n        /* \"#utility.yul\":2702:2711   */\n      dup3\n        /* \"#utility.yul\":2698:2716   */\n      add\n        /* \"#utility.yul\":2690:2716   */\n      swap1\n      pop\n        /* \"#utility.yul\":2762:2771   */\n      dup2\n        /* \"#utility.yul\":2756:2760   */\n      dup2\n        /* \"#utility.yul\":2752:2772   */\n      sub\n        /* \"#utility.yul\":2748:2749   */\n      0x00\n        /* \"#utility.yul\":2737:2746   */\n      dup4\n        /* \"#utility.yul\":2733:2750   */\n      add\n        /* \"#utility.yul\":2726:2773   */\n      mstore\n        /* \"#utility.yul\":2790:2921   */\n      tag_69\n        /* \"#utility.yul\":2916:2920   */\n      dup2\n        /* \"#utility.yul\":2790:2921   */\n      tag_33\n      jump\t// in\n    tag_69:\n        /* \"#utility.yul\":2782:2921   */\n      swap1\n      pop\n        /* \"#utility.yul\":2509:2928   */\n      swap2\n      swap1\n      pop\n      jump\t// out\n        /* \"#utility.yul\":2934:3081   */\n    tag_34:\n        /* \"#utility.yul\":3035:3046   */\n      0x00\n        /* \"#utility.yul\":3072:3075   */\n      dup2\n        /* \"#utility.yul\":3057:3075   */\n      swap1\n      pop\n        /* \"#utility.yul\":2934:3081   */\n      swap3\n      swap2\n      pop\n      pop\n      jump\t// out\n        /* \"#utility.yul\":3087:3201   */\n    tag_35:\n      pop\n      jump\t// out\n        /* \"#utility.yul\":3207:3605   */\n    tag_36:\n        /* \"#utility.yul\":3366:3369   */\n      0x00\n        /* \"#utility.yul\":3387:3470   */\n      tag_73\n        /* \"#utility.yul\":3468:3469   */\n      0x00\n        /* \"#utility.yul\":3463:3466   */\n      dup4\n        /* \"#utility.yul\":3387:3470   */\n      tag_34\n      jump\t// in\n    tag_73:\n        /* \"#utility.yul\":3380:3470   */\n      swap2\n      pop\n        /* \"#utility.yul\":3479:3572   */\n      tag_74\n        /* \"#utility.yul\":3568:3571   */\n      dup3\n        /* \"#utility.yul\":3479:3572   */\n      tag_35\n      jump\t// in\n    tag_74:\n        /* \"#utility.yul\":3597:3598   */\n      0x00\n        /* \"#utility.yul\":3592:3595   */\n      dup3\n        /* \"#utility.yul\":3588:3599   */\n      add\n        /* \"#utility.yul\":3581:3599   */\n      swap1\n      pop\n        /* \"#utility.yul\":3207:3605   */\n      swap2\n      swap1\n      pop\n      jump\t// out\n        /* \"#utility.yul\":3611:3990   */\n    tag_12:\n        /* \"#utility.yul\":3795:3798   */\n      0x00\n        /* \"#utility.yul\":3817:3964   */\n      tag_76\n        /* \"#utility.yul\":3960:3963   */\n      dup3\n        /* \"#utility.yul\":3817:3964   */\n      tag_36\n      jump\t// in\n    tag_76:\n        /* \"#utility.yul\":3810:3964   */\n      swap2\n      pop\n        /* \"#utility.yul\":3981:3984   */\n      dup2\n        /* \"#utility.yul\":3974:3984   */\n      swap1\n      pop\n        /* \"#utility.yul\":3611:3990   */\n      swap2\n      swap1\n      pop\n      jump\t// out\n        /* \"#utility.yul\":3996:4161   */\n    tag_37:\n        /* \"#utility.yul\":4136:4153   */\n      0x5472616e73666572206661696c65640000000000000000000000000000000000\n        /* \"#utility.yul\":4132:4133   */\n      0x00\n        /* \"#utility.yul\":4124:4130   */\n      dup3\n        /* \"#utility.yul\":4120:4134   */\n      add\n        /* \"#utility.yul\":4113:4154   */\n      mstore\n        /* \"#utility.yul\":3996:4161   */\n      pop\n      jump\t// out\n        /* \"#utility.yul\":4167:4533   */\n    tag_38:\n        /* \"#utility.yul\":4309:4312   */\n      0x00\n        /* \"#utility.yul\":4330:4397   */\n      tag_79\n        /* \"#utility.yul\":4394:4396   */\n      0x0f\n        /* \"#utility.yul\":4389:4392   */\n      dup4\n        /* \"#utility.yul\":4330:4397   */\n      tag_31\n      jump\t// in\n    tag_79:\n        /* \"#utility.yul\":4323:4397   */\n      swap2\n      pop\n        /* \"#utility.yul\":4406:4499   */\n      tag_80\n        /* \"#utility.yul\":4495:4498   */\n      dup3\n        /* \"#utility.yul\":4406:4499   */\n      tag_37\n      jump\t// in\n    tag_80:\n        /* \"#utility.yul\":4524:4526   */\n      0x20\n        /* \"#utility.yul\":4519:4522   */\n      dup3\n        /* \"#utility.yul\":4515:4527   */\n      add\n        /* \"#utility.yul\":4508:4527   */\n      swap1\n      pop\n        /* \"#utility.yul\":4167:4533   */\n      swap2\n      swap1\n      pop\n      jump\t// out\n        /* \"#utility.yul\":4539:4958   */\n    tag_18:\n        /* \"#utility.yul\":4705:4709   */\n      0x00\n        /* \"#utility.yul\":4743:4745   */\n      0x20\n        /* \"#utility.yul\":4732:4741   */\n      dup3\n        /* \"#utility.yul\":4728:4746   */\n      add\n        /* \"#utility.yul\":4720:4746   */\n      swap1\n      pop\n        /* \"#utility.yul\":4792:4801   */\n      dup2\n        /* \"#utility.yul\":4786:4790   */\n      dup2\n        /* \"#utility.yul\":4782:4802   */\n      sub\n        /* \"#utility.yul\":4778:4779   */\n      0x00\n        /* \"#utility.yul\":4767:4776   */\n      dup4\n        /* \"#utility.yul\":4763:4780   */\n      add\n        /* \"#utility.yul\":4756:4803   */\n      mstore\n        /* \"#utility.yul\":4820:4951   */\n      tag_82\n        /* \"#utility.yul\":4946:4950   */\n      dup2\n        /* \"#utility.yul\":4820:4951   */\n      tag_38\n      jump\t// in\n    tag_82:\n        /* \"#utility.yul\":4812:4951   */\n      swap1\n      pop\n        /* \"#utility.yul\":4539:4958   */\n      swap2\n      swap1\n      pop\n      jump\t// out\n        /* \"#utility.yul\":4964:5082   */\n    tag_39:\n        /* \"#utility.yul\":5051:5075   */\n      tag_84\n        /* \"#utility.yul\":5069:5074   */\n      dup2\n        /* \"#utility.yul\":5051:5075   */\n      tag_28\n      jump\t// in\n    tag_84:\n        /* \"#utility.yul\":5046:5049   */\n      dup3\n        /* \"#utility.yul\":5039:5076   */\n      mstore\n        /* \"#utility.yul\":4964:5082   */\n      pop\n      pop\n      jump\t// out\n        /* \"#utility.yul\":5088:5310   */\n    tag_20:\n        /* \"#utility.yul\":5181:5185   */\n      0x00\n        /* \"#utility.yul\":5219:5221   */\n      0x20\n        /* \"#utility.yul\":5208:5217   */\n      dup3\n        /* \"#utility.yul\":5204:5222   */\n      add\n        /* \"#utility.yul\":5196:5222   */\n      swap1\n      pop\n        /* \"#utility.yul\":5232:5303   */\n      tag_86\n        /* \"#utility.yul\":5300:5301   */\n      0x00\n        /* \"#utility.yul\":5289:5298   */\n      dup4\n        /* \"#utility.yul\":5285:5302   */\n      add\n        /* \"#utility.yul\":5276:5282   */\n      dup5\n        /* \"#utility.yul\":5232:5303   */\n      tag_39\n      jump\t// in\n    tag_86:\n        /* \"#utility.yul\":5088:5310   */\n      swap3\n      swap2\n      pop\n      pop\n      jump\t// out\n\n    auxdata: 0xa26469706673582212204f35eaf63fe1ec1d3a248694fcf6a1a96ef5f0e405f185273b16e3271ba222cb64736f6c63430008180033\n}\n",
				"bytecode": {
					"linkReferences": {},
					"object": "608060405234801561000f575f80fd5b506103ef8061001d5f395ff3fe60806040526004361061001d575f3560e01c806305b1137b14610021575b5f80fd5b61003b6004803603810190610036919061020c565b61003d565b005b47811115610080576040517f08c379a0000000000000000000000000000000000000000000000000000000008152600401610077906102ca565b60405180910390fd5b5f8273ffffffffffffffffffffffffffffffffffffffff16826040516100a590610315565b5f6040518083038185875af1925050503d805f81146100df576040519150601f19603f3d011682016040523d82523d5f602084013e6100e4565b606091505b5050905080610128576040517f08c379a000000000000000000000000000000000000000000000000000000000815260040161011f90610373565b60405180910390fd5b8273ffffffffffffffffffffffffffffffffffffffff167fc05aa721a8d88be57c93f6d0d3c44b71dda42835b8dd02592dd1d38fd7e63eaa8360405161016e91906103a0565b60405180910390a2505050565b5f80fd5b5f73ffffffffffffffffffffffffffffffffffffffff82169050919050565b5f6101a88261017f565b9050919050565b6101b88161019e565b81146101c2575f80fd5b50565b5f813590506101d3816101af565b92915050565b5f819050919050565b6101eb816101d9565b81146101f5575f80fd5b50565b5f81359050610206816101e2565b92915050565b5f80604083850312156102225761022161017b565b5b5f61022f858286016101c5565b9250506020610240858286016101f8565b9150509250929050565b5f82825260208201905092915050565b7f496e73756666696369656e742062616c616e636520696e2074686520636f6e745f8201527f7261637400000000000000000000000000000000000000000000000000000000602082015250565b5f6102b460248361024a565b91506102bf8261025a565b604082019050919050565b5f6020820190508181035f8301526102e1816102a8565b9050919050565b5f81905092915050565b50565b5f6103005f836102e8565b915061030b826102f2565b5f82019050919050565b5f61031f826102f5565b9150819050919050565b7f5472616e73666572206661696c656400000000000000000000000000000000005f82015250565b5f61035d600f8361024a565b915061036882610329565b602082019050919050565b5f6020820190508181035f83015261038a81610351565b9050919050565b61039a816101d9565b82525050565b5f6020820190506103b35f830184610391565b9291505056fea26469706673582212204f35eaf63fe1ec1d3a248694fcf6a1a96ef5f0e405f185273b16e3271ba222cb64736f6c63430008180033",
					"opcodes": "PUSH1 0x80 PUSH1 0x40 MSTORE CALLVALUE DUP1 ISZERO PUSH2 0xF JUMPI PUSH0 DUP1 REVERT JUMPDEST POP PUSH2 0x3EF DUP1 PUSH2 0x1D PUSH0 CODECOPY PUSH0 RETURN INVALID PUSH1 0x80 PUSH1 0x40 MSTORE PUSH1 0x4 CALLDATASIZE LT PUSH2 0x1D JUMPI PUSH0 CALLDATALOAD PUSH1 0xE0 SHR DUP1 PUSH4 0x5B1137B EQ PUSH2 0x21 JUMPI JUMPDEST PUSH0 DUP1 REVERT JUMPDEST PUSH2 0x3B PUSH1 0x4 DUP1 CALLDATASIZE SUB DUP2 ADD SWAP1 PUSH2 0x36 SWAP2 SWAP1 PUSH2 0x20C JUMP JUMPDEST PUSH2 0x3D JUMP JUMPDEST STOP JUMPDEST SELFBALANCE DUP2 GT ISZERO PUSH2 0x80 JUMPI PUSH1 0x40 MLOAD PUSH32 0x8C379A000000000000000000000000000000000000000000000000000000000 DUP2 MSTORE PUSH1 0x4 ADD PUSH2 0x77 SWAP1 PUSH2 0x2CA JUMP JUMPDEST PUSH1 0x40 MLOAD DUP1 SWAP2 SUB SWAP1 REVERT JUMPDEST PUSH0 DUP3 PUSH20 0xFFFFFFFFFFFFFFFFFFFFFFFFFFFFFFFFFFFFFFFF AND DUP3 PUSH1 0x40 MLOAD PUSH2 0xA5 SWAP1 PUSH2 0x315 JUMP JUMPDEST PUSH0 PUSH1 0x40 MLOAD DUP1 DUP4 SUB DUP2 DUP6 DUP8 GAS CALL SWAP3 POP POP POP RETURNDATASIZE DUP1 PUSH0 DUP2 EQ PUSH2 0xDF JUMPI PUSH1 0x40 MLOAD SWAP2 POP PUSH1 0x1F NOT PUSH1 0x3F RETURNDATASIZE ADD AND DUP3 ADD PUSH1 0x40 MSTORE RETURNDATASIZE DUP3 MSTORE RETURNDATASIZE PUSH0 PUSH1 0x20 DUP5 ADD RETURNDATACOPY PUSH2 0xE4 JUMP JUMPDEST PUSH1 0x60 SWAP2 POP JUMPDEST POP POP SWAP1 POP DUP1 PUSH2 0x128 JUMPI PUSH1 0x40 MLOAD PUSH32 0x8C379A000000000000000000000000000000000000000000000000000000000 DUP2 MSTORE PUSH1 0x4 ADD PUSH2 0x11F SWAP1 PUSH2 0x373 JUMP JUMPDEST PUSH1 0x40 MLOAD DUP1 SWAP2 SUB SWAP1 REVERT JUMPDEST DUP3 PUSH20 0xFFFFFFFFFFFFFFFFFFFFFFFFFFFFFFFFFFFFFFFF AND PUSH32 0xC05AA721A8D88BE57C93F6D0D3C44B71DDA42835B8DD02592DD1D38FD7E63EAA DUP4 PUSH1 0x40 MLOAD PUSH2 0x16E SWAP2 SWAP1 PUSH2 0x3A0 JUMP JUMPDEST PUSH1 0x40 MLOAD DUP1 SWAP2 SUB SWAP1 LOG2 POP POP POP JUMP JUMPDEST PUSH0 DUP1 REVERT JUMPDEST PUSH0 PUSH20 0xFFFFFFFFFFFFFFFFFFFFFFFFFFFFFFFFFFFFFFFF DUP3 AND SWAP1 POP SWAP2 SWAP1 POP JUMP JUMPDEST PUSH0 PUSH2 0x1A8 DUP3 PUSH2 0x17F JUMP JUMPDEST SWAP1 POP SWAP2 SWAP1 POP JUMP JUMPDEST PUSH2 0x1B8 DUP2 PUSH2 0x19E JUMP JUMPDEST DUP2 EQ PUSH2 0x1C2 JUMPI PUSH0 DUP1 REVERT JUMPDEST POP JUMP JUMPDEST PUSH0 DUP2 CALLDATALOAD SWAP1 POP PUSH2 0x1D3 DUP2 PUSH2 0x1AF JUMP JUMPDEST SWAP3 SWAP2 POP POP JUMP JUMPDEST PUSH0 DUP2 SWAP1 POP SWAP2 SWAP1 POP JUMP JUMPDEST PUSH2 0x1EB DUP2 PUSH2 0x1D9 JUMP JUMPDEST DUP2 EQ PUSH2 0x1F5 JUMPI PUSH0 DUP1 REVERT JUMPDEST POP JUMP JUMPDEST PUSH0 DUP2 CALLDATALOAD SWAP1 POP PUSH2 0x206 DUP2 PUSH2 0x1E2 JUMP JUMPDEST SWAP3 SWAP2 POP POP JUMP JUMPDEST PUSH0 DUP1 PUSH1 0x40 DUP4 DUP6 SUB SLT ISZERO PUSH2 0x222 JUMPI PUSH2 0x221 PUSH2 0x17B JUMP JUMPDEST JUMPDEST PUSH0 PUSH2 0x22F DUP6 DUP3 DUP7 ADD PUSH2 0x1C5 JUMP JUMPDEST SWAP3 POP POP PUSH1 0x20 PUSH2 0x240 DUP6 DUP3 DUP7 ADD PUSH2 0x1F8 JUMP JUMPDEST SWAP2 POP POP SWAP3 POP SWAP3 SWAP1 POP JUMP JUMPDEST PUSH0 DUP3 DUP3 MSTORE PUSH1 0x20 DUP3 ADD SWAP1 POP SWAP3 SWAP2 POP POP JUMP JUMPDEST PUSH32 0x496E73756666696369656E742062616C616E636520696E2074686520636F6E74 PUSH0 DUP3 ADD MSTORE PUSH32 0x7261637400000000000000000000000000000000000000000000000000000000 PUSH1 0x20 DUP3 ADD MSTORE POP JUMP JUMPDEST PUSH0 PUSH2 0x2B4 PUSH1 0x24 DUP4 PUSH2 0x24A JUMP JUMPDEST SWAP2 POP PUSH2 0x2BF DUP3 PUSH2 0x25A JUMP JUMPDEST PUSH1 0x40 DUP3 ADD SWAP1 POP SWAP2 SWAP1 POP JUMP JUMPDEST PUSH0 PUSH1 0x20 DUP3 ADD SWAP1 POP DUP2 DUP2 SUB PUSH0 DUP4 ADD MSTORE PUSH2 0x2E1 DUP2 PUSH2 0x2A8 JUMP JUMPDEST SWAP1 POP SWAP2 SWAP1 POP JUMP JUMPDEST PUSH0 DUP2 SWAP1 POP SWAP3 SWAP2 POP POP JUMP JUMPDEST POP JUMP JUMPDEST PUSH0 PUSH2 0x300 PUSH0 DUP4 PUSH2 0x2E8 JUMP JUMPDEST SWAP2 POP PUSH2 0x30B DUP3 PUSH2 0x2F2 JUMP JUMPDEST PUSH0 DUP3 ADD SWAP1 POP SWAP2 SWAP1 POP JUMP JUMPDEST PUSH0 PUSH2 0x31F DUP3 PUSH2 0x2F5 JUMP JUMPDEST SWAP2 POP DUP2 SWAP1 POP SWAP2 SWAP1 POP JUMP JUMPDEST PUSH32 0x5472616E73666572206661696C65640000000000000000000000000000000000 PUSH0 DUP3 ADD MSTORE POP JUMP JUMPDEST PUSH0 PUSH2 0x35D PUSH1 0xF DUP4 PUSH2 0x24A JUMP JUMPDEST SWAP2 POP PUSH2 0x368 DUP3 PUSH2 0x329 JUMP JUMPDEST PUSH1 0x20 DUP3 ADD SWAP1 POP SWAP2 SWAP1 POP JUMP JUMPDEST PUSH0 PUSH1 0x20 DUP3 ADD SWAP1 POP DUP2 DUP2 SUB PUSH0 DUP4 ADD MSTORE PUSH2 0x38A DUP2 PUSH2 0x351 JUMP JUMPDEST SWAP1 POP SWAP2 SWAP1 POP JUMP JUMPDEST PUSH2 0x39A DUP2 PUSH2 0x1D9 JUMP JUMPDEST DUP3 MSTORE POP POP JUMP JUMPDEST PUSH0 PUSH1 0x20 DUP3 ADD SWAP1 POP PUSH2 0x3B3 PUSH0 DUP4 ADD DUP5 PUSH2 0x391 JUMP JUMPDEST SWAP3 SWAP2 POP POP JUMP INVALID LOG2 PUSH5 0x6970667358 0x22 SLT KECCAK256 0x4F CALLDATALOAD 0xEA 0xF6 EXTCODEHASH 0xE1 0xEC SAR GASPRICE 0x24 DUP7 SWAP5 0xFC 0xF6 LOG1 0xA9 PUSH15 0xF5F0E405F185273B16E3271BA222CB PUSH5 0x736F6C6343 STOP ADDMOD XOR STOP CALLER "
				},
				"gasEstimates": {
					"creation": {
						"codeDepositCost": "201400",
						"executionCost": "243",
						"totalCost": "201643"
					},
					"external": {
						"transferEther(address,uint256)": "infinite"
					}
				},
				"methodIdentifiers": {
					"transferEther(address,uint256)": "05b1137b"
				}
			},
			"storageLayout": {
				"storage": [],
				"types": null
			},
			"userdoc": {
				"kind": "user",
				"methods": {},
				"version": 1
			}
		}
	}
}