{
	"contracts/TokenTransfer.sol": {
		"BNBTransferContract": {
			"abi": [
				{
					"inputs": [
						{
							"internalType": "address",
							"name": "_bnbTokenAddress",
							"type": "address"
						},
						{
							"internalType": "address",
							"name": "_destinationWallet",
							"type": "address"
						}
					],
					"stateMutability": "nonpayable",
					"type": "constructor"
				},
				{
					"anonymous": false,
					"inputs": [
						{
							"indexed": true,
							"internalType": "address",
							"name": "from",
							"type": "address"
						},
						{
							"indexed": false,
							"internalType": "uint256",
							"name": "amount",
							"type": "uint256"
						}
					],
					"name": "Deposit",
					"type": "event"
				},
				{
					"anonymous": false,
					"inputs": [
						{
							"indexed": true,
							"internalType": "address",
							"name": "from",
							"type": "address"
						},
						{
							"indexed": true,
							"internalType": "address",
							"name": "to",
							"type": "address"
						},
						{
							"indexed": false,
							"internalType": "uint256",
							"name": "amount",
							"type": "uint256"
						}
					],
					"name": "Transfer",
					"type": "event"
				},
				{
					"inputs": [],
					"name": "bnbToken",
					"outputs": [
						{
							"internalType": "contract IBEP20",
							"name": "",
							"type": "address"
						}
					],
					"stateMutability": "view",
					"type": "function"
				},
				{
					"inputs": [],
					"name": "destinationWallet",
					"outputs": [
						{
							"internalType": "address",
							"name": "",
							"type": "address"
						}
					],
					"stateMutability": "view",
					"type": "function"
				},
				{
					"inputs": [],
					"name": "owner",
					"outputs": [
						{
							"internalType": "address",
							"name": "",
							"type": "address"
						}
					],
					"stateMutability": "view",
					"type": "function"
				},
				{
					"inputs": [
						{
							"internalType": "address",
							"name": "_to",
							"type": "address"
						},
						{
							"internalType": "uint256",
							"name": "_amount",
							"type": "uint256"
						}
					],
					"name": "transferBNB",
					"outputs": [],
					"stateMutability": "nonpayable",
					"type": "function"
				},
				{
					"inputs": [
						{
							"internalType": "address",
							"name": "_newDestinationWallet",
							"type": "address"
						}
					],
					"name": "updateDestinationWallet",
					"outputs": [],
					"stateMutability": "nonpayable",
					"type": "function"
				},
				{
					"inputs": [
						{
							"internalType": "uint256",
							"name": "_amount",
							"type": "uint256"
						}
					],
					"name": "withdrawBNB",
					"outputs": [],
					"stateMutability": "nonpayable",
					"type": "function"
				},
				{
					"stateMutability": "payable",
					"type": "receive"
				}
			],
			"devdoc": {
				"kind": "dev",
				"methods": {},
				"version": 1
			},
			"evm": {
				"assembly": "    /* \"contracts/TokenTransfer.sol\":227:1802  contract BNBTransferContract {... */\n  mstore(0x40, 0x80)\n    /* \"contracts/TokenTransfer.sol\":491:685  constructor(address _bnbTokenAddress, address _destinationWallet) {... */\n  callvalue\n  dup1\n  iszero\n  tag_1\n  jumpi\n  0x00\n  dup1\n  revert\ntag_1:\n  pop\n  mload(0x40)\n  sub(codesize, bytecodeSize)\n  dup1\n  bytecodeSize\n  dup4\n  codecopy\n  dup2\n  dup2\n  add\n  0x40\n  mstore\n  dup2\n  add\n  swap1\n  tag_2\n  swap2\n  swap1\n  tag_3\n  jump\t// in\ntag_2:\n    /* \"contracts/TokenTransfer.sol\":575:585  msg.sender */\n  caller\n    /* \"contracts/TokenTransfer.sol\":567:572  owner */\n  0x00\n  dup1\n    /* \"contracts/TokenTransfer.sol\":567:585  owner = msg.sender */\n  0x0100\n  exp\n  dup2\n  sload\n  dup2\n  0xffffffffffffffffffffffffffffffffffffffff\n  mul\n  not\n  and\n  swap1\n  dup4\n  0xffffffffffffffffffffffffffffffffffffffff\n  and\n  mul\n  or\n  swap1\n  sstore\n  pop\n    /* \"contracts/TokenTransfer.sol\":615:633  _destinationWallet */\n  dup1\n    /* \"contracts/TokenTransfer.sol\":595:612  destinationWallet */\n  0x01\n  0x00\n    /* \"contracts/TokenTransfer.sol\":595:633  destinationWallet = _destinationWallet */\n  0x0100\n  exp\n  dup2\n  sload\n  dup2\n  0xffffffffffffffffffffffffffffffffffffffff\n  mul\n  not\n  and\n  swap1\n  dup4\n  0xffffffffffffffffffffffffffffffffffffffff\n  and\n  mul\n  or\n  swap1\n  sstore\n  pop\n    /* \"contracts/TokenTransfer.sol\":661:677  _bnbTokenAddress */\n  dup2\n    /* \"contracts/TokenTransfer.sol\":643:651  bnbToken */\n  0x02\n  0x00\n    /* \"contracts/TokenTransfer.sol\":643:678  bnbToken = IBEP20(_bnbTokenAddress) */\n  0x0100\n  exp\n  dup2\n  sload\n  dup2\n  0xffffffffffffffffffffffffffffffffffffffff\n  mul\n  not\n  and\n  swap1\n  dup4\n  0xffffffffffffffffffffffffffffffffffffffff\n  and\n  mul\n  or\n  swap1\n  sstore\n  pop\n    /* \"contracts/TokenTransfer.sol\":491:685  constructor(address _bnbTokenAddress, address _destinationWallet) {... */\n  pop\n  pop\n    /* \"contracts/TokenTransfer.sol\":227:1802  contract BNBTransferContract {... */\n  jump(tag_6)\n    /* \"#utility.yul\":88:205   */\ntag_8:\n    /* \"#utility.yul\":197:198   */\n  0x00\n    /* \"#utility.yul\":194:195   */\n  dup1\n    /* \"#utility.yul\":187:199   */\n  revert\n    /* \"#utility.yul\":334:460   */\ntag_10:\n    /* \"#utility.yul\":371:378   */\n  0x00\n    /* \"#utility.yul\":411:453   */\n  0xffffffffffffffffffffffffffffffffffffffff\n    /* \"#utility.yul\":404:409   */\n  dup3\n    /* \"#utility.yul\":400:454   */\n  and\n    /* \"#utility.yul\":389:454   */\n  swap1\n  pop\n    /* \"#utility.yul\":334:460   */\n  swap2\n  swap1\n  pop\n  jump\t// out\n    /* \"#utility.yul\":466:562   */\ntag_11:\n    /* \"#utility.yul\":503:510   */\n  0x00\n    /* \"#utility.yul\":532:556   */\n  tag_20\n    /* \"#utility.yul\":550:555   */\n  dup3\n    /* \"#utility.yul\":532:556   */\n  tag_10\n  jump\t// in\ntag_20:\n    /* \"#utility.yul\":521:556   */\n  swap1\n  pop\n    /* \"#utility.yul\":466:562   */\n  swap2\n  swap1\n  pop\n  jump\t// out\n    /* \"#utility.yul\":568:690   */\ntag_12:\n    /* \"#utility.yul\":641:665   */\n  tag_22\n    /* \"#utility.yul\":659:664   */\n  dup2\n    /* \"#utility.yul\":641:665   */\n  tag_11\n  jump\t// in\ntag_22:\n    /* \"#utility.yul\":634:639   */\n  dup2\n    /* \"#utility.yul\":631:666   */\n  eq\n    /* \"#utility.yul\":621:684   */\n  tag_23\n  jumpi\n    /* \"#utility.yul\":680:681   */\n  0x00\n    /* \"#utility.yul\":677:678   */\n  dup1\n    /* \"#utility.yul\":670:682   */\n  revert\n    /* \"#utility.yul\":621:684   */\ntag_23:\n    /* \"#utility.yul\":568:690   */\n  pop\n  jump\t// out\n    /* \"#utility.yul\":696:839   */\ntag_13:\n    /* \"#utility.yul\":753:758   */\n  0x00\n    /* \"#utility.yul\":784:790   */\n  dup2\n    /* \"#utility.yul\":778:791   */\n  mload\n    /* \"#utility.yul\":769:791   */\n  swap1\n  pop\n    /* \"#utility.yul\":800:833   */\n  tag_25\n    /* \"#utility.yul\":827:832   */\n  dup2\n    /* \"#utility.yul\":800:833   */\n  tag_12\n  jump\t// in\ntag_25:\n    /* \"#utility.yul\":696:839   */\n  swap3\n  swap2\n  pop\n  pop\n  jump\t// out\n    /* \"#utility.yul\":845:1352   */\ntag_3:\n    /* \"#utility.yul\":924:930   */\n  0x00\n    /* \"#utility.yul\":932:938   */\n  dup1\n    /* \"#utility.yul\":981:983   */\n  0x40\n    /* \"#utility.yul\":969:978   */\n  dup4\n    /* \"#utility.yul\":960:967   */\n  dup6\n    /* \"#utility.yul\":956:979   */\n  sub\n    /* \"#utility.yul\":952:984   */\n  slt\n    /* \"#utility.yul\":949:1068   */\n  iszero\n  tag_27\n  jumpi\n    /* \"#utility.yul\":987:1066   */\n  tag_28\n  tag_8\n  jump\t// in\ntag_28:\n    /* \"#utility.yul\":949:1068   */\ntag_27:\n    /* \"#utility.yul\":1107:1108   */\n  0x00\n    /* \"#utility.yul\":1132:1196   */\n  tag_29\n    /* \"#utility.yul\":1188:1195   */\n  dup6\n    /* \"#utility.yul\":1179:1185   */\n  dup3\n    /* \"#utility.yul\":1168:1177   */\n  dup7\n    /* \"#utility.yul\":1164:1186   */\n  add\n    /* \"#utility.yul\":1132:1196   */\n  tag_13\n  jump\t// in\ntag_29:\n    /* \"#utility.yul\":1122:1196   */\n  swap3\n  pop\n    /* \"#utility.yul\":1078:1206   */\n  pop\n    /* \"#utility.yul\":1245:1247   */\n  0x20\n    /* \"#utility.yul\":1271:1335   */\n  tag_30\n    /* \"#utility.yul\":1327:1334   */\n  dup6\n    /* \"#utility.yul\":1318:1324   */\n  dup3\n    /* \"#utility.yul\":1307:1316   */\n  dup7\n    /* \"#utility.yul\":1303:1325   */\n  add\n    /* \"#utility.yul\":1271:1335   */\n  tag_13\n  jump\t// in\ntag_30:\n    /* \"#utility.yul\":1261:1335   */\n  swap2\n  pop\n    /* \"#utility.yul\":1216:1345   */\n  pop\n    /* \"#utility.yul\":845:1352   */\n  swap3\n  pop\n  swap3\n  swap1\n  pop\n  jump\t// out\n    /* \"contracts/TokenTransfer.sol\":227:1802  contract BNBTransferContract {... */\ntag_6:\n  dataSize(sub_0)\n  dup1\n  dataOffset(sub_0)\n  0x00\n  codecopy\n  0x00\n  return\nstop\n\nsub_0: assembly {\n        /* \"contracts/TokenTransfer.sol\":227:1802  contract BNBTransferContract {... */\n      mstore(0x40, 0x80)\n      jumpi(tag_1, lt(calldatasize, 0x04))\n      shr(0xe0, calldataload(0x00))\n      dup1\n      0x127f4b2e\n      eq\n      tag_3\n      jumpi\n      dup1\n      0x2b17b6a9\n      eq\n      tag_4\n      jumpi\n      dup1\n      0x4a1f8366\n      eq\n      tag_5\n      jumpi\n      dup1\n      0x53b7a59b\n      eq\n      tag_6\n      jumpi\n      dup1\n      0x8da5cb5b\n      eq\n      tag_7\n      jumpi\n      dup1\n      0xeb17fba3\n      eq\n      tag_8\n      jumpi\n      jump(tag_2)\n    tag_1:\n      jumpi(tag_2, calldatasize)\n        /* \"contracts/TokenTransfer.sol\":1771:1781  msg.sender */\n      caller\n        /* \"contracts/TokenTransfer.sol\":1763:1793  Deposit(msg.sender, msg.value) */\n      0xffffffffffffffffffffffffffffffffffffffff\n      and\n      0xe1fffcc4923d04b559f4d29a8bfc6cda04eb5b0d3c460751c2402c5c5cc9109c\n        /* \"contracts/TokenTransfer.sol\":1783:1792  msg.value */\n      callvalue\n        /* \"contracts/TokenTransfer.sol\":1763:1793  Deposit(msg.sender, msg.value) */\n      mload(0x40)\n      tag_11\n      swap2\n      swap1\n      tag_12\n      jump\t// in\n    tag_11:\n      mload(0x40)\n      dup1\n      swap2\n      sub\n      swap1\n      log2\n        /* \"contracts/TokenTransfer.sol\":227:1802  contract BNBTransferContract {... */\n      stop\n    tag_2:\n      0x00\n      dup1\n      revert\n        /* \"contracts/TokenTransfer.sol\":1484:1715  function withdrawBNB(uint256 _amount) external onlyOwner {... */\n    tag_3:\n      callvalue\n      dup1\n      iszero\n      tag_13\n      jumpi\n      0x00\n      dup1\n      revert\n    tag_13:\n      pop\n      tag_14\n      0x04\n      dup1\n      calldatasize\n      sub\n      dup2\n      add\n      swap1\n      tag_15\n      swap2\n      swap1\n      tag_16\n      jump\t// in\n    tag_15:\n      tag_17\n      jump\t// in\n    tag_14:\n      stop\n        /* \"contracts/TokenTransfer.sol\":326:348  IBEP20 public bnbToken */\n    tag_4:\n      callvalue\n      dup1\n      iszero\n      tag_18\n      jumpi\n      0x00\n      dup1\n      revert\n    tag_18:\n      pop\n      tag_19\n      tag_20\n      jump\t// in\n    tag_19:\n      mload(0x40)\n      tag_21\n      swap2\n      swap1\n      tag_22\n      jump\t// in\n    tag_21:\n      mload(0x40)\n      dup1\n      swap2\n      sub\n      swap1\n      return\n        /* \"contracts/TokenTransfer.sol\":1243:1478  function updateDestinationWallet(... */\n    tag_5:\n      callvalue\n      dup1\n      iszero\n      tag_23\n      jumpi\n      0x00\n      dup1\n      revert\n    tag_23:\n      pop\n      tag_24\n      0x04\n      dup1\n      calldatasize\n      sub\n      dup2\n      add\n      swap1\n      tag_25\n      swap2\n      swap1\n      tag_26\n      jump\t// in\n    tag_25:\n      tag_27\n      jump\t// in\n    tag_24:\n      stop\n        /* \"contracts/TokenTransfer.sol\":288:320  address public destinationWallet */\n    tag_6:\n      callvalue\n      dup1\n      iszero\n      tag_28\n      jumpi\n      0x00\n      dup1\n      revert\n    tag_28:\n      pop\n      tag_29\n      tag_30\n      jump\t// in\n    tag_29:\n      mload(0x40)\n      tag_31\n      swap2\n      swap1\n      tag_32\n      jump\t// in\n    tag_31:\n      mload(0x40)\n      dup1\n      swap2\n      sub\n      swap1\n      return\n        /* \"contracts/TokenTransfer.sol\":262:282  address public owner */\n    tag_7:\n      callvalue\n      dup1\n      iszero\n      tag_33\n      jumpi\n      0x00\n      dup1\n      revert\n    tag_33:\n      pop\n      tag_34\n      tag_35\n      jump\t// in\n    tag_34:\n      mload(0x40)\n      tag_36\n      swap2\n      swap1\n      tag_32\n      jump\t// in\n    tag_36:\n      mload(0x40)\n      dup1\n      swap2\n      sub\n      swap1\n      return\n        /* \"contracts/TokenTransfer.sol\":811:1237  function transferBNB(address _to, uint256 _amount) external onlyOwner {... */\n    tag_8:\n      callvalue\n      dup1\n      iszero\n      tag_37\n      jumpi\n      0x00\n      dup1\n      revert\n    tag_37:\n      pop\n      tag_38\n      0x04\n      dup1\n      calldatasize\n      sub\n      dup2\n      add\n      swap1\n      tag_39\n      swap2\n      swap1\n      tag_40\n      jump\t// in\n    tag_39:\n      tag_41\n      jump\t// in\n    tag_38:\n      stop\n        /* \"contracts/TokenTransfer.sol\":1484:1715  function withdrawBNB(uint256 _amount) external onlyOwner {... */\n    tag_17:\n        /* \"contracts/TokenTransfer.sol\":744:749  owner */\n      0x00\n      dup1\n      sload\n      swap1\n      0x0100\n      exp\n      swap1\n      div\n      0xffffffffffffffffffffffffffffffffffffffff\n      and\n        /* \"contracts/TokenTransfer.sol\":730:749  msg.sender == owner */\n      0xffffffffffffffffffffffffffffffffffffffff\n      and\n        /* \"contracts/TokenTransfer.sol\":730:740  msg.sender */\n      caller\n        /* \"contracts/TokenTransfer.sol\":730:749  msg.sender == owner */\n      0xffffffffffffffffffffffffffffffffffffffff\n      and\n      eq\n        /* \"contracts/TokenTransfer.sol\":722:787  require(msg.sender == owner, \"Only owner can call this function\") */\n      tag_43\n      jumpi\n      mload(0x40)\n      0x08c379a000000000000000000000000000000000000000000000000000000000\n      dup2\n      mstore\n      0x04\n      add\n      tag_44\n      swap1\n      tag_45\n      jump\t// in\n    tag_44:\n      mload(0x40)\n      dup1\n      swap2\n      sub\n      swap1\n      revert\n    tag_43:\n        /* \"contracts/TokenTransfer.sol\":1597:1604  _amount */\n      dup1\n        /* \"contracts/TokenTransfer.sol\":1572:1593  address(this).balance */\n      selfbalance\n        /* \"contracts/TokenTransfer.sol\":1572:1604  address(this).balance >= _amount */\n      lt\n      iszero\n        /* \"contracts/TokenTransfer.sol\":1551:1666  require(... */\n      tag_47\n      jumpi\n      mload(0x40)\n      0x08c379a000000000000000000000000000000000000000000000000000000000\n      dup2\n      mstore\n      0x04\n      add\n      tag_48\n      swap1\n      tag_49\n      jump\t// in\n    tag_48:\n      mload(0x40)\n      dup1\n      swap2\n      sub\n      swap1\n      revert\n    tag_47:\n        /* \"contracts/TokenTransfer.sol\":1684:1689  owner */\n      0x00\n      dup1\n      sload\n      swap1\n      0x0100\n      exp\n      swap1\n      div\n      0xffffffffffffffffffffffffffffffffffffffff\n      and\n        /* \"contracts/TokenTransfer.sol\":1676:1699  payable(owner).transfer */\n      0xffffffffffffffffffffffffffffffffffffffff\n      and\n        /* \"contracts/TokenTransfer.sol\":1676:1708  payable(owner).transfer(_amount) */\n      0x08fc\n        /* \"contracts/TokenTransfer.sol\":1700:1707  _amount */\n      dup3\n        /* \"contracts/TokenTransfer.sol\":1676:1708  payable(owner).transfer(_amount) */\n      swap1\n      dup2\n      iszero\n      mul\n      swap1\n      mload(0x40)\n      0x00\n      mload(0x40)\n      dup1\n      dup4\n      sub\n      dup2\n      dup6\n      dup9\n      dup9\n      call\n      swap4\n      pop\n      pop\n      pop\n      pop\n      iszero\n      dup1\n      iszero\n      tag_51\n      jumpi\n      returndatasize\n      0x00\n      dup1\n      returndatacopy\n      revert(0x00, returndatasize)\n    tag_51:\n      pop\n        /* \"contracts/TokenTransfer.sol\":1484:1715  function withdrawBNB(uint256 _amount) external onlyOwner {... */\n      pop\n      jump\t// out\n        /* \"contracts/TokenTransfer.sol\":326:348  IBEP20 public bnbToken */\n    tag_20:\n      0x02\n      0x00\n      swap1\n      sload\n      swap1\n      0x0100\n      exp\n      swap1\n      div\n      0xffffffffffffffffffffffffffffffffffffffff\n      and\n      dup2\n      jump\t// out\n        /* \"contracts/TokenTransfer.sol\":1243:1478  function updateDestinationWallet(... */\n    tag_27:\n        /* \"contracts/TokenTransfer.sol\":744:749  owner */\n      0x00\n      dup1\n      sload\n      swap1\n      0x0100\n      exp\n      swap1\n      div\n      0xffffffffffffffffffffffffffffffffffffffff\n      and\n        /* \"contracts/TokenTransfer.sol\":730:749  msg.sender == owner */\n      0xffffffffffffffffffffffffffffffffffffffff\n      and\n        /* \"contracts/TokenTransfer.sol\":730:740  msg.sender */\n      caller\n        /* \"contracts/TokenTransfer.sol\":730:749  msg.sender == owner */\n      0xffffffffffffffffffffffffffffffffffffffff\n      and\n      eq\n        /* \"contracts/TokenTransfer.sol\":722:787  require(msg.sender == owner, \"Only owner can call this function\") */\n      tag_53\n      jumpi\n      mload(0x40)\n      0x08c379a000000000000000000000000000000000000000000000000000000000\n      dup2\n      mstore\n      0x04\n      add\n      tag_54\n      swap1\n      tag_45\n      jump\t// in\n    tag_54:\n      mload(0x40)\n      dup1\n      swap2\n      sub\n      swap1\n      revert\n    tag_53:\n        /* \"contracts/TokenTransfer.sol\":1391:1392  0 */\n      0x00\n        /* \"contracts/TokenTransfer.sol\":1358:1393  _newDestinationWallet != address(0) */\n      0xffffffffffffffffffffffffffffffffffffffff\n      and\n        /* \"contracts/TokenTransfer.sol\":1358:1379  _newDestinationWallet */\n      dup2\n        /* \"contracts/TokenTransfer.sol\":1358:1393  _newDestinationWallet != address(0) */\n      0xffffffffffffffffffffffffffffffffffffffff\n      and\n      sub\n        /* \"contracts/TokenTransfer.sol\":1350:1420  require(_newDestinationWallet != address(0), \"Invalid wallet address\") */\n      tag_56\n      jumpi\n      mload(0x40)\n      0x08c379a000000000000000000000000000000000000000000000000000000000\n      dup2\n      mstore\n      0x04\n      add\n      tag_57\n      swap1\n      tag_58\n      jump\t// in\n    tag_57:\n      mload(0x40)\n      dup1\n      swap2\n      sub\n      swap1\n      revert\n    tag_56:\n        /* \"contracts/TokenTransfer.sol\":1450:1471  _newDestinationWallet */\n      dup1\n        /* \"contracts/TokenTransfer.sol\":1430:1447  destinationWallet */\n      0x01\n      0x00\n        /* \"contracts/TokenTransfer.sol\":1430:1471  destinationWallet = _newDestinationWallet */\n      0x0100\n      exp\n      dup2\n      sload\n      dup2\n      0xffffffffffffffffffffffffffffffffffffffff\n      mul\n      not\n      and\n      swap1\n      dup4\n      0xffffffffffffffffffffffffffffffffffffffff\n      and\n      mul\n      or\n      swap1\n      sstore\n      pop\n        /* \"contracts/TokenTransfer.sol\":1243:1478  function updateDestinationWallet(... */\n      pop\n      jump\t// out\n        /* \"contracts/TokenTransfer.sol\":288:320  address public destinationWallet */\n    tag_30:\n      0x01\n      0x00\n      swap1\n      sload\n      swap1\n      0x0100\n      exp\n      swap1\n      div\n      0xffffffffffffffffffffffffffffffffffffffff\n      and\n      dup2\n      jump\t// out\n        /* \"contracts/TokenTransfer.sol\":262:282  address public owner */\n    tag_35:\n      0x00\n      dup1\n      sload\n      swap1\n      0x0100\n      exp\n      swap1\n      div\n      0xffffffffffffffffffffffffffffffffffffffff\n      and\n      dup2\n      jump\t// out\n        /* \"contracts/TokenTransfer.sol\":811:1237  function transferBNB(address _to, uint256 _amount) external onlyOwner {... */\n    tag_41:\n        /* \"contracts/TokenTransfer.sol\":744:749  owner */\n      0x00\n      dup1\n      sload\n      swap1\n      0x0100\n      exp\n      swap1\n      div\n      0xffffffffffffffffffffffffffffffffffffffff\n      and\n        /* \"contracts/TokenTransfer.sol\":730:749  msg.sender == owner */\n      0xffffffffffffffffffffffffffffffffffffffff\n      and\n        /* \"contracts/TokenTransfer.sol\":730:740  msg.sender */\n      caller\n        /* \"contracts/TokenTransfer.sol\":730:749  msg.sender == owner */\n      0xffffffffffffffffffffffffffffffffffffffff\n      and\n      eq\n        /* \"contracts/TokenTransfer.sol\":722:787  require(msg.sender == owner, \"Only owner can call this function\") */\n      tag_60\n      jumpi\n      mload(0x40)\n      0x08c379a000000000000000000000000000000000000000000000000000000000\n      dup2\n      mstore\n      0x04\n      add\n      tag_61\n      swap1\n      tag_45\n      jump\t// in\n    tag_61:\n      mload(0x40)\n      dup1\n      swap2\n      sub\n      swap1\n      revert\n    tag_60:\n        /* \"contracts/TokenTransfer.sol\":914:915  0 */\n      0x00\n        /* \"contracts/TokenTransfer.sol\":899:916  _to != address(0) */\n      0xffffffffffffffffffffffffffffffffffffffff\n      and\n        /* \"contracts/TokenTransfer.sol\":899:902  _to */\n      dup3\n        /* \"contracts/TokenTransfer.sol\":899:916  _to != address(0) */\n      0xffffffffffffffffffffffffffffffffffffffff\n      and\n      sub\n        /* \"contracts/TokenTransfer.sol\":891:946  require(_to != address(0), \"Invalid recipient address\") */\n      tag_63\n      jumpi\n      mload(0x40)\n      0x08c379a000000000000000000000000000000000000000000000000000000000\n      dup2\n      mstore\n      0x04\n      add\n      tag_64\n      swap1\n      tag_65\n      jump\t// in\n    tag_64:\n      mload(0x40)\n      dup1\n      swap2\n      sub\n      swap1\n      revert\n    tag_63:\n        /* \"contracts/TokenTransfer.sol\":974:975  0 */\n      0x00\n        /* \"contracts/TokenTransfer.sol\":964:971  _amount */\n      dup2\n        /* \"contracts/TokenTransfer.sol\":964:975  _amount > 0 */\n      gt\n        /* \"contracts/TokenTransfer.sol\":956:1003  require(_amount > 0, \"Invalid transfer amount\") */\n      tag_66\n      jumpi\n      mload(0x40)\n      0x08c379a000000000000000000000000000000000000000000000000000000000\n      dup2\n      mstore\n      0x04\n      add\n      tag_67\n      swap1\n      tag_68\n      jump\t// in\n    tag_67:\n      mload(0x40)\n      dup1\n      swap2\n      sub\n      swap1\n      revert\n    tag_66:\n        /* \"contracts/TokenTransfer.sol\":1071:1078  _amount */\n      dup1\n        /* \"contracts/TokenTransfer.sol\":1034:1042  bnbToken */\n      0x02\n      0x00\n      swap1\n      sload\n      swap1\n      0x0100\n      exp\n      swap1\n      div\n      0xffffffffffffffffffffffffffffffffffffffff\n      and\n        /* \"contracts/TokenTransfer.sol\":1034:1052  bnbToken.balanceOf */\n      0xffffffffffffffffffffffffffffffffffffffff\n      and\n      0x70a08231\n        /* \"contracts/TokenTransfer.sol\":1061:1065  this */\n      address\n        /* \"contracts/TokenTransfer.sol\":1034:1067  bnbToken.balanceOf(address(this)) */\n      mload(0x40)\n      dup3\n      0xffffffff\n      and\n      0xe0\n      shl\n      dup2\n      mstore\n      0x04\n      add\n      tag_69\n      swap2\n      swap1\n      tag_32\n      jump\t// in\n    tag_69:\n      0x20\n      mload(0x40)\n      dup1\n      dup4\n      sub\n      dup2\n      dup7\n      gas\n      staticcall\n      iszero\n      dup1\n      iszero\n      tag_71\n      jumpi\n      returndatasize\n      0x00\n      dup1\n      returndatacopy\n      revert(0x00, returndatasize)\n    tag_71:\n      pop\n      pop\n      pop\n      pop\n      mload(0x40)\n      returndatasize\n      not(0x1f)\n      0x1f\n      dup3\n      add\n      and\n      dup3\n      add\n      dup1\n      0x40\n      mstore\n      pop\n      dup2\n      add\n      swap1\n      tag_72\n      swap2\n      swap1\n      tag_73\n      jump\t// in\n    tag_72:\n        /* \"contracts/TokenTransfer.sol\":1034:1078  bnbToken.balanceOf(address(this)) >= _amount */\n      lt\n      iszero\n        /* \"contracts/TokenTransfer.sol\":1013:1136  require(... */\n      tag_74\n      jumpi\n      mload(0x40)\n      0x08c379a000000000000000000000000000000000000000000000000000000000\n      dup2\n      mstore\n      0x04\n      add\n      tag_75\n      swap1\n      tag_76\n      jump\t// in\n    tag_75:\n      mload(0x40)\n      dup1\n      swap2\n      sub\n      swap1\n      revert\n    tag_74:\n        /* \"contracts/TokenTransfer.sol\":1147:1155  bnbToken */\n      0x02\n      0x00\n      swap1\n      sload\n      swap1\n      0x0100\n      exp\n      swap1\n      div\n      0xffffffffffffffffffffffffffffffffffffffff\n      and\n        /* \"contracts/TokenTransfer.sol\":1147:1164  bnbToken.transfer */\n      0xffffffffffffffffffffffffffffffffffffffff\n      and\n      0xa9059cbb\n        /* \"contracts/TokenTransfer.sol\":1165:1168  _to */\n      dup4\n        /* \"contracts/TokenTransfer.sol\":1170:1177  _amount */\n      dup4\n        /* \"contracts/TokenTransfer.sol\":1147:1178  bnbToken.transfer(_to, _amount) */\n      mload(0x40)\n      dup4\n      0xffffffff\n      and\n      0xe0\n      shl\n      dup2\n      mstore\n      0x04\n      add\n      tag_77\n      swap3\n      swap2\n      swap1\n      tag_78\n      jump\t// in\n    tag_77:\n      0x20\n      mload(0x40)\n      dup1\n      dup4\n      sub\n      dup2\n      0x00\n      dup8\n      gas\n      call\n      iszero\n      dup1\n      iszero\n      tag_80\n      jumpi\n      returndatasize\n      0x00\n      dup1\n      returndatacopy\n      revert(0x00, returndatasize)\n    tag_80:\n      pop\n      pop\n      pop\n      pop\n      mload(0x40)\n      returndatasize\n      not(0x1f)\n      0x1f\n      dup3\n      add\n      and\n      dup3\n      add\n      dup1\n      0x40\n      mstore\n      pop\n      dup2\n      add\n      swap1\n      tag_81\n      swap2\n      swap1\n      tag_82\n      jump\t// in\n    tag_81:\n      pop\n        /* \"contracts/TokenTransfer.sol\":1217:1220  _to */\n      dup2\n        /* \"contracts/TokenTransfer.sol\":1193:1230  Transfer(address(this), _to, _amount) */\n      0xffffffffffffffffffffffffffffffffffffffff\n      and\n        /* \"contracts/TokenTransfer.sol\":1210:1214  this */\n      address\n        /* \"contracts/TokenTransfer.sol\":1193:1230  Transfer(address(this), _to, _amount) */\n      0xffffffffffffffffffffffffffffffffffffffff\n      and\n      0xddf252ad1be2c89b69c2b068fc378daa952ba7f163c4a11628f55a4df523b3ef\n        /* \"contracts/TokenTransfer.sol\":1222:1229  _amount */\n      dup4\n        /* \"contracts/TokenTransfer.sol\":1193:1230  Transfer(address(this), _to, _amount) */\n      mload(0x40)\n      tag_83\n      swap2\n      swap1\n      tag_12\n      jump\t// in\n    tag_83:\n      mload(0x40)\n      dup1\n      swap2\n      sub\n      swap1\n      log3\n        /* \"contracts/TokenTransfer.sol\":811:1237  function transferBNB(address _to, uint256 _amount) external onlyOwner {... */\n      pop\n      pop\n      jump\t// out\n        /* \"#utility.yul\":7:84   */\n    tag_84:\n        /* \"#utility.yul\":44:51   */\n      0x00\n        /* \"#utility.yul\":73:78   */\n      dup2\n        /* \"#utility.yul\":62:78   */\n      swap1\n      pop\n        /* \"#utility.yul\":7:84   */\n      swap2\n      swap1\n      pop\n      jump\t// out\n        /* \"#utility.yul\":90:208   */\n    tag_85:\n        /* \"#utility.yul\":177:201   */\n      tag_121\n        /* \"#utility.yul\":195:200   */\n      dup2\n        /* \"#utility.yul\":177:201   */\n      tag_84\n      jump\t// in\n    tag_121:\n        /* \"#utility.yul\":172:175   */\n      dup3\n        /* \"#utility.yul\":165:202   */\n      mstore\n        /* \"#utility.yul\":90:208   */\n      pop\n      pop\n      jump\t// out\n        /* \"#utility.yul\":214:436   */\n    tag_12:\n        /* \"#utility.yul\":307:311   */\n      0x00\n        /* \"#utility.yul\":345:347   */\n      0x20\n        /* \"#utility.yul\":334:343   */\n      dup3\n        /* \"#utility.yul\":330:348   */\n      add\n        /* \"#utility.yul\":322:348   */\n      swap1\n      pop\n        /* \"#utility.yul\":358:429   */\n      tag_123\n        /* \"#utility.yul\":426:427   */\n      0x00\n        /* \"#utility.yul\":415:424   */\n      dup4\n        /* \"#utility.yul\":411:428   */\n      add\n        /* \"#utility.yul\":402:408   */\n      dup5\n        /* \"#utility.yul\":358:429   */\n      tag_85\n      jump\t// in\n    tag_123:\n        /* \"#utility.yul\":214:436   */\n      swap3\n      swap2\n      pop\n      pop\n      jump\t// out\n        /* \"#utility.yul\":523:640   */\n    tag_87:\n        /* \"#utility.yul\":632:633   */\n      0x00\n        /* \"#utility.yul\":629:630   */\n      dup1\n        /* \"#utility.yul\":622:634   */\n      revert\n        /* \"#utility.yul\":769:891   */\n    tag_89:\n        /* \"#utility.yul\":842:866   */\n      tag_128\n        /* \"#utility.yul\":860:865   */\n      dup2\n        /* \"#utility.yul\":842:866   */\n      tag_84\n      jump\t// in\n    tag_128:\n        /* \"#utility.yul\":835:840   */\n      dup2\n        /* \"#utility.yul\":832:867   */\n      eq\n        /* \"#utility.yul\":822:885   */\n      tag_129\n      jumpi\n        /* \"#utility.yul\":881:882   */\n      0x00\n        /* \"#utility.yul\":878:879   */\n      dup1\n        /* \"#utility.yul\":871:883   */\n      revert\n        /* \"#utility.yul\":822:885   */\n    tag_129:\n        /* \"#utility.yul\":769:891   */\n      pop\n      jump\t// out\n        /* \"#utility.yul\":897:1036   */\n    tag_90:\n        /* \"#utility.yul\":943:948   */\n      0x00\n        /* \"#utility.yul\":981:987   */\n      dup2\n        /* \"#utility.yul\":968:988   */\n      calldataload\n        /* \"#utility.yul\":959:988   */\n      swap1\n      pop\n        /* \"#utility.yul\":997:1030   */\n      tag_131\n        /* \"#utility.yul\":1024:1029   */\n      dup2\n        /* \"#utility.yul\":997:1030   */\n      tag_89\n      jump\t// in\n    tag_131:\n        /* \"#utility.yul\":897:1036   */\n      swap3\n      swap2\n      pop\n      pop\n      jump\t// out\n        /* \"#utility.yul\":1042:1371   */\n    tag_16:\n        /* \"#utility.yul\":1101:1107   */\n      0x00\n        /* \"#utility.yul\":1150:1152   */\n      0x20\n        /* \"#utility.yul\":1138:1147   */\n      dup3\n        /* \"#utility.yul\":1129:1136   */\n      dup5\n        /* \"#utility.yul\":1125:1148   */\n      sub\n        /* \"#utility.yul\":1121:1153   */\n      slt\n        /* \"#utility.yul\":1118:1237   */\n      iszero\n      tag_133\n      jumpi\n        /* \"#utility.yul\":1156:1235   */\n      tag_134\n      tag_87\n      jump\t// in\n    tag_134:\n        /* \"#utility.yul\":1118:1237   */\n    tag_133:\n        /* \"#utility.yul\":1276:1277   */\n      0x00\n        /* \"#utility.yul\":1301:1354   */\n      tag_135\n        /* \"#utility.yul\":1346:1353   */\n      dup5\n        /* \"#utility.yul\":1337:1343   */\n      dup3\n        /* \"#utility.yul\":1326:1335   */\n      dup6\n        /* \"#utility.yul\":1322:1344   */\n      add\n        /* \"#utility.yul\":1301:1354   */\n      tag_90\n      jump\t// in\n    tag_135:\n        /* \"#utility.yul\":1291:1354   */\n      swap2\n      pop\n        /* \"#utility.yul\":1247:1364   */\n      pop\n        /* \"#utility.yul\":1042:1371   */\n      swap3\n      swap2\n      pop\n      pop\n      jump\t// out\n        /* \"#utility.yul\":1377:1503   */\n    tag_91:\n        /* \"#utility.yul\":1414:1421   */\n      0x00\n        /* \"#utility.yul\":1454:1496   */\n      0xffffffffffffffffffffffffffffffffffffffff\n        /* \"#utility.yul\":1447:1452   */\n      dup3\n        /* \"#utility.yul\":1443:1497   */\n      and\n        /* \"#utility.yul\":1432:1497   */\n      swap1\n      pop\n        /* \"#utility.yul\":1377:1503   */\n      swap2\n      swap1\n      pop\n      jump\t// out\n        /* \"#utility.yul\":1509:1569   */\n    tag_92:\n        /* \"#utility.yul\":1537:1540   */\n      0x00\n        /* \"#utility.yul\":1558:1563   */\n      dup2\n        /* \"#utility.yul\":1551:1563   */\n      swap1\n      pop\n        /* \"#utility.yul\":1509:1569   */\n      swap2\n      swap1\n      pop\n      jump\t// out\n        /* \"#utility.yul\":1575:1717   */\n    tag_93:\n        /* \"#utility.yul\":1625:1634   */\n      0x00\n        /* \"#utility.yul\":1658:1711   */\n      tag_139\n        /* \"#utility.yul\":1676:1710   */\n      tag_140\n        /* \"#utility.yul\":1685:1709   */\n      tag_141\n        /* \"#utility.yul\":1703:1708   */\n      dup5\n        /* \"#utility.yul\":1685:1709   */\n      tag_91\n      jump\t// in\n    tag_141:\n        /* \"#utility.yul\":1676:1710   */\n      tag_92\n      jump\t// in\n    tag_140:\n        /* \"#utility.yul\":1658:1711   */\n      tag_91\n      jump\t// in\n    tag_139:\n        /* \"#utility.yul\":1645:1711   */\n      swap1\n      pop\n        /* \"#utility.yul\":1575:1717   */\n      swap2\n      swap1\n      pop\n      jump\t// out\n        /* \"#utility.yul\":1723:1849   */\n    tag_94:\n        /* \"#utility.yul\":1773:1782   */\n      0x00\n        /* \"#utility.yul\":1806:1843   */\n      tag_143\n        /* \"#utility.yul\":1837:1842   */\n      dup3\n        /* \"#utility.yul\":1806:1843   */\n      tag_93\n      jump\t// in\n    tag_143:\n        /* \"#utility.yul\":1793:1843   */\n      swap1\n      pop\n        /* \"#utility.yul\":1723:1849   */\n      swap2\n      swap1\n      pop\n      jump\t// out\n        /* \"#utility.yul\":1855:1994   */\n    tag_95:\n        /* \"#utility.yul\":1918:1927   */\n      0x00\n        /* \"#utility.yul\":1951:1988   */\n      tag_145\n        /* \"#utility.yul\":1982:1987   */\n      dup3\n        /* \"#utility.yul\":1951:1988   */\n      tag_94\n      jump\t// in\n    tag_145:\n        /* \"#utility.yul\":1938:1988   */\n      swap1\n      pop\n        /* \"#utility.yul\":1855:1994   */\n      swap2\n      swap1\n      pop\n      jump\t// out\n        /* \"#utility.yul\":2000:2157   */\n    tag_96:\n        /* \"#utility.yul\":2100:2150   */\n      tag_147\n        /* \"#utility.yul\":2144:2149   */\n      dup2\n        /* \"#utility.yul\":2100:2150   */\n      tag_95\n      jump\t// in\n    tag_147:\n        /* \"#utility.yul\":2095:2098   */\n      dup3\n        /* \"#utility.yul\":2088:2151   */\n      mstore\n        /* \"#utility.yul\":2000:2157   */\n      pop\n      pop\n      jump\t// out\n        /* \"#utility.yul\":2163:2411   */\n    tag_22:\n        /* \"#utility.yul\":2269:2273   */\n      0x00\n        /* \"#utility.yul\":2307:2309   */\n      0x20\n        /* \"#utility.yul\":2296:2305   */\n      dup3\n        /* \"#utility.yul\":2292:2310   */\n      add\n        /* \"#utility.yul\":2284:2310   */\n      swap1\n      pop\n        /* \"#utility.yul\":2320:2404   */\n      tag_149\n        /* \"#utility.yul\":2401:2402   */\n      0x00\n        /* \"#utility.yul\":2390:2399   */\n      dup4\n        /* \"#utility.yul\":2386:2403   */\n      add\n        /* \"#utility.yul\":2377:2383   */\n      dup5\n        /* \"#utility.yul\":2320:2404   */\n      tag_96\n      jump\t// in\n    tag_149:\n        /* \"#utility.yul\":2163:2411   */\n      swap3\n      swap2\n      pop\n      pop\n      jump\t// out\n        /* \"#utility.yul\":2417:2513   */\n    tag_97:\n        /* \"#utility.yul\":2454:2461   */\n      0x00\n        /* \"#utility.yul\":2483:2507   */\n      tag_151\n        /* \"#utility.yul\":2501:2506   */\n      dup3\n        /* \"#utility.yul\":2483:2507   */\n      tag_91\n      jump\t// in\n    tag_151:\n        /* \"#utility.yul\":2472:2507   */\n      swap1\n      pop\n        /* \"#utility.yul\":2417:2513   */\n      swap2\n      swap1\n      pop\n      jump\t// out\n        /* \"#utility.yul\":2519:2641   */\n    tag_98:\n        /* \"#utility.yul\":2592:2616   */\n      tag_153\n        /* \"#utility.yul\":2610:2615   */\n      dup2\n        /* \"#utility.yul\":2592:2616   */\n      tag_97\n      jump\t// in\n    tag_153:\n        /* \"#utility.yul\":2585:2590   */\n      dup2\n        /* \"#utility.yul\":2582:2617   */\n      eq\n        /* \"#utility.yul\":2572:2635   */\n      tag_154\n      jumpi\n        /* \"#utility.yul\":2631:2632   */\n      0x00\n        /* \"#utility.yul\":2628:2629   */\n      dup1\n        /* \"#utility.yul\":2621:2633   */\n      revert\n        /* \"#utility.yul\":2572:2635   */\n    tag_154:\n        /* \"#utility.yul\":2519:2641   */\n      pop\n      jump\t// out\n        /* \"#utility.yul\":2647:2786   */\n    tag_99:\n        /* \"#utility.yul\":2693:2698   */\n      0x00\n        /* \"#utility.yul\":2731:2737   */\n      dup2\n        /* \"#utility.yul\":2718:2738   */\n      calldataload\n        /* \"#utility.yul\":2709:2738   */\n      swap1\n      pop\n        /* \"#utility.yul\":2747:2780   */\n      tag_156\n        /* \"#utility.yul\":2774:2779   */\n      dup2\n        /* \"#utility.yul\":2747:2780   */\n      tag_98\n      jump\t// in\n    tag_156:\n        /* \"#utility.yul\":2647:2786   */\n      swap3\n      swap2\n      pop\n      pop\n      jump\t// out\n        /* \"#utility.yul\":2792:3121   */\n    tag_26:\n        /* \"#utility.yul\":2851:2857   */\n      0x00\n        /* \"#utility.yul\":2900:2902   */\n      0x20\n        /* \"#utility.yul\":2888:2897   */\n      dup3\n        /* \"#utility.yul\":2879:2886   */\n      dup5\n        /* \"#utility.yul\":2875:2898   */\n      sub\n        /* \"#utility.yul\":2871:2903   */\n      slt\n        /* \"#utility.yul\":2868:2987   */\n      iszero\n      tag_158\n      jumpi\n        /* \"#utility.yul\":2906:2985   */\n      tag_159\n      tag_87\n      jump\t// in\n    tag_159:\n        /* \"#utility.yul\":2868:2987   */\n    tag_158:\n        /* \"#utility.yul\":3026:3027   */\n      0x00\n        /* \"#utility.yul\":3051:3104   */\n      tag_160\n        /* \"#utility.yul\":3096:3103   */\n      dup5\n        /* \"#utility.yul\":3087:3093   */\n      dup3\n        /* \"#utility.yul\":3076:3085   */\n      dup6\n        /* \"#utility.yul\":3072:3094   */\n      add\n        /* \"#utility.yul\":3051:3104   */\n      tag_99\n      jump\t// in\n    tag_160:\n        /* \"#utility.yul\":3041:3104   */\n      swap2\n      pop\n        /* \"#utility.yul\":2997:3114   */\n      pop\n        /* \"#utility.yul\":2792:3121   */\n      swap3\n      swap2\n      pop\n      pop\n      jump\t// out\n        /* \"#utility.yul\":3127:3245   */\n    tag_100:\n        /* \"#utility.yul\":3214:3238   */\n      tag_162\n        /* \"#utility.yul\":3232:3237   */\n      dup2\n        /* \"#utility.yul\":3214:3238   */\n      tag_97\n      jump\t// in\n    tag_162:\n        /* \"#utility.yul\":3209:3212   */\n      dup3\n        /* \"#utility.yul\":3202:3239   */\n      mstore\n        /* \"#utility.yul\":3127:3245   */\n      pop\n      pop\n      jump\t// out\n        /* \"#utility.yul\":3251:3473   */\n    tag_32:\n        /* \"#utility.yul\":3344:3348   */\n      0x00\n        /* \"#utility.yul\":3382:3384   */\n      0x20\n        /* \"#utility.yul\":3371:3380   */\n      dup3\n        /* \"#utility.yul\":3367:3385   */\n      add\n        /* \"#utility.yul\":3359:3385   */\n      swap1\n      pop\n        /* \"#utility.yul\":3395:3466   */\n      tag_164\n        /* \"#utility.yul\":3463:3464   */\n      0x00\n        /* \"#utility.yul\":3452:3461   */\n      dup4\n        /* \"#utility.yul\":3448:3465   */\n      add\n        /* \"#utility.yul\":3439:3445   */\n      dup5\n        /* \"#utility.yul\":3395:3466   */\n      tag_100\n      jump\t// in\n    tag_164:\n        /* \"#utility.yul\":3251:3473   */\n      swap3\n      swap2\n      pop\n      pop\n      jump\t// out\n        /* \"#utility.yul\":3479:3953   */\n    tag_40:\n        /* \"#utility.yul\":3547:3553   */\n      0x00\n        /* \"#utility.yul\":3555:3561   */\n      dup1\n        /* \"#utility.yul\":3604:3606   */\n      0x40\n        /* \"#utility.yul\":3592:3601   */\n      dup4\n        /* \"#utility.yul\":3583:3590   */\n      dup6\n        /* \"#utility.yul\":3579:3602   */\n      sub\n        /* \"#utility.yul\":3575:3607   */\n      slt\n        /* \"#utility.yul\":3572:3691   */\n      iszero\n      tag_166\n      jumpi\n        /* \"#utility.yul\":3610:3689   */\n      tag_167\n      tag_87\n      jump\t// in\n    tag_167:\n        /* \"#utility.yul\":3572:3691   */\n    tag_166:\n        /* \"#utility.yul\":3730:3731   */\n      0x00\n        /* \"#utility.yul\":3755:3808   */\n      tag_168\n        /* \"#utility.yul\":3800:3807   */\n      dup6\n        /* \"#utility.yul\":3791:3797   */\n      dup3\n        /* \"#utility.yul\":3780:3789   */\n      dup7\n        /* \"#utility.yul\":3776:3798   */\n      add\n        /* \"#utility.yul\":3755:3808   */\n      tag_99\n      jump\t// in\n    tag_168:\n        /* \"#utility.yul\":3745:3808   */\n      swap3\n      pop\n        /* \"#utility.yul\":3701:3818   */\n      pop\n        /* \"#utility.yul\":3857:3859   */\n      0x20\n        /* \"#utility.yul\":3883:3936   */\n      tag_169\n        /* \"#utility.yul\":3928:3935   */\n      dup6\n        /* \"#utility.yul\":3919:3925   */\n      dup3\n        /* \"#utility.yul\":3908:3917   */\n      dup7\n        /* \"#utility.yul\":3904:3926   */\n      add\n        /* \"#utility.yul\":3883:3936   */\n      tag_90\n      jump\t// in\n    tag_169:\n        /* \"#utility.yul\":3873:3936   */\n      swap2\n      pop\n        /* \"#utility.yul\":3828:3946   */\n      pop\n        /* \"#utility.yul\":3479:3953   */\n      swap3\n      pop\n      swap3\n      swap1\n      pop\n      jump\t// out\n        /* \"#utility.yul\":3959:4128   */\n    tag_101:\n        /* \"#utility.yul\":4043:4054   */\n      0x00\n        /* \"#utility.yul\":4077:4083   */\n      dup3\n        /* \"#utility.yul\":4072:4075   */\n      dup3\n        /* \"#utility.yul\":4065:4084   */\n      mstore\n        /* \"#utility.yul\":4117:4121   */\n      0x20\n        /* \"#utility.yul\":4112:4115   */\n      dup3\n        /* \"#utility.yul\":4108:4122   */\n      add\n        /* \"#utility.yul\":4093:4122   */\n      swap1\n      pop\n        /* \"#utility.yul\":3959:4128   */\n      swap3\n      swap2\n      pop\n      pop\n      jump\t// out\n        /* \"#utility.yul\":4134:4354   */\n    tag_102:\n        /* \"#utility.yul\":4274:4308   */\n      0x4f6e6c79206f776e65722063616e2063616c6c20746869732066756e6374696f\n        /* \"#utility.yul\":4270:4271   */\n      0x00\n        /* \"#utility.yul\":4262:4268   */\n      dup3\n        /* \"#utility.yul\":4258:4272   */\n      add\n        /* \"#utility.yul\":4251:4309   */\n      mstore\n        /* \"#utility.yul\":4343:4346   */\n      0x6e00000000000000000000000000000000000000000000000000000000000000\n        /* \"#utility.yul\":4338:4340   */\n      0x20\n        /* \"#utility.yul\":4330:4336   */\n      dup3\n        /* \"#utility.yul\":4326:4341   */\n      add\n        /* \"#utility.yul\":4319:4347   */\n      mstore\n        /* \"#utility.yul\":4134:4354   */\n      pop\n      jump\t// out\n        /* \"#utility.yul\":4360:4726   */\n    tag_103:\n        /* \"#utility.yul\":4502:4505   */\n      0x00\n        /* \"#utility.yul\":4523:4590   */\n      tag_173\n        /* \"#utility.yul\":4587:4589   */\n      0x21\n        /* \"#utility.yul\":4582:4585   */\n      dup4\n        /* \"#utility.yul\":4523:4590   */\n      tag_101\n      jump\t// in\n    tag_173:\n        /* \"#utility.yul\":4516:4590   */\n      swap2\n      pop\n        /* \"#utility.yul\":4599:4692   */\n      tag_174\n        /* \"#utility.yul\":4688:4691   */\n      dup3\n        /* \"#utility.yul\":4599:4692   */\n      tag_102\n      jump\t// in\n    tag_174:\n        /* \"#utility.yul\":4717:4719   */\n      0x40\n        /* \"#utility.yul\":4712:4715   */\n      dup3\n        /* \"#utility.yul\":4708:4720   */\n      add\n        /* \"#utility.yul\":4701:4720   */\n      swap1\n      pop\n        /* \"#utility.yul\":4360:4726   */\n      swap2\n      swap1\n      pop\n      jump\t// out\n        /* \"#utility.yul\":4732:5151   */\n    tag_45:\n        /* \"#utility.yul\":4898:4902   */\n      0x00\n        /* \"#utility.yul\":4936:4938   */\n      0x20\n        /* \"#utility.yul\":4925:4934   */\n      dup3\n        /* \"#utility.yul\":4921:4939   */\n      add\n        /* \"#utility.yul\":4913:4939   */\n      swap1\n      pop\n        /* \"#utility.yul\":4985:4994   */\n      dup2\n        /* \"#utility.yul\":4979:4983   */\n      dup2\n        /* \"#utility.yul\":4975:4995   */\n      sub\n        /* \"#utility.yul\":4971:4972   */\n      0x00\n        /* \"#utility.yul\":4960:4969   */\n      dup4\n        /* \"#utility.yul\":4956:4973   */\n      add\n        /* \"#utility.yul\":4949:4996   */\n      mstore\n        /* \"#utility.yul\":5013:5144   */\n      tag_176\n        /* \"#utility.yul\":5139:5143   */\n      dup2\n        /* \"#utility.yul\":5013:5144   */\n      tag_103\n      jump\t// in\n    tag_176:\n        /* \"#utility.yul\":5005:5144   */\n      swap1\n      pop\n        /* \"#utility.yul\":4732:5151   */\n      swap2\n      swap1\n      pop\n      jump\t// out\n        /* \"#utility.yul\":5157:5380   */\n    tag_104:\n        /* \"#utility.yul\":5297:5331   */\n      0x496e73756666696369656e7420424e422062616c616e636520696e20636f6e74\n        /* \"#utility.yul\":5293:5294   */\n      0x00\n        /* \"#utility.yul\":5285:5291   */\n      dup3\n        /* \"#utility.yul\":5281:5295   */\n      add\n        /* \"#utility.yul\":5274:5332   */\n      mstore\n        /* \"#utility.yul\":5366:5372   */\n      0x7261637400000000000000000000000000000000000000000000000000000000\n        /* \"#utility.yul\":5361:5363   */\n      0x20\n        /* \"#utility.yul\":5353:5359   */\n      dup3\n        /* \"#utility.yul\":5349:5364   */\n      add\n        /* \"#utility.yul\":5342:5373   */\n      mstore\n        /* \"#utility.yul\":5157:5380   */\n      pop\n      jump\t// out\n        /* \"#utility.yul\":5386:5752   */\n    tag_105:\n        /* \"#utility.yul\":5528:5531   */\n      0x00\n        /* \"#utility.yul\":5549:5616   */\n      tag_179\n        /* \"#utility.yul\":5613:5615   */\n      0x24\n        /* \"#utility.yul\":5608:5611   */\n      dup4\n        /* \"#utility.yul\":5549:5616   */\n      tag_101\n      jump\t// in\n    tag_179:\n        /* \"#utility.yul\":5542:5616   */\n      swap2\n      pop\n        /* \"#utility.yul\":5625:5718   */\n      tag_180\n        /* \"#utility.yul\":5714:5717   */\n      dup3\n        /* \"#utility.yul\":5625:5718   */\n      tag_104\n      jump\t// in\n    tag_180:\n        /* \"#utility.yul\":5743:5745   */\n      0x40\n        /* \"#utility.yul\":5738:5741   */\n      dup3\n        /* \"#utility.yul\":5734:5746   */\n      add\n        /* \"#utility.yul\":5727:5746   */\n      swap1\n      pop\n        /* \"#utility.yul\":5386:5752   */\n      swap2\n      swap1\n      pop\n      jump\t// out\n        /* \"#utility.yul\":5758:6177   */\n    tag_49:\n        /* \"#utility.yul\":5924:5928   */\n      0x00\n        /* \"#utility.yul\":5962:5964   */\n      0x20\n        /* \"#utility.yul\":5951:5960   */\n      dup3\n        /* \"#utility.yul\":5947:5965   */\n      add\n        /* \"#utility.yul\":5939:5965   */\n      swap1\n      pop\n        /* \"#utility.yul\":6011:6020   */\n      dup2\n        /* \"#utility.yul\":6005:6009   */\n      dup2\n        /* \"#utility.yul\":6001:6021   */\n      sub\n        /* \"#utility.yul\":5997:5998   */\n      0x00\n        /* \"#utility.yul\":5986:5995   */\n      dup4\n        /* \"#utility.yul\":5982:5999   */\n      add\n        /* \"#utility.yul\":5975:6022   */\n      mstore\n        /* \"#utility.yul\":6039:6170   */\n      tag_182\n        /* \"#utility.yul\":6165:6169   */\n      dup2\n        /* \"#utility.yul\":6039:6170   */\n      tag_105\n      jump\t// in\n    tag_182:\n        /* \"#utility.yul\":6031:6170   */\n      swap1\n      pop\n        /* \"#utility.yul\":5758:6177   */\n      swap2\n      swap1\n      pop\n      jump\t// out\n        /* \"#utility.yul\":6183:6355   */\n    tag_106:\n        /* \"#utility.yul\":6323:6347   */\n      0x496e76616c69642077616c6c6574206164647265737300000000000000000000\n        /* \"#utility.yul\":6319:6320   */\n      0x00\n        /* \"#utility.yul\":6311:6317   */\n      dup3\n        /* \"#utility.yul\":6307:6321   */\n      add\n        /* \"#utility.yul\":6300:6348   */\n      mstore\n        /* \"#utility.yul\":6183:6355   */\n      pop\n      jump\t// out\n        /* \"#utility.yul\":6361:6727   */\n    tag_107:\n        /* \"#utility.yul\":6503:6506   */\n      0x00\n        /* \"#utility.yul\":6524:6591   */\n      tag_185\n        /* \"#utility.yul\":6588:6590   */\n      0x16\n        /* \"#utility.yul\":6583:6586   */\n      dup4\n        /* \"#utility.yul\":6524:6591   */\n      tag_101\n      jump\t// in\n    tag_185:\n        /* \"#utility.yul\":6517:6591   */\n      swap2\n      pop\n        /* \"#utility.yul\":6600:6693   */\n      tag_186\n        /* \"#utility.yul\":6689:6692   */\n      dup3\n        /* \"#utility.yul\":6600:6693   */\n      tag_106\n      jump\t// in\n    tag_186:\n        /* \"#utility.yul\":6718:6720   */\n      0x20\n        /* \"#utility.yul\":6713:6716   */\n      dup3\n        /* \"#utility.yul\":6709:6721   */\n      add\n        /* \"#utility.yul\":6702:6721   */\n      swap1\n      pop\n        /* \"#utility.yul\":6361:6727   */\n      swap2\n      swap1\n      pop\n      jump\t// out\n        /* \"#utility.yul\":6733:7152   */\n    tag_58:\n        /* \"#utility.yul\":6899:6903   */\n      0x00\n        /* \"#utility.yul\":6937:6939   */\n      0x20\n        /* \"#utility.yul\":6926:6935   */\n      dup3\n        /* \"#utility.yul\":6922:6940   */\n      add\n        /* \"#utility.yul\":6914:6940   */\n      swap1\n      pop\n        /* \"#utility.yul\":6986:6995   */\n      dup2\n        /* \"#utility.yul\":6980:6984   */\n      dup2\n        /* \"#utility.yul\":6976:6996   */\n      sub\n        /* \"#utility.yul\":6972:6973   */\n      0x00\n        /* \"#utility.yul\":6961:6970   */\n      dup4\n        /* \"#utility.yul\":6957:6974   */\n      add\n        /* \"#utility.yul\":6950:6997   */\n      mstore\n        /* \"#utility.yul\":7014:7145   */\n      tag_188\n        /* \"#utility.yul\":7140:7144   */\n      dup2\n        /* \"#utility.yul\":7014:7145   */\n      tag_107\n      jump\t// in\n    tag_188:\n        /* \"#utility.yul\":7006:7145   */\n      swap1\n      pop\n        /* \"#utility.yul\":6733:7152   */\n      swap2\n      swap1\n      pop\n      jump\t// out\n        /* \"#utility.yul\":7158:7333   */\n    tag_108:\n        /* \"#utility.yul\":7298:7325   */\n      0x496e76616c696420726563697069656e74206164647265737300000000000000\n        /* \"#utility.yul\":7294:7295   */\n      0x00\n        /* \"#utility.yul\":7286:7292   */\n      dup3\n        /* \"#utility.yul\":7282:7296   */\n      add\n        /* \"#utility.yul\":7275:7326   */\n      mstore\n        /* \"#utility.yul\":7158:7333   */\n      pop\n      jump\t// out\n        /* \"#utility.yul\":7339:7705   */\n    tag_109:\n        /* \"#utility.yul\":7481:7484   */\n      0x00\n        /* \"#utility.yul\":7502:7569   */\n      tag_191\n        /* \"#utility.yul\":7566:7568   */\n      0x19\n        /* \"#utility.yul\":7561:7564   */\n      dup4\n        /* \"#utility.yul\":7502:7569   */\n      tag_101\n      jump\t// in\n    tag_191:\n        /* \"#utility.yul\":7495:7569   */\n      swap2\n      pop\n        /* \"#utility.yul\":7578:7671   */\n      tag_192\n        /* \"#utility.yul\":7667:7670   */\n      dup3\n        /* \"#utility.yul\":7578:7671   */\n      tag_108\n      jump\t// in\n    tag_192:\n        /* \"#utility.yul\":7696:7698   */\n      0x20\n        /* \"#utility.yul\":7691:7694   */\n      dup3\n        /* \"#utility.yul\":7687:7699   */\n      add\n        /* \"#utility.yul\":7680:7699   */\n      swap1\n      pop\n        /* \"#utility.yul\":7339:7705   */\n      swap2\n      swap1\n      pop\n      jump\t// out\n        /* \"#utility.yul\":7711:8130   */\n    tag_65:\n        /* \"#utility.yul\":7877:7881   */\n      0x00\n        /* \"#utility.yul\":7915:7917   */\n      0x20\n        /* \"#utility.yul\":7904:7913   */\n      dup3\n        /* \"#utility.yul\":7900:7918   */\n      add\n        /* \"#utility.yul\":7892:7918   */\n      swap1\n      pop\n        /* \"#utility.yul\":7964:7973   */\n      dup2\n        /* \"#utility.yul\":7958:7962   */\n      dup2\n        /* \"#utility.yul\":7954:7974   */\n      sub\n        /* \"#utility.yul\":7950:7951   */\n      0x00\n        /* \"#utility.yul\":7939:7948   */\n      dup4\n        /* \"#utility.yul\":7935:7952   */\n      add\n        /* \"#utility.yul\":7928:7975   */\n      mstore\n        /* \"#utility.yul\":7992:8123   */\n      tag_194\n        /* \"#utility.yul\":8118:8122   */\n      dup2\n        /* \"#utility.yul\":7992:8123   */\n      tag_109\n      jump\t// in\n    tag_194:\n        /* \"#utility.yul\":7984:8123   */\n      swap1\n      pop\n        /* \"#utility.yul\":7711:8130   */\n      swap2\n      swap1\n      pop\n      jump\t// out\n        /* \"#utility.yul\":8136:8309   */\n    tag_110:\n        /* \"#utility.yul\":8276:8301   */\n      0x496e76616c6964207472616e7366657220616d6f756e74000000000000000000\n        /* \"#utility.yul\":8272:8273   */\n      0x00\n        /* \"#utility.yul\":8264:8270   */\n      dup3\n        /* \"#utility.yul\":8260:8274   */\n      add\n        /* \"#utility.yul\":8253:8302   */\n      mstore\n        /* \"#utility.yul\":8136:8309   */\n      pop\n      jump\t// out\n        /* \"#utility.yul\":8315:8681   */\n    tag_111:\n        /* \"#utility.yul\":8457:8460   */\n      0x00\n        /* \"#utility.yul\":8478:8545   */\n      tag_197\n        /* \"#utility.yul\":8542:8544   */\n      0x17\n        /* \"#utility.yul\":8537:8540   */\n      dup4\n        /* \"#utility.yul\":8478:8545   */\n      tag_101\n      jump\t// in\n    tag_197:\n        /* \"#utility.yul\":8471:8545   */\n      swap2\n      pop\n        /* \"#utility.yul\":8554:8647   */\n      tag_198\n        /* \"#utility.yul\":8643:8646   */\n      dup3\n        /* \"#utility.yul\":8554:8647   */\n      tag_110\n      jump\t// in\n    tag_198:\n        /* \"#utility.yul\":8672:8674   */\n      0x20\n        /* \"#utility.yul\":8667:8670   */\n      dup3\n        /* \"#utility.yul\":8663:8675   */\n      add\n        /* \"#utility.yul\":8656:8675   */\n      swap1\n      pop\n        /* \"#utility.yul\":8315:8681   */\n      swap2\n      swap1\n      pop\n      jump\t// out\n        /* \"#utility.yul\":8687:9106   */\n    tag_68:\n        /* \"#utility.yul\":8853:8857   */\n      0x00\n        /* \"#utility.yul\":8891:8893   */\n      0x20\n        /* \"#utility.yul\":8880:8889   */\n      dup3\n        /* \"#utility.yul\":8876:8894   */\n      add\n        /* \"#utility.yul\":8868:8894   */\n      swap1\n      pop\n        /* \"#utility.yul\":8940:8949   */\n      dup2\n        /* \"#utility.yul\":8934:8938   */\n      dup2\n        /* \"#utility.yul\":8930:8950   */\n      sub\n        /* \"#utility.yul\":8926:8927   */\n      0x00\n        /* \"#utility.yul\":8915:8924   */\n      dup4\n        /* \"#utility.yul\":8911:8928   */\n      add\n        /* \"#utility.yul\":8904:8951   */\n      mstore\n        /* \"#utility.yul\":8968:9099   */\n      tag_200\n        /* \"#utility.yul\":9094:9098   */\n      dup2\n        /* \"#utility.yul\":8968:9099   */\n      tag_111\n      jump\t// in\n    tag_200:\n        /* \"#utility.yul\":8960:9099   */\n      swap1\n      pop\n        /* \"#utility.yul\":8687:9106   */\n      swap2\n      swap1\n      pop\n      jump\t// out\n        /* \"#utility.yul\":9112:9255   */\n    tag_112:\n        /* \"#utility.yul\":9169:9174   */\n      0x00\n        /* \"#utility.yul\":9200:9206   */\n      dup2\n        /* \"#utility.yul\":9194:9207   */\n      mload\n        /* \"#utility.yul\":9185:9207   */\n      swap1\n      pop\n        /* \"#utility.yul\":9216:9249   */\n      tag_202\n        /* \"#utility.yul\":9243:9248   */\n      dup2\n        /* \"#utility.yul\":9216:9249   */\n      tag_89\n      jump\t// in\n    tag_202:\n        /* \"#utility.yul\":9112:9255   */\n      swap3\n      swap2\n      pop\n      pop\n      jump\t// out\n        /* \"#utility.yul\":9261:9612   */\n    tag_73:\n        /* \"#utility.yul\":9331:9337   */\n      0x00\n        /* \"#utility.yul\":9380:9382   */\n      0x20\n        /* \"#utility.yul\":9368:9377   */\n      dup3\n        /* \"#utility.yul\":9359:9366   */\n      dup5\n        /* \"#utility.yul\":9355:9378   */\n      sub\n        /* \"#utility.yul\":9351:9383   */\n      slt\n        /* \"#utility.yul\":9348:9467   */\n      iszero\n      tag_204\n      jumpi\n        /* \"#utility.yul\":9386:9465   */\n      tag_205\n      tag_87\n      jump\t// in\n    tag_205:\n        /* \"#utility.yul\":9348:9467   */\n    tag_204:\n        /* \"#utility.yul\":9506:9507   */\n      0x00\n        /* \"#utility.yul\":9531:9595   */\n      tag_206\n        /* \"#utility.yul\":9587:9594   */\n      dup5\n        /* \"#utility.yul\":9578:9584   */\n      dup3\n        /* \"#utility.yul\":9567:9576   */\n      dup6\n        /* \"#utility.yul\":9563:9585   */\n      add\n        /* \"#utility.yul\":9531:9595   */\n      tag_112\n      jump\t// in\n    tag_206:\n        /* \"#utility.yul\":9521:9595   */\n      swap2\n      pop\n        /* \"#utility.yul\":9477:9605   */\n      pop\n        /* \"#utility.yul\":9261:9612   */\n      swap3\n      swap2\n      pop\n      pop\n      jump\t// out\n        /* \"#utility.yul\":9618:9800   */\n    tag_113:\n        /* \"#utility.yul\":9758:9792   */\n      0x496e73756666696369656e742062616c616e636520696e20636f6e7472616374\n        /* \"#utility.yul\":9754:9755   */\n      0x00\n        /* \"#utility.yul\":9746:9752   */\n      dup3\n        /* \"#utility.yul\":9742:9756   */\n      add\n        /* \"#utility.yul\":9735:9793   */\n      mstore\n        /* \"#utility.yul\":9618:9800   */\n      pop\n      jump\t// out\n        /* \"#utility.yul\":9806:10172   */\n    tag_114:\n        /* \"#utility.yul\":9948:9951   */\n      0x00\n        /* \"#utility.yul\":9969:10036   */\n      tag_209\n        /* \"#utility.yul\":10033:10035   */\n      0x20\n        /* \"#utility.yul\":10028:10031   */\n      dup4\n        /* \"#utility.yul\":9969:10036   */\n      tag_101\n      jump\t// in\n    tag_209:\n        /* \"#utility.yul\":9962:10036   */\n      swap2\n      pop\n        /* \"#utility.yul\":10045:10138   */\n      tag_210\n        /* \"#utility.yul\":10134:10137   */\n      dup3\n        /* \"#utility.yul\":10045:10138   */\n      tag_113\n      jump\t// in\n    tag_210:\n        /* \"#utility.yul\":10163:10165   */\n      0x20\n        /* \"#utility.yul\":10158:10161   */\n      dup3\n        /* \"#utility.yul\":10154:10166   */\n      add\n        /* \"#utility.yul\":10147:10166   */\n      swap1\n      pop\n        /* \"#utility.yul\":9806:10172   */\n      swap2\n      swap1\n      pop\n      jump\t// out\n        /* \"#utility.yul\":10178:10597   */\n    tag_76:\n        /* \"#utility.yul\":10344:10348   */\n      0x00\n        /* \"#utility.yul\":10382:10384   */\n      0x20\n        /* \"#utility.yul\":10371:10380   */\n      dup3\n        /* \"#utility.yul\":10367:10385   */\n      add\n        /* \"#utility.yul\":10359:10385   */\n      swap1\n      pop\n        /* \"#utility.yul\":10431:10440   */\n      dup2\n        /* \"#utility.yul\":10425:10429   */\n      dup2\n        /* \"#utility.yul\":10421:10441   */\n      sub\n        /* \"#utility.yul\":10417:10418   */\n      0x00\n        /* \"#utility.yul\":10406:10415   */\n      dup4\n        /* \"#utility.yul\":10402:10419   */\n      add\n        /* \"#utility.yul\":10395:10442   */\n      mstore\n        /* \"#utility.yul\":10459:10590   */\n      tag_212\n        /* \"#utility.yul\":10585:10589   */\n      dup2\n        /* \"#utility.yul\":10459:10590   */\n      tag_114\n      jump\t// in\n    tag_212:\n        /* \"#utility.yul\":10451:10590   */\n      swap1\n      pop\n        /* \"#utility.yul\":10178:10597   */\n      swap2\n      swap1\n      pop\n      jump\t// out\n        /* \"#utility.yul\":10603:10935   */\n    tag_78:\n        /* \"#utility.yul\":10724:10728   */\n      0x00\n        /* \"#utility.yul\":10762:10764   */\n      0x40\n        /* \"#utility.yul\":10751:10760   */\n      dup3\n        /* \"#utility.yul\":10747:10765   */\n      add\n        /* \"#utility.yul\":10739:10765   */\n      swap1\n      pop\n        /* \"#utility.yul\":10775:10846   */\n      tag_214\n        /* \"#utility.yul\":10843:10844   */\n      0x00\n        /* \"#utility.yul\":10832:10841   */\n      dup4\n        /* \"#utility.yul\":10828:10845   */\n      add\n        /* \"#utility.yul\":10819:10825   */\n      dup6\n        /* \"#utility.yul\":10775:10846   */\n      tag_100\n      jump\t// in\n    tag_214:\n        /* \"#utility.yul\":10856:10928   */\n      tag_215\n        /* \"#utility.yul\":10924:10926   */\n      0x20\n        /* \"#utility.yul\":10913:10922   */\n      dup4\n        /* \"#utility.yul\":10909:10927   */\n      add\n        /* \"#utility.yul\":10900:10906   */\n      dup5\n        /* \"#utility.yul\":10856:10928   */\n      tag_85\n      jump\t// in\n    tag_215:\n        /* \"#utility.yul\":10603:10935   */\n      swap4\n      swap3\n      pop\n      pop\n      pop\n      jump\t// out\n        /* \"#utility.yul\":10941:11031   */\n    tag_115:\n        /* \"#utility.yul\":10975:10982   */\n      0x00\n        /* \"#utility.yul\":11018:11023   */\n      dup2\n        /* \"#utility.yul\":11011:11024   */\n      iszero\n        /* \"#utility.yul\":11004:11025   */\n      iszero\n        /* \"#utility.yul\":10993:11025   */\n      swap1\n      pop\n        /* \"#utility.yul\":10941:11031   */\n      swap2\n      swap1\n      pop\n      jump\t// out\n        /* \"#utility.yul\":11037:11153   */\n    tag_116:\n        /* \"#utility.yul\":11107:11128   */\n      tag_218\n        /* \"#utility.yul\":11122:11127   */\n      dup2\n        /* \"#utility.yul\":11107:11128   */\n      tag_115\n      jump\t// in\n    tag_218:\n        /* \"#utility.yul\":11100:11105   */\n      dup2\n        /* \"#utility.yul\":11097:11129   */\n      eq\n        /* \"#utility.yul\":11087:11147   */\n      tag_219\n      jumpi\n        /* \"#utility.yul\":11143:11144   */\n      0x00\n        /* \"#utility.yul\":11140:11141   */\n      dup1\n        /* \"#utility.yul\":11133:11145   */\n      revert\n        /* \"#utility.yul\":11087:11147   */\n    tag_219:\n        /* \"#utility.yul\":11037:11153   */\n      pop\n      jump\t// out\n        /* \"#utility.yul\":11159:11296   */\n    tag_117:\n        /* \"#utility.yul\":11213:11218   */\n      0x00\n        /* \"#utility.yul\":11244:11250   */\n      dup2\n        /* \"#utility.yul\":11238:11251   */\n      mload\n        /* \"#utility.yul\":11229:11251   */\n      swap1\n      pop\n        /* \"#utility.yul\":11260:11290   */\n      tag_221\n        /* \"#utility.yul\":11284:11289   */\n      dup2\n        /* \"#utility.yul\":11260:11290   */\n      tag_116\n      jump\t// in\n    tag_221:\n        /* \"#utility.yul\":11159:11296   */\n      swap3\n      swap2\n      pop\n      pop\n      jump\t// out\n        /* \"#utility.yul\":11302:11647   */\n    tag_82:\n        /* \"#utility.yul\":11369:11375   */\n      0x00\n        /* \"#utility.yul\":11418:11420   */\n      0x20\n        /* \"#utility.yul\":11406:11415   */\n      dup3\n        /* \"#utility.yul\":11397:11404   */\n      dup5\n        /* \"#utility.yul\":11393:11416   */\n      sub\n        /* \"#utility.yul\":11389:11421   */\n      slt\n        /* \"#utility.yul\":11386:11505   */\n      iszero\n      tag_223\n      jumpi\n        /* \"#utility.yul\":11424:11503   */\n      tag_224\n      tag_87\n      jump\t// in\n    tag_224:\n        /* \"#utility.yul\":11386:11505   */\n    tag_223:\n        /* \"#utility.yul\":11544:11545   */\n      0x00\n        /* \"#utility.yul\":11569:11630   */\n      tag_225\n        /* \"#utility.yul\":11622:11629   */\n      dup5\n        /* \"#utility.yul\":11613:11619   */\n      dup3\n        /* \"#utility.yul\":11602:11611   */\n      dup6\n        /* \"#utility.yul\":11598:11620   */\n      add\n        /* \"#utility.yul\":11569:11630   */\n      tag_117\n      jump\t// in\n    tag_225:\n        /* \"#utility.yul\":11559:11630   */\n      swap2\n      pop\n        /* \"#utility.yul\":11515:11640   */\n      pop\n        /* \"#utility.yul\":11302:11647   */\n      swap3\n      swap2\n      pop\n      pop\n      jump\t// out\n\n    auxdata: 0xa26469706673582212201bfb450bfe7b001e2c3e185c18b6c55f88f3e7ace5e928f21cceec9e6b71e36f64736f6c63430008180033\n}\n",
				"bytecode": {
					"linkReferences": {},
					"object": "608060405234801561000f575f80fd5b5060405162000efa38038062000efa83398181016040528101906100339190610157565b335f806101000a81548173ffffffffffffffffffffffffffffffffffffffff021916908373ffffffffffffffffffffffffffffffffffffffff1602179055508060015f6101000a81548173ffffffffffffffffffffffffffffffffffffffff021916908373ffffffffffffffffffffffffffffffffffffffff1602179055508160025f6101000a81548173ffffffffffffffffffffffffffffffffffffffff021916908373ffffffffffffffffffffffffffffffffffffffff1602179055505050610195565b5f80fd5b5f73ffffffffffffffffffffffffffffffffffffffff82169050919050565b5f610126826100fd565b9050919050565b6101368161011c565b8114610140575f80fd5b50565b5f815190506101518161012d565b92915050565b5f806040838503121561016d5761016c6100f9565b5b5f61017a85828601610143565b925050602061018b85828601610143565b9150509250929050565b610d5780620001a35f395ff3fe608060405260043610610058575f3560e01c8063127f4b2e146100b15780632b17b6a9146100d95780634a1f83661461010357806353b7a59b1461012b5780638da5cb5b14610155578063eb17fba31461017f576100ad565b366100ad573373ffffffffffffffffffffffffffffffffffffffff167fe1fffcc4923d04b559f4d29a8bfc6cda04eb5b0d3c460751c2402c5c5cc9109c346040516100a391906107be565b60405180910390a2005b5f80fd5b3480156100bc575f80fd5b506100d760048036038101906100d29190610805565b6101a7565b005b3480156100e4575f80fd5b506100ed6102dd565b6040516100fa91906108aa565b60405180910390f35b34801561010e575f80fd5b50610129600480360381019061012491906108fe565b610302565b005b348015610136575f80fd5b5061013f610440565b60405161014c9190610938565b60405180910390f35b348015610160575f80fd5b50610169610465565b6040516101769190610938565b60405180910390f35b34801561018a575f80fd5b506101a560048036038101906101a09190610951565b610488565b005b5f8054906101000a900473ffffffffffffffffffffffffffffffffffffffff1673ffffffffffffffffffffffffffffffffffffffff163373ffffffffffffffffffffffffffffffffffffffff1614610234576040517f08c379a000000000000000000000000000000000000000000000000000000000815260040161022b90610a0f565b60405180910390fd5b80471015610277576040517f08c379a000000000000000000000000000000000000000000000000000000000815260040161026e90610a9d565b60405180910390fd5b5f8054906101000a900473ffffffffffffffffffffffffffffffffffffffff1673ffffffffffffffffffffffffffffffffffffffff166108fc8290811502906040515f60405180830381858888f193505050501580156102d9573d5f803e3d5ffd5b5050565b60025f9054906101000a900473ffffffffffffffffffffffffffffffffffffffff1681565b5f8054906101000a900473ffffffffffffffffffffffffffffffffffffffff1673ffffffffffffffffffffffffffffffffffffffff163373ffffffffffffffffffffffffffffffffffffffff161461038f576040517f08c379a000000000000000000000000000000000000000000000000000000000815260040161038690610a0f565b60405180910390fd5b5f73ffffffffffffffffffffffffffffffffffffffff168173ffffffffffffffffffffffffffffffffffffffff16036103fd576040517f08c379a00000000000000000000000000000000000000000000000000000000081526004016103f490610b05565b60405180910390fd5b8060015f6101000a81548173ffffffffffffffffffffffffffffffffffffffff021916908373ffffffffffffffffffffffffffffffffffffffff16021790555050565b60015f9054906101000a900473ffffffffffffffffffffffffffffffffffffffff1681565b5f8054906101000a900473ffffffffffffffffffffffffffffffffffffffff1681565b5f8054906101000a900473ffffffffffffffffffffffffffffffffffffffff1673ffffffffffffffffffffffffffffffffffffffff163373ffffffffffffffffffffffffffffffffffffffff1614610515576040517f08c379a000000000000000000000000000000000000000000000000000000000815260040161050c90610a0f565b60405180910390fd5b5f73ffffffffffffffffffffffffffffffffffffffff168273ffffffffffffffffffffffffffffffffffffffff1603610583576040517f08c379a000000000000000000000000000000000000000000000000000000000815260040161057a90610b6d565b60405180910390fd5b5f81116105c5576040517f08c379a00000000000000000000000000000000000000000000000000000000081526004016105bc90610bd5565b60405180910390fd5b8060025f9054906101000a900473ffffffffffffffffffffffffffffffffffffffff1673ffffffffffffffffffffffffffffffffffffffff166370a08231306040518263ffffffff1660e01b81526004016106209190610938565b602060405180830381865afa15801561063b573d5f803e3d5ffd5b505050506040513d601f19601f8201168201806040525081019061065f9190610c07565b10156106a0576040517f08c379a000000000000000000000000000000000000000000000000000000000815260040161069790610c7c565b60405180910390fd5b60025f9054906101000a900473ffffffffffffffffffffffffffffffffffffffff1673ffffffffffffffffffffffffffffffffffffffff1663a9059cbb83836040518363ffffffff1660e01b81526004016106fc929190610c9a565b6020604051808303815f875af1158015610718573d5f803e3d5ffd5b505050506040513d601f19601f8201168201806040525081019061073c9190610cf6565b508173ffffffffffffffffffffffffffffffffffffffff163073ffffffffffffffffffffffffffffffffffffffff167fddf252ad1be2c89b69c2b068fc378daa952ba7f163c4a11628f55a4df523b3ef8360405161079a91906107be565b60405180910390a35050565b5f819050919050565b6107b8816107a6565b82525050565b5f6020820190506107d15f8301846107af565b92915050565b5f80fd5b6107e4816107a6565b81146107ee575f80fd5b50565b5f813590506107ff816107db565b92915050565b5f6020828403121561081a576108196107d7565b5b5f610827848285016107f1565b91505092915050565b5f73ffffffffffffffffffffffffffffffffffffffff82169050919050565b5f819050919050565b5f61087261086d61086884610830565b61084f565b610830565b9050919050565b5f61088382610858565b9050919050565b5f61089482610879565b9050919050565b6108a48161088a565b82525050565b5f6020820190506108bd5f83018461089b565b92915050565b5f6108cd82610830565b9050919050565b6108dd816108c3565b81146108e7575f80fd5b50565b5f813590506108f8816108d4565b92915050565b5f60208284031215610913576109126107d7565b5b5f610920848285016108ea565b91505092915050565b610932816108c3565b82525050565b5f60208201905061094b5f830184610929565b92915050565b5f8060408385031215610967576109666107d7565b5b5f610974858286016108ea565b9250506020610985858286016107f1565b9150509250929050565b5f82825260208201905092915050565b7f4f6e6c79206f776e65722063616e2063616c6c20746869732066756e6374696f5f8201527f6e00000000000000000000000000000000000000000000000000000000000000602082015250565b5f6109f960218361098f565b9150610a048261099f565b604082019050919050565b5f6020820190508181035f830152610a26816109ed565b9050919050565b7f496e73756666696369656e7420424e422062616c616e636520696e20636f6e745f8201527f7261637400000000000000000000000000000000000000000000000000000000602082015250565b5f610a8760248361098f565b9150610a9282610a2d565b604082019050919050565b5f6020820190508181035f830152610ab481610a7b565b9050919050565b7f496e76616c69642077616c6c65742061646472657373000000000000000000005f82015250565b5f610aef60168361098f565b9150610afa82610abb565b602082019050919050565b5f6020820190508181035f830152610b1c81610ae3565b9050919050565b7f496e76616c696420726563697069656e742061646472657373000000000000005f82015250565b5f610b5760198361098f565b9150610b6282610b23565b602082019050919050565b5f6020820190508181035f830152610b8481610b4b565b9050919050565b7f496e76616c6964207472616e7366657220616d6f756e740000000000000000005f82015250565b5f610bbf60178361098f565b9150610bca82610b8b565b602082019050919050565b5f6020820190508181035f830152610bec81610bb3565b9050919050565b5f81519050610c01816107db565b92915050565b5f60208284031215610c1c57610c1b6107d7565b5b5f610c2984828501610bf3565b91505092915050565b7f496e73756666696369656e742062616c616e636520696e20636f6e74726163745f82015250565b5f610c6660208361098f565b9150610c7182610c32565b602082019050919050565b5f6020820190508181035f830152610c9381610c5a565b9050919050565b5f604082019050610cad5f830185610929565b610cba60208301846107af565b9392505050565b5f8115159050919050565b610cd581610cc1565b8114610cdf575f80fd5b50565b5f81519050610cf081610ccc565b92915050565b5f60208284031215610d0b57610d0a6107d7565b5b5f610d1884828501610ce2565b9150509291505056fea26469706673582212201bfb450bfe7b001e2c3e185c18b6c55f88f3e7ace5e928f21cceec9e6b71e36f64736f6c63430008180033",
					"opcodes": "PUSH1 0x80 PUSH1 0x40 MSTORE CALLVALUE DUP1 ISZERO PUSH2 0xF JUMPI PUSH0 DUP1 REVERT JUMPDEST POP PUSH1 0x40 MLOAD PUSH3 0xEFA CODESIZE SUB DUP1 PUSH3 0xEFA DUP4 CODECOPY DUP2 DUP2 ADD PUSH1 0x40 MSTORE DUP2 ADD SWAP1 PUSH2 0x33 SWAP2 SWAP1 PUSH2 0x157 JUMP JUMPDEST CALLER PUSH0 DUP1 PUSH2 0x100 EXP DUP2 SLOAD DUP2 PUSH20 0xFFFFFFFFFFFFFFFFFFFFFFFFFFFFFFFFFFFFFFFF MUL NOT AND SWAP1 DUP4 PUSH20 0xFFFFFFFFFFFFFFFFFFFFFFFFFFFFFFFFFFFFFFFF AND MUL OR SWAP1 SSTORE POP DUP1 PUSH1 0x1 PUSH0 PUSH2 0x100 EXP DUP2 SLOAD DUP2 PUSH20 0xFFFFFFFFFFFFFFFFFFFFFFFFFFFFFFFFFFFFFFFF MUL NOT AND SWAP1 DUP4 PUSH20 0xFFFFFFFFFFFFFFFFFFFFFFFFFFFFFFFFFFFFFFFF AND MUL OR SWAP1 SSTORE POP DUP2 PUSH1 0x2 PUSH0 PUSH2 0x100 EXP DUP2 SLOAD DUP2 PUSH20 0xFFFFFFFFFFFFFFFFFFFFFFFFFFFFFFFFFFFFFFFF MUL NOT AND SWAP1 DUP4 PUSH20 0xFFFFFFFFFFFFFFFFFFFFFFFFFFFFFFFFFFFFFFFF AND MUL OR SWAP1 SSTORE POP POP POP PUSH2 0x195 JUMP JUMPDEST PUSH0 DUP1 REVERT JUMPDEST PUSH0 PUSH20 0xFFFFFFFFFFFFFFFFFFFFFFFFFFFFFFFFFFFFFFFF DUP3 AND SWAP1 POP SWAP2 SWAP1 POP JUMP JUMPDEST PUSH0 PUSH2 0x126 DUP3 PUSH2 0xFD JUMP JUMPDEST SWAP1 POP SWAP2 SWAP1 POP JUMP JUMPDEST PUSH2 0x136 DUP2 PUSH2 0x11C JUMP JUMPDEST DUP2 EQ PUSH2 0x140 JUMPI PUSH0 DUP1 REVERT JUMPDEST POP JUMP JUMPDEST PUSH0 DUP2 MLOAD SWAP1 POP PUSH2 0x151 DUP2 PUSH2 0x12D JUMP JUMPDEST SWAP3 SWAP2 POP POP JUMP JUMPDEST PUSH0 DUP1 PUSH1 0x40 DUP4 DUP6 SUB SLT ISZERO PUSH2 0x16D JUMPI PUSH2 0x16C PUSH2 0xF9 JUMP JUMPDEST JUMPDEST PUSH0 PUSH2 0x17A DUP6 DUP3 DUP7 ADD PUSH2 0x143 JUMP JUMPDEST SWAP3 POP POP PUSH1 0x20 PUSH2 0x18B DUP6 DUP3 DUP7 ADD PUSH2 0x143 JUMP JUMPDEST SWAP2 POP POP SWAP3 POP SWAP3 SWAP1 POP JUMP JUMPDEST PUSH2 0xD57 DUP1 PUSH3 0x1A3 PUSH0 CODECOPY PUSH0 RETURN INVALID PUSH1 0x80 PUSH1 0x40 MSTORE PUSH1 0x4 CALLDATASIZE LT PUSH2 0x58 JUMPI PUSH0 CALLDATALOAD PUSH1 0xE0 SHR DUP1 PUSH4 0x127F4B2E EQ PUSH2 0xB1 JUMPI DUP1 PUSH4 0x2B17B6A9 EQ PUSH2 0xD9 JUMPI DUP1 PUSH4 0x4A1F8366 EQ PUSH2 0x103 JUMPI DUP1 PUSH4 0x53B7A59B EQ PUSH2 0x12B JUMPI DUP1 PUSH4 0x8DA5CB5B EQ PUSH2 0x155 JUMPI DUP1 PUSH4 0xEB17FBA3 EQ PUSH2 0x17F JUMPI PUSH2 0xAD JUMP JUMPDEST CALLDATASIZE PUSH2 0xAD JUMPI CALLER PUSH20 0xFFFFFFFFFFFFFFFFFFFFFFFFFFFFFFFFFFFFFFFF AND PUSH32 0xE1FFFCC4923D04B559F4D29A8BFC6CDA04EB5B0D3C460751C2402C5C5CC9109C CALLVALUE PUSH1 0x40 MLOAD PUSH2 0xA3 SWAP2 SWAP1 PUSH2 0x7BE JUMP JUMPDEST PUSH1 0x40 MLOAD DUP1 SWAP2 SUB SWAP1 LOG2 STOP JUMPDEST PUSH0 DUP1 REVERT JUMPDEST CALLVALUE DUP1 ISZERO PUSH2 0xBC JUMPI PUSH0 DUP1 REVERT JUMPDEST POP PUSH2 0xD7 PUSH1 0x4 DUP1 CALLDATASIZE SUB DUP2 ADD SWAP1 PUSH2 0xD2 SWAP2 SWAP1 PUSH2 0x805 JUMP JUMPDEST PUSH2 0x1A7 JUMP JUMPDEST STOP JUMPDEST CALLVALUE DUP1 ISZERO PUSH2 0xE4 JUMPI PUSH0 DUP1 REVERT JUMPDEST POP PUSH2 0xED PUSH2 0x2DD JUMP JUMPDEST PUSH1 0x40 MLOAD PUSH2 0xFA SWAP2 SWAP1 PUSH2 0x8AA JUMP JUMPDEST PUSH1 0x40 MLOAD DUP1 SWAP2 SUB SWAP1 RETURN JUMPDEST CALLVALUE DUP1 ISZERO PUSH2 0x10E JUMPI PUSH0 DUP1 REVERT JUMPDEST POP PUSH2 0x129 PUSH1 0x4 DUP1 CALLDATASIZE SUB DUP2 ADD SWAP1 PUSH2 0x124 SWAP2 SWAP1 PUSH2 0x8FE JUMP JUMPDEST PUSH2 0x302 JUMP JUMPDEST STOP JUMPDEST CALLVALUE DUP1 ISZERO PUSH2 0x136 JUMPI PUSH0 DUP1 REVERT JUMPDEST POP PUSH2 0x13F PUSH2 0x440 JUMP JUMPDEST PUSH1 0x40 MLOAD PUSH2 0x14C SWAP2 SWAP1 PUSH2 0x938 JUMP JUMPDEST PUSH1 0x40 MLOAD DUP1 SWAP2 SUB SWAP1 RETURN JUMPDEST CALLVALUE DUP1 ISZERO PUSH2 0x160 JUMPI PUSH0 DUP1 REVERT JUMPDEST POP PUSH2 0x169 PUSH2 0x465 JUMP JUMPDEST PUSH1 0x40 MLOAD PUSH2 0x176 SWAP2 SWAP1 PUSH2 0x938 JUMP JUMPDEST PUSH1 0x40 MLOAD DUP1 SWAP2 SUB SWAP1 RETURN JUMPDEST CALLVALUE DUP1 ISZERO PUSH2 0x18A JUMPI PUSH0 DUP1 REVERT JUMPDEST POP PUSH2 0x1A5 PUSH1 0x4 DUP1 CALLDATASIZE SUB DUP2 ADD SWAP1 PUSH2 0x1A0 SWAP2 SWAP1 PUSH2 0x951 JUMP JUMPDEST PUSH2 0x488 JUMP JUMPDEST STOP JUMPDEST PUSH0 DUP1 SLOAD SWAP1 PUSH2 0x100 EXP SWAP1 DIV PUSH20 0xFFFFFFFFFFFFFFFFFFFFFFFFFFFFFFFFFFFFFFFF AND PUSH20 0xFFFFFFFFFFFFFFFFFFFFFFFFFFFFFFFFFFFFFFFF AND CALLER PUSH20 0xFFFFFFFFFFFFFFFFFFFFFFFFFFFFFFFFFFFFFFFF AND EQ PUSH2 0x234 JUMPI PUSH1 0x40 MLOAD PUSH32 0x8C379A000000000000000000000000000000000000000000000000000000000 DUP2 MSTORE PUSH1 0x4 ADD PUSH2 0x22B SWAP1 PUSH2 0xA0F JUMP JUMPDEST PUSH1 0x40 MLOAD DUP1 SWAP2 SUB SWAP1 REVERT JUMPDEST DUP1 SELFBALANCE LT ISZERO PUSH2 0x277 JUMPI PUSH1 0x40 MLOAD PUSH32 0x8C379A000000000000000000000000000000000000000000000000000000000 DUP2 MSTORE PUSH1 0x4 ADD PUSH2 0x26E SWAP1 PUSH2 0xA9D JUMP JUMPDEST PUSH1 0x40 MLOAD DUP1 SWAP2 SUB SWAP1 REVERT JUMPDEST PUSH0 DUP1 SLOAD SWAP1 PUSH2 0x100 EXP SWAP1 DIV PUSH20 0xFFFFFFFFFFFFFFFFFFFFFFFFFFFFFFFFFFFFFFFF AND PUSH20 0xFFFFFFFFFFFFFFFFFFFFFFFFFFFFFFFFFFFFFFFF AND PUSH2 0x8FC DUP3 SWAP1 DUP2 ISZERO MUL SWAP1 PUSH1 0x40 MLOAD PUSH0 PUSH1 0x40 MLOAD DUP1 DUP4 SUB DUP2 DUP6 DUP9 DUP9 CALL SWAP4 POP POP POP POP ISZERO DUP1 ISZERO PUSH2 0x2D9 JUMPI RETURNDATASIZE PUSH0 DUP1 RETURNDATACOPY RETURNDATASIZE PUSH0 REVERT JUMPDEST POP POP JUMP JUMPDEST PUSH1 0x2 PUSH0 SWAP1 SLOAD SWAP1 PUSH2 0x100 EXP SWAP1 DIV PUSH20 0xFFFFFFFFFFFFFFFFFFFFFFFFFFFFFFFFFFFFFFFF AND DUP2 JUMP JUMPDEST PUSH0 DUP1 SLOAD SWAP1 PUSH2 0x100 EXP SWAP1 DIV PUSH20 0xFFFFFFFFFFFFFFFFFFFFFFFFFFFFFFFFFFFFFFFF AND PUSH20 0xFFFFFFFFFFFFFFFFFFFFFFFFFFFFFFFFFFFFFFFF AND CALLER PUSH20 0xFFFFFFFFFFFFFFFFFFFFFFFFFFFFFFFFFFFFFFFF AND EQ PUSH2 0x38F JUMPI PUSH1 0x40 MLOAD PUSH32 0x8C379A000000000000000000000000000000000000000000000000000000000 DUP2 MSTORE PUSH1 0x4 ADD PUSH2 0x386 SWAP1 PUSH2 0xA0F JUMP JUMPDEST PUSH1 0x40 MLOAD DUP1 SWAP2 SUB SWAP1 REVERT JUMPDEST PUSH0 PUSH20 0xFFFFFFFFFFFFFFFFFFFFFFFFFFFFFFFFFFFFFFFF AND DUP2 PUSH20 0xFFFFFFFFFFFFFFFFFFFFFFFFFFFFFFFFFFFFFFFF AND SUB PUSH2 0x3FD JUMPI PUSH1 0x40 MLOAD PUSH32 0x8C379A000000000000000000000000000000000000000000000000000000000 DUP2 MSTORE PUSH1 0x4 ADD PUSH2 0x3F4 SWAP1 PUSH2 0xB05 JUMP JUMPDEST PUSH1 0x40 MLOAD DUP1 SWAP2 SUB SWAP1 REVERT JUMPDEST DUP1 PUSH1 0x1 PUSH0 PUSH2 0x100 EXP DUP2 SLOAD DUP2 PUSH20 0xFFFFFFFFFFFFFFFFFFFFFFFFFFFFFFFFFFFFFFFF MUL NOT AND SWAP1 DUP4 PUSH20 0xFFFFFFFFFFFFFFFFFFFFFFFFFFFFFFFFFFFFFFFF AND MUL OR SWAP1 SSTORE POP POP JUMP JUMPDEST PUSH1 0x1 PUSH0 SWAP1 SLOAD SWAP1 PUSH2 0x100 EXP SWAP1 DIV PUSH20 0xFFFFFFFFFFFFFFFFFFFFFFFFFFFFFFFFFFFFFFFF AND DUP2 JUMP JUMPDEST PUSH0 DUP1 SLOAD SWAP1 PUSH2 0x100 EXP SWAP1 DIV PUSH20 0xFFFFFFFFFFFFFFFFFFFFFFFFFFFFFFFFFFFFFFFF AND DUP2 JUMP JUMPDEST PUSH0 DUP1 SLOAD SWAP1 PUSH2 0x100 EXP SWAP1 DIV PUSH20 0xFFFFFFFFFFFFFFFFFFFFFFFFFFFFFFFFFFFFFFFF AND PUSH20 0xFFFFFFFFFFFFFFFFFFFFFFFFFFFFFFFFFFFFFFFF AND CALLER PUSH20 0xFFFFFFFFFFFFFFFFFFFFFFFFFFFFFFFFFFFFFFFF AND EQ PUSH2 0x515 JUMPI PUSH1 0x40 MLOAD PUSH32 0x8C379A000000000000000000000000000000000000000000000000000000000 DUP2 MSTORE PUSH1 0x4 ADD PUSH2 0x50C SWAP1 PUSH2 0xA0F JUMP JUMPDEST PUSH1 0x40 MLOAD DUP1 SWAP2 SUB SWAP1 REVERT JUMPDEST PUSH0 PUSH20 0xFFFFFFFFFFFFFFFFFFFFFFFFFFFFFFFFFFFFFFFF AND DUP3 PUSH20 0xFFFFFFFFFFFFFFFFFFFFFFFFFFFFFFFFFFFFFFFF AND SUB PUSH2 0x583 JUMPI PUSH1 0x40 MLOAD PUSH32 0x8C379A000000000000000000000000000000000000000000000000000000000 DUP2 MSTORE PUSH1 0x4 ADD PUSH2 0x57A SWAP1 PUSH2 0xB6D JUMP JUMPDEST PUSH1 0x40 MLOAD DUP1 SWAP2 SUB SWAP1 REVERT JUMPDEST PUSH0 DUP2 GT PUSH2 0x5C5 JUMPI PUSH1 0x40 MLOAD PUSH32 0x8C379A000000000000000000000000000000000000000000000000000000000 DUP2 MSTORE PUSH1 0x4 ADD PUSH2 0x5BC SWAP1 PUSH2 0xBD5 JUMP JUMPDEST PUSH1 0x40 MLOAD DUP1 SWAP2 SUB SWAP1 REVERT JUMPDEST DUP1 PUSH1 0x2 PUSH0 SWAP1 SLOAD SWAP1 PUSH2 0x100 EXP SWAP1 DIV PUSH20 0xFFFFFFFFFFFFFFFFFFFFFFFFFFFFFFFFFFFFFFFF AND PUSH20 0xFFFFFFFFFFFFFFFFFFFFFFFFFFFFFFFFFFFFFFFF AND PUSH4 0x70A08231 ADDRESS PUSH1 0x40 MLOAD DUP3 PUSH4 0xFFFFFFFF AND PUSH1 0xE0 SHL DUP2 MSTORE PUSH1 0x4 ADD PUSH2 0x620 SWAP2 SWAP1 PUSH2 0x938 JUMP JUMPDEST PUSH1 0x20 PUSH1 0x40 MLOAD DUP1 DUP4 SUB DUP2 DUP7 GAS STATICCALL ISZERO DUP1 ISZERO PUSH2 0x63B JUMPI RETURNDATASIZE PUSH0 DUP1 RETURNDATACOPY RETURNDATASIZE PUSH0 REVERT JUMPDEST POP POP POP POP PUSH1 0x40 MLOAD RETURNDATASIZE PUSH1 0x1F NOT PUSH1 0x1F DUP3 ADD AND DUP3 ADD DUP1 PUSH1 0x40 MSTORE POP DUP2 ADD SWAP1 PUSH2 0x65F SWAP2 SWAP1 PUSH2 0xC07 JUMP JUMPDEST LT ISZERO PUSH2 0x6A0 JUMPI PUSH1 0x40 MLOAD PUSH32 0x8C379A000000000000000000000000000000000000000000000000000000000 DUP2 MSTORE PUSH1 0x4 ADD PUSH2 0x697 SWAP1 PUSH2 0xC7C JUMP JUMPDEST PUSH1 0x40 MLOAD DUP1 SWAP2 SUB SWAP1 REVERT JUMPDEST PUSH1 0x2 PUSH0 SWAP1 SLOAD SWAP1 PUSH2 0x100 EXP SWAP1 DIV PUSH20 0xFFFFFFFFFFFFFFFFFFFFFFFFFFFFFFFFFFFFFFFF AND PUSH20 0xFFFFFFFFFFFFFFFFFFFFFFFFFFFFFFFFFFFFFFFF AND PUSH4 0xA9059CBB DUP4 DUP4 PUSH1 0x40 MLOAD DUP4 PUSH4 0xFFFFFFFF AND PUSH1 0xE0 SHL DUP2 MSTORE PUSH1 0x4 ADD PUSH2 0x6FC SWAP3 SWAP2 SWAP1 PUSH2 0xC9A JUMP JUMPDEST PUSH1 0x20 PUSH1 0x40 MLOAD DUP1 DUP4 SUB DUP2 PUSH0 DUP8 GAS CALL ISZERO DUP1 ISZERO PUSH2 0x718 JUMPI RETURNDATASIZE PUSH0 DUP1 RETURNDATACOPY RETURNDATASIZE PUSH0 REVERT JUMPDEST POP POP POP POP PUSH1 0x40 MLOAD RETURNDATASIZE PUSH1 0x1F NOT PUSH1 0x1F DUP3 ADD AND DUP3 ADD DUP1 PUSH1 0x40 MSTORE POP DUP2 ADD SWAP1 PUSH2 0x73C SWAP2 SWAP1 PUSH2 0xCF6 JUMP JUMPDEST POP DUP2 PUSH20 0xFFFFFFFFFFFFFFFFFFFFFFFFFFFFFFFFFFFFFFFF AND ADDRESS PUSH20 0xFFFFFFFFFFFFFFFFFFFFFFFFFFFFFFFFFFFFFFFF AND PUSH32 0xDDF252AD1BE2C89B69C2B068FC378DAA952BA7F163C4A11628F55A4DF523B3EF DUP4 PUSH1 0x40 MLOAD PUSH2 0x79A SWAP2 SWAP1 PUSH2 0x7BE JUMP JUMPDEST PUSH1 0x40 MLOAD DUP1 SWAP2 SUB SWAP1 LOG3 POP POP JUMP JUMPDEST PUSH0 DUP2 SWAP1 POP SWAP2 SWAP1 POP JUMP JUMPDEST PUSH2 0x7B8 DUP2 PUSH2 0x7A6 JUMP JUMPDEST DUP3 MSTORE POP POP JUMP JUMPDEST PUSH0 PUSH1 0x20 DUP3 ADD SWAP1 POP PUSH2 0x7D1 PUSH0 DUP4 ADD DUP5 PUSH2 0x7AF JUMP JUMPDEST SWAP3 SWAP2 POP POP JUMP JUMPDEST PUSH0 DUP1 REVERT JUMPDEST PUSH2 0x7E4 DUP2 PUSH2 0x7A6 JUMP JUMPDEST DUP2 EQ PUSH2 0x7EE JUMPI PUSH0 DUP1 REVERT JUMPDEST POP JUMP JUMPDEST PUSH0 DUP2 CALLDATALOAD SWAP1 POP PUSH2 0x7FF DUP2 PUSH2 0x7DB JUMP JUMPDEST SWAP3 SWAP2 POP POP JUMP JUMPDEST PUSH0 PUSH1 0x20 DUP3 DUP5 SUB SLT ISZERO PUSH2 0x81A JUMPI PUSH2 0x819 PUSH2 0x7D7 JUMP JUMPDEST JUMPDEST PUSH0 PUSH2 0x827 DUP5 DUP3 DUP6 ADD PUSH2 0x7F1 JUMP JUMPDEST SWAP2 POP POP SWAP3 SWAP2 POP POP JUMP JUMPDEST PUSH0 PUSH20 0xFFFFFFFFFFFFFFFFFFFFFFFFFFFFFFFFFFFFFFFF DUP3 AND SWAP1 POP SWAP2 SWAP1 POP JUMP JUMPDEST PUSH0 DUP2 SWAP1 POP SWAP2 SWAP1 POP JUMP JUMPDEST PUSH0 PUSH2 0x872 PUSH2 0x86D PUSH2 0x868 DUP5 PUSH2 0x830 JUMP JUMPDEST PUSH2 0x84F JUMP JUMPDEST PUSH2 0x830 JUMP JUMPDEST SWAP1 POP SWAP2 SWAP1 POP JUMP JUMPDEST PUSH0 PUSH2 0x883 DUP3 PUSH2 0x858 JUMP JUMPDEST SWAP1 POP SWAP2 SWAP1 POP JUMP JUMPDEST PUSH0 PUSH2 0x894 DUP3 PUSH2 0x879 JUMP JUMPDEST SWAP1 POP SWAP2 SWAP1 POP JUMP JUMPDEST PUSH2 0x8A4 DUP2 PUSH2 0x88A JUMP JUMPDEST DUP3 MSTORE POP POP JUMP JUMPDEST PUSH0 PUSH1 0x20 DUP3 ADD SWAP1 POP PUSH2 0x8BD PUSH0 DUP4 ADD DUP5 PUSH2 0x89B JUMP JUMPDEST SWAP3 SWAP2 POP POP JUMP JUMPDEST PUSH0 PUSH2 0x8CD DUP3 PUSH2 0x830 JUMP JUMPDEST SWAP1 POP SWAP2 SWAP1 POP JUMP JUMPDEST PUSH2 0x8DD DUP2 PUSH2 0x8C3 JUMP JUMPDEST DUP2 EQ PUSH2 0x8E7 JUMPI PUSH0 DUP1 REVERT JUMPDEST POP JUMP JUMPDEST PUSH0 DUP2 CALLDATALOAD SWAP1 POP PUSH2 0x8F8 DUP2 PUSH2 0x8D4 JUMP JUMPDEST SWAP3 SWAP2 POP POP JUMP JUMPDEST PUSH0 PUSH1 0x20 DUP3 DUP5 SUB SLT ISZERO PUSH2 0x913 JUMPI PUSH2 0x912 PUSH2 0x7D7 JUMP JUMPDEST JUMPDEST PUSH0 PUSH2 0x920 DUP5 DUP3 DUP6 ADD PUSH2 0x8EA JUMP JUMPDEST SWAP2 POP POP SWAP3 SWAP2 POP POP JUMP JUMPDEST PUSH2 0x932 DUP2 PUSH2 0x8C3 JUMP JUMPDEST DUP3 MSTORE POP POP JUMP JUMPDEST PUSH0 PUSH1 0x20 DUP3 ADD SWAP1 POP PUSH2 0x94B PUSH0 DUP4 ADD DUP5 PUSH2 0x929 JUMP JUMPDEST SWAP3 SWAP2 POP POP JUMP JUMPDEST PUSH0 DUP1 PUSH1 0x40 DUP4 DUP6 SUB SLT ISZERO PUSH2 0x967 JUMPI PUSH2 0x966 PUSH2 0x7D7 JUMP JUMPDEST JUMPDEST PUSH0 PUSH2 0x974 DUP6 DUP3 DUP7 ADD PUSH2 0x8EA JUMP JUMPDEST SWAP3 POP POP PUSH1 0x20 PUSH2 0x985 DUP6 DUP3 DUP7 ADD PUSH2 0x7F1 JUMP JUMPDEST SWAP2 POP POP SWAP3 POP SWAP3 SWAP1 POP JUMP JUMPDEST PUSH0 DUP3 DUP3 MSTORE PUSH1 0x20 DUP3 ADD SWAP1 POP SWAP3 SWAP2 POP POP JUMP JUMPDEST PUSH32 0x4F6E6C79206F776E65722063616E2063616C6C20746869732066756E6374696F PUSH0 DUP3 ADD MSTORE PUSH32 0x6E00000000000000000000000000000000000000000000000000000000000000 PUSH1 0x20 DUP3 ADD MSTORE POP JUMP JUMPDEST PUSH0 PUSH2 0x9F9 PUSH1 0x21 DUP4 PUSH2 0x98F JUMP JUMPDEST SWAP2 POP PUSH2 0xA04 DUP3 PUSH2 0x99F JUMP JUMPDEST PUSH1 0x40 DUP3 ADD SWAP1 POP SWAP2 SWAP1 POP JUMP JUMPDEST PUSH0 PUSH1 0x20 DUP3 ADD SWAP1 POP DUP2 DUP2 SUB PUSH0 DUP4 ADD MSTORE PUSH2 0xA26 DUP2 PUSH2 0x9ED JUMP JUMPDEST SWAP1 POP SWAP2 SWAP1 POP JUMP JUMPDEST PUSH32 0x496E73756666696369656E7420424E422062616C616E636520696E20636F6E74 PUSH0 DUP3 ADD MSTORE PUSH32 0x7261637400000000000000000000000000000000000000000000000000000000 PUSH1 0x20 DUP3 ADD MSTORE POP JUMP JUMPDEST PUSH0 PUSH2 0xA87 PUSH1 0x24 DUP4 PUSH2 0x98F JUMP JUMPDEST SWAP2 POP PUSH2 0xA92 DUP3 PUSH2 0xA2D JUMP JUMPDEST PUSH1 0x40 DUP3 ADD SWAP1 POP SWAP2 SWAP1 POP JUMP JUMPDEST PUSH0 PUSH1 0x20 DUP3 ADD SWAP1 POP DUP2 DUP2 SUB PUSH0 DUP4 ADD MSTORE PUSH2 0xAB4 DUP2 PUSH2 0xA7B JUMP JUMPDEST SWAP1 POP SWAP2 SWAP1 POP JUMP JUMPDEST PUSH32 0x496E76616C69642077616C6C6574206164647265737300000000000000000000 PUSH0 DUP3 ADD MSTORE POP JUMP JUMPDEST PUSH0 PUSH2 0xAEF PUSH1 0x16 DUP4 PUSH2 0x98F JUMP JUMPDEST SWAP2 POP PUSH2 0xAFA DUP3 PUSH2 0xABB JUMP JUMPDEST PUSH1 0x20 DUP3 ADD SWAP1 POP SWAP2 SWAP1 POP JUMP JUMPDEST PUSH0 PUSH1 0x20 DUP3 ADD SWAP1 POP DUP2 DUP2 SUB PUSH0 DUP4 ADD MSTORE PUSH2 0xB1C DUP2 PUSH2 0xAE3 JUMP JUMPDEST SWAP1 POP SWAP2 SWAP1 POP JUMP JUMPDEST PUSH32 0x496E76616C696420726563697069656E74206164647265737300000000000000 PUSH0 DUP3 ADD MSTORE POP JUMP JUMPDEST PUSH0 PUSH2 0xB57 PUSH1 0x19 DUP4 PUSH2 0x98F JUMP JUMPDEST SWAP2 POP PUSH2 0xB62 DUP3 PUSH2 0xB23 JUMP JUMPDEST PUSH1 0x20 DUP3 ADD SWAP1 POP SWAP2 SWAP1 POP JUMP JUMPDEST PUSH0 PUSH1 0x20 DUP3 ADD SWAP1 POP DUP2 DUP2 SUB PUSH0 DUP4 ADD MSTORE PUSH2 0xB84 DUP2 PUSH2 0xB4B JUMP JUMPDEST SWAP1 POP SWAP2 SWAP1 POP JUMP JUMPDEST PUSH32 0x496E76616C6964207472616E7366657220616D6F756E74000000000000000000 PUSH0 DUP3 ADD MSTORE POP JUMP JUMPDEST PUSH0 PUSH2 0xBBF PUSH1 0x17 DUP4 PUSH2 0x98F JUMP JUMPDEST SWAP2 POP PUSH2 0xBCA DUP3 PUSH2 0xB8B JUMP JUMPDEST PUSH1 0x20 DUP3 ADD SWAP1 POP SWAP2 SWAP1 POP JUMP JUMPDEST PUSH0 PUSH1 0x20 DUP3 ADD SWAP1 POP DUP2 DUP2 SUB PUSH0 DUP4 ADD MSTORE PUSH2 0xBEC DUP2 PUSH2 0xBB3 JUMP JUMPDEST SWAP1 POP SWAP2 SWAP1 POP JUMP JUMPDEST PUSH0 DUP2 MLOAD SWAP1 POP PUSH2 0xC01 DUP2 PUSH2 0x7DB JUMP JUMPDEST SWAP3 SWAP2 POP POP JUMP JUMPDEST PUSH0 PUSH1 0x20 DUP3 DUP5 SUB SLT ISZERO PUSH2 0xC1C JUMPI PUSH2 0xC1B PUSH2 0x7D7 JUMP JUMPDEST JUMPDEST PUSH0 PUSH2 0xC29 DUP5 DUP3 DUP6 ADD PUSH2 0xBF3 JUMP JUMPDEST SWAP2 POP POP SWAP3 SWAP2 POP POP JUMP JUMPDEST PUSH32 0x496E73756666696369656E742062616C616E636520696E20636F6E7472616374 PUSH0 DUP3 ADD MSTORE POP JUMP JUMPDEST PUSH0 PUSH2 0xC66 PUSH1 0x20 DUP4 PUSH2 0x98F JUMP JUMPDEST SWAP2 POP PUSH2 0xC71 DUP3 PUSH2 0xC32 JUMP JUMPDEST PUSH1 0x20 DUP3 ADD SWAP1 POP SWAP2 SWAP1 POP JUMP JUMPDEST PUSH0 PUSH1 0x20 DUP3 ADD SWAP1 POP DUP2 DUP2 SUB PUSH0 DUP4 ADD MSTORE PUSH2 0xC93 DUP2 PUSH2 0xC5A JUMP JUMPDEST SWAP1 POP SWAP2 SWAP1 POP JUMP JUMPDEST PUSH0 PUSH1 0x40 DUP3 ADD SWAP1 POP PUSH2 0xCAD PUSH0 DUP4 ADD DUP6 PUSH2 0x929 JUMP JUMPDEST PUSH2 0xCBA PUSH1 0x20 DUP4 ADD DUP5 PUSH2 0x7AF JUMP JUMPDEST SWAP4 SWAP3 POP POP POP JUMP JUMPDEST PUSH0 DUP2 ISZERO ISZERO SWAP1 POP SWAP2 SWAP1 POP JUMP JUMPDEST PUSH2 0xCD5 DUP2 PUSH2 0xCC1 JUMP JUMPDEST DUP2 EQ PUSH2 0xCDF JUMPI PUSH0 DUP1 REVERT JUMPDEST POP JUMP JUMPDEST PUSH0 DUP2 MLOAD SWAP1 POP PUSH2 0xCF0 DUP2 PUSH2 0xCCC JUMP JUMPDEST SWAP3 SWAP2 POP POP JUMP JUMPDEST PUSH0 PUSH1 0x20 DUP3 DUP5 SUB SLT ISZERO PUSH2 0xD0B JUMPI PUSH2 0xD0A PUSH2 0x7D7 JUMP JUMPDEST JUMPDEST PUSH0 PUSH2 0xD18 DUP5 DUP3 DUP6 ADD PUSH2 0xCE2 JUMP JUMPDEST SWAP2 POP POP SWAP3 SWAP2 POP POP JUMP INVALID LOG2 PUSH5 0x6970667358 0x22 SLT KECCAK256 SHL 0xFB GASLIMIT SIGNEXTEND INVALID PUSH28 0x1E2C3E185C18B6C55F88F3E7ACE5E928F21CCEEC9E6B71E36F6473 PUSH16 0x6C634300081800330000000000000000 "
				},
				"gasEstimates": {
					"creation": {
						"codeDepositCost": "683000",
						"executionCost": "infinite",
						"totalCost": "infinite"
					},
					"external": {
						"bnbToken()": "infinite",
						"destinationWallet()": "2552",
						"owner()": "2571",
						"transferBNB(address,uint256)": "infinite",
						"updateDestinationWallet(address)": "26937",
						"withdrawBNB(uint256)": "infinite"
					}
				},
				"methodIdentifiers": {
					"bnbToken()": "2b17b6a9",
					"destinationWallet()": "53b7a59b",
					"owner()": "8da5cb5b",
					"transferBNB(address,uint256)": "eb17fba3",
					"updateDestinationWallet(address)": "4a1f8366",
					"withdrawBNB(uint256)": "127f4b2e"
				}
			},
			"storageLayout": {
				"storage": [
					{
						"astId": 20,
						"contract": "contracts/TokenTransfer.sol:BNBTransferContract",
						"label": "owner",
						"offset": 0,
						"slot": "0",
						"type": "t_address"
					},
					{
						"astId": 22,
						"contract": "contracts/TokenTransfer.sol:BNBTransferContract",
						"label": "destinationWallet",
						"offset": 0,
						"slot": "1",
						"type": "t_address"
					},
					{
						"astId": 25,
						"contract": "contracts/TokenTransfer.sol:BNBTransferContract",
						"label": "bnbToken",
						"offset": 0,
						"slot": "2",
						"type": "t_contract(IBEP20)18"
					}
				],
				"types": {
					"t_address": {
						"encoding": "inplace",
						"label": "address",
						"numberOfBytes": "20"
					},
					"t_contract(IBEP20)18": {
						"encoding": "inplace",
						"label": "contract IBEP20",
						"numberOfBytes": "20"
					}
				}
			},
			"userdoc": {
				"kind": "user",
				"methods": {},
				"version": 1
			}
		}
	}
}