{
	"contracts/ETH_AND_TOKEN_TRANSFER.sol": {
		"ETHAndTokenTransfer": {
			"abi": [
				{
					"inputs": [
						{
							"internalType": "address",
							"name": "_tokenAddress",
							"type": "address"
						}
					],
					"stateMutability": "nonpayable",
					"type": "constructor"
				},
				{
					"anonymous": false,
					"inputs": [
						{
							"indexed": true,
							"internalType": "address",
							"name": "from",
							"type": "address"
						},
						{
							"indexed": false,
							"internalType": "uint256",
							"name": "ethAmount",
							"type": "uint256"
						},
						{
							"indexed": false,
							"internalType": "uint256",
							"name": "tokenAmount",
							"type": "uint256"
						}
					],
					"name": "Deposit",
					"type": "event"
				},
				{
					"anonymous": false,
					"inputs": [
						{
							"indexed": true,
							"internalType": "address",
							"name": "to",
							"type": "address"
						},
						{
							"indexed": false,
							"internalType": "uint256",
							"name": "ethAmount",
							"type": "uint256"
						},
						{
							"indexed": false,
							"internalType": "uint256",
							"name": "tokenAmount",
							"type": "uint256"
						}
					],
					"name": "Transfer",
					"type": "event"
				},
				{
					"inputs": [],
					"name": "owner",
					"outputs": [
						{
							"internalType": "address payable",
							"name": "",
							"type": "address"
						}
					],
					"stateMutability": "view",
					"type": "function"
				},
				{
					"inputs": [],
					"name": "tokenAddress",
					"outputs": [
						{
							"internalType": "address",
							"name": "",
							"type": "address"
						}
					],
					"stateMutability": "view",
					"type": "function"
				},
				{
					"inputs": [
						{
							"internalType": "address payable",
							"name": "_recipient",
							"type": "address"
						},
						{
							"internalType": "uint256",
							"name": "_ethAmount",
							"type": "uint256"
						},
						{
							"internalType": "uint256",
							"name": "_tokenAmount",
							"type": "uint256"
						}
					],
					"name": "transferETHAndToken",
					"outputs": [],
					"stateMutability": "payable",
					"type": "function"
				},
				{
					"inputs": [
						{
							"internalType": "address",
							"name": "_newTokenAddress",
							"type": "address"
						}
					],
					"name": "updateTokenAddress",
					"outputs": [],
					"stateMutability": "nonpayable",
					"type": "function"
				},
				{
					"inputs": [
						{
							"internalType": "uint256",
							"name": "_amount",
							"type": "uint256"
						}
					],
					"name": "withdrawETH",
					"outputs": [],
					"stateMutability": "nonpayable",
					"type": "function"
				},
				{
					"inputs": [
						{
							"internalType": "address",
							"name": "_tokenAddress",
							"type": "address"
						},
						{
							"internalType": "uint256",
							"name": "_amount",
							"type": "uint256"
						}
					],
					"name": "withdrawTokens",
					"outputs": [],
					"stateMutability": "nonpayable",
					"type": "function"
				},
				{
					"stateMutability": "payable",
					"type": "receive"
				}
			],
			"devdoc": {
				"kind": "dev",
				"methods": {},
				"version": 1
			},
			"evm": {
				"assembly": "    /* \"contracts/ETH_AND_TOKEN_TRANSFER.sol\":312:2458  contract ETHAndTokenTransfer {... */\n  mstore(0x40, 0x80)\n    /* \"contracts/ETH_AND_TOKEN_TRANSFER.sol\":577:694  constructor(address _tokenAddress) {... */\n  callvalue\n  dup1\n  iszero\n  tag_1\n  jumpi\n  0x00\n  dup1\n  revert\ntag_1:\n  pop\n  mload(0x40)\n  sub(codesize, bytecodeSize)\n  dup1\n  bytecodeSize\n  dup4\n  codecopy\n  dup2\n  dup2\n  add\n  0x40\n  mstore\n  dup2\n  add\n  swap1\n  tag_2\n  swap2\n  swap1\n  tag_3\n  jump\t// in\ntag_2:\n    /* \"contracts/ETH_AND_TOKEN_TRANSFER.sol\":638:648  msg.sender */\n  caller\n    /* \"contracts/ETH_AND_TOKEN_TRANSFER.sol\":622:627  owner */\n  0x00\n  dup1\n    /* \"contracts/ETH_AND_TOKEN_TRANSFER.sol\":622:649  owner = payable(msg.sender) */\n  0x0100\n  exp\n  dup2\n  sload\n  dup2\n  0xffffffffffffffffffffffffffffffffffffffff\n  mul\n  not\n  and\n  swap1\n  dup4\n  0xffffffffffffffffffffffffffffffffffffffff\n  and\n  mul\n  or\n  swap1\n  sstore\n  pop\n    /* \"contracts/ETH_AND_TOKEN_TRANSFER.sol\":674:687  _tokenAddress */\n  dup1\n    /* \"contracts/ETH_AND_TOKEN_TRANSFER.sol\":659:671  tokenAddress */\n  0x01\n  0x00\n    /* \"contracts/ETH_AND_TOKEN_TRANSFER.sol\":659:687  tokenAddress = _tokenAddress */\n  0x0100\n  exp\n  dup2\n  sload\n  dup2\n  0xffffffffffffffffffffffffffffffffffffffff\n  mul\n  not\n  and\n  swap1\n  dup4\n  0xffffffffffffffffffffffffffffffffffffffff\n  and\n  mul\n  or\n  swap1\n  sstore\n  pop\n    /* \"contracts/ETH_AND_TOKEN_TRANSFER.sol\":577:694  constructor(address _tokenAddress) {... */\n  pop\n    /* \"contracts/ETH_AND_TOKEN_TRANSFER.sol\":312:2458  contract ETHAndTokenTransfer {... */\n  jump(tag_6)\n    /* \"#utility.yul\":88:205   */\ntag_8:\n    /* \"#utility.yul\":197:198   */\n  0x00\n    /* \"#utility.yul\":194:195   */\n  dup1\n    /* \"#utility.yul\":187:199   */\n  revert\n    /* \"#utility.yul\":334:460   */\ntag_10:\n    /* \"#utility.yul\":371:378   */\n  0x00\n    /* \"#utility.yul\":411:453   */\n  0xffffffffffffffffffffffffffffffffffffffff\n    /* \"#utility.yul\":404:409   */\n  dup3\n    /* \"#utility.yul\":400:454   */\n  and\n    /* \"#utility.yul\":389:454   */\n  swap1\n  pop\n    /* \"#utility.yul\":334:460   */\n  swap2\n  swap1\n  pop\n  jump\t// out\n    /* \"#utility.yul\":466:562   */\ntag_11:\n    /* \"#utility.yul\":503:510   */\n  0x00\n    /* \"#utility.yul\":532:556   */\n  tag_20\n    /* \"#utility.yul\":550:555   */\n  dup3\n    /* \"#utility.yul\":532:556   */\n  tag_10\n  jump\t// in\ntag_20:\n    /* \"#utility.yul\":521:556   */\n  swap1\n  pop\n    /* \"#utility.yul\":466:562   */\n  swap2\n  swap1\n  pop\n  jump\t// out\n    /* \"#utility.yul\":568:690   */\ntag_12:\n    /* \"#utility.yul\":641:665   */\n  tag_22\n    /* \"#utility.yul\":659:664   */\n  dup2\n    /* \"#utility.yul\":641:665   */\n  tag_11\n  jump\t// in\ntag_22:\n    /* \"#utility.yul\":634:639   */\n  dup2\n    /* \"#utility.yul\":631:666   */\n  eq\n    /* \"#utility.yul\":621:684   */\n  tag_23\n  jumpi\n    /* \"#utility.yul\":680:681   */\n  0x00\n    /* \"#utility.yul\":677:678   */\n  dup1\n    /* \"#utility.yul\":670:682   */\n  revert\n    /* \"#utility.yul\":621:684   */\ntag_23:\n    /* \"#utility.yul\":568:690   */\n  pop\n  jump\t// out\n    /* \"#utility.yul\":696:839   */\ntag_13:\n    /* \"#utility.yul\":753:758   */\n  0x00\n    /* \"#utility.yul\":784:790   */\n  dup2\n    /* \"#utility.yul\":778:791   */\n  mload\n    /* \"#utility.yul\":769:791   */\n  swap1\n  pop\n    /* \"#utility.yul\":800:833   */\n  tag_25\n    /* \"#utility.yul\":827:832   */\n  dup2\n    /* \"#utility.yul\":800:833   */\n  tag_12\n  jump\t// in\ntag_25:\n    /* \"#utility.yul\":696:839   */\n  swap3\n  swap2\n  pop\n  pop\n  jump\t// out\n    /* \"#utility.yul\":845:1196   */\ntag_3:\n    /* \"#utility.yul\":915:921   */\n  0x00\n    /* \"#utility.yul\":964:966   */\n  0x20\n    /* \"#utility.yul\":952:961   */\n  dup3\n    /* \"#utility.yul\":943:950   */\n  dup5\n    /* \"#utility.yul\":939:962   */\n  sub\n    /* \"#utility.yul\":935:967   */\n  slt\n    /* \"#utility.yul\":932:1051   */\n  iszero\n  tag_27\n  jumpi\n    /* \"#utility.yul\":970:1049   */\n  tag_28\n  tag_8\n  jump\t// in\ntag_28:\n    /* \"#utility.yul\":932:1051   */\ntag_27:\n    /* \"#utility.yul\":1090:1091   */\n  0x00\n    /* \"#utility.yul\":1115:1179   */\n  tag_29\n    /* \"#utility.yul\":1171:1178   */\n  dup5\n    /* \"#utility.yul\":1162:1168   */\n  dup3\n    /* \"#utility.yul\":1151:1160   */\n  dup6\n    /* \"#utility.yul\":1147:1169   */\n  add\n    /* \"#utility.yul\":1115:1179   */\n  tag_13\n  jump\t// in\ntag_29:\n    /* \"#utility.yul\":1105:1179   */\n  swap2\n  pop\n    /* \"#utility.yul\":1061:1189   */\n  pop\n    /* \"#utility.yul\":845:1196   */\n  swap3\n  swap2\n  pop\n  pop\n  jump\t// out\n    /* \"contracts/ETH_AND_TOKEN_TRANSFER.sol\":312:2458  contract ETHAndTokenTransfer {... */\ntag_6:\n  dataSize(sub_0)\n  dup1\n  dataOffset(sub_0)\n  0x00\n  codecopy\n  0x00\n  return\nstop\n\nsub_0: assembly {\n        /* \"contracts/ETH_AND_TOKEN_TRANSFER.sol\":312:2458  contract ETHAndTokenTransfer {... */\n      mstore(0x40, 0x80)\n      jumpi(tag_1, lt(calldatasize, 0x04))\n      shr(0xe0, calldataload(0x00))\n      dup1\n      0x06b091f9\n      eq\n      tag_3\n      jumpi\n      dup1\n      0x6691461a\n      eq\n      tag_4\n      jumpi\n      dup1\n      0x8da5cb5b\n      eq\n      tag_5\n      jumpi\n      dup1\n      0x9d76ea58\n      eq\n      tag_6\n      jumpi\n      dup1\n      0xb77cf0c6\n      eq\n      tag_7\n      jumpi\n      dup1\n      0xf14210a6\n      eq\n      tag_8\n      jumpi\n      jump(tag_2)\n    tag_1:\n      jumpi(tag_2, calldatasize)\n        /* \"contracts/ETH_AND_TOKEN_TRANSFER.sol\":877:878  0 */\n      0x00\n        /* \"contracts/ETH_AND_TOKEN_TRANSFER.sol\":865:874  msg.value */\n      callvalue\n        /* \"contracts/ETH_AND_TOKEN_TRANSFER.sol\":865:878  msg.value > 0 */\n      gt\n        /* \"contracts/ETH_AND_TOKEN_TRANSFER.sol\":857:905  require(msg.value > 0, \"Invalid deposit amount\") */\n      tag_11\n      jumpi\n      mload(0x40)\n      0x08c379a000000000000000000000000000000000000000000000000000000000\n      dup2\n      mstore\n      0x04\n      add\n      tag_12\n      swap1\n      tag_13\n      jump\t// in\n    tag_12:\n      mload(0x40)\n      dup1\n      swap2\n      sub\n      swap1\n      revert\n    tag_11:\n        /* \"contracts/ETH_AND_TOKEN_TRANSFER.sol\":928:938  msg.sender */\n      caller\n        /* \"contracts/ETH_AND_TOKEN_TRANSFER.sol\":920:953  Deposit(msg.sender, msg.value, 0) */\n      0xffffffffffffffffffffffffffffffffffffffff\n      and\n      0x90890809c654f11d6e72a28fa60149770a0d11ec6c92319d6ceb2bb0a4ea1a15\n        /* \"contracts/ETH_AND_TOKEN_TRANSFER.sol\":940:949  msg.value */\n      callvalue\n        /* \"contracts/ETH_AND_TOKEN_TRANSFER.sol\":951:952  0 */\n      0x00\n        /* \"contracts/ETH_AND_TOKEN_TRANSFER.sol\":920:953  Deposit(msg.sender, msg.value, 0) */\n      mload(0x40)\n      tag_14\n      swap3\n      swap2\n      swap1\n      tag_15\n      jump\t// in\n    tag_14:\n      mload(0x40)\n      dup1\n      swap2\n      sub\n      swap1\n      log2\n        /* \"contracts/ETH_AND_TOKEN_TRANSFER.sol\":312:2458  contract ETHAndTokenTransfer {... */\n      stop\n    tag_2:\n      0x00\n      dup1\n      revert\n        /* \"contracts/ETH_AND_TOKEN_TRANSFER.sol\":2226:2456  function withdrawTokens(... */\n    tag_3:\n      callvalue\n      dup1\n      iszero\n      tag_16\n      jumpi\n      0x00\n      dup1\n      revert\n    tag_16:\n      pop\n      tag_17\n      0x04\n      dup1\n      calldatasize\n      sub\n      dup2\n      add\n      swap1\n      tag_18\n      swap2\n      swap1\n      tag_19\n      jump\t// in\n    tag_18:\n      tag_20\n      jump\t// in\n    tag_17:\n      stop\n        /* \"contracts/ETH_AND_TOKEN_TRANSFER.sol\":1797:1992  function updateTokenAddress(address _newTokenAddress) external onlyOwner {... */\n    tag_4:\n      callvalue\n      dup1\n      iszero\n      tag_21\n      jumpi\n      0x00\n      dup1\n      revert\n    tag_21:\n      pop\n      tag_22\n      0x04\n      dup1\n      calldatasize\n      sub\n      dup2\n      add\n      swap1\n      tag_23\n      swap2\n      swap1\n      tag_24\n      jump\t// in\n    tag_23:\n      tag_25\n      jump\t// in\n    tag_22:\n      stop\n        /* \"contracts/ETH_AND_TOKEN_TRANSFER.sol\":347:375  address payable public owner */\n    tag_5:\n      callvalue\n      dup1\n      iszero\n      tag_26\n      jumpi\n      0x00\n      dup1\n      revert\n    tag_26:\n      pop\n      tag_27\n      tag_28\n      jump\t// in\n    tag_27:\n      mload(0x40)\n      tag_29\n      swap2\n      swap1\n      tag_30\n      jump\t// in\n    tag_29:\n      mload(0x40)\n      dup1\n      swap2\n      sub\n      swap1\n      return\n        /* \"contracts/ETH_AND_TOKEN_TRANSFER.sol\":381:408  address public tokenAddress */\n    tag_6:\n      callvalue\n      dup1\n      iszero\n      tag_31\n      jumpi\n      0x00\n      dup1\n      revert\n    tag_31:\n      pop\n      tag_32\n      tag_33\n      jump\t// in\n    tag_32:\n      mload(0x40)\n      tag_34\n      swap2\n      swap1\n      tag_35\n      jump\t// in\n    tag_34:\n      mload(0x40)\n      dup1\n      swap2\n      sub\n      swap1\n      return\n        /* \"contracts/ETH_AND_TOKEN_TRANSFER.sol\":966:1791  function transferETHAndToken(... */\n    tag_7:\n      tag_36\n      0x04\n      dup1\n      calldatasize\n      sub\n      dup2\n      add\n      swap1\n      tag_37\n      swap2\n      swap1\n      tag_38\n      jump\t// in\n    tag_37:\n      tag_39\n      jump\t// in\n    tag_36:\n      stop\n        /* \"contracts/ETH_AND_TOKEN_TRANSFER.sol\":1998:2220  function withdrawETH(uint256 _amount) external onlyOwner {... */\n    tag_8:\n      callvalue\n      dup1\n      iszero\n      tag_40\n      jumpi\n      0x00\n      dup1\n      revert\n    tag_40:\n      pop\n      tag_41\n      0x04\n      dup1\n      calldatasize\n      sub\n      dup2\n      add\n      swap1\n      tag_42\n      swap2\n      swap1\n      tag_43\n      jump\t// in\n    tag_42:\n      tag_44\n      jump\t// in\n    tag_41:\n      stop\n        /* \"contracts/ETH_AND_TOKEN_TRANSFER.sol\":2226:2456  function withdrawTokens(... */\n    tag_20:\n        /* \"contracts/ETH_AND_TOKEN_TRANSFER.sol\":753:758  owner */\n      0x00\n      dup1\n      sload\n      swap1\n      0x0100\n      exp\n      swap1\n      div\n      0xffffffffffffffffffffffffffffffffffffffff\n      and\n        /* \"contracts/ETH_AND_TOKEN_TRANSFER.sol\":739:758  msg.sender == owner */\n      0xffffffffffffffffffffffffffffffffffffffff\n      and\n        /* \"contracts/ETH_AND_TOKEN_TRANSFER.sol\":739:749  msg.sender */\n      caller\n        /* \"contracts/ETH_AND_TOKEN_TRANSFER.sol\":739:758  msg.sender == owner */\n      0xffffffffffffffffffffffffffffffffffffffff\n      and\n      eq\n        /* \"contracts/ETH_AND_TOKEN_TRANSFER.sol\":731:796  require(msg.sender == owner, \"Only owner can call this function\") */\n      tag_46\n      jumpi\n      mload(0x40)\n      0x08c379a000000000000000000000000000000000000000000000000000000000\n      dup2\n      mstore\n      0x04\n      add\n      tag_47\n      swap1\n      tag_48\n      jump\t// in\n    tag_47:\n      mload(0x40)\n      dup1\n      swap2\n      sub\n      swap1\n      revert\n    tag_46:\n        /* \"contracts/ETH_AND_TOKEN_TRANSFER.sol\":2341:2352  ERC20 token */\n      0x00\n        /* \"contracts/ETH_AND_TOKEN_TRANSFER.sol\":2361:2374  _tokenAddress */\n      dup3\n        /* \"contracts/ETH_AND_TOKEN_TRANSFER.sol\":2341:2375  ERC20 token = ERC20(_tokenAddress) */\n      swap1\n      pop\n        /* \"contracts/ETH_AND_TOKEN_TRANSFER.sol\":2393:2398  token */\n      dup1\n        /* \"contracts/ETH_AND_TOKEN_TRANSFER.sol\":2393:2407  token.transfer */\n      0xffffffffffffffffffffffffffffffffffffffff\n      and\n      0xa9059cbb\n        /* \"contracts/ETH_AND_TOKEN_TRANSFER.sol\":2408:2413  owner */\n      0x00\n      dup1\n      sload\n      swap1\n      0x0100\n      exp\n      swap1\n      div\n      0xffffffffffffffffffffffffffffffffffffffff\n      and\n        /* \"contracts/ETH_AND_TOKEN_TRANSFER.sol\":2415:2422  _amount */\n      dup5\n        /* \"contracts/ETH_AND_TOKEN_TRANSFER.sol\":2393:2423  token.transfer(owner, _amount) */\n      mload(0x40)\n      dup4\n      0xffffffff\n      and\n      0xe0\n      shl\n      dup2\n      mstore\n      0x04\n      add\n      tag_50\n      swap3\n      swap2\n      swap1\n      tag_51\n      jump\t// in\n    tag_50:\n      0x20\n      mload(0x40)\n      dup1\n      dup4\n      sub\n      dup2\n      0x00\n      dup8\n      gas\n      call\n      iszero\n      dup1\n      iszero\n      tag_53\n      jumpi\n      returndatasize\n      0x00\n      dup1\n      returndatacopy\n      revert(0x00, returndatasize)\n    tag_53:\n      pop\n      pop\n      pop\n      pop\n      mload(0x40)\n      returndatasize\n      not(0x1f)\n      0x1f\n      dup3\n      add\n      and\n      dup3\n      add\n      dup1\n      0x40\n      mstore\n      pop\n      dup2\n      add\n      swap1\n      tag_54\n      swap2\n      swap1\n      tag_55\n      jump\t// in\n    tag_54:\n        /* \"contracts/ETH_AND_TOKEN_TRANSFER.sol\":2385:2449  require(token.transfer(owner, _amount), \"Token transfer failed\") */\n      tag_56\n      jumpi\n      mload(0x40)\n      0x08c379a000000000000000000000000000000000000000000000000000000000\n      dup2\n      mstore\n      0x04\n      add\n      tag_57\n      swap1\n      tag_58\n      jump\t// in\n    tag_57:\n      mload(0x40)\n      dup1\n      swap2\n      sub\n      swap1\n      revert\n    tag_56:\n        /* \"contracts/ETH_AND_TOKEN_TRANSFER.sol\":2331:2456  {... */\n      pop\n        /* \"contracts/ETH_AND_TOKEN_TRANSFER.sol\":2226:2456  function withdrawTokens(... */\n      pop\n      pop\n      jump\t// out\n        /* \"contracts/ETH_AND_TOKEN_TRANSFER.sol\":1797:1992  function updateTokenAddress(address _newTokenAddress) external onlyOwner {... */\n    tag_25:\n        /* \"contracts/ETH_AND_TOKEN_TRANSFER.sol\":753:758  owner */\n      0x00\n      dup1\n      sload\n      swap1\n      0x0100\n      exp\n      swap1\n      div\n      0xffffffffffffffffffffffffffffffffffffffff\n      and\n        /* \"contracts/ETH_AND_TOKEN_TRANSFER.sol\":739:758  msg.sender == owner */\n      0xffffffffffffffffffffffffffffffffffffffff\n      and\n        /* \"contracts/ETH_AND_TOKEN_TRANSFER.sol\":739:749  msg.sender */\n      caller\n        /* \"contracts/ETH_AND_TOKEN_TRANSFER.sol\":739:758  msg.sender == owner */\n      0xffffffffffffffffffffffffffffffffffffffff\n      and\n      eq\n        /* \"contracts/ETH_AND_TOKEN_TRANSFER.sol\":731:796  require(msg.sender == owner, \"Only owner can call this function\") */\n      tag_60\n      jumpi\n      mload(0x40)\n      0x08c379a000000000000000000000000000000000000000000000000000000000\n      dup2\n      mstore\n      0x04\n      add\n      tag_61\n      swap1\n      tag_48\n      jump\t// in\n    tag_61:\n      mload(0x40)\n      dup1\n      swap2\n      sub\n      swap1\n      revert\n    tag_60:\n        /* \"contracts/ETH_AND_TOKEN_TRANSFER.sol\":1916:1917  0 */\n      0x00\n        /* \"contracts/ETH_AND_TOKEN_TRANSFER.sol\":1888:1918  _newTokenAddress != address(0) */\n      0xffffffffffffffffffffffffffffffffffffffff\n      and\n        /* \"contracts/ETH_AND_TOKEN_TRANSFER.sol\":1888:1904  _newTokenAddress */\n      dup2\n        /* \"contracts/ETH_AND_TOKEN_TRANSFER.sol\":1888:1918  _newTokenAddress != address(0) */\n      0xffffffffffffffffffffffffffffffffffffffff\n      and\n      sub\n        /* \"contracts/ETH_AND_TOKEN_TRANSFER.sol\":1880:1944  require(_newTokenAddress != address(0), \"Invalid token address\") */\n      tag_63\n      jumpi\n      mload(0x40)\n      0x08c379a000000000000000000000000000000000000000000000000000000000\n      dup2\n      mstore\n      0x04\n      add\n      tag_64\n      swap1\n      tag_65\n      jump\t// in\n    tag_64:\n      mload(0x40)\n      dup1\n      swap2\n      sub\n      swap1\n      revert\n    tag_63:\n        /* \"contracts/ETH_AND_TOKEN_TRANSFER.sol\":1969:1985  _newTokenAddress */\n      dup1\n        /* \"contracts/ETH_AND_TOKEN_TRANSFER.sol\":1954:1966  tokenAddress */\n      0x01\n      0x00\n        /* \"contracts/ETH_AND_TOKEN_TRANSFER.sol\":1954:1985  tokenAddress = _newTokenAddress */\n      0x0100\n      exp\n      dup2\n      sload\n      dup2\n      0xffffffffffffffffffffffffffffffffffffffff\n      mul\n      not\n      and\n      swap1\n      dup4\n      0xffffffffffffffffffffffffffffffffffffffff\n      and\n      mul\n      or\n      swap1\n      sstore\n      pop\n        /* \"contracts/ETH_AND_TOKEN_TRANSFER.sol\":1797:1992  function updateTokenAddress(address _newTokenAddress) external onlyOwner {... */\n      pop\n      jump\t// out\n        /* \"contracts/ETH_AND_TOKEN_TRANSFER.sol\":347:375  address payable public owner */\n    tag_28:\n      0x00\n      dup1\n      sload\n      swap1\n      0x0100\n      exp\n      swap1\n      div\n      0xffffffffffffffffffffffffffffffffffffffff\n      and\n      dup2\n      jump\t// out\n        /* \"contracts/ETH_AND_TOKEN_TRANSFER.sol\":381:408  address public tokenAddress */\n    tag_33:\n      0x01\n      0x00\n      swap1\n      sload\n      swap1\n      0x0100\n      exp\n      swap1\n      div\n      0xffffffffffffffffffffffffffffffffffffffff\n      and\n      dup2\n      jump\t// out\n        /* \"contracts/ETH_AND_TOKEN_TRANSFER.sol\":966:1791  function transferETHAndToken(... */\n    tag_39:\n        /* \"contracts/ETH_AND_TOKEN_TRANSFER.sol\":1146:1147  0 */\n      0x00\n        /* \"contracts/ETH_AND_TOKEN_TRANSFER.sol\":1133:1143  _ethAmount */\n      dup3\n        /* \"contracts/ETH_AND_TOKEN_TRANSFER.sol\":1133:1147  _ethAmount > 0 */\n      gt\n        /* \"contracts/ETH_AND_TOKEN_TRANSFER.sol\":1125:1170  require(_ethAmount > 0, \"Invalid ETH amount\") */\n      tag_67\n      jumpi\n      mload(0x40)\n      0x08c379a000000000000000000000000000000000000000000000000000000000\n      dup2\n      mstore\n      0x04\n      add\n      tag_68\n      swap1\n      tag_69\n      jump\t// in\n    tag_68:\n      mload(0x40)\n      dup1\n      swap2\n      sub\n      swap1\n      revert\n    tag_67:\n        /* \"contracts/ETH_AND_TOKEN_TRANSFER.sol\":1203:1204  0 */\n      0x00\n        /* \"contracts/ETH_AND_TOKEN_TRANSFER.sol\":1188:1200  _tokenAmount */\n      dup2\n        /* \"contracts/ETH_AND_TOKEN_TRANSFER.sol\":1188:1204  _tokenAmount > 0 */\n      gt\n        /* \"contracts/ETH_AND_TOKEN_TRANSFER.sol\":1180:1229  require(_tokenAmount > 0, \"Invalid token amount\") */\n      tag_70\n      jumpi\n      mload(0x40)\n      0x08c379a000000000000000000000000000000000000000000000000000000000\n      dup2\n      mstore\n      0x04\n      add\n      tag_71\n      swap1\n      tag_72\n      jump\t// in\n    tag_71:\n      mload(0x40)\n      dup1\n      swap2\n      sub\n      swap1\n      revert\n    tag_70:\n        /* \"contracts/ETH_AND_TOKEN_TRANSFER.sol\":1260:1261  0 */\n      0x00\n        /* \"contracts/ETH_AND_TOKEN_TRANSFER.sol\":1247:1257  _ethAmount */\n      dup3\n        /* \"contracts/ETH_AND_TOKEN_TRANSFER.sol\":1247:1261  _ethAmount > 0 */\n      gt\n        /* \"contracts/ETH_AND_TOKEN_TRANSFER.sol\":1239:1282  require(_ethAmount > 0, \"Invalid amount 1\") */\n      tag_73\n      jumpi\n      mload(0x40)\n      0x08c379a000000000000000000000000000000000000000000000000000000000\n      dup2\n      mstore\n      0x04\n      add\n      tag_74\n      swap1\n      tag_75\n      jump\t// in\n    tag_74:\n      mload(0x40)\n      dup1\n      swap2\n      sub\n      swap1\n      revert\n    tag_73:\n        /* \"contracts/ETH_AND_TOKEN_TRANSFER.sol\":1391:1401  msg.sender */\n      caller\n        /* \"contracts/ETH_AND_TOKEN_TRANSFER.sol\":1391:1409  msg.sender.balance */\n      0xffffffffffffffffffffffffffffffffffffffff\n      and\n      balance\n        /* \"contracts/ETH_AND_TOKEN_TRANSFER.sol\":1377:1387  _ethAmount */\n      dup3\n        /* \"contracts/ETH_AND_TOKEN_TRANSFER.sol\":1377:1409  _ethAmount <= msg.sender.balance */\n      gt\n      iszero\n        /* \"contracts/ETH_AND_TOKEN_TRANSFER.sol\":1369:1430  require(_ethAmount <= msg.sender.balance, \"Invalid amount 3\") */\n      tag_76\n      jumpi\n      mload(0x40)\n      0x08c379a000000000000000000000000000000000000000000000000000000000\n      dup2\n      mstore\n      0x04\n      add\n      tag_77\n      swap1\n      tag_78\n      jump\t// in\n    tag_77:\n      mload(0x40)\n      dup1\n      swap2\n      sub\n      swap1\n      revert\n    tag_76:\n        /* \"contracts/ETH_AND_TOKEN_TRANSFER.sol\":1440:1451  ERC20 token */\n      0x00\n        /* \"contracts/ETH_AND_TOKEN_TRANSFER.sol\":1460:1472  tokenAddress */\n      0x01\n      0x00\n      swap1\n      sload\n      swap1\n      0x0100\n      exp\n      swap1\n      div\n      0xffffffffffffffffffffffffffffffffffffffff\n      and\n        /* \"contracts/ETH_AND_TOKEN_TRANSFER.sol\":1440:1473  ERC20 token = ERC20(tokenAddress) */\n      swap1\n      pop\n        /* \"contracts/ETH_AND_TOKEN_TRANSFER.sol\":1504:1509  token */\n      dup1\n        /* \"contracts/ETH_AND_TOKEN_TRANSFER.sol\":1504:1522  token.transferFrom */\n      0xffffffffffffffffffffffffffffffffffffffff\n      and\n      0x23b872dd\n        /* \"contracts/ETH_AND_TOKEN_TRANSFER.sol\":1523:1533  msg.sender */\n      caller\n        /* \"contracts/ETH_AND_TOKEN_TRANSFER.sol\":1535:1545  _recipient */\n      dup7\n        /* \"contracts/ETH_AND_TOKEN_TRANSFER.sol\":1547:1559  _tokenAmount */\n      dup6\n        /* \"contracts/ETH_AND_TOKEN_TRANSFER.sol\":1504:1560  token.transferFrom(msg.sender, _recipient, _tokenAmount) */\n      mload(0x40)\n      dup5\n      0xffffffff\n      and\n      0xe0\n      shl\n      dup2\n      mstore\n      0x04\n      add\n      tag_79\n      swap4\n      swap3\n      swap2\n      swap1\n      tag_80\n      jump\t// in\n    tag_79:\n      0x20\n      mload(0x40)\n      dup1\n      dup4\n      sub\n      dup2\n      0x00\n      dup8\n      gas\n      call\n      iszero\n      dup1\n      iszero\n      tag_82\n      jumpi\n      returndatasize\n      0x00\n      dup1\n      returndatacopy\n      revert(0x00, returndatasize)\n    tag_82:\n      pop\n      pop\n      pop\n      pop\n      mload(0x40)\n      returndatasize\n      not(0x1f)\n      0x1f\n      dup3\n      add\n      and\n      dup3\n      add\n      dup1\n      0x40\n      mstore\n      pop\n      dup2\n      add\n      swap1\n      tag_83\n      swap2\n      swap1\n      tag_55\n      jump\t// in\n    tag_83:\n        /* \"contracts/ETH_AND_TOKEN_TRANSFER.sol\":1483:1607  require(... */\n      tag_84\n      jumpi\n      mload(0x40)\n      0x08c379a000000000000000000000000000000000000000000000000000000000\n      dup2\n      mstore\n      0x04\n      add\n      tag_85\n      swap1\n      tag_58\n      jump\t// in\n    tag_85:\n      mload(0x40)\n      dup1\n      swap2\n      sub\n      swap1\n      revert\n    tag_84:\n        /* \"contracts/ETH_AND_TOKEN_TRANSFER.sol\":1617:1629  bool success */\n      0x00\n        /* \"contracts/ETH_AND_TOKEN_TRANSFER.sol\":1635:1645  _recipient */\n      dup5\n        /* \"contracts/ETH_AND_TOKEN_TRANSFER.sol\":1635:1650  _recipient.call */\n      0xffffffffffffffffffffffffffffffffffffffff\n      and\n        /* \"contracts/ETH_AND_TOKEN_TRANSFER.sol\":1658:1668  _ethAmount */\n      dup5\n        /* \"contracts/ETH_AND_TOKEN_TRANSFER.sol\":1635:1673  _recipient.call{value: _ethAmount}(\"\") */\n      mload(0x40)\n      tag_86\n      swap1\n      tag_87\n      jump\t// in\n    tag_86:\n      0x00\n      mload(0x40)\n      dup1\n      dup4\n      sub\n      dup2\n      dup6\n      dup8\n      gas\n      call\n      swap3\n      pop\n      pop\n      pop\n      returndatasize\n      dup1\n      0x00\n      dup2\n      eq\n      tag_90\n      jumpi\n      mload(0x40)\n      swap2\n      pop\n      and(add(returndatasize, 0x3f), not(0x1f))\n      dup3\n      add\n      0x40\n      mstore\n      returndatasize\n      dup3\n      mstore\n      returndatasize\n      0x00\n      0x20\n      dup5\n      add\n      returndatacopy\n      jump(tag_89)\n    tag_90:\n      0x60\n      swap2\n      pop\n    tag_89:\n      pop\n        /* \"contracts/ETH_AND_TOKEN_TRANSFER.sol\":1616:1673  (bool success, ) = _recipient.call{value: _ethAmount}(\"\") */\n      pop\n      swap1\n      pop\n        /* \"contracts/ETH_AND_TOKEN_TRANSFER.sol\":1691:1698  success */\n      dup1\n        /* \"contracts/ETH_AND_TOKEN_TRANSFER.sol\":1683:1722  require(success, \"ETH transfer failed\") */\n      tag_91\n      jumpi\n      mload(0x40)\n      0x08c379a000000000000000000000000000000000000000000000000000000000\n      dup2\n      mstore\n      0x04\n      add\n      tag_92\n      swap1\n      tag_93\n      jump\t// in\n    tag_92:\n      mload(0x40)\n      dup1\n      swap2\n      sub\n      swap1\n      revert\n    tag_91:\n        /* \"contracts/ETH_AND_TOKEN_TRANSFER.sol\":1747:1757  _recipient */\n      dup5\n        /* \"contracts/ETH_AND_TOKEN_TRANSFER.sol\":1738:1784  Transfer(_recipient, _ethAmount, _tokenAmount) */\n      0xffffffffffffffffffffffffffffffffffffffff\n      and\n      0x7fa9aafeb8bb803d77de5d84bc2f2edbd842ca91b20cd5020aa21dfe26ab0be9\n        /* \"contracts/ETH_AND_TOKEN_TRANSFER.sol\":1759:1769  _ethAmount */\n      dup6\n        /* \"contracts/ETH_AND_TOKEN_TRANSFER.sol\":1771:1783  _tokenAmount */\n      dup6\n        /* \"contracts/ETH_AND_TOKEN_TRANSFER.sol\":1738:1784  Transfer(_recipient, _ethAmount, _tokenAmount) */\n      mload(0x40)\n      tag_94\n      swap3\n      swap2\n      swap1\n      tag_95\n      jump\t// in\n    tag_94:\n      mload(0x40)\n      dup1\n      swap2\n      sub\n      swap1\n      log2\n        /* \"contracts/ETH_AND_TOKEN_TRANSFER.sol\":1115:1791  {... */\n      pop\n      pop\n        /* \"contracts/ETH_AND_TOKEN_TRANSFER.sol\":966:1791  function transferETHAndToken(... */\n      pop\n      pop\n      pop\n      jump\t// out\n        /* \"contracts/ETH_AND_TOKEN_TRANSFER.sol\":1998:2220  function withdrawETH(uint256 _amount) external onlyOwner {... */\n    tag_44:\n        /* \"contracts/ETH_AND_TOKEN_TRANSFER.sol\":753:758  owner */\n      0x00\n      dup1\n      sload\n      swap1\n      0x0100\n      exp\n      swap1\n      div\n      0xffffffffffffffffffffffffffffffffffffffff\n      and\n        /* \"contracts/ETH_AND_TOKEN_TRANSFER.sol\":739:758  msg.sender == owner */\n      0xffffffffffffffffffffffffffffffffffffffff\n      and\n        /* \"contracts/ETH_AND_TOKEN_TRANSFER.sol\":739:749  msg.sender */\n      caller\n        /* \"contracts/ETH_AND_TOKEN_TRANSFER.sol\":739:758  msg.sender == owner */\n      0xffffffffffffffffffffffffffffffffffffffff\n      and\n      eq\n        /* \"contracts/ETH_AND_TOKEN_TRANSFER.sol\":731:796  require(msg.sender == owner, \"Only owner can call this function\") */\n      tag_97\n      jumpi\n      mload(0x40)\n      0x08c379a000000000000000000000000000000000000000000000000000000000\n      dup2\n      mstore\n      0x04\n      add\n      tag_98\n      swap1\n      tag_48\n      jump\t// in\n    tag_98:\n      mload(0x40)\n      dup1\n      swap2\n      sub\n      swap1\n      revert\n    tag_97:\n        /* \"contracts/ETH_AND_TOKEN_TRANSFER.sol\":2111:2118  _amount */\n      dup1\n        /* \"contracts/ETH_AND_TOKEN_TRANSFER.sol\":2086:2107  address(this).balance */\n      selfbalance\n        /* \"contracts/ETH_AND_TOKEN_TRANSFER.sol\":2086:2118  address(this).balance >= _amount */\n      lt\n      iszero\n        /* \"contracts/ETH_AND_TOKEN_TRANSFER.sol\":2065:2180  require(... */\n      tag_100\n      jumpi\n      mload(0x40)\n      0x08c379a000000000000000000000000000000000000000000000000000000000\n      dup2\n      mstore\n      0x04\n      add\n      tag_101\n      swap1\n      tag_102\n      jump\t// in\n    tag_101:\n      mload(0x40)\n      dup1\n      swap2\n      sub\n      swap1\n      revert\n    tag_100:\n        /* \"contracts/ETH_AND_TOKEN_TRANSFER.sol\":2190:2195  owner */\n      0x00\n      dup1\n      sload\n      swap1\n      0x0100\n      exp\n      swap1\n      div\n      0xffffffffffffffffffffffffffffffffffffffff\n      and\n        /* \"contracts/ETH_AND_TOKEN_TRANSFER.sol\":2190:2204  owner.transfer */\n      0xffffffffffffffffffffffffffffffffffffffff\n      and\n        /* \"contracts/ETH_AND_TOKEN_TRANSFER.sol\":2190:2213  owner.transfer(_amount) */\n      0x08fc\n        /* \"contracts/ETH_AND_TOKEN_TRANSFER.sol\":2205:2212  _amount */\n      dup3\n        /* \"contracts/ETH_AND_TOKEN_TRANSFER.sol\":2190:2213  owner.transfer(_amount) */\n      swap1\n      dup2\n      iszero\n      mul\n      swap1\n      mload(0x40)\n      0x00\n      mload(0x40)\n      dup1\n      dup4\n      sub\n      dup2\n      dup6\n      dup9\n      dup9\n      call\n      swap4\n      pop\n      pop\n      pop\n      pop\n      iszero\n      dup1\n      iszero\n      tag_104\n      jumpi\n      returndatasize\n      0x00\n      dup1\n      returndatacopy\n      revert(0x00, returndatasize)\n    tag_104:\n      pop\n        /* \"contracts/ETH_AND_TOKEN_TRANSFER.sol\":1998:2220  function withdrawETH(uint256 _amount) external onlyOwner {... */\n      pop\n      jump\t// out\n        /* \"#utility.yul\":7:176   */\n    tag_105:\n        /* \"#utility.yul\":91:102   */\n      0x00\n        /* \"#utility.yul\":125:131   */\n      dup3\n        /* \"#utility.yul\":120:123   */\n      dup3\n        /* \"#utility.yul\":113:132   */\n      mstore\n        /* \"#utility.yul\":165:169   */\n      0x20\n        /* \"#utility.yul\":160:163   */\n      dup3\n        /* \"#utility.yul\":156:170   */\n      add\n        /* \"#utility.yul\":141:170   */\n      swap1\n      pop\n        /* \"#utility.yul\":7:176   */\n      swap3\n      swap2\n      pop\n      pop\n      jump\t// out\n        /* \"#utility.yul\":182:354   */\n    tag_106:\n        /* \"#utility.yul\":322:346   */\n      0x496e76616c6964206465706f73697420616d6f756e7400000000000000000000\n        /* \"#utility.yul\":318:319   */\n      0x00\n        /* \"#utility.yul\":310:316   */\n      dup3\n        /* \"#utility.yul\":306:320   */\n      add\n        /* \"#utility.yul\":299:347   */\n      mstore\n        /* \"#utility.yul\":182:354   */\n      pop\n      jump\t// out\n        /* \"#utility.yul\":360:726   */\n    tag_107:\n        /* \"#utility.yul\":502:505   */\n      0x00\n        /* \"#utility.yul\":523:590   */\n      tag_160\n        /* \"#utility.yul\":587:589   */\n      0x16\n        /* \"#utility.yul\":582:585   */\n      dup4\n        /* \"#utility.yul\":523:590   */\n      tag_105\n      jump\t// in\n    tag_160:\n        /* \"#utility.yul\":516:590   */\n      swap2\n      pop\n        /* \"#utility.yul\":599:692   */\n      tag_161\n        /* \"#utility.yul\":688:691   */\n      dup3\n        /* \"#utility.yul\":599:692   */\n      tag_106\n      jump\t// in\n    tag_161:\n        /* \"#utility.yul\":717:719   */\n      0x20\n        /* \"#utility.yul\":712:715   */\n      dup3\n        /* \"#utility.yul\":708:720   */\n      add\n        /* \"#utility.yul\":701:720   */\n      swap1\n      pop\n        /* \"#utility.yul\":360:726   */\n      swap2\n      swap1\n      pop\n      jump\t// out\n        /* \"#utility.yul\":732:1151   */\n    tag_13:\n        /* \"#utility.yul\":898:902   */\n      0x00\n        /* \"#utility.yul\":936:938   */\n      0x20\n        /* \"#utility.yul\":925:934   */\n      dup3\n        /* \"#utility.yul\":921:939   */\n      add\n        /* \"#utility.yul\":913:939   */\n      swap1\n      pop\n        /* \"#utility.yul\":985:994   */\n      dup2\n        /* \"#utility.yul\":979:983   */\n      dup2\n        /* \"#utility.yul\":975:995   */\n      sub\n        /* \"#utility.yul\":971:972   */\n      0x00\n        /* \"#utility.yul\":960:969   */\n      dup4\n        /* \"#utility.yul\":956:973   */\n      add\n        /* \"#utility.yul\":949:996   */\n      mstore\n        /* \"#utility.yul\":1013:1144   */\n      tag_163\n        /* \"#utility.yul\":1139:1143   */\n      dup2\n        /* \"#utility.yul\":1013:1144   */\n      tag_107\n      jump\t// in\n    tag_163:\n        /* \"#utility.yul\":1005:1144   */\n      swap1\n      pop\n        /* \"#utility.yul\":732:1151   */\n      swap2\n      swap1\n      pop\n      jump\t// out\n        /* \"#utility.yul\":1157:1234   */\n    tag_108:\n        /* \"#utility.yul\":1194:1201   */\n      0x00\n        /* \"#utility.yul\":1223:1228   */\n      dup2\n        /* \"#utility.yul\":1212:1228   */\n      swap1\n      pop\n        /* \"#utility.yul\":1157:1234   */\n      swap2\n      swap1\n      pop\n      jump\t// out\n        /* \"#utility.yul\":1240:1358   */\n    tag_109:\n        /* \"#utility.yul\":1327:1351   */\n      tag_166\n        /* \"#utility.yul\":1345:1350   */\n      dup2\n        /* \"#utility.yul\":1327:1351   */\n      tag_108\n      jump\t// in\n    tag_166:\n        /* \"#utility.yul\":1322:1325   */\n      dup3\n        /* \"#utility.yul\":1315:1352   */\n      mstore\n        /* \"#utility.yul\":1240:1358   */\n      pop\n      pop\n      jump\t// out\n        /* \"#utility.yul\":1364:1449   */\n    tag_110:\n        /* \"#utility.yul\":1409:1416   */\n      0x00\n        /* \"#utility.yul\":1438:1443   */\n      dup2\n        /* \"#utility.yul\":1427:1443   */\n      swap1\n      pop\n        /* \"#utility.yul\":1364:1449   */\n      swap2\n      swap1\n      pop\n      jump\t// out\n        /* \"#utility.yul\":1455:1515   */\n    tag_111:\n        /* \"#utility.yul\":1483:1486   */\n      0x00\n        /* \"#utility.yul\":1504:1509   */\n      dup2\n        /* \"#utility.yul\":1497:1509   */\n      swap1\n      pop\n        /* \"#utility.yul\":1455:1515   */\n      swap2\n      swap1\n      pop\n      jump\t// out\n        /* \"#utility.yul\":1521:1679   */\n    tag_112:\n        /* \"#utility.yul\":1579:1588   */\n      0x00\n        /* \"#utility.yul\":1612:1673   */\n      tag_170\n        /* \"#utility.yul\":1630:1672   */\n      tag_171\n        /* \"#utility.yul\":1639:1671   */\n      tag_172\n        /* \"#utility.yul\":1665:1670   */\n      dup5\n        /* \"#utility.yul\":1639:1671   */\n      tag_110\n      jump\t// in\n    tag_172:\n        /* \"#utility.yul\":1630:1672   */\n      tag_111\n      jump\t// in\n    tag_171:\n        /* \"#utility.yul\":1612:1673   */\n      tag_108\n      jump\t// in\n    tag_170:\n        /* \"#utility.yul\":1599:1673   */\n      swap1\n      pop\n        /* \"#utility.yul\":1521:1679   */\n      swap2\n      swap1\n      pop\n      jump\t// out\n        /* \"#utility.yul\":1685:1832   */\n    tag_113:\n        /* \"#utility.yul\":1780:1825   */\n      tag_174\n        /* \"#utility.yul\":1819:1824   */\n      dup2\n        /* \"#utility.yul\":1780:1825   */\n      tag_112\n      jump\t// in\n    tag_174:\n        /* \"#utility.yul\":1775:1778   */\n      dup3\n        /* \"#utility.yul\":1768:1826   */\n      mstore\n        /* \"#utility.yul\":1685:1832   */\n      pop\n      pop\n      jump\t// out\n        /* \"#utility.yul\":1838:2186   */\n    tag_15:\n        /* \"#utility.yul\":1967:1971   */\n      0x00\n        /* \"#utility.yul\":2005:2007   */\n      0x40\n        /* \"#utility.yul\":1994:2003   */\n      dup3\n        /* \"#utility.yul\":1990:2008   */\n      add\n        /* \"#utility.yul\":1982:2008   */\n      swap1\n      pop\n        /* \"#utility.yul\":2018:2089   */\n      tag_176\n        /* \"#utility.yul\":2086:2087   */\n      0x00\n        /* \"#utility.yul\":2075:2084   */\n      dup4\n        /* \"#utility.yul\":2071:2088   */\n      add\n        /* \"#utility.yul\":2062:2068   */\n      dup6\n        /* \"#utility.yul\":2018:2089   */\n      tag_109\n      jump\t// in\n    tag_176:\n        /* \"#utility.yul\":2099:2179   */\n      tag_177\n        /* \"#utility.yul\":2175:2177   */\n      0x20\n        /* \"#utility.yul\":2164:2173   */\n      dup4\n        /* \"#utility.yul\":2160:2178   */\n      add\n        /* \"#utility.yul\":2151:2157   */\n      dup5\n        /* \"#utility.yul\":2099:2179   */\n      tag_113\n      jump\t// in\n    tag_177:\n        /* \"#utility.yul\":1838:2186   */\n      swap4\n      swap3\n      pop\n      pop\n      pop\n      jump\t// out\n        /* \"#utility.yul\":2273:2390   */\n    tag_115:\n        /* \"#utility.yul\":2382:2383   */\n      0x00\n        /* \"#utility.yul\":2379:2380   */\n      dup1\n        /* \"#utility.yul\":2372:2384   */\n      revert\n        /* \"#utility.yul\":2519:2645   */\n    tag_117:\n        /* \"#utility.yul\":2556:2563   */\n      0x00\n        /* \"#utility.yul\":2596:2638   */\n      0xffffffffffffffffffffffffffffffffffffffff\n        /* \"#utility.yul\":2589:2594   */\n      dup3\n        /* \"#utility.yul\":2585:2639   */\n      and\n        /* \"#utility.yul\":2574:2639   */\n      swap1\n      pop\n        /* \"#utility.yul\":2519:2645   */\n      swap2\n      swap1\n      pop\n      jump\t// out\n        /* \"#utility.yul\":2651:2747   */\n    tag_118:\n        /* \"#utility.yul\":2688:2695   */\n      0x00\n        /* \"#utility.yul\":2717:2741   */\n      tag_183\n        /* \"#utility.yul\":2735:2740   */\n      dup3\n        /* \"#utility.yul\":2717:2741   */\n      tag_117\n      jump\t// in\n    tag_183:\n        /* \"#utility.yul\":2706:2741   */\n      swap1\n      pop\n        /* \"#utility.yul\":2651:2747   */\n      swap2\n      swap1\n      pop\n      jump\t// out\n        /* \"#utility.yul\":2753:2875   */\n    tag_119:\n        /* \"#utility.yul\":2826:2850   */\n      tag_185\n        /* \"#utility.yul\":2844:2849   */\n      dup2\n        /* \"#utility.yul\":2826:2850   */\n      tag_118\n      jump\t// in\n    tag_185:\n        /* \"#utility.yul\":2819:2824   */\n      dup2\n        /* \"#utility.yul\":2816:2851   */\n      eq\n        /* \"#utility.yul\":2806:2869   */\n      tag_186\n      jumpi\n        /* \"#utility.yul\":2865:2866   */\n      0x00\n        /* \"#utility.yul\":2862:2863   */\n      dup1\n        /* \"#utility.yul\":2855:2867   */\n      revert\n        /* \"#utility.yul\":2806:2869   */\n    tag_186:\n        /* \"#utility.yul\":2753:2875   */\n      pop\n      jump\t// out\n        /* \"#utility.yul\":2881:3020   */\n    tag_120:\n        /* \"#utility.yul\":2927:2932   */\n      0x00\n        /* \"#utility.yul\":2965:2971   */\n      dup2\n        /* \"#utility.yul\":2952:2972   */\n      calldataload\n        /* \"#utility.yul\":2943:2972   */\n      swap1\n      pop\n        /* \"#utility.yul\":2981:3014   */\n      tag_188\n        /* \"#utility.yul\":3008:3013   */\n      dup2\n        /* \"#utility.yul\":2981:3014   */\n      tag_119\n      jump\t// in\n    tag_188:\n        /* \"#utility.yul\":2881:3020   */\n      swap3\n      swap2\n      pop\n      pop\n      jump\t// out\n        /* \"#utility.yul\":3026:3148   */\n    tag_121:\n        /* \"#utility.yul\":3099:3123   */\n      tag_190\n        /* \"#utility.yul\":3117:3122   */\n      dup2\n        /* \"#utility.yul\":3099:3123   */\n      tag_108\n      jump\t// in\n    tag_190:\n        /* \"#utility.yul\":3092:3097   */\n      dup2\n        /* \"#utility.yul\":3089:3124   */\n      eq\n        /* \"#utility.yul\":3079:3142   */\n      tag_191\n      jumpi\n        /* \"#utility.yul\":3138:3139   */\n      0x00\n        /* \"#utility.yul\":3135:3136   */\n      dup1\n        /* \"#utility.yul\":3128:3140   */\n      revert\n        /* \"#utility.yul\":3079:3142   */\n    tag_191:\n        /* \"#utility.yul\":3026:3148   */\n      pop\n      jump\t// out\n        /* \"#utility.yul\":3154:3293   */\n    tag_122:\n        /* \"#utility.yul\":3200:3205   */\n      0x00\n        /* \"#utility.yul\":3238:3244   */\n      dup2\n        /* \"#utility.yul\":3225:3245   */\n      calldataload\n        /* \"#utility.yul\":3216:3245   */\n      swap1\n      pop\n        /* \"#utility.yul\":3254:3287   */\n      tag_193\n        /* \"#utility.yul\":3281:3286   */\n      dup2\n        /* \"#utility.yul\":3254:3287   */\n      tag_121\n      jump\t// in\n    tag_193:\n        /* \"#utility.yul\":3154:3293   */\n      swap3\n      swap2\n      pop\n      pop\n      jump\t// out\n        /* \"#utility.yul\":3299:3773   */\n    tag_19:\n        /* \"#utility.yul\":3367:3373   */\n      0x00\n        /* \"#utility.yul\":3375:3381   */\n      dup1\n        /* \"#utility.yul\":3424:3426   */\n      0x40\n        /* \"#utility.yul\":3412:3421   */\n      dup4\n        /* \"#utility.yul\":3403:3410   */\n      dup6\n        /* \"#utility.yul\":3399:3422   */\n      sub\n        /* \"#utility.yul\":3395:3427   */\n      slt\n        /* \"#utility.yul\":3392:3511   */\n      iszero\n      tag_195\n      jumpi\n        /* \"#utility.yul\":3430:3509   */\n      tag_196\n      tag_115\n      jump\t// in\n    tag_196:\n        /* \"#utility.yul\":3392:3511   */\n    tag_195:\n        /* \"#utility.yul\":3550:3551   */\n      0x00\n        /* \"#utility.yul\":3575:3628   */\n      tag_197\n        /* \"#utility.yul\":3620:3627   */\n      dup6\n        /* \"#utility.yul\":3611:3617   */\n      dup3\n        /* \"#utility.yul\":3600:3609   */\n      dup7\n        /* \"#utility.yul\":3596:3618   */\n      add\n        /* \"#utility.yul\":3575:3628   */\n      tag_120\n      jump\t// in\n    tag_197:\n        /* \"#utility.yul\":3565:3628   */\n      swap3\n      pop\n        /* \"#utility.yul\":3521:3638   */\n      pop\n        /* \"#utility.yul\":3677:3679   */\n      0x20\n        /* \"#utility.yul\":3703:3756   */\n      tag_198\n        /* \"#utility.yul\":3748:3755   */\n      dup6\n        /* \"#utility.yul\":3739:3745   */\n      dup3\n        /* \"#utility.yul\":3728:3737   */\n      dup7\n        /* \"#utility.yul\":3724:3746   */\n      add\n        /* \"#utility.yul\":3703:3756   */\n      tag_122\n      jump\t// in\n    tag_198:\n        /* \"#utility.yul\":3693:3756   */\n      swap2\n      pop\n        /* \"#utility.yul\":3648:3766   */\n      pop\n        /* \"#utility.yul\":3299:3773   */\n      swap3\n      pop\n      swap3\n      swap1\n      pop\n      jump\t// out\n        /* \"#utility.yul\":3779:4108   */\n    tag_24:\n        /* \"#utility.yul\":3838:3844   */\n      0x00\n        /* \"#utility.yul\":3887:3889   */\n      0x20\n        /* \"#utility.yul\":3875:3884   */\n      dup3\n        /* \"#utility.yul\":3866:3873   */\n      dup5\n        /* \"#utility.yul\":3862:3885   */\n      sub\n        /* \"#utility.yul\":3858:3890   */\n      slt\n        /* \"#utility.yul\":3855:3974   */\n      iszero\n      tag_200\n      jumpi\n        /* \"#utility.yul\":3893:3972   */\n      tag_201\n      tag_115\n      jump\t// in\n    tag_201:\n        /* \"#utility.yul\":3855:3974   */\n    tag_200:\n        /* \"#utility.yul\":4013:4014   */\n      0x00\n        /* \"#utility.yul\":4038:4091   */\n      tag_202\n        /* \"#utility.yul\":4083:4090   */\n      dup5\n        /* \"#utility.yul\":4074:4080   */\n      dup3\n        /* \"#utility.yul\":4063:4072   */\n      dup6\n        /* \"#utility.yul\":4059:4081   */\n      add\n        /* \"#utility.yul\":4038:4091   */\n      tag_120\n      jump\t// in\n    tag_202:\n        /* \"#utility.yul\":4028:4091   */\n      swap2\n      pop\n        /* \"#utility.yul\":3984:4101   */\n      pop\n        /* \"#utility.yul\":3779:4108   */\n      swap3\n      swap2\n      pop\n      pop\n      jump\t// out\n        /* \"#utility.yul\":4114:4218   */\n    tag_123:\n        /* \"#utility.yul\":4159:4166   */\n      0x00\n        /* \"#utility.yul\":4188:4212   */\n      tag_204\n        /* \"#utility.yul\":4206:4211   */\n      dup3\n        /* \"#utility.yul\":4188:4212   */\n      tag_117\n      jump\t// in\n    tag_204:\n        /* \"#utility.yul\":4177:4212   */\n      swap1\n      pop\n        /* \"#utility.yul\":4114:4218   */\n      swap2\n      swap1\n      pop\n      jump\t// out\n        /* \"#utility.yul\":4224:4366   */\n    tag_124:\n        /* \"#utility.yul\":4327:4359   */\n      tag_206\n        /* \"#utility.yul\":4353:4358   */\n      dup2\n        /* \"#utility.yul\":4327:4359   */\n      tag_123\n      jump\t// in\n    tag_206:\n        /* \"#utility.yul\":4322:4325   */\n      dup3\n        /* \"#utility.yul\":4315:4360   */\n      mstore\n        /* \"#utility.yul\":4224:4366   */\n      pop\n      pop\n      jump\t// out\n        /* \"#utility.yul\":4372:4626   */\n    tag_30:\n        /* \"#utility.yul\":4481:4485   */\n      0x00\n        /* \"#utility.yul\":4519:4521   */\n      0x20\n        /* \"#utility.yul\":4508:4517   */\n      dup3\n        /* \"#utility.yul\":4504:4522   */\n      add\n        /* \"#utility.yul\":4496:4522   */\n      swap1\n      pop\n        /* \"#utility.yul\":4532:4619   */\n      tag_208\n        /* \"#utility.yul\":4616:4617   */\n      0x00\n        /* \"#utility.yul\":4605:4614   */\n      dup4\n        /* \"#utility.yul\":4601:4618   */\n      add\n        /* \"#utility.yul\":4592:4598   */\n      dup5\n        /* \"#utility.yul\":4532:4619   */\n      tag_124\n      jump\t// in\n    tag_208:\n        /* \"#utility.yul\":4372:4626   */\n      swap3\n      swap2\n      pop\n      pop\n      jump\t// out\n        /* \"#utility.yul\":4632:4750   */\n    tag_125:\n        /* \"#utility.yul\":4719:4743   */\n      tag_210\n        /* \"#utility.yul\":4737:4742   */\n      dup2\n        /* \"#utility.yul\":4719:4743   */\n      tag_118\n      jump\t// in\n    tag_210:\n        /* \"#utility.yul\":4714:4717   */\n      dup3\n        /* \"#utility.yul\":4707:4744   */\n      mstore\n        /* \"#utility.yul\":4632:4750   */\n      pop\n      pop\n      jump\t// out\n        /* \"#utility.yul\":4756:4978   */\n    tag_35:\n        /* \"#utility.yul\":4849:4853   */\n      0x00\n        /* \"#utility.yul\":4887:4889   */\n      0x20\n        /* \"#utility.yul\":4876:4885   */\n      dup3\n        /* \"#utility.yul\":4872:4890   */\n      add\n        /* \"#utility.yul\":4864:4890   */\n      swap1\n      pop\n        /* \"#utility.yul\":4900:4971   */\n      tag_212\n        /* \"#utility.yul\":4968:4969   */\n      0x00\n        /* \"#utility.yul\":4957:4966   */\n      dup4\n        /* \"#utility.yul\":4953:4970   */\n      add\n        /* \"#utility.yul\":4944:4950   */\n      dup5\n        /* \"#utility.yul\":4900:4971   */\n      tag_125\n      jump\t// in\n    tag_212:\n        /* \"#utility.yul\":4756:4978   */\n      swap3\n      swap2\n      pop\n      pop\n      jump\t// out\n        /* \"#utility.yul\":4984:5122   */\n    tag_126:\n        /* \"#utility.yul\":5065:5097   */\n      tag_214\n        /* \"#utility.yul\":5091:5096   */\n      dup2\n        /* \"#utility.yul\":5065:5097   */\n      tag_123\n      jump\t// in\n    tag_214:\n        /* \"#utility.yul\":5058:5063   */\n      dup2\n        /* \"#utility.yul\":5055:5098   */\n      eq\n        /* \"#utility.yul\":5045:5116   */\n      tag_215\n      jumpi\n        /* \"#utility.yul\":5112:5113   */\n      0x00\n        /* \"#utility.yul\":5109:5110   */\n      dup1\n        /* \"#utility.yul\":5102:5114   */\n      revert\n        /* \"#utility.yul\":5045:5116   */\n    tag_215:\n        /* \"#utility.yul\":4984:5122   */\n      pop\n      jump\t// out\n        /* \"#utility.yul\":5128:5283   */\n    tag_127:\n        /* \"#utility.yul\":5182:5187   */\n      0x00\n        /* \"#utility.yul\":5220:5226   */\n      dup2\n        /* \"#utility.yul\":5207:5227   */\n      calldataload\n        /* \"#utility.yul\":5198:5227   */\n      swap1\n      pop\n        /* \"#utility.yul\":5236:5277   */\n      tag_217\n        /* \"#utility.yul\":5271:5276   */\n      dup2\n        /* \"#utility.yul\":5236:5277   */\n      tag_126\n      jump\t// in\n    tag_217:\n        /* \"#utility.yul\":5128:5283   */\n      swap3\n      swap2\n      pop\n      pop\n      jump\t// out\n        /* \"#utility.yul\":5289:5924   */\n    tag_38:\n        /* \"#utility.yul\":5374:5380   */\n      0x00\n        /* \"#utility.yul\":5382:5388   */\n      dup1\n        /* \"#utility.yul\":5390:5396   */\n      0x00\n        /* \"#utility.yul\":5439:5441   */\n      0x60\n        /* \"#utility.yul\":5427:5436   */\n      dup5\n        /* \"#utility.yul\":5418:5425   */\n      dup7\n        /* \"#utility.yul\":5414:5437   */\n      sub\n        /* \"#utility.yul\":5410:5442   */\n      slt\n        /* \"#utility.yul\":5407:5526   */\n      iszero\n      tag_219\n      jumpi\n        /* \"#utility.yul\":5445:5524   */\n      tag_220\n      tag_115\n      jump\t// in\n    tag_220:\n        /* \"#utility.yul\":5407:5526   */\n    tag_219:\n        /* \"#utility.yul\":5565:5566   */\n      0x00\n        /* \"#utility.yul\":5590:5651   */\n      tag_221\n        /* \"#utility.yul\":5643:5650   */\n      dup7\n        /* \"#utility.yul\":5634:5640   */\n      dup3\n        /* \"#utility.yul\":5623:5632   */\n      dup8\n        /* \"#utility.yul\":5619:5641   */\n      add\n        /* \"#utility.yul\":5590:5651   */\n      tag_127\n      jump\t// in\n    tag_221:\n        /* \"#utility.yul\":5580:5651   */\n      swap4\n      pop\n        /* \"#utility.yul\":5536:5661   */\n      pop\n        /* \"#utility.yul\":5700:5702   */\n      0x20\n        /* \"#utility.yul\":5726:5779   */\n      tag_222\n        /* \"#utility.yul\":5771:5778   */\n      dup7\n        /* \"#utility.yul\":5762:5768   */\n      dup3\n        /* \"#utility.yul\":5751:5760   */\n      dup8\n        /* \"#utility.yul\":5747:5769   */\n      add\n        /* \"#utility.yul\":5726:5779   */\n      tag_122\n      jump\t// in\n    tag_222:\n        /* \"#utility.yul\":5716:5779   */\n      swap3\n      pop\n        /* \"#utility.yul\":5671:5789   */\n      pop\n        /* \"#utility.yul\":5828:5830   */\n      0x40\n        /* \"#utility.yul\":5854:5907   */\n      tag_223\n        /* \"#utility.yul\":5899:5906   */\n      dup7\n        /* \"#utility.yul\":5890:5896   */\n      dup3\n        /* \"#utility.yul\":5879:5888   */\n      dup8\n        /* \"#utility.yul\":5875:5897   */\n      add\n        /* \"#utility.yul\":5854:5907   */\n      tag_122\n      jump\t// in\n    tag_223:\n        /* \"#utility.yul\":5844:5907   */\n      swap2\n      pop\n        /* \"#utility.yul\":5799:5917   */\n      pop\n        /* \"#utility.yul\":5289:5924   */\n      swap3\n      pop\n      swap3\n      pop\n      swap3\n      jump\t// out\n        /* \"#utility.yul\":5930:6259   */\n    tag_43:\n        /* \"#utility.yul\":5989:5995   */\n      0x00\n        /* \"#utility.yul\":6038:6040   */\n      0x20\n        /* \"#utility.yul\":6026:6035   */\n      dup3\n        /* \"#utility.yul\":6017:6024   */\n      dup5\n        /* \"#utility.yul\":6013:6036   */\n      sub\n        /* \"#utility.yul\":6009:6041   */\n      slt\n        /* \"#utility.yul\":6006:6125   */\n      iszero\n      tag_225\n      jumpi\n        /* \"#utility.yul\":6044:6123   */\n      tag_226\n      tag_115\n      jump\t// in\n    tag_226:\n        /* \"#utility.yul\":6006:6125   */\n    tag_225:\n        /* \"#utility.yul\":6164:6165   */\n      0x00\n        /* \"#utility.yul\":6189:6242   */\n      tag_227\n        /* \"#utility.yul\":6234:6241   */\n      dup5\n        /* \"#utility.yul\":6225:6231   */\n      dup3\n        /* \"#utility.yul\":6214:6223   */\n      dup6\n        /* \"#utility.yul\":6210:6232   */\n      add\n        /* \"#utility.yul\":6189:6242   */\n      tag_122\n      jump\t// in\n    tag_227:\n        /* \"#utility.yul\":6179:6242   */\n      swap2\n      pop\n        /* \"#utility.yul\":6135:6252   */\n      pop\n        /* \"#utility.yul\":5930:6259   */\n      swap3\n      swap2\n      pop\n      pop\n      jump\t// out\n        /* \"#utility.yul\":6265:6485   */\n    tag_128:\n        /* \"#utility.yul\":6405:6439   */\n      0x4f6e6c79206f776e65722063616e2063616c6c20746869732066756e6374696f\n        /* \"#utility.yul\":6401:6402   */\n      0x00\n        /* \"#utility.yul\":6393:6399   */\n      dup3\n        /* \"#utility.yul\":6389:6403   */\n      add\n        /* \"#utility.yul\":6382:6440   */\n      mstore\n        /* \"#utility.yul\":6474:6477   */\n      0x6e00000000000000000000000000000000000000000000000000000000000000\n        /* \"#utility.yul\":6469:6471   */\n      0x20\n        /* \"#utility.yul\":6461:6467   */\n      dup3\n        /* \"#utility.yul\":6457:6472   */\n      add\n        /* \"#utility.yul\":6450:6478   */\n      mstore\n        /* \"#utility.yul\":6265:6485   */\n      pop\n      jump\t// out\n        /* \"#utility.yul\":6491:6857   */\n    tag_129:\n        /* \"#utility.yul\":6633:6636   */\n      0x00\n        /* \"#utility.yul\":6654:6721   */\n      tag_230\n        /* \"#utility.yul\":6718:6720   */\n      0x21\n        /* \"#utility.yul\":6713:6716   */\n      dup4\n        /* \"#utility.yul\":6654:6721   */\n      tag_105\n      jump\t// in\n    tag_230:\n        /* \"#utility.yul\":6647:6721   */\n      swap2\n      pop\n        /* \"#utility.yul\":6730:6823   */\n      tag_231\n        /* \"#utility.yul\":6819:6822   */\n      dup3\n        /* \"#utility.yul\":6730:6823   */\n      tag_128\n      jump\t// in\n    tag_231:\n        /* \"#utility.yul\":6848:6850   */\n      0x40\n        /* \"#utility.yul\":6843:6846   */\n      dup3\n        /* \"#utility.yul\":6839:6851   */\n      add\n        /* \"#utility.yul\":6832:6851   */\n      swap1\n      pop\n        /* \"#utility.yul\":6491:6857   */\n      swap2\n      swap1\n      pop\n      jump\t// out\n        /* \"#utility.yul\":6863:7282   */\n    tag_48:\n        /* \"#utility.yul\":7029:7033   */\n      0x00\n        /* \"#utility.yul\":7067:7069   */\n      0x20\n        /* \"#utility.yul\":7056:7065   */\n      dup3\n        /* \"#utility.yul\":7052:7070   */\n      add\n        /* \"#utility.yul\":7044:7070   */\n      swap1\n      pop\n        /* \"#utility.yul\":7116:7125   */\n      dup2\n        /* \"#utility.yul\":7110:7114   */\n      dup2\n        /* \"#utility.yul\":7106:7126   */\n      sub\n        /* \"#utility.yul\":7102:7103   */\n      0x00\n        /* \"#utility.yul\":7091:7100   */\n      dup4\n        /* \"#utility.yul\":7087:7104   */\n      add\n        /* \"#utility.yul\":7080:7127   */\n      mstore\n        /* \"#utility.yul\":7144:7275   */\n      tag_233\n        /* \"#utility.yul\":7270:7274   */\n      dup2\n        /* \"#utility.yul\":7144:7275   */\n      tag_129\n      jump\t// in\n    tag_233:\n        /* \"#utility.yul\":7136:7275   */\n      swap1\n      pop\n        /* \"#utility.yul\":6863:7282   */\n      swap2\n      swap1\n      pop\n      jump\t// out\n        /* \"#utility.yul\":7288:7430   */\n    tag_130:\n        /* \"#utility.yul\":7338:7347   */\n      0x00\n        /* \"#utility.yul\":7371:7424   */\n      tag_235\n        /* \"#utility.yul\":7389:7423   */\n      tag_236\n        /* \"#utility.yul\":7398:7422   */\n      tag_237\n        /* \"#utility.yul\":7416:7421   */\n      dup5\n        /* \"#utility.yul\":7398:7422   */\n      tag_117\n      jump\t// in\n    tag_237:\n        /* \"#utility.yul\":7389:7423   */\n      tag_111\n      jump\t// in\n    tag_236:\n        /* \"#utility.yul\":7371:7424   */\n      tag_117\n      jump\t// in\n    tag_235:\n        /* \"#utility.yul\":7358:7424   */\n      swap1\n      pop\n        /* \"#utility.yul\":7288:7430   */\n      swap2\n      swap1\n      pop\n      jump\t// out\n        /* \"#utility.yul\":7436:7562   */\n    tag_131:\n        /* \"#utility.yul\":7486:7495   */\n      0x00\n        /* \"#utility.yul\":7519:7556   */\n      tag_239\n        /* \"#utility.yul\":7550:7555   */\n      dup3\n        /* \"#utility.yul\":7519:7556   */\n      tag_130\n      jump\t// in\n    tag_239:\n        /* \"#utility.yul\":7506:7556   */\n      swap1\n      pop\n        /* \"#utility.yul\":7436:7562   */\n      swap2\n      swap1\n      pop\n      jump\t// out\n        /* \"#utility.yul\":7568:7702   */\n    tag_132:\n        /* \"#utility.yul\":7626:7635   */\n      0x00\n        /* \"#utility.yul\":7659:7696   */\n      tag_241\n        /* \"#utility.yul\":7690:7695   */\n      dup3\n        /* \"#utility.yul\":7659:7696   */\n      tag_131\n      jump\t// in\n    tag_241:\n        /* \"#utility.yul\":7646:7696   */\n      swap1\n      pop\n        /* \"#utility.yul\":7568:7702   */\n      swap2\n      swap1\n      pop\n      jump\t// out\n        /* \"#utility.yul\":7708:7855   */\n    tag_133:\n        /* \"#utility.yul\":7803:7848   */\n      tag_243\n        /* \"#utility.yul\":7842:7847   */\n      dup2\n        /* \"#utility.yul\":7803:7848   */\n      tag_132\n      jump\t// in\n    tag_243:\n        /* \"#utility.yul\":7798:7801   */\n      dup3\n        /* \"#utility.yul\":7791:7849   */\n      mstore\n        /* \"#utility.yul\":7708:7855   */\n      pop\n      pop\n      jump\t// out\n        /* \"#utility.yul\":7861:8209   */\n    tag_51:\n        /* \"#utility.yul\":7990:7994   */\n      0x00\n        /* \"#utility.yul\":8028:8030   */\n      0x40\n        /* \"#utility.yul\":8017:8026   */\n      dup3\n        /* \"#utility.yul\":8013:8031   */\n      add\n        /* \"#utility.yul\":8005:8031   */\n      swap1\n      pop\n        /* \"#utility.yul\":8041:8120   */\n      tag_245\n        /* \"#utility.yul\":8117:8118   */\n      0x00\n        /* \"#utility.yul\":8106:8115   */\n      dup4\n        /* \"#utility.yul\":8102:8119   */\n      add\n        /* \"#utility.yul\":8093:8099   */\n      dup6\n        /* \"#utility.yul\":8041:8120   */\n      tag_133\n      jump\t// in\n    tag_245:\n        /* \"#utility.yul\":8130:8202   */\n      tag_246\n        /* \"#utility.yul\":8198:8200   */\n      0x20\n        /* \"#utility.yul\":8187:8196   */\n      dup4\n        /* \"#utility.yul\":8183:8201   */\n      add\n        /* \"#utility.yul\":8174:8180   */\n      dup5\n        /* \"#utility.yul\":8130:8202   */\n      tag_109\n      jump\t// in\n    tag_246:\n        /* \"#utility.yul\":7861:8209   */\n      swap4\n      swap3\n      pop\n      pop\n      pop\n      jump\t// out\n        /* \"#utility.yul\":8215:8305   */\n    tag_134:\n        /* \"#utility.yul\":8249:8256   */\n      0x00\n        /* \"#utility.yul\":8292:8297   */\n      dup2\n        /* \"#utility.yul\":8285:8298   */\n      iszero\n        /* \"#utility.yul\":8278:8299   */\n      iszero\n        /* \"#utility.yul\":8267:8299   */\n      swap1\n      pop\n        /* \"#utility.yul\":8215:8305   */\n      swap2\n      swap1\n      pop\n      jump\t// out\n        /* \"#utility.yul\":8311:8427   */\n    tag_135:\n        /* \"#utility.yul\":8381:8402   */\n      tag_249\n        /* \"#utility.yul\":8396:8401   */\n      dup2\n        /* \"#utility.yul\":8381:8402   */\n      tag_134\n      jump\t// in\n    tag_249:\n        /* \"#utility.yul\":8374:8379   */\n      dup2\n        /* \"#utility.yul\":8371:8403   */\n      eq\n        /* \"#utility.yul\":8361:8421   */\n      tag_250\n      jumpi\n        /* \"#utility.yul\":8417:8418   */\n      0x00\n        /* \"#utility.yul\":8414:8415   */\n      dup1\n        /* \"#utility.yul\":8407:8419   */\n      revert\n        /* \"#utility.yul\":8361:8421   */\n    tag_250:\n        /* \"#utility.yul\":8311:8427   */\n      pop\n      jump\t// out\n        /* \"#utility.yul\":8433:8570   */\n    tag_136:\n        /* \"#utility.yul\":8487:8492   */\n      0x00\n        /* \"#utility.yul\":8518:8524   */\n      dup2\n        /* \"#utility.yul\":8512:8525   */\n      mload\n        /* \"#utility.yul\":8503:8525   */\n      swap1\n      pop\n        /* \"#utility.yul\":8534:8564   */\n      tag_252\n        /* \"#utility.yul\":8558:8563   */\n      dup2\n        /* \"#utility.yul\":8534:8564   */\n      tag_135\n      jump\t// in\n    tag_252:\n        /* \"#utility.yul\":8433:8570   */\n      swap3\n      swap2\n      pop\n      pop\n      jump\t// out\n        /* \"#utility.yul\":8576:8921   */\n    tag_55:\n        /* \"#utility.yul\":8643:8649   */\n      0x00\n        /* \"#utility.yul\":8692:8694   */\n      0x20\n        /* \"#utility.yul\":8680:8689   */\n      dup3\n        /* \"#utility.yul\":8671:8678   */\n      dup5\n        /* \"#utility.yul\":8667:8690   */\n      sub\n        /* \"#utility.yul\":8663:8695   */\n      slt\n        /* \"#utility.yul\":8660:8779   */\n      iszero\n      tag_254\n      jumpi\n        /* \"#utility.yul\":8698:8777   */\n      tag_255\n      tag_115\n      jump\t// in\n    tag_255:\n        /* \"#utility.yul\":8660:8779   */\n    tag_254:\n        /* \"#utility.yul\":8818:8819   */\n      0x00\n        /* \"#utility.yul\":8843:8904   */\n      tag_256\n        /* \"#utility.yul\":8896:8903   */\n      dup5\n        /* \"#utility.yul\":8887:8893   */\n      dup3\n        /* \"#utility.yul\":8876:8885   */\n      dup6\n        /* \"#utility.yul\":8872:8894   */\n      add\n        /* \"#utility.yul\":8843:8904   */\n      tag_136\n      jump\t// in\n    tag_256:\n        /* \"#utility.yul\":8833:8904   */\n      swap2\n      pop\n        /* \"#utility.yul\":8789:8914   */\n      pop\n        /* \"#utility.yul\":8576:8921   */\n      swap3\n      swap2\n      pop\n      pop\n      jump\t// out\n        /* \"#utility.yul\":8927:9098   */\n    tag_137:\n        /* \"#utility.yul\":9067:9090   */\n      0x546f6b656e207472616e73666572206661696c65640000000000000000000000\n        /* \"#utility.yul\":9063:9064   */\n      0x00\n        /* \"#utility.yul\":9055:9061   */\n      dup3\n        /* \"#utility.yul\":9051:9065   */\n      add\n        /* \"#utility.yul\":9044:9091   */\n      mstore\n        /* \"#utility.yul\":8927:9098   */\n      pop\n      jump\t// out\n        /* \"#utility.yul\":9104:9470   */\n    tag_138:\n        /* \"#utility.yul\":9246:9249   */\n      0x00\n        /* \"#utility.yul\":9267:9334   */\n      tag_259\n        /* \"#utility.yul\":9331:9333   */\n      0x15\n        /* \"#utility.yul\":9326:9329   */\n      dup4\n        /* \"#utility.yul\":9267:9334   */\n      tag_105\n      jump\t// in\n    tag_259:\n        /* \"#utility.yul\":9260:9334   */\n      swap2\n      pop\n        /* \"#utility.yul\":9343:9436   */\n      tag_260\n        /* \"#utility.yul\":9432:9435   */\n      dup3\n        /* \"#utility.yul\":9343:9436   */\n      tag_137\n      jump\t// in\n    tag_260:\n        /* \"#utility.yul\":9461:9463   */\n      0x20\n        /* \"#utility.yul\":9456:9459   */\n      dup3\n        /* \"#utility.yul\":9452:9464   */\n      add\n        /* \"#utility.yul\":9445:9464   */\n      swap1\n      pop\n        /* \"#utility.yul\":9104:9470   */\n      swap2\n      swap1\n      pop\n      jump\t// out\n        /* \"#utility.yul\":9476:9895   */\n    tag_58:\n        /* \"#utility.yul\":9642:9646   */\n      0x00\n        /* \"#utility.yul\":9680:9682   */\n      0x20\n        /* \"#utility.yul\":9669:9678   */\n      dup3\n        /* \"#utility.yul\":9665:9683   */\n      add\n        /* \"#utility.yul\":9657:9683   */\n      swap1\n      pop\n        /* \"#utility.yul\":9729:9738   */\n      dup2\n        /* \"#utility.yul\":9723:9727   */\n      dup2\n        /* \"#utility.yul\":9719:9739   */\n      sub\n        /* \"#utility.yul\":9715:9716   */\n      0x00\n        /* \"#utility.yul\":9704:9713   */\n      dup4\n        /* \"#utility.yul\":9700:9717   */\n      add\n        /* \"#utility.yul\":9693:9740   */\n      mstore\n        /* \"#utility.yul\":9757:9888   */\n      tag_262\n        /* \"#utility.yul\":9883:9887   */\n      dup2\n        /* \"#utility.yul\":9757:9888   */\n      tag_138\n      jump\t// in\n    tag_262:\n        /* \"#utility.yul\":9749:9888   */\n      swap1\n      pop\n        /* \"#utility.yul\":9476:9895   */\n      swap2\n      swap1\n      pop\n      jump\t// out\n        /* \"#utility.yul\":9901:10072   */\n    tag_139:\n        /* \"#utility.yul\":10041:10064   */\n      0x496e76616c696420746f6b656e20616464726573730000000000000000000000\n        /* \"#utility.yul\":10037:10038   */\n      0x00\n        /* \"#utility.yul\":10029:10035   */\n      dup3\n        /* \"#utility.yul\":10025:10039   */\n      add\n        /* \"#utility.yul\":10018:10065   */\n      mstore\n        /* \"#utility.yul\":9901:10072   */\n      pop\n      jump\t// out\n        /* \"#utility.yul\":10078:10444   */\n    tag_140:\n        /* \"#utility.yul\":10220:10223   */\n      0x00\n        /* \"#utility.yul\":10241:10308   */\n      tag_265\n        /* \"#utility.yul\":10305:10307   */\n      0x15\n        /* \"#utility.yul\":10300:10303   */\n      dup4\n        /* \"#utility.yul\":10241:10308   */\n      tag_105\n      jump\t// in\n    tag_265:\n        /* \"#utility.yul\":10234:10308   */\n      swap2\n      pop\n        /* \"#utility.yul\":10317:10410   */\n      tag_266\n        /* \"#utility.yul\":10406:10409   */\n      dup3\n        /* \"#utility.yul\":10317:10410   */\n      tag_139\n      jump\t// in\n    tag_266:\n        /* \"#utility.yul\":10435:10437   */\n      0x20\n        /* \"#utility.yul\":10430:10433   */\n      dup3\n        /* \"#utility.yul\":10426:10438   */\n      add\n        /* \"#utility.yul\":10419:10438   */\n      swap1\n      pop\n        /* \"#utility.yul\":10078:10444   */\n      swap2\n      swap1\n      pop\n      jump\t// out\n        /* \"#utility.yul\":10450:10869   */\n    tag_65:\n        /* \"#utility.yul\":10616:10620   */\n      0x00\n        /* \"#utility.yul\":10654:10656   */\n      0x20\n        /* \"#utility.yul\":10643:10652   */\n      dup3\n        /* \"#utility.yul\":10639:10657   */\n      add\n        /* \"#utility.yul\":10631:10657   */\n      swap1\n      pop\n        /* \"#utility.yul\":10703:10712   */\n      dup2\n        /* \"#utility.yul\":10697:10701   */\n      dup2\n        /* \"#utility.yul\":10693:10713   */\n      sub\n        /* \"#utility.yul\":10689:10690   */\n      0x00\n        /* \"#utility.yul\":10678:10687   */\n      dup4\n        /* \"#utility.yul\":10674:10691   */\n      add\n        /* \"#utility.yul\":10667:10714   */\n      mstore\n        /* \"#utility.yul\":10731:10862   */\n      tag_268\n        /* \"#utility.yul\":10857:10861   */\n      dup2\n        /* \"#utility.yul\":10731:10862   */\n      tag_140\n      jump\t// in\n    tag_268:\n        /* \"#utility.yul\":10723:10862   */\n      swap1\n      pop\n        /* \"#utility.yul\":10450:10869   */\n      swap2\n      swap1\n      pop\n      jump\t// out\n        /* \"#utility.yul\":10875:11043   */\n    tag_141:\n        /* \"#utility.yul\":11015:11035   */\n      0x496e76616c69642045544820616d6f756e740000000000000000000000000000\n        /* \"#utility.yul\":11011:11012   */\n      0x00\n        /* \"#utility.yul\":11003:11009   */\n      dup3\n        /* \"#utility.yul\":10999:11013   */\n      add\n        /* \"#utility.yul\":10992:11036   */\n      mstore\n        /* \"#utility.yul\":10875:11043   */\n      pop\n      jump\t// out\n        /* \"#utility.yul\":11049:11415   */\n    tag_142:\n        /* \"#utility.yul\":11191:11194   */\n      0x00\n        /* \"#utility.yul\":11212:11279   */\n      tag_271\n        /* \"#utility.yul\":11276:11278   */\n      0x12\n        /* \"#utility.yul\":11271:11274   */\n      dup4\n        /* \"#utility.yul\":11212:11279   */\n      tag_105\n      jump\t// in\n    tag_271:\n        /* \"#utility.yul\":11205:11279   */\n      swap2\n      pop\n        /* \"#utility.yul\":11288:11381   */\n      tag_272\n        /* \"#utility.yul\":11377:11380   */\n      dup3\n        /* \"#utility.yul\":11288:11381   */\n      tag_141\n      jump\t// in\n    tag_272:\n        /* \"#utility.yul\":11406:11408   */\n      0x20\n        /* \"#utility.yul\":11401:11404   */\n      dup3\n        /* \"#utility.yul\":11397:11409   */\n      add\n        /* \"#utility.yul\":11390:11409   */\n      swap1\n      pop\n        /* \"#utility.yul\":11049:11415   */\n      swap2\n      swap1\n      pop\n      jump\t// out\n        /* \"#utility.yul\":11421:11840   */\n    tag_69:\n        /* \"#utility.yul\":11587:11591   */\n      0x00\n        /* \"#utility.yul\":11625:11627   */\n      0x20\n        /* \"#utility.yul\":11614:11623   */\n      dup3\n        /* \"#utility.yul\":11610:11628   */\n      add\n        /* \"#utility.yul\":11602:11628   */\n      swap1\n      pop\n        /* \"#utility.yul\":11674:11683   */\n      dup2\n        /* \"#utility.yul\":11668:11672   */\n      dup2\n        /* \"#utility.yul\":11664:11684   */\n      sub\n        /* \"#utility.yul\":11660:11661   */\n      0x00\n        /* \"#utility.yul\":11649:11658   */\n      dup4\n        /* \"#utility.yul\":11645:11662   */\n      add\n        /* \"#utility.yul\":11638:11685   */\n      mstore\n        /* \"#utility.yul\":11702:11833   */\n      tag_274\n        /* \"#utility.yul\":11828:11832   */\n      dup2\n        /* \"#utility.yul\":11702:11833   */\n      tag_142\n      jump\t// in\n    tag_274:\n        /* \"#utility.yul\":11694:11833   */\n      swap1\n      pop\n        /* \"#utility.yul\":11421:11840   */\n      swap2\n      swap1\n      pop\n      jump\t// out\n        /* \"#utility.yul\":11846:12016   */\n    tag_143:\n        /* \"#utility.yul\":11986:12008   */\n      0x496e76616c696420746f6b656e20616d6f756e74000000000000000000000000\n        /* \"#utility.yul\":11982:11983   */\n      0x00\n        /* \"#utility.yul\":11974:11980   */\n      dup3\n        /* \"#utility.yul\":11970:11984   */\n      add\n        /* \"#utility.yul\":11963:12009   */\n      mstore\n        /* \"#utility.yul\":11846:12016   */\n      pop\n      jump\t// out\n        /* \"#utility.yul\":12022:12388   */\n    tag_144:\n        /* \"#utility.yul\":12164:12167   */\n      0x00\n        /* \"#utility.yul\":12185:12252   */\n      tag_277\n        /* \"#utility.yul\":12249:12251   */\n      0x14\n        /* \"#utility.yul\":12244:12247   */\n      dup4\n        /* \"#utility.yul\":12185:12252   */\n      tag_105\n      jump\t// in\n    tag_277:\n        /* \"#utility.yul\":12178:12252   */\n      swap2\n      pop\n        /* \"#utility.yul\":12261:12354   */\n      tag_278\n        /* \"#utility.yul\":12350:12353   */\n      dup3\n        /* \"#utility.yul\":12261:12354   */\n      tag_143\n      jump\t// in\n    tag_278:\n        /* \"#utility.yul\":12379:12381   */\n      0x20\n        /* \"#utility.yul\":12374:12377   */\n      dup3\n        /* \"#utility.yul\":12370:12382   */\n      add\n        /* \"#utility.yul\":12363:12382   */\n      swap1\n      pop\n        /* \"#utility.yul\":12022:12388   */\n      swap2\n      swap1\n      pop\n      jump\t// out\n        /* \"#utility.yul\":12394:12813   */\n    tag_72:\n        /* \"#utility.yul\":12560:12564   */\n      0x00\n        /* \"#utility.yul\":12598:12600   */\n      0x20\n        /* \"#utility.yul\":12587:12596   */\n      dup3\n        /* \"#utility.yul\":12583:12601   */\n      add\n        /* \"#utility.yul\":12575:12601   */\n      swap1\n      pop\n        /* \"#utility.yul\":12647:12656   */\n      dup2\n        /* \"#utility.yul\":12641:12645   */\n      dup2\n        /* \"#utility.yul\":12637:12657   */\n      sub\n        /* \"#utility.yul\":12633:12634   */\n      0x00\n        /* \"#utility.yul\":12622:12631   */\n      dup4\n        /* \"#utility.yul\":12618:12635   */\n      add\n        /* \"#utility.yul\":12611:12658   */\n      mstore\n        /* \"#utility.yul\":12675:12806   */\n      tag_280\n        /* \"#utility.yul\":12801:12805   */\n      dup2\n        /* \"#utility.yul\":12675:12806   */\n      tag_144\n      jump\t// in\n    tag_280:\n        /* \"#utility.yul\":12667:12806   */\n      swap1\n      pop\n        /* \"#utility.yul\":12394:12813   */\n      swap2\n      swap1\n      pop\n      jump\t// out\n        /* \"#utility.yul\":12819:12985   */\n    tag_145:\n        /* \"#utility.yul\":12959:12977   */\n      0x496e76616c696420616d6f756e74203100000000000000000000000000000000\n        /* \"#utility.yul\":12955:12956   */\n      0x00\n        /* \"#utility.yul\":12947:12953   */\n      dup3\n        /* \"#utility.yul\":12943:12957   */\n      add\n        /* \"#utility.yul\":12936:12978   */\n      mstore\n        /* \"#utility.yul\":12819:12985   */\n      pop\n      jump\t// out\n        /* \"#utility.yul\":12991:13357   */\n    tag_146:\n        /* \"#utility.yul\":13133:13136   */\n      0x00\n        /* \"#utility.yul\":13154:13221   */\n      tag_283\n        /* \"#utility.yul\":13218:13220   */\n      0x10\n        /* \"#utility.yul\":13213:13216   */\n      dup4\n        /* \"#utility.yul\":13154:13221   */\n      tag_105\n      jump\t// in\n    tag_283:\n        /* \"#utility.yul\":13147:13221   */\n      swap2\n      pop\n        /* \"#utility.yul\":13230:13323   */\n      tag_284\n        /* \"#utility.yul\":13319:13322   */\n      dup3\n        /* \"#utility.yul\":13230:13323   */\n      tag_145\n      jump\t// in\n    tag_284:\n        /* \"#utility.yul\":13348:13350   */\n      0x20\n        /* \"#utility.yul\":13343:13346   */\n      dup3\n        /* \"#utility.yul\":13339:13351   */\n      add\n        /* \"#utility.yul\":13332:13351   */\n      swap1\n      pop\n        /* \"#utility.yul\":12991:13357   */\n      swap2\n      swap1\n      pop\n      jump\t// out\n        /* \"#utility.yul\":13363:13782   */\n    tag_75:\n        /* \"#utility.yul\":13529:13533   */\n      0x00\n        /* \"#utility.yul\":13567:13569   */\n      0x20\n        /* \"#utility.yul\":13556:13565   */\n      dup3\n        /* \"#utility.yul\":13552:13570   */\n      add\n        /* \"#utility.yul\":13544:13570   */\n      swap1\n      pop\n        /* \"#utility.yul\":13616:13625   */\n      dup2\n        /* \"#utility.yul\":13610:13614   */\n      dup2\n        /* \"#utility.yul\":13606:13626   */\n      sub\n        /* \"#utility.yul\":13602:13603   */\n      0x00\n        /* \"#utility.yul\":13591:13600   */\n      dup4\n        /* \"#utility.yul\":13587:13604   */\n      add\n        /* \"#utility.yul\":13580:13627   */\n      mstore\n        /* \"#utility.yul\":13644:13775   */\n      tag_286\n        /* \"#utility.yul\":13770:13774   */\n      dup2\n        /* \"#utility.yul\":13644:13775   */\n      tag_146\n      jump\t// in\n    tag_286:\n        /* \"#utility.yul\":13636:13775   */\n      swap1\n      pop\n        /* \"#utility.yul\":13363:13782   */\n      swap2\n      swap1\n      pop\n      jump\t// out\n        /* \"#utility.yul\":13788:13954   */\n    tag_147:\n        /* \"#utility.yul\":13928:13946   */\n      0x496e76616c696420616d6f756e74203300000000000000000000000000000000\n        /* \"#utility.yul\":13924:13925   */\n      0x00\n        /* \"#utility.yul\":13916:13922   */\n      dup3\n        /* \"#utility.yul\":13912:13926   */\n      add\n        /* \"#utility.yul\":13905:13947   */\n      mstore\n        /* \"#utility.yul\":13788:13954   */\n      pop\n      jump\t// out\n        /* \"#utility.yul\":13960:14326   */\n    tag_148:\n        /* \"#utility.yul\":14102:14105   */\n      0x00\n        /* \"#utility.yul\":14123:14190   */\n      tag_289\n        /* \"#utility.yul\":14187:14189   */\n      0x10\n        /* \"#utility.yul\":14182:14185   */\n      dup4\n        /* \"#utility.yul\":14123:14190   */\n      tag_105\n      jump\t// in\n    tag_289:\n        /* \"#utility.yul\":14116:14190   */\n      swap2\n      pop\n        /* \"#utility.yul\":14199:14292   */\n      tag_290\n        /* \"#utility.yul\":14288:14291   */\n      dup3\n        /* \"#utility.yul\":14199:14292   */\n      tag_147\n      jump\t// in\n    tag_290:\n        /* \"#utility.yul\":14317:14319   */\n      0x20\n        /* \"#utility.yul\":14312:14315   */\n      dup3\n        /* \"#utility.yul\":14308:14320   */\n      add\n        /* \"#utility.yul\":14301:14320   */\n      swap1\n      pop\n        /* \"#utility.yul\":13960:14326   */\n      swap2\n      swap1\n      pop\n      jump\t// out\n        /* \"#utility.yul\":14332:14751   */\n    tag_78:\n        /* \"#utility.yul\":14498:14502   */\n      0x00\n        /* \"#utility.yul\":14536:14538   */\n      0x20\n        /* \"#utility.yul\":14525:14534   */\n      dup3\n        /* \"#utility.yul\":14521:14539   */\n      add\n        /* \"#utility.yul\":14513:14539   */\n      swap1\n      pop\n        /* \"#utility.yul\":14585:14594   */\n      dup2\n        /* \"#utility.yul\":14579:14583   */\n      dup2\n        /* \"#utility.yul\":14575:14595   */\n      sub\n        /* \"#utility.yul\":14571:14572   */\n      0x00\n        /* \"#utility.yul\":14560:14569   */\n      dup4\n        /* \"#utility.yul\":14556:14573   */\n      add\n        /* \"#utility.yul\":14549:14596   */\n      mstore\n        /* \"#utility.yul\":14613:14744   */\n      tag_292\n        /* \"#utility.yul\":14739:14743   */\n      dup2\n        /* \"#utility.yul\":14613:14744   */\n      tag_148\n      jump\t// in\n    tag_292:\n        /* \"#utility.yul\":14605:14744   */\n      swap1\n      pop\n        /* \"#utility.yul\":14332:14751   */\n      swap2\n      swap1\n      pop\n      jump\t// out\n        /* \"#utility.yul\":14757:15215   */\n    tag_80:\n        /* \"#utility.yul\":14914:14918   */\n      0x00\n        /* \"#utility.yul\":14952:14954   */\n      0x60\n        /* \"#utility.yul\":14941:14950   */\n      dup3\n        /* \"#utility.yul\":14937:14955   */\n      add\n        /* \"#utility.yul\":14929:14955   */\n      swap1\n      pop\n        /* \"#utility.yul\":14965:15036   */\n      tag_294\n        /* \"#utility.yul\":15033:15034   */\n      0x00\n        /* \"#utility.yul\":15022:15031   */\n      dup4\n        /* \"#utility.yul\":15018:15035   */\n      add\n        /* \"#utility.yul\":15009:15015   */\n      dup7\n        /* \"#utility.yul\":14965:15036   */\n      tag_125\n      jump\t// in\n    tag_294:\n        /* \"#utility.yul\":15046:15126   */\n      tag_295\n        /* \"#utility.yul\":15122:15124   */\n      0x20\n        /* \"#utility.yul\":15111:15120   */\n      dup4\n        /* \"#utility.yul\":15107:15125   */\n      add\n        /* \"#utility.yul\":15098:15104   */\n      dup6\n        /* \"#utility.yul\":15046:15126   */\n      tag_133\n      jump\t// in\n    tag_295:\n        /* \"#utility.yul\":15136:15208   */\n      tag_296\n        /* \"#utility.yul\":15204:15206   */\n      0x40\n        /* \"#utility.yul\":15193:15202   */\n      dup4\n        /* \"#utility.yul\":15189:15207   */\n      add\n        /* \"#utility.yul\":15180:15186   */\n      dup5\n        /* \"#utility.yul\":15136:15208   */\n      tag_109\n      jump\t// in\n    tag_296:\n        /* \"#utility.yul\":14757:15215   */\n      swap5\n      swap4\n      pop\n      pop\n      pop\n      pop\n      jump\t// out\n        /* \"#utility.yul\":15221:15368   */\n    tag_149:\n        /* \"#utility.yul\":15322:15333   */\n      0x00\n        /* \"#utility.yul\":15359:15362   */\n      dup2\n        /* \"#utility.yul\":15344:15362   */\n      swap1\n      pop\n        /* \"#utility.yul\":15221:15368   */\n      swap3\n      swap2\n      pop\n      pop\n      jump\t// out\n        /* \"#utility.yul\":15374:15488   */\n    tag_150:\n      pop\n      jump\t// out\n        /* \"#utility.yul\":15494:15892   */\n    tag_151:\n        /* \"#utility.yul\":15653:15656   */\n      0x00\n        /* \"#utility.yul\":15674:15757   */\n      tag_300\n        /* \"#utility.yul\":15755:15756   */\n      0x00\n        /* \"#utility.yul\":15750:15753   */\n      dup4\n        /* \"#utility.yul\":15674:15757   */\n      tag_149\n      jump\t// in\n    tag_300:\n        /* \"#utility.yul\":15667:15757   */\n      swap2\n      pop\n        /* \"#utility.yul\":15766:15859   */\n      tag_301\n        /* \"#utility.yul\":15855:15858   */\n      dup3\n        /* \"#utility.yul\":15766:15859   */\n      tag_150\n      jump\t// in\n    tag_301:\n        /* \"#utility.yul\":15884:15885   */\n      0x00\n        /* \"#utility.yul\":15879:15882   */\n      dup3\n        /* \"#utility.yul\":15875:15886   */\n      add\n        /* \"#utility.yul\":15868:15886   */\n      swap1\n      pop\n        /* \"#utility.yul\":15494:15892   */\n      swap2\n      swap1\n      pop\n      jump\t// out\n        /* \"#utility.yul\":15898:16277   */\n    tag_87:\n        /* \"#utility.yul\":16082:16085   */\n      0x00\n        /* \"#utility.yul\":16104:16251   */\n      tag_303\n        /* \"#utility.yul\":16247:16250   */\n      dup3\n        /* \"#utility.yul\":16104:16251   */\n      tag_151\n      jump\t// in\n    tag_303:\n        /* \"#utility.yul\":16097:16251   */\n      swap2\n      pop\n        /* \"#utility.yul\":16268:16271   */\n      dup2\n        /* \"#utility.yul\":16261:16271   */\n      swap1\n      pop\n        /* \"#utility.yul\":15898:16277   */\n      swap2\n      swap1\n      pop\n      jump\t// out\n        /* \"#utility.yul\":16283:16452   */\n    tag_152:\n        /* \"#utility.yul\":16423:16444   */\n      0x455448207472616e73666572206661696c656400000000000000000000000000\n        /* \"#utility.yul\":16419:16420   */\n      0x00\n        /* \"#utility.yul\":16411:16417   */\n      dup3\n        /* \"#utility.yul\":16407:16421   */\n      add\n        /* \"#utility.yul\":16400:16445   */\n      mstore\n        /* \"#utility.yul\":16283:16452   */\n      pop\n      jump\t// out\n        /* \"#utility.yul\":16458:16824   */\n    tag_153:\n        /* \"#utility.yul\":16600:16603   */\n      0x00\n        /* \"#utility.yul\":16621:16688   */\n      tag_306\n        /* \"#utility.yul\":16685:16687   */\n      0x13\n        /* \"#utility.yul\":16680:16683   */\n      dup4\n        /* \"#utility.yul\":16621:16688   */\n      tag_105\n      jump\t// in\n    tag_306:\n        /* \"#utility.yul\":16614:16688   */\n      swap2\n      pop\n        /* \"#utility.yul\":16697:16790   */\n      tag_307\n        /* \"#utility.yul\":16786:16789   */\n      dup3\n        /* \"#utility.yul\":16697:16790   */\n      tag_152\n      jump\t// in\n    tag_307:\n        /* \"#utility.yul\":16815:16817   */\n      0x20\n        /* \"#utility.yul\":16810:16813   */\n      dup3\n        /* \"#utility.yul\":16806:16818   */\n      add\n        /* \"#utility.yul\":16799:16818   */\n      swap1\n      pop\n        /* \"#utility.yul\":16458:16824   */\n      swap2\n      swap1\n      pop\n      jump\t// out\n        /* \"#utility.yul\":16830:17249   */\n    tag_93:\n        /* \"#utility.yul\":16996:17000   */\n      0x00\n        /* \"#utility.yul\":17034:17036   */\n      0x20\n        /* \"#utility.yul\":17023:17032   */\n      dup3\n        /* \"#utility.yul\":17019:17037   */\n      add\n        /* \"#utility.yul\":17011:17037   */\n      swap1\n      pop\n        /* \"#utility.yul\":17083:17092   */\n      dup2\n        /* \"#utility.yul\":17077:17081   */\n      dup2\n        /* \"#utility.yul\":17073:17093   */\n      sub\n        /* \"#utility.yul\":17069:17070   */\n      0x00\n        /* \"#utility.yul\":17058:17067   */\n      dup4\n        /* \"#utility.yul\":17054:17071   */\n      add\n        /* \"#utility.yul\":17047:17094   */\n      mstore\n        /* \"#utility.yul\":17111:17242   */\n      tag_309\n        /* \"#utility.yul\":17237:17241   */\n      dup2\n        /* \"#utility.yul\":17111:17242   */\n      tag_153\n      jump\t// in\n    tag_309:\n        /* \"#utility.yul\":17103:17242   */\n      swap1\n      pop\n        /* \"#utility.yul\":16830:17249   */\n      swap2\n      swap1\n      pop\n      jump\t// out\n        /* \"#utility.yul\":17255:17587   */\n    tag_95:\n        /* \"#utility.yul\":17376:17380   */\n      0x00\n        /* \"#utility.yul\":17414:17416   */\n      0x40\n        /* \"#utility.yul\":17403:17412   */\n      dup3\n        /* \"#utility.yul\":17399:17417   */\n      add\n        /* \"#utility.yul\":17391:17417   */\n      swap1\n      pop\n        /* \"#utility.yul\":17427:17498   */\n      tag_311\n        /* \"#utility.yul\":17495:17496   */\n      0x00\n        /* \"#utility.yul\":17484:17493   */\n      dup4\n        /* \"#utility.yul\":17480:17497   */\n      add\n        /* \"#utility.yul\":17471:17477   */\n      dup6\n        /* \"#utility.yul\":17427:17498   */\n      tag_109\n      jump\t// in\n    tag_311:\n        /* \"#utility.yul\":17508:17580   */\n      tag_312\n        /* \"#utility.yul\":17576:17578   */\n      0x20\n        /* \"#utility.yul\":17565:17574   */\n      dup4\n        /* \"#utility.yul\":17561:17579   */\n      add\n        /* \"#utility.yul\":17552:17558   */\n      dup5\n        /* \"#utility.yul\":17508:17580   */\n      tag_109\n      jump\t// in\n    tag_312:\n        /* \"#utility.yul\":17255:17587   */\n      swap4\n      swap3\n      pop\n      pop\n      pop\n      jump\t// out\n        /* \"#utility.yul\":17593:17816   */\n    tag_154:\n        /* \"#utility.yul\":17733:17767   */\n      0x496e73756666696369656e74204554482062616c616e636520696e20636f6e74\n        /* \"#utility.yul\":17729:17730   */\n      0x00\n        /* \"#utility.yul\":17721:17727   */\n      dup3\n        /* \"#utility.yul\":17717:17731   */\n      add\n        /* \"#utility.yul\":17710:17768   */\n      mstore\n        /* \"#utility.yul\":17802:17808   */\n      0x7261637400000000000000000000000000000000000000000000000000000000\n        /* \"#utility.yul\":17797:17799   */\n      0x20\n        /* \"#utility.yul\":17789:17795   */\n      dup3\n        /* \"#utility.yul\":17785:17800   */\n      add\n        /* \"#utility.yul\":17778:17809   */\n      mstore\n        /* \"#utility.yul\":17593:17816   */\n      pop\n      jump\t// out\n        /* \"#utility.yul\":17822:18188   */\n    tag_155:\n        /* \"#utility.yul\":17964:17967   */\n      0x00\n        /* \"#utility.yul\":17985:18052   */\n      tag_315\n        /* \"#utility.yul\":18049:18051   */\n      0x24\n        /* \"#utility.yul\":18044:18047   */\n      dup4\n        /* \"#utility.yul\":17985:18052   */\n      tag_105\n      jump\t// in\n    tag_315:\n        /* \"#utility.yul\":17978:18052   */\n      swap2\n      pop\n        /* \"#utility.yul\":18061:18154   */\n      tag_316\n        /* \"#utility.yul\":18150:18153   */\n      dup3\n        /* \"#utility.yul\":18061:18154   */\n      tag_154\n      jump\t// in\n    tag_316:\n        /* \"#utility.yul\":18179:18181   */\n      0x40\n        /* \"#utility.yul\":18174:18177   */\n      dup3\n        /* \"#utility.yul\":18170:18182   */\n      add\n        /* \"#utility.yul\":18163:18182   */\n      swap1\n      pop\n        /* \"#utility.yul\":17822:18188   */\n      swap2\n      swap1\n      pop\n      jump\t// out\n        /* \"#utility.yul\":18194:18613   */\n    tag_102:\n        /* \"#utility.yul\":18360:18364   */\n      0x00\n        /* \"#utility.yul\":18398:18400   */\n      0x20\n        /* \"#utility.yul\":18387:18396   */\n      dup3\n        /* \"#utility.yul\":18383:18401   */\n      add\n        /* \"#utility.yul\":18375:18401   */\n      swap1\n      pop\n        /* \"#utility.yul\":18447:18456   */\n      dup2\n        /* \"#utility.yul\":18441:18445   */\n      dup2\n        /* \"#utility.yul\":18437:18457   */\n      sub\n        /* \"#utility.yul\":18433:18434   */\n      0x00\n        /* \"#utility.yul\":18422:18431   */\n      dup4\n        /* \"#utility.yul\":18418:18435   */\n      add\n        /* \"#utility.yul\":18411:18458   */\n      mstore\n        /* \"#utility.yul\":18475:18606   */\n      tag_318\n        /* \"#utility.yul\":18601:18605   */\n      dup2\n        /* \"#utility.yul\":18475:18606   */\n      tag_155\n      jump\t// in\n    tag_318:\n        /* \"#utility.yul\":18467:18606   */\n      swap1\n      pop\n        /* \"#utility.yul\":18194:18613   */\n      swap2\n      swap1\n      pop\n      jump\t// out\n\n    auxdata: 0xa26469706673582212202fd10c80de4e21e51c0be6d6783dc6202111fca6654973e57ee07624a5b74c1564736f6c63430008180033\n}\n",
				"bytecode": {
					"linkReferences": {},
					"object": "608060405234801562000010575f80fd5b50604051620012f7380380620012f7833981810160405281019062000036919062000121565b335f806101000a81548173ffffffffffffffffffffffffffffffffffffffff021916908373ffffffffffffffffffffffffffffffffffffffff1602179055508060015f6101000a81548173ffffffffffffffffffffffffffffffffffffffff021916908373ffffffffffffffffffffffffffffffffffffffff1602179055505062000151565b5f80fd5b5f73ffffffffffffffffffffffffffffffffffffffff82169050919050565b5f620000eb82620000c0565b9050919050565b620000fd81620000df565b811462000108575f80fd5b50565b5f815190506200011b81620000f2565b92915050565b5f60208284031215620001395762000138620000bc565b5b5f62000148848285016200010b565b91505092915050565b611198806200015f5f395ff3fe608060405260043610610058575f3560e01c806306b091f9146100f55780636691461a1461011d5780638da5cb5b146101455780639d76ea581461016f578063b77cf0c614610199578063f14210a6146101b5576100f1565b366100f1575f341161009f576040517f08c379a000000000000000000000000000000000000000000000000000000000815260040161009690610962565b60405180910390fd5b3373ffffffffffffffffffffffffffffffffffffffff167f90890809c654f11d6e72a28fa60149770a0d11ec6c92319d6ceb2bb0a4ea1a15345f6040516100e79291906109da565b60405180910390a2005b5f80fd5b348015610100575f80fd5b5061011b60048036038101906101169190610a89565b6101dd565b005b348015610128575f80fd5b50610143600480360381019061013e9190610ac7565b61034c565b005b348015610150575f80fd5b5061015961048a565b6040516101669190610b12565b60405180910390f35b34801561017a575f80fd5b506101836104ad565b6040516101909190610b3a565b60405180910390f35b6101b360048036038101906101ae9190610b7d565b6104d2565b005b3480156101c0575f80fd5b506101db60048036038101906101d69190610bcd565b6107d2565b005b5f8054906101000a900473ffffffffffffffffffffffffffffffffffffffff1673ffffffffffffffffffffffffffffffffffffffff163373ffffffffffffffffffffffffffffffffffffffff161461026a576040517f08c379a000000000000000000000000000000000000000000000000000000000815260040161026190610c68565b60405180910390fd5b5f8290508073ffffffffffffffffffffffffffffffffffffffff1663a9059cbb5f8054906101000a900473ffffffffffffffffffffffffffffffffffffffff16846040518363ffffffff1660e01b81526004016102c8929190610cd8565b6020604051808303815f875af11580156102e4573d5f803e3d5ffd5b505050506040513d601f19601f820116820180604052508101906103089190610d34565b610347576040517f08c379a000000000000000000000000000000000000000000000000000000000815260040161033e90610da9565b60405180910390fd5b505050565b5f8054906101000a900473ffffffffffffffffffffffffffffffffffffffff1673ffffffffffffffffffffffffffffffffffffffff163373ffffffffffffffffffffffffffffffffffffffff16146103d9576040517f08c379a00000000000000000000000000000000000000000000000000000000081526004016103d090610c68565b60405180910390fd5b5f73ffffffffffffffffffffffffffffffffffffffff168173ffffffffffffffffffffffffffffffffffffffff1603610447576040517f08c379a000000000000000000000000000000000000000000000000000000000815260040161043e90610e11565b60405180910390fd5b8060015f6101000a81548173ffffffffffffffffffffffffffffffffffffffff021916908373ffffffffffffffffffffffffffffffffffffffff16021790555050565b5f8054906101000a900473ffffffffffffffffffffffffffffffffffffffff1681565b60015f9054906101000a900473ffffffffffffffffffffffffffffffffffffffff1681565b5f8211610514576040517f08c379a000000000000000000000000000000000000000000000000000000000815260040161050b90610e79565b60405180910390fd5b5f8111610556576040517f08c379a000000000000000000000000000000000000000000000000000000000815260040161054d90610ee1565b60405180910390fd5b5f8211610598576040517f08c379a000000000000000000000000000000000000000000000000000000000815260040161058f90610f49565b60405180910390fd5b3373ffffffffffffffffffffffffffffffffffffffff16318211156105f2576040517f08c379a00000000000000000000000000000000000000000000000000000000081526004016105e990610fb1565b60405180910390fd5b5f60015f9054906101000a900473ffffffffffffffffffffffffffffffffffffffff1690508073ffffffffffffffffffffffffffffffffffffffff166323b872dd3386856040518463ffffffff1660e01b815260040161065493929190610fcf565b6020604051808303815f875af1158015610670573d5f803e3d5ffd5b505050506040513d601f19601f820116820180604052508101906106949190610d34565b6106d3576040517f08c379a00000000000000000000000000000000000000000000000000000000081526004016106ca90610da9565b60405180910390fd5b5f8473ffffffffffffffffffffffffffffffffffffffff16846040516106f890611031565b5f6040518083038185875af1925050503d805f8114610732576040519150601f19603f3d011682016040523d82523d5f602084013e610737565b606091505b505090508061077b576040517f08c379a00000000000000000000000000000000000000000000000000000000081526004016107729061108f565b60405180910390fd5b8473ffffffffffffffffffffffffffffffffffffffff167f7fa9aafeb8bb803d77de5d84bc2f2edbd842ca91b20cd5020aa21dfe26ab0be985856040516107c39291906110ad565b60405180910390a25050505050565b5f8054906101000a900473ffffffffffffffffffffffffffffffffffffffff1673ffffffffffffffffffffffffffffffffffffffff163373ffffffffffffffffffffffffffffffffffffffff161461085f576040517f08c379a000000000000000000000000000000000000000000000000000000000815260040161085690610c68565b60405180910390fd5b804710156108a2576040517f08c379a000000000000000000000000000000000000000000000000000000000815260040161089990611144565b60405180910390fd5b5f8054906101000a900473ffffffffffffffffffffffffffffffffffffffff1673ffffffffffffffffffffffffffffffffffffffff166108fc8290811502906040515f60405180830381858888f19350505050158015610904573d5f803e3d5ffd5b5050565b5f82825260208201905092915050565b7f496e76616c6964206465706f73697420616d6f756e74000000000000000000005f82015250565b5f61094c601683610908565b915061095782610918565b602082019050919050565b5f6020820190508181035f83015261097981610940565b9050919050565b5f819050919050565b61099281610980565b82525050565b5f819050919050565b5f819050919050565b5f6109c46109bf6109ba84610998565b6109a1565b610980565b9050919050565b6109d4816109aa565b82525050565b5f6040820190506109ed5f830185610989565b6109fa60208301846109cb565b9392505050565b5f80fd5b5f73ffffffffffffffffffffffffffffffffffffffff82169050919050565b5f610a2e82610a05565b9050919050565b610a3e81610a24565b8114610a48575f80fd5b50565b5f81359050610a5981610a35565b92915050565b610a6881610980565b8114610a72575f80fd5b50565b5f81359050610a8381610a5f565b92915050565b5f8060408385031215610a9f57610a9e610a01565b5b5f610aac85828601610a4b565b9250506020610abd85828601610a75565b9150509250929050565b5f60208284031215610adc57610adb610a01565b5b5f610ae984828501610a4b565b91505092915050565b5f610afc82610a05565b9050919050565b610b0c81610af2565b82525050565b5f602082019050610b255f830184610b03565b92915050565b610b3481610a24565b82525050565b5f602082019050610b4d5f830184610b2b565b92915050565b610b5c81610af2565b8114610b66575f80fd5b50565b5f81359050610b7781610b53565b92915050565b5f805f60608486031215610b9457610b93610a01565b5b5f610ba186828701610b69565b9350506020610bb286828701610a75565b9250506040610bc386828701610a75565b9150509250925092565b5f60208284031215610be257610be1610a01565b5b5f610bef84828501610a75565b91505092915050565b7f4f6e6c79206f776e65722063616e2063616c6c20746869732066756e6374696f5f8201527f6e00000000000000000000000000000000000000000000000000000000000000602082015250565b5f610c52602183610908565b9150610c5d82610bf8565b604082019050919050565b5f6020820190508181035f830152610c7f81610c46565b9050919050565b5f610ca0610c9b610c9684610a05565b6109a1565b610a05565b9050919050565b5f610cb182610c86565b9050919050565b5f610cc282610ca7565b9050919050565b610cd281610cb8565b82525050565b5f604082019050610ceb5f830185610cc9565b610cf86020830184610989565b9392505050565b5f8115159050919050565b610d1381610cff565b8114610d1d575f80fd5b50565b5f81519050610d2e81610d0a565b92915050565b5f60208284031215610d4957610d48610a01565b5b5f610d5684828501610d20565b91505092915050565b7f546f6b656e207472616e73666572206661696c656400000000000000000000005f82015250565b5f610d93601583610908565b9150610d9e82610d5f565b602082019050919050565b5f6020820190508181035f830152610dc081610d87565b9050919050565b7f496e76616c696420746f6b656e206164647265737300000000000000000000005f82015250565b5f610dfb601583610908565b9150610e0682610dc7565b602082019050919050565b5f6020820190508181035f830152610e2881610def565b9050919050565b7f496e76616c69642045544820616d6f756e7400000000000000000000000000005f82015250565b5f610e63601283610908565b9150610e6e82610e2f565b602082019050919050565b5f6020820190508181035f830152610e9081610e57565b9050919050565b7f496e76616c696420746f6b656e20616d6f756e740000000000000000000000005f82015250565b5f610ecb601483610908565b9150610ed682610e97565b602082019050919050565b5f6020820190508181035f830152610ef881610ebf565b9050919050565b7f496e76616c696420616d6f756e742031000000000000000000000000000000005f82015250565b5f610f33601083610908565b9150610f3e82610eff565b602082019050919050565b5f6020820190508181035f830152610f6081610f27565b9050919050565b7f496e76616c696420616d6f756e742033000000000000000000000000000000005f82015250565b5f610f9b601083610908565b9150610fa682610f67565b602082019050919050565b5f6020820190508181035f830152610fc881610f8f565b9050919050565b5f606082019050610fe25f830186610b2b565b610fef6020830185610cc9565b610ffc6040830184610989565b949350505050565b5f81905092915050565b50565b5f61101c5f83611004565b91506110278261100e565b5f82019050919050565b5f61103b82611011565b9150819050919050565b7f455448207472616e73666572206661696c6564000000000000000000000000005f82015250565b5f611079601383610908565b915061108482611045565b602082019050919050565b5f6020820190508181035f8301526110a68161106d565b9050919050565b5f6040820190506110c05f830185610989565b6110cd6020830184610989565b9392505050565b7f496e73756666696369656e74204554482062616c616e636520696e20636f6e745f8201527f7261637400000000000000000000000000000000000000000000000000000000602082015250565b5f61112e602483610908565b9150611139826110d4565b604082019050919050565b5f6020820190508181035f83015261115b81611122565b905091905056fea26469706673582212202fd10c80de4e21e51c0be6d6783dc6202111fca6654973e57ee07624a5b74c1564736f6c63430008180033",
					"opcodes": "PUSH1 0x80 PUSH1 0x40 MSTORE CALLVALUE DUP1 ISZERO PUSH3 0x10 JUMPI PUSH0 DUP1 REVERT JUMPDEST POP PUSH1 0x40 MLOAD PUSH3 0x12F7 CODESIZE SUB DUP1 PUSH3 0x12F7 DUP4 CODECOPY DUP2 DUP2 ADD PUSH1 0x40 MSTORE DUP2 ADD SWAP1 PUSH3 0x36 SWAP2 SWAP1 PUSH3 0x121 JUMP JUMPDEST CALLER PUSH0 DUP1 PUSH2 0x100 EXP DUP2 SLOAD DUP2 PUSH20 0xFFFFFFFFFFFFFFFFFFFFFFFFFFFFFFFFFFFFFFFF MUL NOT AND SWAP1 DUP4 PUSH20 0xFFFFFFFFFFFFFFFFFFFFFFFFFFFFFFFFFFFFFFFF AND MUL OR SWAP1 SSTORE POP DUP1 PUSH1 0x1 PUSH0 PUSH2 0x100 EXP DUP2 SLOAD DUP2 PUSH20 0xFFFFFFFFFFFFFFFFFFFFFFFFFFFFFFFFFFFFFFFF MUL NOT AND SWAP1 DUP4 PUSH20 0xFFFFFFFFFFFFFFFFFFFFFFFFFFFFFFFFFFFFFFFF AND MUL OR SWAP1 SSTORE POP POP PUSH3 0x151 JUMP JUMPDEST PUSH0 DUP1 REVERT JUMPDEST PUSH0 PUSH20 0xFFFFFFFFFFFFFFFFFFFFFFFFFFFFFFFFFFFFFFFF DUP3 AND SWAP1 POP SWAP2 SWAP1 POP JUMP JUMPDEST PUSH0 PUSH3 0xEB DUP3 PUSH3 0xC0 JUMP JUMPDEST SWAP1 POP SWAP2 SWAP1 POP JUMP JUMPDEST PUSH3 0xFD DUP2 PUSH3 0xDF JUMP JUMPDEST DUP2 EQ PUSH3 0x108 JUMPI PUSH0 DUP1 REVERT JUMPDEST POP JUMP JUMPDEST PUSH0 DUP2 MLOAD SWAP1 POP PUSH3 0x11B DUP2 PUSH3 0xF2 JUMP JUMPDEST SWAP3 SWAP2 POP POP JUMP JUMPDEST PUSH0 PUSH1 0x20 DUP3 DUP5 SUB SLT ISZERO PUSH3 0x139 JUMPI PUSH3 0x138 PUSH3 0xBC JUMP JUMPDEST JUMPDEST PUSH0 PUSH3 0x148 DUP5 DUP3 DUP6 ADD PUSH3 0x10B JUMP JUMPDEST SWAP2 POP POP SWAP3 SWAP2 POP POP JUMP JUMPDEST PUSH2 0x1198 DUP1 PUSH3 0x15F PUSH0 CODECOPY PUSH0 RETURN INVALID PUSH1 0x80 PUSH1 0x40 MSTORE PUSH1 0x4 CALLDATASIZE LT PUSH2 0x58 JUMPI PUSH0 CALLDATALOAD PUSH1 0xE0 SHR DUP1 PUSH4 0x6B091F9 EQ PUSH2 0xF5 JUMPI DUP1 PUSH4 0x6691461A EQ PUSH2 0x11D JUMPI DUP1 PUSH4 0x8DA5CB5B EQ PUSH2 0x145 JUMPI DUP1 PUSH4 0x9D76EA58 EQ PUSH2 0x16F JUMPI DUP1 PUSH4 0xB77CF0C6 EQ PUSH2 0x199 JUMPI DUP1 PUSH4 0xF14210A6 EQ PUSH2 0x1B5 JUMPI PUSH2 0xF1 JUMP JUMPDEST CALLDATASIZE PUSH2 0xF1 JUMPI PUSH0 CALLVALUE GT PUSH2 0x9F JUMPI PUSH1 0x40 MLOAD PUSH32 0x8C379A000000000000000000000000000000000000000000000000000000000 DUP2 MSTORE PUSH1 0x4 ADD PUSH2 0x96 SWAP1 PUSH2 0x962 JUMP JUMPDEST PUSH1 0x40 MLOAD DUP1 SWAP2 SUB SWAP1 REVERT JUMPDEST CALLER PUSH20 0xFFFFFFFFFFFFFFFFFFFFFFFFFFFFFFFFFFFFFFFF AND PUSH32 0x90890809C654F11D6E72A28FA60149770A0D11EC6C92319D6CEB2BB0A4EA1A15 CALLVALUE PUSH0 PUSH1 0x40 MLOAD PUSH2 0xE7 SWAP3 SWAP2 SWAP1 PUSH2 0x9DA JUMP JUMPDEST PUSH1 0x40 MLOAD DUP1 SWAP2 SUB SWAP1 LOG2 STOP JUMPDEST PUSH0 DUP1 REVERT JUMPDEST CALLVALUE DUP1 ISZERO PUSH2 0x100 JUMPI PUSH0 DUP1 REVERT JUMPDEST POP PUSH2 0x11B PUSH1 0x4 DUP1 CALLDATASIZE SUB DUP2 ADD SWAP1 PUSH2 0x116 SWAP2 SWAP1 PUSH2 0xA89 JUMP JUMPDEST PUSH2 0x1DD JUMP JUMPDEST STOP JUMPDEST CALLVALUE DUP1 ISZERO PUSH2 0x128 JUMPI PUSH0 DUP1 REVERT JUMPDEST POP PUSH2 0x143 PUSH1 0x4 DUP1 CALLDATASIZE SUB DUP2 ADD SWAP1 PUSH2 0x13E SWAP2 SWAP1 PUSH2 0xAC7 JUMP JUMPDEST PUSH2 0x34C JUMP JUMPDEST STOP JUMPDEST CALLVALUE DUP1 ISZERO PUSH2 0x150 JUMPI PUSH0 DUP1 REVERT JUMPDEST POP PUSH2 0x159 PUSH2 0x48A JUMP JUMPDEST PUSH1 0x40 MLOAD PUSH2 0x166 SWAP2 SWAP1 PUSH2 0xB12 JUMP JUMPDEST PUSH1 0x40 MLOAD DUP1 SWAP2 SUB SWAP1 RETURN JUMPDEST CALLVALUE DUP1 ISZERO PUSH2 0x17A JUMPI PUSH0 DUP1 REVERT JUMPDEST POP PUSH2 0x183 PUSH2 0x4AD JUMP JUMPDEST PUSH1 0x40 MLOAD PUSH2 0x190 SWAP2 SWAP1 PUSH2 0xB3A JUMP JUMPDEST PUSH1 0x40 MLOAD DUP1 SWAP2 SUB SWAP1 RETURN JUMPDEST PUSH2 0x1B3 PUSH1 0x4 DUP1 CALLDATASIZE SUB DUP2 ADD SWAP1 PUSH2 0x1AE SWAP2 SWAP1 PUSH2 0xB7D JUMP JUMPDEST PUSH2 0x4D2 JUMP JUMPDEST STOP JUMPDEST CALLVALUE DUP1 ISZERO PUSH2 0x1C0 JUMPI PUSH0 DUP1 REVERT JUMPDEST POP PUSH2 0x1DB PUSH1 0x4 DUP1 CALLDATASIZE SUB DUP2 ADD SWAP1 PUSH2 0x1D6 SWAP2 SWAP1 PUSH2 0xBCD JUMP JUMPDEST PUSH2 0x7D2 JUMP JUMPDEST STOP JUMPDEST PUSH0 DUP1 SLOAD SWAP1 PUSH2 0x100 EXP SWAP1 DIV PUSH20 0xFFFFFFFFFFFFFFFFFFFFFFFFFFFFFFFFFFFFFFFF AND PUSH20 0xFFFFFFFFFFFFFFFFFFFFFFFFFFFFFFFFFFFFFFFF AND CALLER PUSH20 0xFFFFFFFFFFFFFFFFFFFFFFFFFFFFFFFFFFFFFFFF AND EQ PUSH2 0x26A JUMPI PUSH1 0x40 MLOAD PUSH32 0x8C379A000000000000000000000000000000000000000000000000000000000 DUP2 MSTORE PUSH1 0x4 ADD PUSH2 0x261 SWAP1 PUSH2 0xC68 JUMP JUMPDEST PUSH1 0x40 MLOAD DUP1 SWAP2 SUB SWAP1 REVERT JUMPDEST PUSH0 DUP3 SWAP1 POP DUP1 PUSH20 0xFFFFFFFFFFFFFFFFFFFFFFFFFFFFFFFFFFFFFFFF AND PUSH4 0xA9059CBB PUSH0 DUP1 SLOAD SWAP1 PUSH2 0x100 EXP SWAP1 DIV PUSH20 0xFFFFFFFFFFFFFFFFFFFFFFFFFFFFFFFFFFFFFFFF AND DUP5 PUSH1 0x40 MLOAD DUP4 PUSH4 0xFFFFFFFF AND PUSH1 0xE0 SHL DUP2 MSTORE PUSH1 0x4 ADD PUSH2 0x2C8 SWAP3 SWAP2 SWAP1 PUSH2 0xCD8 JUMP JUMPDEST PUSH1 0x20 PUSH1 0x40 MLOAD DUP1 DUP4 SUB DUP2 PUSH0 DUP8 GAS CALL ISZERO DUP1 ISZERO PUSH2 0x2E4 JUMPI RETURNDATASIZE PUSH0 DUP1 RETURNDATACOPY RETURNDATASIZE PUSH0 REVERT JUMPDEST POP POP POP POP PUSH1 0x40 MLOAD RETURNDATASIZE PUSH1 0x1F NOT PUSH1 0x1F DUP3 ADD AND DUP3 ADD DUP1 PUSH1 0x40 MSTORE POP DUP2 ADD SWAP1 PUSH2 0x308 SWAP2 SWAP1 PUSH2 0xD34 JUMP JUMPDEST PUSH2 0x347 JUMPI PUSH1 0x40 MLOAD PUSH32 0x8C379A000000000000000000000000000000000000000000000000000000000 DUP2 MSTORE PUSH1 0x4 ADD PUSH2 0x33E SWAP1 PUSH2 0xDA9 JUMP JUMPDEST PUSH1 0x40 MLOAD DUP1 SWAP2 SUB SWAP1 REVERT JUMPDEST POP POP POP JUMP JUMPDEST PUSH0 DUP1 SLOAD SWAP1 PUSH2 0x100 EXP SWAP1 DIV PUSH20 0xFFFFFFFFFFFFFFFFFFFFFFFFFFFFFFFFFFFFFFFF AND PUSH20 0xFFFFFFFFFFFFFFFFFFFFFFFFFFFFFFFFFFFFFFFF AND CALLER PUSH20 0xFFFFFFFFFFFFFFFFFFFFFFFFFFFFFFFFFFFFFFFF AND EQ PUSH2 0x3D9 JUMPI PUSH1 0x40 MLOAD PUSH32 0x8C379A000000000000000000000000000000000000000000000000000000000 DUP2 MSTORE PUSH1 0x4 ADD PUSH2 0x3D0 SWAP1 PUSH2 0xC68 JUMP JUMPDEST PUSH1 0x40 MLOAD DUP1 SWAP2 SUB SWAP1 REVERT JUMPDEST PUSH0 PUSH20 0xFFFFFFFFFFFFFFFFFFFFFFFFFFFFFFFFFFFFFFFF AND DUP2 PUSH20 0xFFFFFFFFFFFFFFFFFFFFFFFFFFFFFFFFFFFFFFFF AND SUB PUSH2 0x447 JUMPI PUSH1 0x40 MLOAD PUSH32 0x8C379A000000000000000000000000000000000000000000000000000000000 DUP2 MSTORE PUSH1 0x4 ADD PUSH2 0x43E SWAP1 PUSH2 0xE11 JUMP JUMPDEST PUSH1 0x40 MLOAD DUP1 SWAP2 SUB SWAP1 REVERT JUMPDEST DUP1 PUSH1 0x1 PUSH0 PUSH2 0x100 EXP DUP2 SLOAD DUP2 PUSH20 0xFFFFFFFFFFFFFFFFFFFFFFFFFFFFFFFFFFFFFFFF MUL NOT AND SWAP1 DUP4 PUSH20 0xFFFFFFFFFFFFFFFFFFFFFFFFFFFFFFFFFFFFFFFF AND MUL OR SWAP1 SSTORE POP POP JUMP JUMPDEST PUSH0 DUP1 SLOAD SWAP1 PUSH2 0x100 EXP SWAP1 DIV PUSH20 0xFFFFFFFFFFFFFFFFFFFFFFFFFFFFFFFFFFFFFFFF AND DUP2 JUMP JUMPDEST PUSH1 0x1 PUSH0 SWAP1 SLOAD SWAP1 PUSH2 0x100 EXP SWAP1 DIV PUSH20 0xFFFFFFFFFFFFFFFFFFFFFFFFFFFFFFFFFFFFFFFF AND DUP2 JUMP JUMPDEST PUSH0 DUP3 GT PUSH2 0x514 JUMPI PUSH1 0x40 MLOAD PUSH32 0x8C379A000000000000000000000000000000000000000000000000000000000 DUP2 MSTORE PUSH1 0x4 ADD PUSH2 0x50B SWAP1 PUSH2 0xE79 JUMP JUMPDEST PUSH1 0x40 MLOAD DUP1 SWAP2 SUB SWAP1 REVERT JUMPDEST PUSH0 DUP2 GT PUSH2 0x556 JUMPI PUSH1 0x40 MLOAD PUSH32 0x8C379A000000000000000000000000000000000000000000000000000000000 DUP2 MSTORE PUSH1 0x4 ADD PUSH2 0x54D SWAP1 PUSH2 0xEE1 JUMP JUMPDEST PUSH1 0x40 MLOAD DUP1 SWAP2 SUB SWAP1 REVERT JUMPDEST PUSH0 DUP3 GT PUSH2 0x598 JUMPI PUSH1 0x40 MLOAD PUSH32 0x8C379A000000000000000000000000000000000000000000000000000000000 DUP2 MSTORE PUSH1 0x4 ADD PUSH2 0x58F SWAP1 PUSH2 0xF49 JUMP JUMPDEST PUSH1 0x40 MLOAD DUP1 SWAP2 SUB SWAP1 REVERT JUMPDEST CALLER PUSH20 0xFFFFFFFFFFFFFFFFFFFFFFFFFFFFFFFFFFFFFFFF AND BALANCE DUP3 GT ISZERO PUSH2 0x5F2 JUMPI PUSH1 0x40 MLOAD PUSH32 0x8C379A000000000000000000000000000000000000000000000000000000000 DUP2 MSTORE PUSH1 0x4 ADD PUSH2 0x5E9 SWAP1 PUSH2 0xFB1 JUMP JUMPDEST PUSH1 0x40 MLOAD DUP1 SWAP2 SUB SWAP1 REVERT JUMPDEST PUSH0 PUSH1 0x1 PUSH0 SWAP1 SLOAD SWAP1 PUSH2 0x100 EXP SWAP1 DIV PUSH20 0xFFFFFFFFFFFFFFFFFFFFFFFFFFFFFFFFFFFFFFFF AND SWAP1 POP DUP1 PUSH20 0xFFFFFFFFFFFFFFFFFFFFFFFFFFFFFFFFFFFFFFFF AND PUSH4 0x23B872DD CALLER DUP7 DUP6 PUSH1 0x40 MLOAD DUP5 PUSH4 0xFFFFFFFF AND PUSH1 0xE0 SHL DUP2 MSTORE PUSH1 0x4 ADD PUSH2 0x654 SWAP4 SWAP3 SWAP2 SWAP1 PUSH2 0xFCF JUMP JUMPDEST PUSH1 0x20 PUSH1 0x40 MLOAD DUP1 DUP4 SUB DUP2 PUSH0 DUP8 GAS CALL ISZERO DUP1 ISZERO PUSH2 0x670 JUMPI RETURNDATASIZE PUSH0 DUP1 RETURNDATACOPY RETURNDATASIZE PUSH0 REVERT JUMPDEST POP POP POP POP PUSH1 0x40 MLOAD RETURNDATASIZE PUSH1 0x1F NOT PUSH1 0x1F DUP3 ADD AND DUP3 ADD DUP1 PUSH1 0x40 MSTORE POP DUP2 ADD SWAP1 PUSH2 0x694 SWAP2 SWAP1 PUSH2 0xD34 JUMP JUMPDEST PUSH2 0x6D3 JUMPI PUSH1 0x40 MLOAD PUSH32 0x8C379A000000000000000000000000000000000000000000000000000000000 DUP2 MSTORE PUSH1 0x4 ADD PUSH2 0x6CA SWAP1 PUSH2 0xDA9 JUMP JUMPDEST PUSH1 0x40 MLOAD DUP1 SWAP2 SUB SWAP1 REVERT JUMPDEST PUSH0 DUP5 PUSH20 0xFFFFFFFFFFFFFFFFFFFFFFFFFFFFFFFFFFFFFFFF AND DUP5 PUSH1 0x40 MLOAD PUSH2 0x6F8 SWAP1 PUSH2 0x1031 JUMP JUMPDEST PUSH0 PUSH1 0x40 MLOAD DUP1 DUP4 SUB DUP2 DUP6 DUP8 GAS CALL SWAP3 POP POP POP RETURNDATASIZE DUP1 PUSH0 DUP2 EQ PUSH2 0x732 JUMPI PUSH1 0x40 MLOAD SWAP2 POP PUSH1 0x1F NOT PUSH1 0x3F RETURNDATASIZE ADD AND DUP3 ADD PUSH1 0x40 MSTORE RETURNDATASIZE DUP3 MSTORE RETURNDATASIZE PUSH0 PUSH1 0x20 DUP5 ADD RETURNDATACOPY PUSH2 0x737 JUMP JUMPDEST PUSH1 0x60 SWAP2 POP JUMPDEST POP POP SWAP1 POP DUP1 PUSH2 0x77B JUMPI PUSH1 0x40 MLOAD PUSH32 0x8C379A000000000000000000000000000000000000000000000000000000000 DUP2 MSTORE PUSH1 0x4 ADD PUSH2 0x772 SWAP1 PUSH2 0x108F JUMP JUMPDEST PUSH1 0x40 MLOAD DUP1 SWAP2 SUB SWAP1 REVERT JUMPDEST DUP5 PUSH20 0xFFFFFFFFFFFFFFFFFFFFFFFFFFFFFFFFFFFFFFFF AND PUSH32 0x7FA9AAFEB8BB803D77DE5D84BC2F2EDBD842CA91B20CD5020AA21DFE26AB0BE9 DUP6 DUP6 PUSH1 0x40 MLOAD PUSH2 0x7C3 SWAP3 SWAP2 SWAP1 PUSH2 0x10AD JUMP JUMPDEST PUSH1 0x40 MLOAD DUP1 SWAP2 SUB SWAP1 LOG2 POP POP POP POP POP JUMP JUMPDEST PUSH0 DUP1 SLOAD SWAP1 PUSH2 0x100 EXP SWAP1 DIV PUSH20 0xFFFFFFFFFFFFFFFFFFFFFFFFFFFFFFFFFFFFFFFF AND PUSH20 0xFFFFFFFFFFFFFFFFFFFFFFFFFFFFFFFFFFFFFFFF AND CALLER PUSH20 0xFFFFFFFFFFFFFFFFFFFFFFFFFFFFFFFFFFFFFFFF AND EQ PUSH2 0x85F JUMPI PUSH1 0x40 MLOAD PUSH32 0x8C379A000000000000000000000000000000000000000000000000000000000 DUP2 MSTORE PUSH1 0x4 ADD PUSH2 0x856 SWAP1 PUSH2 0xC68 JUMP JUMPDEST PUSH1 0x40 MLOAD DUP1 SWAP2 SUB SWAP1 REVERT JUMPDEST DUP1 SELFBALANCE LT ISZERO PUSH2 0x8A2 JUMPI PUSH1 0x40 MLOAD PUSH32 0x8C379A000000000000000000000000000000000000000000000000000000000 DUP2 MSTORE PUSH1 0x4 ADD PUSH2 0x899 SWAP1 PUSH2 0x1144 JUMP JUMPDEST PUSH1 0x40 MLOAD DUP1 SWAP2 SUB SWAP1 REVERT JUMPDEST PUSH0 DUP1 SLOAD SWAP1 PUSH2 0x100 EXP SWAP1 DIV PUSH20 0xFFFFFFFFFFFFFFFFFFFFFFFFFFFFFFFFFFFFFFFF AND PUSH20 0xFFFFFFFFFFFFFFFFFFFFFFFFFFFFFFFFFFFFFFFF AND PUSH2 0x8FC DUP3 SWAP1 DUP2 ISZERO MUL SWAP1 PUSH1 0x40 MLOAD PUSH0 PUSH1 0x40 MLOAD DUP1 DUP4 SUB DUP2 DUP6 DUP9 DUP9 CALL SWAP4 POP POP POP POP ISZERO DUP1 ISZERO PUSH2 0x904 JUMPI RETURNDATASIZE PUSH0 DUP1 RETURNDATACOPY RETURNDATASIZE PUSH0 REVERT JUMPDEST POP POP JUMP JUMPDEST PUSH0 DUP3 DUP3 MSTORE PUSH1 0x20 DUP3 ADD SWAP1 POP SWAP3 SWAP2 POP POP JUMP JUMPDEST PUSH32 0x496E76616C6964206465706F73697420616D6F756E7400000000000000000000 PUSH0 DUP3 ADD MSTORE POP JUMP JUMPDEST PUSH0 PUSH2 0x94C PUSH1 0x16 DUP4 PUSH2 0x908 JUMP JUMPDEST SWAP2 POP PUSH2 0x957 DUP3 PUSH2 0x918 JUMP JUMPDEST PUSH1 0x20 DUP3 ADD SWAP1 POP SWAP2 SWAP1 POP JUMP JUMPDEST PUSH0 PUSH1 0x20 DUP3 ADD SWAP1 POP DUP2 DUP2 SUB PUSH0 DUP4 ADD MSTORE PUSH2 0x979 DUP2 PUSH2 0x940 JUMP JUMPDEST SWAP1 POP SWAP2 SWAP1 POP JUMP JUMPDEST PUSH0 DUP2 SWAP1 POP SWAP2 SWAP1 POP JUMP JUMPDEST PUSH2 0x992 DUP2 PUSH2 0x980 JUMP JUMPDEST DUP3 MSTORE POP POP JUMP JUMPDEST PUSH0 DUP2 SWAP1 POP SWAP2 SWAP1 POP JUMP JUMPDEST PUSH0 DUP2 SWAP1 POP SWAP2 SWAP1 POP JUMP JUMPDEST PUSH0 PUSH2 0x9C4 PUSH2 0x9BF PUSH2 0x9BA DUP5 PUSH2 0x998 JUMP JUMPDEST PUSH2 0x9A1 JUMP JUMPDEST PUSH2 0x980 JUMP JUMPDEST SWAP1 POP SWAP2 SWAP1 POP JUMP JUMPDEST PUSH2 0x9D4 DUP2 PUSH2 0x9AA JUMP JUMPDEST DUP3 MSTORE POP POP JUMP JUMPDEST PUSH0 PUSH1 0x40 DUP3 ADD SWAP1 POP PUSH2 0x9ED PUSH0 DUP4 ADD DUP6 PUSH2 0x989 JUMP JUMPDEST PUSH2 0x9FA PUSH1 0x20 DUP4 ADD DUP5 PUSH2 0x9CB JUMP JUMPDEST SWAP4 SWAP3 POP POP POP JUMP JUMPDEST PUSH0 DUP1 REVERT JUMPDEST PUSH0 PUSH20 0xFFFFFFFFFFFFFFFFFFFFFFFFFFFFFFFFFFFFFFFF DUP3 AND SWAP1 POP SWAP2 SWAP1 POP JUMP JUMPDEST PUSH0 PUSH2 0xA2E DUP3 PUSH2 0xA05 JUMP JUMPDEST SWAP1 POP SWAP2 SWAP1 POP JUMP JUMPDEST PUSH2 0xA3E DUP2 PUSH2 0xA24 JUMP JUMPDEST DUP2 EQ PUSH2 0xA48 JUMPI PUSH0 DUP1 REVERT JUMPDEST POP JUMP JUMPDEST PUSH0 DUP2 CALLDATALOAD SWAP1 POP PUSH2 0xA59 DUP2 PUSH2 0xA35 JUMP JUMPDEST SWAP3 SWAP2 POP POP JUMP JUMPDEST PUSH2 0xA68 DUP2 PUSH2 0x980 JUMP JUMPDEST DUP2 EQ PUSH2 0xA72 JUMPI PUSH0 DUP1 REVERT JUMPDEST POP JUMP JUMPDEST PUSH0 DUP2 CALLDATALOAD SWAP1 POP PUSH2 0xA83 DUP2 PUSH2 0xA5F JUMP JUMPDEST SWAP3 SWAP2 POP POP JUMP JUMPDEST PUSH0 DUP1 PUSH1 0x40 DUP4 DUP6 SUB SLT ISZERO PUSH2 0xA9F JUMPI PUSH2 0xA9E PUSH2 0xA01 JUMP JUMPDEST JUMPDEST PUSH0 PUSH2 0xAAC DUP6 DUP3 DUP7 ADD PUSH2 0xA4B JUMP JUMPDEST SWAP3 POP POP PUSH1 0x20 PUSH2 0xABD DUP6 DUP3 DUP7 ADD PUSH2 0xA75 JUMP JUMPDEST SWAP2 POP POP SWAP3 POP SWAP3 SWAP1 POP JUMP JUMPDEST PUSH0 PUSH1 0x20 DUP3 DUP5 SUB SLT ISZERO PUSH2 0xADC JUMPI PUSH2 0xADB PUSH2 0xA01 JUMP JUMPDEST JUMPDEST PUSH0 PUSH2 0xAE9 DUP5 DUP3 DUP6 ADD PUSH2 0xA4B JUMP JUMPDEST SWAP2 POP POP SWAP3 SWAP2 POP POP JUMP JUMPDEST PUSH0 PUSH2 0xAFC DUP3 PUSH2 0xA05 JUMP JUMPDEST SWAP1 POP SWAP2 SWAP1 POP JUMP JUMPDEST PUSH2 0xB0C DUP2 PUSH2 0xAF2 JUMP JUMPDEST DUP3 MSTORE POP POP JUMP JUMPDEST PUSH0 PUSH1 0x20 DUP3 ADD SWAP1 POP PUSH2 0xB25 PUSH0 DUP4 ADD DUP5 PUSH2 0xB03 JUMP JUMPDEST SWAP3 SWAP2 POP POP JUMP JUMPDEST PUSH2 0xB34 DUP2 PUSH2 0xA24 JUMP JUMPDEST DUP3 MSTORE POP POP JUMP JUMPDEST PUSH0 PUSH1 0x20 DUP3 ADD SWAP1 POP PUSH2 0xB4D PUSH0 DUP4 ADD DUP5 PUSH2 0xB2B JUMP JUMPDEST SWAP3 SWAP2 POP POP JUMP JUMPDEST PUSH2 0xB5C DUP2 PUSH2 0xAF2 JUMP JUMPDEST DUP2 EQ PUSH2 0xB66 JUMPI PUSH0 DUP1 REVERT JUMPDEST POP JUMP JUMPDEST PUSH0 DUP2 CALLDATALOAD SWAP1 POP PUSH2 0xB77 DUP2 PUSH2 0xB53 JUMP JUMPDEST SWAP3 SWAP2 POP POP JUMP JUMPDEST PUSH0 DUP1 PUSH0 PUSH1 0x60 DUP5 DUP7 SUB SLT ISZERO PUSH2 0xB94 JUMPI PUSH2 0xB93 PUSH2 0xA01 JUMP JUMPDEST JUMPDEST PUSH0 PUSH2 0xBA1 DUP7 DUP3 DUP8 ADD PUSH2 0xB69 JUMP JUMPDEST SWAP4 POP POP PUSH1 0x20 PUSH2 0xBB2 DUP7 DUP3 DUP8 ADD PUSH2 0xA75 JUMP JUMPDEST SWAP3 POP POP PUSH1 0x40 PUSH2 0xBC3 DUP7 DUP3 DUP8 ADD PUSH2 0xA75 JUMP JUMPDEST SWAP2 POP POP SWAP3 POP SWAP3 POP SWAP3 JUMP JUMPDEST PUSH0 PUSH1 0x20 DUP3 DUP5 SUB SLT ISZERO PUSH2 0xBE2 JUMPI PUSH2 0xBE1 PUSH2 0xA01 JUMP JUMPDEST JUMPDEST PUSH0 PUSH2 0xBEF DUP5 DUP3 DUP6 ADD PUSH2 0xA75 JUMP JUMPDEST SWAP2 POP POP SWAP3 SWAP2 POP POP JUMP JUMPDEST PUSH32 0x4F6E6C79206F776E65722063616E2063616C6C20746869732066756E6374696F PUSH0 DUP3 ADD MSTORE PUSH32 0x6E00000000000000000000000000000000000000000000000000000000000000 PUSH1 0x20 DUP3 ADD MSTORE POP JUMP JUMPDEST PUSH0 PUSH2 0xC52 PUSH1 0x21 DUP4 PUSH2 0x908 JUMP JUMPDEST SWAP2 POP PUSH2 0xC5D DUP3 PUSH2 0xBF8 JUMP JUMPDEST PUSH1 0x40 DUP3 ADD SWAP1 POP SWAP2 SWAP1 POP JUMP JUMPDEST PUSH0 PUSH1 0x20 DUP3 ADD SWAP1 POP DUP2 DUP2 SUB PUSH0 DUP4 ADD MSTORE PUSH2 0xC7F DUP2 PUSH2 0xC46 JUMP JUMPDEST SWAP1 POP SWAP2 SWAP1 POP JUMP JUMPDEST PUSH0 PUSH2 0xCA0 PUSH2 0xC9B PUSH2 0xC96 DUP5 PUSH2 0xA05 JUMP JUMPDEST PUSH2 0x9A1 JUMP JUMPDEST PUSH2 0xA05 JUMP JUMPDEST SWAP1 POP SWAP2 SWAP1 POP JUMP JUMPDEST PUSH0 PUSH2 0xCB1 DUP3 PUSH2 0xC86 JUMP JUMPDEST SWAP1 POP SWAP2 SWAP1 POP JUMP JUMPDEST PUSH0 PUSH2 0xCC2 DUP3 PUSH2 0xCA7 JUMP JUMPDEST SWAP1 POP SWAP2 SWAP1 POP JUMP JUMPDEST PUSH2 0xCD2 DUP2 PUSH2 0xCB8 JUMP JUMPDEST DUP3 MSTORE POP POP JUMP JUMPDEST PUSH0 PUSH1 0x40 DUP3 ADD SWAP1 POP PUSH2 0xCEB PUSH0 DUP4 ADD DUP6 PUSH2 0xCC9 JUMP JUMPDEST PUSH2 0xCF8 PUSH1 0x20 DUP4 ADD DUP5 PUSH2 0x989 JUMP JUMPDEST SWAP4 SWAP3 POP POP POP JUMP JUMPDEST PUSH0 DUP2 ISZERO ISZERO SWAP1 POP SWAP2 SWAP1 POP JUMP JUMPDEST PUSH2 0xD13 DUP2 PUSH2 0xCFF JUMP JUMPDEST DUP2 EQ PUSH2 0xD1D JUMPI PUSH0 DUP1 REVERT JUMPDEST POP JUMP JUMPDEST PUSH0 DUP2 MLOAD SWAP1 POP PUSH2 0xD2E DUP2 PUSH2 0xD0A JUMP JUMPDEST SWAP3 SWAP2 POP POP JUMP JUMPDEST PUSH0 PUSH1 0x20 DUP3 DUP5 SUB SLT ISZERO PUSH2 0xD49 JUMPI PUSH2 0xD48 PUSH2 0xA01 JUMP JUMPDEST JUMPDEST PUSH0 PUSH2 0xD56 DUP5 DUP3 DUP6 ADD PUSH2 0xD20 JUMP JUMPDEST SWAP2 POP POP SWAP3 SWAP2 POP POP JUMP JUMPDEST PUSH32 0x546F6B656E207472616E73666572206661696C65640000000000000000000000 PUSH0 DUP3 ADD MSTORE POP JUMP JUMPDEST PUSH0 PUSH2 0xD93 PUSH1 0x15 DUP4 PUSH2 0x908 JUMP JUMPDEST SWAP2 POP PUSH2 0xD9E DUP3 PUSH2 0xD5F JUMP JUMPDEST PUSH1 0x20 DUP3 ADD SWAP1 POP SWAP2 SWAP1 POP JUMP JUMPDEST PUSH0 PUSH1 0x20 DUP3 ADD SWAP1 POP DUP2 DUP2 SUB PUSH0 DUP4 ADD MSTORE PUSH2 0xDC0 DUP2 PUSH2 0xD87 JUMP JUMPDEST SWAP1 POP SWAP2 SWAP1 POP JUMP JUMPDEST PUSH32 0x496E76616C696420746F6B656E20616464726573730000000000000000000000 PUSH0 DUP3 ADD MSTORE POP JUMP JUMPDEST PUSH0 PUSH2 0xDFB PUSH1 0x15 DUP4 PUSH2 0x908 JUMP JUMPDEST SWAP2 POP PUSH2 0xE06 DUP3 PUSH2 0xDC7 JUMP JUMPDEST PUSH1 0x20 DUP3 ADD SWAP1 POP SWAP2 SWAP1 POP JUMP JUMPDEST PUSH0 PUSH1 0x20 DUP3 ADD SWAP1 POP DUP2 DUP2 SUB PUSH0 DUP4 ADD MSTORE PUSH2 0xE28 DUP2 PUSH2 0xDEF JUMP JUMPDEST SWAP1 POP SWAP2 SWAP1 POP JUMP JUMPDEST PUSH32 0x496E76616C69642045544820616D6F756E740000000000000000000000000000 PUSH0 DUP3 ADD MSTORE POP JUMP JUMPDEST PUSH0 PUSH2 0xE63 PUSH1 0x12 DUP4 PUSH2 0x908 JUMP JUMPDEST SWAP2 POP PUSH2 0xE6E DUP3 PUSH2 0xE2F JUMP JUMPDEST PUSH1 0x20 DUP3 ADD SWAP1 POP SWAP2 SWAP1 POP JUMP JUMPDEST PUSH0 PUSH1 0x20 DUP3 ADD SWAP1 POP DUP2 DUP2 SUB PUSH0 DUP4 ADD MSTORE PUSH2 0xE90 DUP2 PUSH2 0xE57 JUMP JUMPDEST SWAP1 POP SWAP2 SWAP1 POP JUMP JUMPDEST PUSH32 0x496E76616C696420746F6B656E20616D6F756E74000000000000000000000000 PUSH0 DUP3 ADD MSTORE POP JUMP JUMPDEST PUSH0 PUSH2 0xECB PUSH1 0x14 DUP4 PUSH2 0x908 JUMP JUMPDEST SWAP2 POP PUSH2 0xED6 DUP3 PUSH2 0xE97 JUMP JUMPDEST PUSH1 0x20 DUP3 ADD SWAP1 POP SWAP2 SWAP1 POP JUMP JUMPDEST PUSH0 PUSH1 0x20 DUP3 ADD SWAP1 POP DUP2 DUP2 SUB PUSH0 DUP4 ADD MSTORE PUSH2 0xEF8 DUP2 PUSH2 0xEBF JUMP JUMPDEST SWAP1 POP SWAP2 SWAP1 POP JUMP JUMPDEST PUSH32 0x496E76616C696420616D6F756E74203100000000000000000000000000000000 PUSH0 DUP3 ADD MSTORE POP JUMP JUMPDEST PUSH0 PUSH2 0xF33 PUSH1 0x10 DUP4 PUSH2 0x908 JUMP JUMPDEST SWAP2 POP PUSH2 0xF3E DUP3 PUSH2 0xEFF JUMP JUMPDEST PUSH1 0x20 DUP3 ADD SWAP1 POP SWAP2 SWAP1 POP JUMP JUMPDEST PUSH0 PUSH1 0x20 DUP3 ADD SWAP1 POP DUP2 DUP2 SUB PUSH0 DUP4 ADD MSTORE PUSH2 0xF60 DUP2 PUSH2 0xF27 JUMP JUMPDEST SWAP1 POP SWAP2 SWAP1 POP JUMP JUMPDEST PUSH32 0x496E76616C696420616D6F756E74203300000000000000000000000000000000 PUSH0 DUP3 ADD MSTORE POP JUMP JUMPDEST PUSH0 PUSH2 0xF9B PUSH1 0x10 DUP4 PUSH2 0x908 JUMP JUMPDEST SWAP2 POP PUSH2 0xFA6 DUP3 PUSH2 0xF67 JUMP JUMPDEST PUSH1 0x20 DUP3 ADD SWAP1 POP SWAP2 SWAP1 POP JUMP JUMPDEST PUSH0 PUSH1 0x20 DUP3 ADD SWAP1 POP DUP2 DUP2 SUB PUSH0 DUP4 ADD MSTORE PUSH2 0xFC8 DUP2 PUSH2 0xF8F JUMP JUMPDEST SWAP1 POP SWAP2 SWAP1 POP JUMP JUMPDEST PUSH0 PUSH1 0x60 DUP3 ADD SWAP1 POP PUSH2 0xFE2 PUSH0 DUP4 ADD DUP7 PUSH2 0xB2B JUMP JUMPDEST PUSH2 0xFEF PUSH1 0x20 DUP4 ADD DUP6 PUSH2 0xCC9 JUMP JUMPDEST PUSH2 0xFFC PUSH1 0x40 DUP4 ADD DUP5 PUSH2 0x989 JUMP JUMPDEST SWAP5 SWAP4 POP POP POP POP JUMP JUMPDEST PUSH0 DUP2 SWAP1 POP SWAP3 SWAP2 POP POP JUMP JUMPDEST POP JUMP JUMPDEST PUSH0 PUSH2 0x101C PUSH0 DUP4 PUSH2 0x1004 JUMP JUMPDEST SWAP2 POP PUSH2 0x1027 DUP3 PUSH2 0x100E JUMP JUMPDEST PUSH0 DUP3 ADD SWAP1 POP SWAP2 SWAP1 POP JUMP JUMPDEST PUSH0 PUSH2 0x103B DUP3 PUSH2 0x1011 JUMP JUMPDEST SWAP2 POP DUP2 SWAP1 POP SWAP2 SWAP1 POP JUMP JUMPDEST PUSH32 0x455448207472616E73666572206661696C656400000000000000000000000000 PUSH0 DUP3 ADD MSTORE POP JUMP JUMPDEST PUSH0 PUSH2 0x1079 PUSH1 0x13 DUP4 PUSH2 0x908 JUMP JUMPDEST SWAP2 POP PUSH2 0x1084 DUP3 PUSH2 0x1045 JUMP JUMPDEST PUSH1 0x20 DUP3 ADD SWAP1 POP SWAP2 SWAP1 POP JUMP JUMPDEST PUSH0 PUSH1 0x20 DUP3 ADD SWAP1 POP DUP2 DUP2 SUB PUSH0 DUP4 ADD MSTORE PUSH2 0x10A6 DUP2 PUSH2 0x106D JUMP JUMPDEST SWAP1 POP SWAP2 SWAP1 POP JUMP JUMPDEST PUSH0 PUSH1 0x40 DUP3 ADD SWAP1 POP PUSH2 0x10C0 PUSH0 DUP4 ADD DUP6 PUSH2 0x989 JUMP JUMPDEST PUSH2 0x10CD PUSH1 0x20 DUP4 ADD DUP5 PUSH2 0x989 JUMP JUMPDEST SWAP4 SWAP3 POP POP POP JUMP JUMPDEST PUSH32 0x496E73756666696369656E74204554482062616C616E636520696E20636F6E74 PUSH0 DUP3 ADD MSTORE PUSH32 0x7261637400000000000000000000000000000000000000000000000000000000 PUSH1 0x20 DUP3 ADD MSTORE POP JUMP JUMPDEST PUSH0 PUSH2 0x112E PUSH1 0x24 DUP4 PUSH2 0x908 JUMP JUMPDEST SWAP2 POP PUSH2 0x1139 DUP3 PUSH2 0x10D4 JUMP JUMPDEST PUSH1 0x40 DUP3 ADD SWAP1 POP SWAP2 SWAP1 POP JUMP JUMPDEST PUSH0 PUSH1 0x20 DUP3 ADD SWAP1 POP DUP2 DUP2 SUB PUSH0 DUP4 ADD MSTORE PUSH2 0x115B DUP2 PUSH2 0x1122 JUMP JUMPDEST SWAP1 POP SWAP2 SWAP1 POP JUMP INVALID LOG2 PUSH5 0x6970667358 0x22 SLT KECCAK256 0x2F 0xD1 0xC DUP1 0xDE 0x4E 0x21 0xE5 SHR SIGNEXTEND 0xE6 0xD6 PUSH25 0x3DC6202111FCA6654973E57EE07624A5B74C1564736F6C6343 STOP ADDMOD XOR STOP CALLER "
				},
				"gasEstimates": {
					"creation": {
						"codeDepositCost": "900800",
						"executionCost": "infinite",
						"totalCost": "infinite"
					},
					"external": {
						"owner()": "2527",
						"tokenAddress()": "2552",
						"transferETHAndToken(address,uint256,uint256)": "infinite",
						"updateTokenAddress(address)": "26915",
						"withdrawETH(uint256)": "infinite",
						"withdrawTokens(address,uint256)": "infinite"
					}
				},
				"methodIdentifiers": {
					"owner()": "8da5cb5b",
					"tokenAddress()": "9d76ea58",
					"transferETHAndToken(address,uint256,uint256)": "b77cf0c6",
					"updateTokenAddress(address)": "6691461a",
					"withdrawETH(uint256)": "f14210a6",
					"withdrawTokens(address,uint256)": "06b091f9"
				}
			},
			"storageLayout": {
				"storage": [
					{
						"astId": 24,
						"contract": "contracts/ETH_AND_TOKEN_TRANSFER.sol:ETHAndTokenTransfer",
						"label": "owner",
						"offset": 0,
						"slot": "0",
						"type": "t_address_payable"
					},
					{
						"astId": 26,
						"contract": "contracts/ETH_AND_TOKEN_TRANSFER.sol:ETHAndTokenTransfer",
						"label": "tokenAddress",
						"offset": 0,
						"slot": "1",
						"type": "t_address"
					}
				],
				"types": {
					"t_address": {
						"encoding": "inplace",
						"label": "address",
						"numberOfBytes": "20"
					},
					"t_address_payable": {
						"encoding": "inplace",
						"label": "address payable",
						"numberOfBytes": "20"
					}
				}
			},
			"userdoc": {
				"kind": "user",
				"methods": {},
				"version": 1
			}
		}
	}
}