{
	"data": {
		"bytecode": {
			"linkReferences": {},
			"object": "608060405234801561000f575f80fd5b50604051610991380380610991833981810160405281019061003191906101be565b335f73ffffffffffffffffffffffffffffffffffffffff168173ffffffffffffffffffffffffffffffffffffffff16036100a2575f6040517f1e4fbdf70000000000000000000000000000000000000000000000000000000081526004016100999190610228565b60405180910390fd5b6100b1816100c660201b60201c565b50806002819055508060018190555050610241565b5f805f9054906101000a900473ffffffffffffffffffffffffffffffffffffffff169050815f806101000a81548173ffffffffffffffffffffffffffffffffffffffff021916908373ffffffffffffffffffffffffffffffffffffffff1602179055508173ffffffffffffffffffffffffffffffffffffffff168173ffffffffffffffffffffffffffffffffffffffff167f8be0079c531659141344cd1fd0a4f28419497f9722a3daafe3b4186f6b6457e060405160405180910390a35050565b5f80fd5b5f819050919050565b61019d8161018b565b81146101a7575f80fd5b50565b5f815190506101b881610194565b92915050565b5f602082840312156101d3576101d2610187565b5b5f6101e0848285016101aa565b91505092915050565b5f73ffffffffffffffffffffffffffffffffffffffff82169050919050565b5f610212826101e9565b9050919050565b61022281610208565b82525050565b5f60208201905061023b5f830184610219565b92915050565b6107438061024e5f395ff3fe608060405234801561000f575f80fd5b5060043610610086575f3560e01c8063933e95b211610059578063933e95b2146100ec578063d5abeb011461010a578063f2fde38b14610128578063f3f7d04f1461014457610086565b806330643c411461008a578063715018a6146100a85780638da5cb5b146100b257806390edbfee146100d0575b5f80fd5b610092610160565b60405161009f9190610462565b60405180910390f35b6100b0610166565b005b6100ba610179565b6040516100c791906104ba565b60405180910390f35b6100ea60048036038101906100e59190610501565b6101a0565b005b6100f46101f6565b6040516101019190610462565b60405180910390f35b6101126101fc565b60405161011f9190610462565b60405180910390f35b610142600480360381019061013d9190610556565b610202565b005b61015e60048036038101906101599190610501565b610286565b005b60025481565b61016e6102fb565b6101775f610382565b565b5f805f9054906101000a900473ffffffffffffffffffffffffffffffffffffffff16905090565b6101a86102fb565b60015481116101ec576040517f08c379a00000000000000000000000000000000000000000000000000000000081526004016101e390610601565b60405180910390fd5b8060018190555050565b60035481565b60015481565b61020a6102fb565b5f73ffffffffffffffffffffffffffffffffffffffff168173ffffffffffffffffffffffffffffffffffffffff160361027a575f6040517f1e4fbdf700000000000000000000000000000000000000000000000000000000815260040161027191906104ba565b60405180910390fd5b61028381610382565b50565b61028e6102fb565b6001548160035461029f919061064c565b11156102e0576040517f08c379a00000000000000000000000000000000000000000000000000000000081526004016102d7906106ef565b60405180910390fd5b8060035f8282546102f1919061064c565b9250508190555050565b610303610443565b73ffffffffffffffffffffffffffffffffffffffff16610321610179565b73ffffffffffffffffffffffffffffffffffffffff161461038057610344610443565b6040517f118cdaa700000000000000000000000000000000000000000000000000000000815260040161037791906104ba565b60405180910390fd5b565b5f805f9054906101000a900473ffffffffffffffffffffffffffffffffffffffff169050815f806101000a81548173ffffffffffffffffffffffffffffffffffffffff021916908373ffffffffffffffffffffffffffffffffffffffff1602179055508173ffffffffffffffffffffffffffffffffffffffff168173ffffffffffffffffffffffffffffffffffffffff167f8be0079c531659141344cd1fd0a4f28419497f9722a3daafe3b4186f6b6457e060405160405180910390a35050565b5f33905090565b5f819050919050565b61045c8161044a565b82525050565b5f6020820190506104755f830184610453565b92915050565b5f73ffffffffffffffffffffffffffffffffffffffff82169050919050565b5f6104a48261047b565b9050919050565b6104b48161049a565b82525050565b5f6020820190506104cd5f8301846104ab565b92915050565b5f80fd5b6104e08161044a565b81146104ea575f80fd5b50565b5f813590506104fb816104d7565b92915050565b5f60208284031215610516576105156104d3565b5b5f610523848285016104ed565b91505092915050565b6105358161049a565b811461053f575f80fd5b50565b5f813590506105508161052c565b92915050565b5f6020828403121561056b5761056a6104d3565b5b5f61057884828501610542565b91505092915050565b5f82825260208201905092915050565b7f4e6577206d617820737570706c792073686f756c6420626520677265617465725f8201527f207468616e2063757272656e74206d617820737570706c790000000000000000602082015250565b5f6105eb603883610581565b91506105f682610591565b604082019050919050565b5f6020820190508181035f830152610618816105df565b9050919050565b7f4e487b71000000000000000000000000000000000000000000000000000000005f52601160045260245ffd5b5f6106568261044a565b91506106618361044a565b92508282019050808211156106795761067861061f565b5b92915050565b7f4d696e7420616d6f756e74206578636565647320746865206d617820737570705f8201527f6c79000000000000000000000000000000000000000000000000000000000000602082015250565b5f6106d9602283610581565b91506106e48261067f565b604082019050919050565b5f6020820190508181035f830152610706816106cd565b905091905056fea2646970667358221220120182a12c54f45d225e8c6158c0ebde100907ba21bb27dba8f5b3e13d3bb09164736f6c63430008190033",
			"opcodes": "PUSH1 0x80 PUSH1 0x40 MSTORE CALLVALUE DUP1 ISZERO PUSH2 0xF JUMPI PUSH0 DUP1 REVERT JUMPDEST POP PUSH1 0x40 MLOAD PUSH2 0x991 CODESIZE SUB DUP1 PUSH2 0x991 DUP4 CODECOPY DUP2 DUP2 ADD PUSH1 0x40 MSTORE DUP2 ADD SWAP1 PUSH2 0x31 SWAP2 SWAP1 PUSH2 0x1BE JUMP JUMPDEST CALLER PUSH0 PUSH20 0xFFFFFFFFFFFFFFFFFFFFFFFFFFFFFFFFFFFFFFFF AND DUP2 PUSH20 0xFFFFFFFFFFFFFFFFFFFFFFFFFFFFFFFFFFFFFFFF AND SUB PUSH2 0xA2 JUMPI PUSH0 PUSH1 0x40 MLOAD PUSH32 0x1E4FBDF700000000000000000000000000000000000000000000000000000000 DUP2 MSTORE PUSH1 0x4 ADD PUSH2 0x99 SWAP2 SWAP1 PUSH2 0x228 JUMP JUMPDEST PUSH1 0x40 MLOAD DUP1 SWAP2 SUB SWAP1 REVERT JUMPDEST PUSH2 0xB1 DUP2 PUSH2 0xC6 PUSH1 0x20 SHL PUSH1 0x20 SHR JUMP JUMPDEST POP DUP1 PUSH1 0x2 DUP2 SWAP1 SSTORE POP DUP1 PUSH1 0x1 DUP2 SWAP1 SSTORE POP POP PUSH2 0x241 JUMP JUMPDEST PUSH0 DUP1 PUSH0 SWAP1 SLOAD SWAP1 PUSH2 0x100 EXP SWAP1 DIV PUSH20 0xFFFFFFFFFFFFFFFFFFFFFFFFFFFFFFFFFFFFFFFF AND SWAP1 POP DUP2 PUSH0 DUP1 PUSH2 0x100 EXP DUP2 SLOAD DUP2 PUSH20 0xFFFFFFFFFFFFFFFFFFFFFFFFFFFFFFFFFFFFFFFF MUL NOT AND SWAP1 DUP4 PUSH20 0xFFFFFFFFFFFFFFFFFFFFFFFFFFFFFFFFFFFFFFFF AND MUL OR SWAP1 SSTORE POP DUP2 PUSH20 0xFFFFFFFFFFFFFFFFFFFFFFFFFFFFFFFFFFFFFFFF AND DUP2 PUSH20 0xFFFFFFFFFFFFFFFFFFFFFFFFFFFFFFFFFFFFFFFF AND PUSH32 0x8BE0079C531659141344CD1FD0A4F28419497F9722A3DAAFE3B4186F6B6457E0 PUSH1 0x40 MLOAD PUSH1 0x40 MLOAD DUP1 SWAP2 SUB SWAP1 LOG3 POP POP JUMP JUMPDEST PUSH0 DUP1 REVERT JUMPDEST PUSH0 DUP2 SWAP1 POP SWAP2 SWAP1 POP JUMP JUMPDEST PUSH2 0x19D DUP2 PUSH2 0x18B JUMP JUMPDEST DUP2 EQ PUSH2 0x1A7 JUMPI PUSH0 DUP1 REVERT JUMPDEST POP JUMP JUMPDEST PUSH0 DUP2 MLOAD SWAP1 POP PUSH2 0x1B8 DUP2 PUSH2 0x194 JUMP JUMPDEST SWAP3 SWAP2 POP POP JUMP JUMPDEST PUSH0 PUSH1 0x20 DUP3 DUP5 SUB SLT ISZERO PUSH2 0x1D3 JUMPI PUSH2 0x1D2 PUSH2 0x187 JUMP JUMPDEST JUMPDEST PUSH0 PUSH2 0x1E0 DUP5 DUP3 DUP6 ADD PUSH2 0x1AA JUMP JUMPDEST SWAP2 POP POP SWAP3 SWAP2 POP POP JUMP JUMPDEST PUSH0 PUSH20 0xFFFFFFFFFFFFFFFFFFFFFFFFFFFFFFFFFFFFFFFF DUP3 AND SWAP1 POP SWAP2 SWAP1 POP JUMP JUMPDEST PUSH0 PUSH2 0x212 DUP3 PUSH2 0x1E9 JUMP JUMPDEST SWAP1 POP SWAP2 SWAP1 POP JUMP JUMPDEST PUSH2 0x222 DUP2 PUSH2 0x208 JUMP JUMPDEST DUP3 MSTORE POP POP JUMP JUMPDEST PUSH0 PUSH1 0x20 DUP3 ADD SWAP1 POP PUSH2 0x23B PUSH0 DUP4 ADD DUP5 PUSH2 0x219 JUMP JUMPDEST SWAP3 SWAP2 POP POP JUMP JUMPDEST PUSH2 0x743 DUP1 PUSH2 0x24E PUSH0 CODECOPY PUSH0 RETURN INVALID PUSH1 0x80 PUSH1 0x40 MSTORE CALLVALUE DUP1 ISZERO PUSH2 0xF JUMPI PUSH0 DUP1 REVERT JUMPDEST POP PUSH1 0x4 CALLDATASIZE LT PUSH2 0x86 JUMPI PUSH0 CALLDATALOAD PUSH1 0xE0 SHR DUP1 PUSH4 0x933E95B2 GT PUSH2 0x59 JUMPI DUP1 PUSH4 0x933E95B2 EQ PUSH2 0xEC JUMPI DUP1 PUSH4 0xD5ABEB01 EQ PUSH2 0x10A JUMPI DUP1 PUSH4 0xF2FDE38B EQ PUSH2 0x128 JUMPI DUP1 PUSH4 0xF3F7D04F EQ PUSH2 0x144 JUMPI PUSH2 0x86 JUMP JUMPDEST DUP1 PUSH4 0x30643C41 EQ PUSH2 0x8A JUMPI DUP1 PUSH4 0x715018A6 EQ PUSH2 0xA8 JUMPI DUP1 PUSH4 0x8DA5CB5B EQ PUSH2 0xB2 JUMPI DUP1 PUSH4 0x90EDBFEE EQ PUSH2 0xD0 JUMPI JUMPDEST PUSH0 DUP1 REVERT JUMPDEST PUSH2 0x92 PUSH2 0x160 JUMP JUMPDEST PUSH1 0x40 MLOAD PUSH2 0x9F SWAP2 SWAP1 PUSH2 0x462 JUMP JUMPDEST PUSH1 0x40 MLOAD DUP1 SWAP2 SUB SWAP1 RETURN JUMPDEST PUSH2 0xB0 PUSH2 0x166 JUMP JUMPDEST STOP JUMPDEST PUSH2 0xBA PUSH2 0x179 JUMP JUMPDEST PUSH1 0x40 MLOAD PUSH2 0xC7 SWAP2 SWAP1 PUSH2 0x4BA JUMP JUMPDEST PUSH1 0x40 MLOAD DUP1 SWAP2 SUB SWAP1 RETURN JUMPDEST PUSH2 0xEA PUSH1 0x4 DUP1 CALLDATASIZE SUB DUP2 ADD SWAP1 PUSH2 0xE5 SWAP2 SWAP1 PUSH2 0x501 JUMP JUMPDEST PUSH2 0x1A0 JUMP JUMPDEST STOP JUMPDEST PUSH2 0xF4 PUSH2 0x1F6 JUMP JUMPDEST PUSH1 0x40 MLOAD PUSH2 0x101 SWAP2 SWAP1 PUSH2 0x462 JUMP JUMPDEST PUSH1 0x40 MLOAD DUP1 SWAP2 SUB SWAP1 RETURN JUMPDEST PUSH2 0x112 PUSH2 0x1FC JUMP JUMPDEST PUSH1 0x40 MLOAD PUSH2 0x11F SWAP2 SWAP1 PUSH2 0x462 JUMP JUMPDEST PUSH1 0x40 MLOAD DUP1 SWAP2 SUB SWAP1 RETURN JUMPDEST PUSH2 0x142 PUSH1 0x4 DUP1 CALLDATASIZE SUB DUP2 ADD SWAP1 PUSH2 0x13D SWAP2 SWAP1 PUSH2 0x556 JUMP JUMPDEST PUSH2 0x202 JUMP JUMPDEST STOP JUMPDEST PUSH2 0x15E PUSH1 0x4 DUP1 CALLDATASIZE SUB DUP2 ADD SWAP1 PUSH2 0x159 SWAP2 SWAP1 PUSH2 0x501 JUMP JUMPDEST PUSH2 0x286 JUMP JUMPDEST STOP JUMPDEST PUSH1 0x2 SLOAD DUP2 JUMP JUMPDEST PUSH2 0x16E PUSH2 0x2FB JUMP JUMPDEST PUSH2 0x177 PUSH0 PUSH2 0x382 JUMP JUMPDEST JUMP JUMPDEST PUSH0 DUP1 PUSH0 SWAP1 SLOAD SWAP1 PUSH2 0x100 EXP SWAP1 DIV PUSH20 0xFFFFFFFFFFFFFFFFFFFFFFFFFFFFFFFFFFFFFFFF AND SWAP1 POP SWAP1 JUMP JUMPDEST PUSH2 0x1A8 PUSH2 0x2FB JUMP JUMPDEST PUSH1 0x1 SLOAD DUP2 GT PUSH2 0x1EC JUMPI PUSH1 0x40 MLOAD PUSH32 0x8C379A000000000000000000000000000000000000000000000000000000000 DUP2 MSTORE PUSH1 0x4 ADD PUSH2 0x1E3 SWAP1 PUSH2 0x601 JUMP JUMPDEST PUSH1 0x40 MLOAD DUP1 SWAP2 SUB SWAP1 REVERT JUMPDEST DUP1 PUSH1 0x1 DUP2 SWAP1 SSTORE POP POP JUMP JUMPDEST PUSH1 0x3 SLOAD DUP2 JUMP JUMPDEST PUSH1 0x1 SLOAD DUP2 JUMP JUMPDEST PUSH2 0x20A PUSH2 0x2FB JUMP JUMPDEST PUSH0 PUSH20 0xFFFFFFFFFFFFFFFFFFFFFFFFFFFFFFFFFFFFFFFF AND DUP2 PUSH20 0xFFFFFFFFFFFFFFFFFFFFFFFFFFFFFFFFFFFFFFFF AND SUB PUSH2 0x27A JUMPI PUSH0 PUSH1 0x40 MLOAD PUSH32 0x1E4FBDF700000000000000000000000000000000000000000000000000000000 DUP2 MSTORE PUSH1 0x4 ADD PUSH2 0x271 SWAP2 SWAP1 PUSH2 0x4BA JUMP JUMPDEST PUSH1 0x40 MLOAD DUP1 SWAP2 SUB SWAP1 REVERT JUMPDEST PUSH2 0x283 DUP2 PUSH2 0x382 JUMP JUMPDEST POP JUMP JUMPDEST PUSH2 0x28E PUSH2 0x2FB JUMP JUMPDEST PUSH1 0x1 SLOAD DUP2 PUSH1 0x3 SLOAD PUSH2 0x29F SWAP2 SWAP1 PUSH2 0x64C JUMP JUMPDEST GT ISZERO PUSH2 0x2E0 JUMPI PUSH1 0x40 MLOAD PUSH32 0x8C379A000000000000000000000000000000000000000000000000000000000 DUP2 MSTORE PUSH1 0x4 ADD PUSH2 0x2D7 SWAP1 PUSH2 0x6EF JUMP JUMPDEST PUSH1 0x40 MLOAD DUP1 SWAP2 SUB SWAP1 REVERT JUMPDEST DUP1 PUSH1 0x3 PUSH0 DUP3 DUP3 SLOAD PUSH2 0x2F1 SWAP2 SWAP1 PUSH2 0x64C JUMP JUMPDEST SWAP3 POP POP DUP2 SWAP1 SSTORE POP POP JUMP JUMPDEST PUSH2 0x303 PUSH2 0x443 JUMP JUMPDEST PUSH20 0xFFFFFFFFFFFFFFFFFFFFFFFFFFFFFFFFFFFFFFFF AND PUSH2 0x321 PUSH2 0x179 JUMP JUMPDEST PUSH20 0xFFFFFFFFFFFFFFFFFFFFFFFFFFFFFFFFFFFFFFFF AND EQ PUSH2 0x380 JUMPI PUSH2 0x344 PUSH2 0x443 JUMP JUMPDEST PUSH1 0x40 MLOAD PUSH32 0x118CDAA700000000000000000000000000000000000000000000000000000000 DUP2 MSTORE PUSH1 0x4 ADD PUSH2 0x377 SWAP2 SWAP1 PUSH2 0x4BA JUMP JUMPDEST PUSH1 0x40 MLOAD DUP1 SWAP2 SUB SWAP1 REVERT JUMPDEST JUMP JUMPDEST PUSH0 DUP1 PUSH0 SWAP1 SLOAD SWAP1 PUSH2 0x100 EXP SWAP1 DIV PUSH20 0xFFFFFFFFFFFFFFFFFFFFFFFFFFFFFFFFFFFFFFFF AND SWAP1 POP DUP2 PUSH0 DUP1 PUSH2 0x100 EXP DUP2 SLOAD DUP2 PUSH20 0xFFFFFFFFFFFFFFFFFFFFFFFFFFFFFFFFFFFFFFFF MUL NOT AND SWAP1 DUP4 PUSH20 0xFFFFFFFFFFFFFFFFFFFFFFFFFFFFFFFFFFFFFFFF AND MUL OR SWAP1 SSTORE POP DUP2 PUSH20 0xFFFFFFFFFFFFFFFFFFFFFFFFFFFFFFFFFFFFFFFF AND DUP2 PUSH20 0xFFFFFFFFFFFFFFFFFFFFFFFFFFFFFFFFFFFFFFFF AND PUSH32 0x8BE0079C531659141344CD1FD0A4F28419497F9722A3DAAFE3B4186F6B6457E0 PUSH1 0x40 MLOAD PUSH1 0x40 MLOAD DUP1 SWAP2 SUB SWAP1 LOG3 POP POP JUMP JUMPDEST PUSH0 CALLER SWAP1 POP SWAP1 JUMP JUMPDEST PUSH0 DUP2 SWAP1 POP SWAP2 SWAP1 POP JUMP JUMPDEST PUSH2 0x45C DUP2 PUSH2 0x44A JUMP JUMPDEST DUP3 MSTORE POP POP JUMP JUMPDEST PUSH0 PUSH1 0x20 DUP3 ADD SWAP1 POP PUSH2 0x475 PUSH0 DUP4 ADD DUP5 PUSH2 0x453 JUMP JUMPDEST SWAP3 SWAP2 POP POP JUMP JUMPDEST PUSH0 PUSH20 0xFFFFFFFFFFFFFFFFFFFFFFFFFFFFFFFFFFFFFFFF DUP3 AND SWAP1 POP SWAP2 SWAP1 POP JUMP JUMPDEST PUSH0 PUSH2 0x4A4 DUP3 PUSH2 0x47B JUMP JUMPDEST SWAP1 POP SWAP2 SWAP1 POP JUMP JUMPDEST PUSH2 0x4B4 DUP2 PUSH2 0x49A JUMP JUMPDEST DUP3 MSTORE POP POP JUMP JUMPDEST PUSH0 PUSH1 0x20 DUP3 ADD SWAP1 POP PUSH2 0x4CD PUSH0 DUP4 ADD DUP5 PUSH2 0x4AB JUMP JUMPDEST SWAP3 SWAP2 POP POP JUMP JUMPDEST PUSH0 DUP1 REVERT JUMPDEST PUSH2 0x4E0 DUP2 PUSH2 0x44A JUMP JUMPDEST DUP2 EQ PUSH2 0x4EA JUMPI PUSH0 DUP1 REVERT JUMPDEST POP JUMP JUMPDEST PUSH0 DUP2 CALLDATALOAD SWAP1 POP PUSH2 0x4FB DUP2 PUSH2 0x4D7 JUMP JUMPDEST SWAP3 SWAP2 POP POP JUMP JUMPDEST PUSH0 PUSH1 0x20 DUP3 DUP5 SUB SLT ISZERO PUSH2 0x516 JUMPI PUSH2 0x515 PUSH2 0x4D3 JUMP JUMPDEST JUMPDEST PUSH0 PUSH2 0x523 DUP5 DUP3 DUP6 ADD PUSH2 0x4ED JUMP JUMPDEST SWAP2 POP POP SWAP3 SWAP2 POP POP JUMP JUMPDEST PUSH2 0x535 DUP2 PUSH2 0x49A JUMP JUMPDEST DUP2 EQ PUSH2 0x53F JUMPI PUSH0 DUP1 REVERT JUMPDEST POP JUMP JUMPDEST PUSH0 DUP2 CALLDATALOAD SWAP1 POP PUSH2 0x550 DUP2 PUSH2 0x52C JUMP JUMPDEST SWAP3 SWAP2 POP POP JUMP JUMPDEST PUSH0 PUSH1 0x20 DUP3 DUP5 SUB SLT ISZERO PUSH2 0x56B JUMPI PUSH2 0x56A PUSH2 0x4D3 JUMP JUMPDEST JUMPDEST PUSH0 PUSH2 0x578 DUP5 DUP3 DUP6 ADD PUSH2 0x542 JUMP JUMPDEST SWAP2 POP POP SWAP3 SWAP2 POP POP JUMP JUMPDEST PUSH0 DUP3 DUP3 MSTORE PUSH1 0x20 DUP3 ADD SWAP1 POP SWAP3 SWAP2 POP POP JUMP JUMPDEST PUSH32 0x4E6577206D617820737570706C792073686F756C642062652067726561746572 PUSH0 DUP3 ADD MSTORE PUSH32 0x207468616E2063757272656E74206D617820737570706C790000000000000000 PUSH1 0x20 DUP3 ADD MSTORE POP JUMP JUMPDEST PUSH0 PUSH2 0x5EB PUSH1 0x38 DUP4 PUSH2 0x581 JUMP JUMPDEST SWAP2 POP PUSH2 0x5F6 DUP3 PUSH2 0x591 JUMP JUMPDEST PUSH1 0x40 DUP3 ADD SWAP1 POP SWAP2 SWAP1 POP JUMP JUMPDEST PUSH0 PUSH1 0x20 DUP3 ADD SWAP1 POP DUP2 DUP2 SUB PUSH0 DUP4 ADD MSTORE PUSH2 0x618 DUP2 PUSH2 0x5DF JUMP JUMPDEST SWAP1 POP SWAP2 SWAP1 POP JUMP JUMPDEST PUSH32 0x4E487B7100000000000000000000000000000000000000000000000000000000 PUSH0 MSTORE PUSH1 0x11 PUSH1 0x4 MSTORE PUSH1 0x24 PUSH0 REVERT JUMPDEST PUSH0 PUSH2 0x656 DUP3 PUSH2 0x44A JUMP JUMPDEST SWAP2 POP PUSH2 0x661 DUP4 PUSH2 0x44A JUMP JUMPDEST SWAP3 POP DUP3 DUP3 ADD SWAP1 POP DUP1 DUP3 GT ISZERO PUSH2 0x679 JUMPI PUSH2 0x678 PUSH2 0x61F JUMP JUMPDEST JUMPDEST SWAP3 SWAP2 POP POP JUMP JUMPDEST PUSH32 0x4D696E7420616D6F756E74206578636565647320746865206D61782073757070 PUSH0 DUP3 ADD MSTORE PUSH32 0x6C79000000000000000000000000000000000000000000000000000000000000 PUSH1 0x20 DUP3 ADD MSTORE POP JUMP JUMPDEST PUSH0 PUSH2 0x6D9 PUSH1 0x22 DUP4 PUSH2 0x581 JUMP JUMPDEST SWAP2 POP PUSH2 0x6E4 DUP3 PUSH2 0x67F JUMP JUMPDEST PUSH1 0x40 DUP3 ADD SWAP1 POP SWAP2 SWAP1 POP JUMP JUMPDEST PUSH0 PUSH1 0x20 DUP3 ADD SWAP1 POP DUP2 DUP2 SUB PUSH0 DUP4 ADD MSTORE PUSH2 0x706 DUP2 PUSH2 0x6CD JUMP JUMPDEST SWAP1 POP SWAP2 SWAP1 POP JUMP INVALID LOG2 PUSH5 0x6970667358 0x22 SLT KECCAK256 SLT ADD DUP3 LOG1 0x2C SLOAD DELEGATECALL TSTORE 0x22 MCOPY DUP13 PUSH2 0x58C0 0xEB 0xDE LT MULMOD SMOD 0xBA 0x21 0xBB 0x27 0xDB 0xA8 CREATE2 0xB3 0xE1 RETURNDATASIZE EXTCODESIZE 0xB0 SWAP2 PUSH5 0x736F6C6343 STOP ADDMOD NOT STOP CALLER "
		},
		"gasEstimates": {
			"creation": {
				"codeDepositCost": "371800",
				"executionCost": "infinite",
				"totalCost": "infinite"
			},
			"external": {
				"increaseMaxSupply(uint256)": "infinite",
				"initialMaxSupply()": "2426",
				"maxSupply()": "2447",
				"mintCoin(uint256)": "infinite",
				"owner()": "2560",
				"renounceOwnership()": "infinite",
				"totalSupplyMinted()": "2425",
				"transferOwnership(address)": "infinite"
			}
		},
		"methodIdentifiers": {
			"increaseMaxSupply(uint256)": "90edbfee",
			"initialMaxSupply()": "30643c41",
			"maxSupply()": "d5abeb01",
			"mintCoin(uint256)": "f3f7d04f",
			"owner()": "8da5cb5b",
			"renounceOwnership()": "715018a6",
			"totalSupplyMinted()": "933e95b2",
			"transferOwnership(address)": "f2fde38b"
		}
	},
	"abi": [
		{
			"inputs": [
				{
					"internalType": "uint256",
					"name": "_initialMaxSupply",
					"type": "uint256"
				}
			],
			"stateMutability": "nonpayable",
			"type": "constructor"
		},
		{
			"inputs": [
				{
					"internalType": "address",
					"name": "owner",
					"type": "address"
				}
			],
			"name": "OwnableInvalidOwner",
			"type": "error"
		},
		{
			"inputs": [
				{
					"internalType": "address",
					"name": "account",
					"type": "address"
				}
			],
			"name": "OwnableUnauthorizedAccount",
			"type": "error"
		},
		{
			"anonymous": false,
			"inputs": [
				{
					"indexed": true,
					"internalType": "address",
					"name": "previousOwner",
					"type": "address"
				},
				{
					"indexed": true,
					"internalType": "address",
					"name": "newOwner",
					"type": "address"
				}
			],
			"name": "OwnershipTransferred",
			"type": "event"
		},
		{
			"inputs": [
				{
					"internalType": "uint256",
					"name": "newMaxSupply",
					"type": "uint256"
				}
			],
			"name": "increaseMaxSupply",
			"outputs": [],
			"stateMutability": "nonpayable",
			"type": "function"
		},
		{
			"inputs": [],
			"name": "initialMaxSupply",
			"outputs": [
				{
					"internalType": "uint256",
					"name": "",
					"type": "uint256"
				}
			],
			"stateMutability": "view",
			"type": "function"
		},
		{
			"inputs": [],
			"name": "maxSupply",
			"outputs": [
				{
					"internalType": "uint256",
					"name": "",
					"type": "uint256"
				}
			],
			"stateMutability": "view",
			"type": "function"
		},
		{
			"inputs": [
				{
					"internalType": "uint256",
					"name": "amount",
					"type": "uint256"
				}
			],
			"name": "mintCoin",
			"outputs": [],
			"stateMutability": "nonpayable",
			"type": "function"
		},
		{
			"inputs": [],
			"name": "owner",
			"outputs": [
				{
					"internalType": "address",
					"name": "",
					"type": "address"
				}
			],
			"stateMutability": "view",
			"type": "function"
		},
		{
			"inputs": [],
			"name": "renounceOwnership",
			"outputs": [],
			"stateMutability": "nonpayable",
			"type": "function"
		},
		{
			"inputs": [],
			"name": "totalSupplyMinted",
			"outputs": [
				{
					"internalType": "uint256",
					"name": "",
					"type": "uint256"
				}
			],
			"stateMutability": "view",
			"type": "function"
		},
		{
			"inputs": [
				{
					"internalType": "address",
					"name": "newOwner",
					"type": "address"
				}
			],
			"name": "transferOwnership",
			"outputs": [],
			"stateMutability": "nonpayable",
			"type": "function"
		}
	]
}