{
	"data": {
		"bytecode": {
			"linkReferences": {},
			"object": "6080604052670de0b6b3a76400005f55670a688906bd8b00006001553480156025575f80fd5b50611109806100335f395ff3fe608060405260043610610028575f3560e01c80638c9e37ec1461002c5780639887510314610068575b5f80fd5b348015610037575f80fd5b50610052600480360381019061004d919061083c565b610098565b60405161005f91906108b2565b60405180910390f35b610082600480360381019061007d9190610a42565b610391565b60405161008f91906108b2565b60405180910390f35b6100a0610674565b815f015160025f3373ffffffffffffffffffffffffffffffffffffffff1673ffffffffffffffffffffffffffffffffffffffff1681526020019081526020015f205f015414610124576040517f08c379a000000000000000000000000000000000000000000000000000000000815260040161011b90610af6565b60405180910390fd5b3373ffffffffffffffffffffffffffffffffffffffff166108fc60015490811502906040515f60405180830381858888f19350505050158015610169573d5f803e3d5ffd5b505f82905060025f3373ffffffffffffffffffffffffffffffffffffffff1673ffffffffffffffffffffffffffffffffffffffff1681526020019081526020015f205f8082015f9055600182015f6101000a81549060ff021916905550505f60038054905090505f5b600380549050811015610386573373ffffffffffffffffffffffffffffffffffffffff166003828154811061020a57610209610b14565b5b905f5260205f2090600202016001015f9054906101000a900473ffffffffffffffffffffffffffffffffffffffff1673ffffffffffffffffffffffffffffffffffffffff16036103795760036001836102639190610b6e565b8154811061027457610273610b14565b5b905f5260205f2090600202016003828154811061029457610293610b14565b5b905f5260205f2090600202015f8201815f0190816102b29190610db0565b50600182015f9054906101000a900473ffffffffffffffffffffffffffffffffffffffff16816001015f6101000a81548173ffffffffffffffffffffffffffffffffffffffff021916908373ffffffffffffffffffffffffffffffffffffffff160217905550905050600380548061032d5761032c610e95565b5b600190038181905f5260205f2090600202015f8082015f61034e919061068e565b600182015f6101000a81549073ffffffffffffffffffffffffffffffffffffffff0219169055505090555b80806001019150506101d2565b508192505050919050565b610399610674565b670de0b6b3a764000034146103e3576040517f08c379a00000000000000000000000000000000000000000000000000000000081526004016103da90610f0c565b60405180910390fd5b6001151560025f3373ffffffffffffffffffffffffffffffffffffffff1673ffffffffffffffffffffffffffffffffffffffff1681526020019081526020015f206001015f9054906101000a900460ff16151503610476576040517f08c379a000000000000000000000000000000000000000000000000000000000815260040161046d90610f74565b60405180910390fd5b815f015160025f3373ffffffffffffffffffffffffffffffffffffffff1673ffffffffffffffffffffffffffffffffffffffff1681526020019081526020015f205f0154036104fa576040517f08c379a00000000000000000000000000000000000000000000000000000000081526004016104f190610fdc565b60405180910390fd5b6040518060400160405280835f015181526020016001151581525060025f3373ffffffffffffffffffffffffffffffffffffffff1673ffffffffffffffffffffffffffffffffffffffff1681526020019081526020015f205f820151815f01556020820151816001015f6101000a81548160ff021916908315150217905550905050600383908060018154018082558091505060019003905f5260205f2090600202015f909190919091505f820151815f0190816105b89190611004565b506020820151816001015f6101000a81548173ffffffffffffffffffffffffffffffffffffffff021916908373ffffffffffffffffffffffffffffffffffffffff160217905550505060025f3373ffffffffffffffffffffffffffffffffffffffff1673ffffffffffffffffffffffffffffffffffffffff1681526020019081526020015f206040518060400160405290815f8201548152602001600182015f9054906101000a900460ff161515151581525050905092915050565b60405180604001604052805f81526020015f151581525090565b50805461069a90610bce565b5f825580601f106106ab57506106c8565b601f0160209004905f5260205f20908101906106c791906106cb565b5b50565b5b808211156106e2575f815f9055506001016106cc565b5090565b5f604051905090565b5f80fd5b5f80fd5b5f80fd5b5f601f19601f8301169050919050565b7f4e487b71000000000000000000000000000000000000000000000000000000005f52604160045260245ffd5b610741826106fb565b810181811067ffffffffffffffff821117156107605761075f61070b565b5b80604052505050565b5f6107726106e6565b905061077e8282610738565b919050565b5f80fd5b5f819050919050565b61079981610787565b81146107a3575f80fd5b50565b5f813590506107b481610790565b92915050565b5f8115159050919050565b6107ce816107ba565b81146107d8575f80fd5b50565b5f813590506107e9816107c5565b92915050565b5f60408284031215610804576108036106f7565b5b61080e6040610769565b90505f61081d848285016107a6565b5f830152506020610830848285016107db565b60208301525092915050565b5f60408284031215610851576108506106ef565b5b5f61085e848285016107ef565b91505092915050565b61087081610787565b82525050565b61087f816107ba565b82525050565b604082015f8201516108995f850182610867565b5060208201516108ac6020850182610876565b50505050565b5f6040820190506108c55f830184610885565b92915050565b5f80fd5b5f80fd5b5f67ffffffffffffffff8211156108ed576108ec61070b565b5b6108f6826106fb565b9050602081019050919050565b828183375f83830152505050565b5f61092361091e846108d3565b610769565b90508281526020810184848401111561093f5761093e6108cf565b5b61094a848285610903565b509392505050565b5f82601f830112610966576109656108cb565b5b8135610976848260208601610911565b91505092915050565b5f73ffffffffffffffffffffffffffffffffffffffff82169050919050565b5f6109a88261097f565b9050919050565b6109b88161099e565b81146109c2575f80fd5b50565b5f813590506109d3816109af565b92915050565b5f604082840312156109ee576109ed6106f7565b5b6109f86040610769565b90505f82013567ffffffffffffffff811115610a1757610a16610783565b5b610a2384828501610952565b5f830152506020610a36848285016109c5565b60208301525092915050565b5f8060608385031215610a5857610a576106ef565b5b5f83013567ffffffffffffffff811115610a7557610a746106f3565b5b610a81858286016109d9565b9250506020610a92858286016107ef565b9150509250929050565b5f82825260208201905092915050565b7f6e6f2063617220657869737400000000000000000000000000000000000000005f82015250565b5f610ae0600c83610a9c565b9150610aeb82610aac565b602082019050919050565b5f6020820190508181035f830152610b0d81610ad4565b9050919050565b7f4e487b71000000000000000000000000000000000000000000000000000000005f52603260045260245ffd5b7f4e487b71000000000000000000000000000000000000000000000000000000005f52601160045260245ffd5b5f610b7882610787565b9150610b8383610787565b9250828203905081811115610b9b57610b9a610b41565b5b92915050565b7f4e487b71000000000000000000000000000000000000000000000000000000005f52602260045260245ffd5b5f6002820490506001821680610be557607f821691505b602082108103610bf857610bf7610ba1565b5b50919050565b5f81549050610c0c81610bce565b9050919050565b5f819050815f5260205f209050919050565b5f6020601f8301049050919050565b5f82821b905092915050565b5f60088302610c6f7fffffffffffffffffffffffffffffffffffffffffffffffffffffffffffffffff82610c34565b610c798683610c34565b95508019841693508086168417925050509392505050565b5f819050919050565b5f610cb4610caf610caa84610787565b610c91565b610787565b9050919050565b5f819050919050565b610ccd83610c9a565b610ce1610cd982610cbb565b848454610c40565b825550505050565b5f90565b610cf5610ce9565b610d00818484610cc4565b505050565b5b81811015610d2357610d185f82610ced565b600181019050610d06565b5050565b601f821115610d6857610d3981610c13565b610d4284610c25565b81016020851015610d51578190505b610d65610d5d85610c25565b830182610d05565b50505b505050565b5f82821c905092915050565b5f610d885f1984600802610d6d565b1980831691505092915050565b5f610da08383610d79565b9150826002028217905092915050565b818103610dbe575050610e93565b610dc782610bfe565b67ffffffffffffffff811115610de057610ddf61070b565b5b610dea8254610bce565b610df5828285610d27565b5f601f831160018114610e22575f8415610e10578287015490505b610e1a8582610d95565b865550610e8c565b601f198416610e3087610c13565b9650610e3b86610c13565b5f5b82811015610e6257848901548255600182019150600185019450602081019050610e3d565b86831015610e7f5784890154610e7b601f891682610d79565b8355505b6001600288020188555050505b5050505050505b565b7f4e487b71000000000000000000000000000000000000000000000000000000005f52603160045260245ffd5b7f496e76616c696420416d6f756e740000000000000000000000000000000000005f82015250565b5f610ef6600e83610a9c565b9150610f0182610ec2565b602082019050919050565b5f6020820190508181035f830152610f2381610eea565b9050919050565b7f43617220416c72656164792072656e74656400000000000000000000000000005f82015250565b5f610f5e601283610a9c565b9150610f6982610f2a565b602082019050919050565b5f6020820190508181035f830152610f8b81610f52565b9050919050565b7f43617220697320616c72656164792061646465640000000000000000000000005f82015250565b5f610fc6601483610a9c565b9150610fd182610f92565b602082019050919050565b5f6020820190508181035f830152610ff381610fba565b9050919050565b5f81519050919050565b61100d82610ffa565b67ffffffffffffffff8111156110265761102561070b565b5b6110308254610bce565b61103b828285610d27565b5f60209050601f83116001811461106c575f841561105a578287015190505b6110648582610d95565b8655506110cb565b601f19841661107a86610c13565b5f5b828110156110a15784890151825560018201915060208501945060208101905061107c565b868310156110be57848901516110ba601f891682610d79565b8355505b6001600288020188555050505b50505050505056fea26469706673582212207f84a40fcdf71fc556db73aff8ba2ed190b0aaafeb22ef64b04300b5cce5733e64736f6c63430008190033",
			"opcodes": "PUSH1 0x80 PUSH1 0x40 MSTORE PUSH8 0xDE0B6B3A7640000 PUSH0 SSTORE PUSH8 0xA688906BD8B0000 PUSH1 0x1 SSTORE CALLVALUE DUP1 ISZERO PUSH1 0x25 JUMPI PUSH0 DUP1 REVERT JUMPDEST POP PUSH2 0x1109 DUP1 PUSH2 0x33 PUSH0 CODECOPY PUSH0 RETURN INVALID PUSH1 0x80 PUSH1 0x40 MSTORE PUSH1 0x4 CALLDATASIZE LT PUSH2 0x28 JUMPI PUSH0 CALLDATALOAD PUSH1 0xE0 SHR DUP1 PUSH4 0x8C9E37EC EQ PUSH2 0x2C JUMPI DUP1 PUSH4 0x98875103 EQ PUSH2 0x68 JUMPI JUMPDEST PUSH0 DUP1 REVERT JUMPDEST CALLVALUE DUP1 ISZERO PUSH2 0x37 JUMPI PUSH0 DUP1 REVERT JUMPDEST POP PUSH2 0x52 PUSH1 0x4 DUP1 CALLDATASIZE SUB DUP2 ADD SWAP1 PUSH2 0x4D SWAP2 SWAP1 PUSH2 0x83C JUMP JUMPDEST PUSH2 0x98 JUMP JUMPDEST PUSH1 0x40 MLOAD PUSH2 0x5F SWAP2 SWAP1 PUSH2 0x8B2 JUMP JUMPDEST PUSH1 0x40 MLOAD DUP1 SWAP2 SUB SWAP1 RETURN JUMPDEST PUSH2 0x82 PUSH1 0x4 DUP1 CALLDATASIZE SUB DUP2 ADD SWAP1 PUSH2 0x7D SWAP2 SWAP1 PUSH2 0xA42 JUMP JUMPDEST PUSH2 0x391 JUMP JUMPDEST PUSH1 0x40 MLOAD PUSH2 0x8F SWAP2 SWAP1 PUSH2 0x8B2 JUMP JUMPDEST PUSH1 0x40 MLOAD DUP1 SWAP2 SUB SWAP1 RETURN JUMPDEST PUSH2 0xA0 PUSH2 0x674 JUMP JUMPDEST DUP2 PUSH0 ADD MLOAD PUSH1 0x2 PUSH0 CALLER PUSH20 0xFFFFFFFFFFFFFFFFFFFFFFFFFFFFFFFFFFFFFFFF AND PUSH20 0xFFFFFFFFFFFFFFFFFFFFFFFFFFFFFFFFFFFFFFFF AND DUP2 MSTORE PUSH1 0x20 ADD SWAP1 DUP2 MSTORE PUSH1 0x20 ADD PUSH0 KECCAK256 PUSH0 ADD SLOAD EQ PUSH2 0x124 JUMPI PUSH1 0x40 MLOAD PUSH32 0x8C379A000000000000000000000000000000000000000000000000000000000 DUP2 MSTORE PUSH1 0x4 ADD PUSH2 0x11B SWAP1 PUSH2 0xAF6 JUMP JUMPDEST PUSH1 0x40 MLOAD DUP1 SWAP2 SUB SWAP1 REVERT JUMPDEST CALLER PUSH20 0xFFFFFFFFFFFFFFFFFFFFFFFFFFFFFFFFFFFFFFFF AND PUSH2 0x8FC PUSH1 0x1 SLOAD SWAP1 DUP2 ISZERO MUL SWAP1 PUSH1 0x40 MLOAD PUSH0 PUSH1 0x40 MLOAD DUP1 DUP4 SUB DUP2 DUP6 DUP9 DUP9 CALL SWAP4 POP POP POP POP ISZERO DUP1 ISZERO PUSH2 0x169 JUMPI RETURNDATASIZE PUSH0 DUP1 RETURNDATACOPY RETURNDATASIZE PUSH0 REVERT JUMPDEST POP PUSH0 DUP3 SWAP1 POP PUSH1 0x2 PUSH0 CALLER PUSH20 0xFFFFFFFFFFFFFFFFFFFFFFFFFFFFFFFFFFFFFFFF AND PUSH20 0xFFFFFFFFFFFFFFFFFFFFFFFFFFFFFFFFFFFFFFFF AND DUP2 MSTORE PUSH1 0x20 ADD SWAP1 DUP2 MSTORE PUSH1 0x20 ADD PUSH0 KECCAK256 PUSH0 DUP1 DUP3 ADD PUSH0 SWAP1 SSTORE PUSH1 0x1 DUP3 ADD PUSH0 PUSH2 0x100 EXP DUP2 SLOAD SWAP1 PUSH1 0xFF MUL NOT AND SWAP1 SSTORE POP POP PUSH0 PUSH1 0x3 DUP1 SLOAD SWAP1 POP SWAP1 POP PUSH0 JUMPDEST PUSH1 0x3 DUP1 SLOAD SWAP1 POP DUP2 LT ISZERO PUSH2 0x386 JUMPI CALLER PUSH20 0xFFFFFFFFFFFFFFFFFFFFFFFFFFFFFFFFFFFFFFFF AND PUSH1 0x3 DUP3 DUP2 SLOAD DUP2 LT PUSH2 0x20A JUMPI PUSH2 0x209 PUSH2 0xB14 JUMP JUMPDEST JUMPDEST SWAP1 PUSH0 MSTORE PUSH1 0x20 PUSH0 KECCAK256 SWAP1 PUSH1 0x2 MUL ADD PUSH1 0x1 ADD PUSH0 SWAP1 SLOAD SWAP1 PUSH2 0x100 EXP SWAP1 DIV PUSH20 0xFFFFFFFFFFFFFFFFFFFFFFFFFFFFFFFFFFFFFFFF AND PUSH20 0xFFFFFFFFFFFFFFFFFFFFFFFFFFFFFFFFFFFFFFFF AND SUB PUSH2 0x379 JUMPI PUSH1 0x3 PUSH1 0x1 DUP4 PUSH2 0x263 SWAP2 SWAP1 PUSH2 0xB6E JUMP JUMPDEST DUP2 SLOAD DUP2 LT PUSH2 0x274 JUMPI PUSH2 0x273 PUSH2 0xB14 JUMP JUMPDEST JUMPDEST SWAP1 PUSH0 MSTORE PUSH1 0x20 PUSH0 KECCAK256 SWAP1 PUSH1 0x2 MUL ADD PUSH1 0x3 DUP3 DUP2 SLOAD DUP2 LT PUSH2 0x294 JUMPI PUSH2 0x293 PUSH2 0xB14 JUMP JUMPDEST JUMPDEST SWAP1 PUSH0 MSTORE PUSH1 0x20 PUSH0 KECCAK256 SWAP1 PUSH1 0x2 MUL ADD PUSH0 DUP3 ADD DUP2 PUSH0 ADD SWAP1 DUP2 PUSH2 0x2B2 SWAP2 SWAP1 PUSH2 0xDB0 JUMP JUMPDEST POP PUSH1 0x1 DUP3 ADD PUSH0 SWAP1 SLOAD SWAP1 PUSH2 0x100 EXP SWAP1 DIV PUSH20 0xFFFFFFFFFFFFFFFFFFFFFFFFFFFFFFFFFFFFFFFF AND DUP2 PUSH1 0x1 ADD PUSH0 PUSH2 0x100 EXP DUP2 SLOAD DUP2 PUSH20 0xFFFFFFFFFFFFFFFFFFFFFFFFFFFFFFFFFFFFFFFF MUL NOT AND SWAP1 DUP4 PUSH20 0xFFFFFFFFFFFFFFFFFFFFFFFFFFFFFFFFFFFFFFFF AND MUL OR SWAP1 SSTORE POP SWAP1 POP POP PUSH1 0x3 DUP1 SLOAD DUP1 PUSH2 0x32D JUMPI PUSH2 0x32C PUSH2 0xE95 JUMP JUMPDEST JUMPDEST PUSH1 0x1 SWAP1 SUB DUP2 DUP2 SWAP1 PUSH0 MSTORE PUSH1 0x20 PUSH0 KECCAK256 SWAP1 PUSH1 0x2 MUL ADD PUSH0 DUP1 DUP3 ADD PUSH0 PUSH2 0x34E SWAP2 SWAP1 PUSH2 0x68E JUMP JUMPDEST PUSH1 0x1 DUP3 ADD PUSH0 PUSH2 0x100 EXP DUP2 SLOAD SWAP1 PUSH20 0xFFFFFFFFFFFFFFFFFFFFFFFFFFFFFFFFFFFFFFFF MUL NOT AND SWAP1 SSTORE POP POP SWAP1 SSTORE JUMPDEST DUP1 DUP1 PUSH1 0x1 ADD SWAP2 POP POP PUSH2 0x1D2 JUMP JUMPDEST POP DUP2 SWAP3 POP POP POP SWAP2 SWAP1 POP JUMP JUMPDEST PUSH2 0x399 PUSH2 0x674 JUMP JUMPDEST PUSH8 0xDE0B6B3A7640000 CALLVALUE EQ PUSH2 0x3E3 JUMPI PUSH1 0x40 MLOAD PUSH32 0x8C379A000000000000000000000000000000000000000000000000000000000 DUP2 MSTORE PUSH1 0x4 ADD PUSH2 0x3DA SWAP1 PUSH2 0xF0C JUMP JUMPDEST PUSH1 0x40 MLOAD DUP1 SWAP2 SUB SWAP1 REVERT JUMPDEST PUSH1 0x1 ISZERO ISZERO PUSH1 0x2 PUSH0 CALLER PUSH20 0xFFFFFFFFFFFFFFFFFFFFFFFFFFFFFFFFFFFFFFFF AND PUSH20 0xFFFFFFFFFFFFFFFFFFFFFFFFFFFFFFFFFFFFFFFF AND DUP2 MSTORE PUSH1 0x20 ADD SWAP1 DUP2 MSTORE PUSH1 0x20 ADD PUSH0 KECCAK256 PUSH1 0x1 ADD PUSH0 SWAP1 SLOAD SWAP1 PUSH2 0x100 EXP SWAP1 DIV PUSH1 0xFF AND ISZERO ISZERO SUB PUSH2 0x476 JUMPI PUSH1 0x40 MLOAD PUSH32 0x8C379A000000000000000000000000000000000000000000000000000000000 DUP2 MSTORE PUSH1 0x4 ADD PUSH2 0x46D SWAP1 PUSH2 0xF74 JUMP JUMPDEST PUSH1 0x40 MLOAD DUP1 SWAP2 SUB SWAP1 REVERT JUMPDEST DUP2 PUSH0 ADD MLOAD PUSH1 0x2 PUSH0 CALLER PUSH20 0xFFFFFFFFFFFFFFFFFFFFFFFFFFFFFFFFFFFFFFFF AND PUSH20 0xFFFFFFFFFFFFFFFFFFFFFFFFFFFFFFFFFFFFFFFF AND DUP2 MSTORE PUSH1 0x20 ADD SWAP1 DUP2 MSTORE PUSH1 0x20 ADD PUSH0 KECCAK256 PUSH0 ADD SLOAD SUB PUSH2 0x4FA JUMPI PUSH1 0x40 MLOAD PUSH32 0x8C379A000000000000000000000000000000000000000000000000000000000 DUP2 MSTORE PUSH1 0x4 ADD PUSH2 0x4F1 SWAP1 PUSH2 0xFDC JUMP JUMPDEST PUSH1 0x40 MLOAD DUP1 SWAP2 SUB SWAP1 REVERT JUMPDEST PUSH1 0x40 MLOAD DUP1 PUSH1 0x40 ADD PUSH1 0x40 MSTORE DUP1 DUP4 PUSH0 ADD MLOAD DUP2 MSTORE PUSH1 0x20 ADD PUSH1 0x1 ISZERO ISZERO DUP2 MSTORE POP PUSH1 0x2 PUSH0 CALLER PUSH20 0xFFFFFFFFFFFFFFFFFFFFFFFFFFFFFFFFFFFFFFFF AND PUSH20 0xFFFFFFFFFFFFFFFFFFFFFFFFFFFFFFFFFFFFFFFF AND DUP2 MSTORE PUSH1 0x20 ADD SWAP1 DUP2 MSTORE PUSH1 0x20 ADD PUSH0 KECCAK256 PUSH0 DUP3 ADD MLOAD DUP2 PUSH0 ADD SSTORE PUSH1 0x20 DUP3 ADD MLOAD DUP2 PUSH1 0x1 ADD PUSH0 PUSH2 0x100 EXP DUP2 SLOAD DUP2 PUSH1 0xFF MUL NOT AND SWAP1 DUP4 ISZERO ISZERO MUL OR SWAP1 SSTORE POP SWAP1 POP POP PUSH1 0x3 DUP4 SWAP1 DUP1 PUSH1 0x1 DUP2 SLOAD ADD DUP1 DUP3 SSTORE DUP1 SWAP2 POP POP PUSH1 0x1 SWAP1 SUB SWAP1 PUSH0 MSTORE PUSH1 0x20 PUSH0 KECCAK256 SWAP1 PUSH1 0x2 MUL ADD PUSH0 SWAP1 SWAP2 SWAP1 SWAP2 SWAP1 SWAP2 POP PUSH0 DUP3 ADD MLOAD DUP2 PUSH0 ADD SWAP1 DUP2 PUSH2 0x5B8 SWAP2 SWAP1 PUSH2 0x1004 JUMP JUMPDEST POP PUSH1 0x20 DUP3 ADD MLOAD DUP2 PUSH1 0x1 ADD PUSH0 PUSH2 0x100 EXP DUP2 SLOAD DUP2 PUSH20 0xFFFFFFFFFFFFFFFFFFFFFFFFFFFFFFFFFFFFFFFF MUL NOT AND SWAP1 DUP4 PUSH20 0xFFFFFFFFFFFFFFFFFFFFFFFFFFFFFFFFFFFFFFFF AND MUL OR SWAP1 SSTORE POP POP POP PUSH1 0x2 PUSH0 CALLER PUSH20 0xFFFFFFFFFFFFFFFFFFFFFFFFFFFFFFFFFFFFFFFF AND PUSH20 0xFFFFFFFFFFFFFFFFFFFFFFFFFFFFFFFFFFFFFFFF AND DUP2 MSTORE PUSH1 0x20 ADD SWAP1 DUP2 MSTORE PUSH1 0x20 ADD PUSH0 KECCAK256 PUSH1 0x40 MLOAD DUP1 PUSH1 0x40 ADD PUSH1 0x40 MSTORE SWAP1 DUP2 PUSH0 DUP3 ADD SLOAD DUP2 MSTORE PUSH1 0x20 ADD PUSH1 0x1 DUP3 ADD PUSH0 SWAP1 SLOAD SWAP1 PUSH2 0x100 EXP SWAP1 DIV PUSH1 0xFF AND ISZERO ISZERO ISZERO ISZERO DUP2 MSTORE POP POP SWAP1 POP SWAP3 SWAP2 POP POP JUMP JUMPDEST PUSH1 0x40 MLOAD DUP1 PUSH1 0x40 ADD PUSH1 0x40 MSTORE DUP1 PUSH0 DUP2 MSTORE PUSH1 0x20 ADD PUSH0 ISZERO ISZERO DUP2 MSTORE POP SWAP1 JUMP JUMPDEST POP DUP1 SLOAD PUSH2 0x69A SWAP1 PUSH2 0xBCE JUMP JUMPDEST PUSH0 DUP3 SSTORE DUP1 PUSH1 0x1F LT PUSH2 0x6AB JUMPI POP PUSH2 0x6C8 JUMP JUMPDEST PUSH1 0x1F ADD PUSH1 0x20 SWAP1 DIV SWAP1 PUSH0 MSTORE PUSH1 0x20 PUSH0 KECCAK256 SWAP1 DUP2 ADD SWAP1 PUSH2 0x6C7 SWAP2 SWAP1 PUSH2 0x6CB JUMP JUMPDEST JUMPDEST POP JUMP JUMPDEST JUMPDEST DUP1 DUP3 GT ISZERO PUSH2 0x6E2 JUMPI PUSH0 DUP2 PUSH0 SWAP1 SSTORE POP PUSH1 0x1 ADD PUSH2 0x6CC JUMP JUMPDEST POP SWAP1 JUMP JUMPDEST PUSH0 PUSH1 0x40 MLOAD SWAP1 POP SWAP1 JUMP JUMPDEST PUSH0 DUP1 REVERT JUMPDEST PUSH0 DUP1 REVERT JUMPDEST PUSH0 DUP1 REVERT JUMPDEST PUSH0 PUSH1 0x1F NOT PUSH1 0x1F DUP4 ADD AND SWAP1 POP SWAP2 SWAP1 POP JUMP JUMPDEST PUSH32 0x4E487B7100000000000000000000000000000000000000000000000000000000 PUSH0 MSTORE PUSH1 0x41 PUSH1 0x4 MSTORE PUSH1 0x24 PUSH0 REVERT JUMPDEST PUSH2 0x741 DUP3 PUSH2 0x6FB JUMP JUMPDEST DUP2 ADD DUP2 DUP2 LT PUSH8 0xFFFFFFFFFFFFFFFF DUP3 GT OR ISZERO PUSH2 0x760 JUMPI PUSH2 0x75F PUSH2 0x70B JUMP JUMPDEST JUMPDEST DUP1 PUSH1 0x40 MSTORE POP POP POP JUMP JUMPDEST PUSH0 PUSH2 0x772 PUSH2 0x6E6 JUMP JUMPDEST SWAP1 POP PUSH2 0x77E DUP3 DUP3 PUSH2 0x738 JUMP JUMPDEST SWAP2 SWAP1 POP JUMP JUMPDEST PUSH0 DUP1 REVERT JUMPDEST PUSH0 DUP2 SWAP1 POP SWAP2 SWAP1 POP JUMP JUMPDEST PUSH2 0x799 DUP2 PUSH2 0x787 JUMP JUMPDEST DUP2 EQ PUSH2 0x7A3 JUMPI PUSH0 DUP1 REVERT JUMPDEST POP JUMP JUMPDEST PUSH0 DUP2 CALLDATALOAD SWAP1 POP PUSH2 0x7B4 DUP2 PUSH2 0x790 JUMP JUMPDEST SWAP3 SWAP2 POP POP JUMP JUMPDEST PUSH0 DUP2 ISZERO ISZERO SWAP1 POP SWAP2 SWAP1 POP JUMP JUMPDEST PUSH2 0x7CE DUP2 PUSH2 0x7BA JUMP JUMPDEST DUP2 EQ PUSH2 0x7D8 JUMPI PUSH0 DUP1 REVERT JUMPDEST POP JUMP JUMPDEST PUSH0 DUP2 CALLDATALOAD SWAP1 POP PUSH2 0x7E9 DUP2 PUSH2 0x7C5 JUMP JUMPDEST SWAP3 SWAP2 POP POP JUMP JUMPDEST PUSH0 PUSH1 0x40 DUP3 DUP5 SUB SLT ISZERO PUSH2 0x804 JUMPI PUSH2 0x803 PUSH2 0x6F7 JUMP JUMPDEST JUMPDEST PUSH2 0x80E PUSH1 0x40 PUSH2 0x769 JUMP JUMPDEST SWAP1 POP PUSH0 PUSH2 0x81D DUP5 DUP3 DUP6 ADD PUSH2 0x7A6 JUMP JUMPDEST PUSH0 DUP4 ADD MSTORE POP PUSH1 0x20 PUSH2 0x830 DUP5 DUP3 DUP6 ADD PUSH2 0x7DB JUMP JUMPDEST PUSH1 0x20 DUP4 ADD MSTORE POP SWAP3 SWAP2 POP POP JUMP JUMPDEST PUSH0 PUSH1 0x40 DUP3 DUP5 SUB SLT ISZERO PUSH2 0x851 JUMPI PUSH2 0x850 PUSH2 0x6EF JUMP JUMPDEST JUMPDEST PUSH0 PUSH2 0x85E DUP5 DUP3 DUP6 ADD PUSH2 0x7EF JUMP JUMPDEST SWAP2 POP POP SWAP3 SWAP2 POP POP JUMP JUMPDEST PUSH2 0x870 DUP2 PUSH2 0x787 JUMP JUMPDEST DUP3 MSTORE POP POP JUMP JUMPDEST PUSH2 0x87F DUP2 PUSH2 0x7BA JUMP JUMPDEST DUP3 MSTORE POP POP JUMP JUMPDEST PUSH1 0x40 DUP3 ADD PUSH0 DUP3 ADD MLOAD PUSH2 0x899 PUSH0 DUP6 ADD DUP3 PUSH2 0x867 JUMP JUMPDEST POP PUSH1 0x20 DUP3 ADD MLOAD PUSH2 0x8AC PUSH1 0x20 DUP6 ADD DUP3 PUSH2 0x876 JUMP JUMPDEST POP POP POP POP JUMP JUMPDEST PUSH0 PUSH1 0x40 DUP3 ADD SWAP1 POP PUSH2 0x8C5 PUSH0 DUP4 ADD DUP5 PUSH2 0x885 JUMP JUMPDEST SWAP3 SWAP2 POP POP JUMP JUMPDEST PUSH0 DUP1 REVERT JUMPDEST PUSH0 DUP1 REVERT JUMPDEST PUSH0 PUSH8 0xFFFFFFFFFFFFFFFF DUP3 GT ISZERO PUSH2 0x8ED JUMPI PUSH2 0x8EC PUSH2 0x70B JUMP JUMPDEST JUMPDEST PUSH2 0x8F6 DUP3 PUSH2 0x6FB JUMP JUMPDEST SWAP1 POP PUSH1 0x20 DUP2 ADD SWAP1 POP SWAP2 SWAP1 POP JUMP JUMPDEST DUP3 DUP2 DUP4 CALLDATACOPY PUSH0 DUP4 DUP4 ADD MSTORE POP POP POP JUMP JUMPDEST PUSH0 PUSH2 0x923 PUSH2 0x91E DUP5 PUSH2 0x8D3 JUMP JUMPDEST PUSH2 0x769 JUMP JUMPDEST SWAP1 POP DUP3 DUP2 MSTORE PUSH1 0x20 DUP2 ADD DUP5 DUP5 DUP5 ADD GT ISZERO PUSH2 0x93F JUMPI PUSH2 0x93E PUSH2 0x8CF JUMP JUMPDEST JUMPDEST PUSH2 0x94A DUP5 DUP3 DUP6 PUSH2 0x903 JUMP JUMPDEST POP SWAP4 SWAP3 POP POP POP JUMP JUMPDEST PUSH0 DUP3 PUSH1 0x1F DUP4 ADD SLT PUSH2 0x966 JUMPI PUSH2 0x965 PUSH2 0x8CB JUMP JUMPDEST JUMPDEST DUP2 CALLDATALOAD PUSH2 0x976 DUP5 DUP3 PUSH1 0x20 DUP7 ADD PUSH2 0x911 JUMP JUMPDEST SWAP2 POP POP SWAP3 SWAP2 POP POP JUMP JUMPDEST PUSH0 PUSH20 0xFFFFFFFFFFFFFFFFFFFFFFFFFFFFFFFFFFFFFFFF DUP3 AND SWAP1 POP SWAP2 SWAP1 POP JUMP JUMPDEST PUSH0 PUSH2 0x9A8 DUP3 PUSH2 0x97F JUMP JUMPDEST SWAP1 POP SWAP2 SWAP1 POP JUMP JUMPDEST PUSH2 0x9B8 DUP2 PUSH2 0x99E JUMP JUMPDEST DUP2 EQ PUSH2 0x9C2 JUMPI PUSH0 DUP1 REVERT JUMPDEST POP JUMP JUMPDEST PUSH0 DUP2 CALLDATALOAD SWAP1 POP PUSH2 0x9D3 DUP2 PUSH2 0x9AF JUMP JUMPDEST SWAP3 SWAP2 POP POP JUMP JUMPDEST PUSH0 PUSH1 0x40 DUP3 DUP5 SUB SLT ISZERO PUSH2 0x9EE JUMPI PUSH2 0x9ED PUSH2 0x6F7 JUMP JUMPDEST JUMPDEST PUSH2 0x9F8 PUSH1 0x40 PUSH2 0x769 JUMP JUMPDEST SWAP1 POP PUSH0 DUP3 ADD CALLDATALOAD PUSH8 0xFFFFFFFFFFFFFFFF DUP2 GT ISZERO PUSH2 0xA17 JUMPI PUSH2 0xA16 PUSH2 0x783 JUMP JUMPDEST JUMPDEST PUSH2 0xA23 DUP5 DUP3 DUP6 ADD PUSH2 0x952 JUMP JUMPDEST PUSH0 DUP4 ADD MSTORE POP PUSH1 0x20 PUSH2 0xA36 DUP5 DUP3 DUP6 ADD PUSH2 0x9C5 JUMP JUMPDEST PUSH1 0x20 DUP4 ADD MSTORE POP SWAP3 SWAP2 POP POP JUMP JUMPDEST PUSH0 DUP1 PUSH1 0x60 DUP4 DUP6 SUB SLT ISZERO PUSH2 0xA58 JUMPI PUSH2 0xA57 PUSH2 0x6EF JUMP JUMPDEST JUMPDEST PUSH0 DUP4 ADD CALLDATALOAD PUSH8 0xFFFFFFFFFFFFFFFF DUP2 GT ISZERO PUSH2 0xA75 JUMPI PUSH2 0xA74 PUSH2 0x6F3 JUMP JUMPDEST JUMPDEST PUSH2 0xA81 DUP6 DUP3 DUP7 ADD PUSH2 0x9D9 JUMP JUMPDEST SWAP3 POP POP PUSH1 0x20 PUSH2 0xA92 DUP6 DUP3 DUP7 ADD PUSH2 0x7EF JUMP JUMPDEST SWAP2 POP POP SWAP3 POP SWAP3 SWAP1 POP JUMP JUMPDEST PUSH0 DUP3 DUP3 MSTORE PUSH1 0x20 DUP3 ADD SWAP1 POP SWAP3 SWAP2 POP POP JUMP JUMPDEST PUSH32 0x6E6F206361722065786973740000000000000000000000000000000000000000 PUSH0 DUP3 ADD MSTORE POP JUMP JUMPDEST PUSH0 PUSH2 0xAE0 PUSH1 0xC DUP4 PUSH2 0xA9C JUMP JUMPDEST SWAP2 POP PUSH2 0xAEB DUP3 PUSH2 0xAAC JUMP JUMPDEST PUSH1 0x20 DUP3 ADD SWAP1 POP SWAP2 SWAP1 POP JUMP JUMPDEST PUSH0 PUSH1 0x20 DUP3 ADD SWAP1 POP DUP2 DUP2 SUB PUSH0 DUP4 ADD MSTORE PUSH2 0xB0D DUP2 PUSH2 0xAD4 JUMP JUMPDEST SWAP1 POP SWAP2 SWAP1 POP JUMP JUMPDEST PUSH32 0x4E487B7100000000000000000000000000000000000000000000000000000000 PUSH0 MSTORE PUSH1 0x32 PUSH1 0x4 MSTORE PUSH1 0x24 PUSH0 REVERT JUMPDEST PUSH32 0x4E487B7100000000000000000000000000000000000000000000000000000000 PUSH0 MSTORE PUSH1 0x11 PUSH1 0x4 MSTORE PUSH1 0x24 PUSH0 REVERT JUMPDEST PUSH0 PUSH2 0xB78 DUP3 PUSH2 0x787 JUMP JUMPDEST SWAP2 POP PUSH2 0xB83 DUP4 PUSH2 0x787 JUMP JUMPDEST SWAP3 POP DUP3 DUP3 SUB SWAP1 POP DUP2 DUP2 GT ISZERO PUSH2 0xB9B JUMPI PUSH2 0xB9A PUSH2 0xB41 JUMP JUMPDEST JUMPDEST SWAP3 SWAP2 POP POP JUMP JUMPDEST PUSH32 0x4E487B7100000000000000000000000000000000000000000000000000000000 PUSH0 MSTORE PUSH1 0x22 PUSH1 0x4 MSTORE PUSH1 0x24 PUSH0 REVERT JUMPDEST PUSH0 PUSH1 0x2 DUP3 DIV SWAP1 POP PUSH1 0x1 DUP3 AND DUP1 PUSH2 0xBE5 JUMPI PUSH1 0x7F DUP3 AND SWAP2 POP JUMPDEST PUSH1 0x20 DUP3 LT DUP2 SUB PUSH2 0xBF8 JUMPI PUSH2 0xBF7 PUSH2 0xBA1 JUMP JUMPDEST JUMPDEST POP SWAP2 SWAP1 POP JUMP JUMPDEST PUSH0 DUP2 SLOAD SWAP1 POP PUSH2 0xC0C DUP2 PUSH2 0xBCE JUMP JUMPDEST SWAP1 POP SWAP2 SWAP1 POP JUMP JUMPDEST PUSH0 DUP2 SWAP1 POP DUP2 PUSH0 MSTORE PUSH1 0x20 PUSH0 KECCAK256 SWAP1 POP SWAP2 SWAP1 POP JUMP JUMPDEST PUSH0 PUSH1 0x20 PUSH1 0x1F DUP4 ADD DIV SWAP1 POP SWAP2 SWAP1 POP JUMP JUMPDEST PUSH0 DUP3 DUP3 SHL SWAP1 POP SWAP3 SWAP2 POP POP JUMP JUMPDEST PUSH0 PUSH1 0x8 DUP4 MUL PUSH2 0xC6F PUSH32 0xFFFFFFFFFFFFFFFFFFFFFFFFFFFFFFFFFFFFFFFFFFFFFFFFFFFFFFFFFFFFFFFF DUP3 PUSH2 0xC34 JUMP JUMPDEST PUSH2 0xC79 DUP7 DUP4 PUSH2 0xC34 JUMP JUMPDEST SWAP6 POP DUP1 NOT DUP5 AND SWAP4 POP DUP1 DUP7 AND DUP5 OR SWAP3 POP POP POP SWAP4 SWAP3 POP POP POP JUMP JUMPDEST PUSH0 DUP2 SWAP1 POP SWAP2 SWAP1 POP JUMP JUMPDEST PUSH0 PUSH2 0xCB4 PUSH2 0xCAF PUSH2 0xCAA DUP5 PUSH2 0x787 JUMP JUMPDEST PUSH2 0xC91 JUMP JUMPDEST PUSH2 0x787 JUMP JUMPDEST SWAP1 POP SWAP2 SWAP1 POP JUMP JUMPDEST PUSH0 DUP2 SWAP1 POP SWAP2 SWAP1 POP JUMP JUMPDEST PUSH2 0xCCD DUP4 PUSH2 0xC9A JUMP JUMPDEST PUSH2 0xCE1 PUSH2 0xCD9 DUP3 PUSH2 0xCBB JUMP JUMPDEST DUP5 DUP5 SLOAD PUSH2 0xC40 JUMP JUMPDEST DUP3 SSTORE POP POP POP POP JUMP JUMPDEST PUSH0 SWAP1 JUMP JUMPDEST PUSH2 0xCF5 PUSH2 0xCE9 JUMP JUMPDEST PUSH2 0xD00 DUP2 DUP5 DUP5 PUSH2 0xCC4 JUMP JUMPDEST POP POP POP JUMP JUMPDEST JUMPDEST DUP2 DUP2 LT ISZERO PUSH2 0xD23 JUMPI PUSH2 0xD18 PUSH0 DUP3 PUSH2 0xCED JUMP JUMPDEST PUSH1 0x1 DUP2 ADD SWAP1 POP PUSH2 0xD06 JUMP JUMPDEST POP POP JUMP JUMPDEST PUSH1 0x1F DUP3 GT ISZERO PUSH2 0xD68 JUMPI PUSH2 0xD39 DUP2 PUSH2 0xC13 JUMP JUMPDEST PUSH2 0xD42 DUP5 PUSH2 0xC25 JUMP JUMPDEST DUP2 ADD PUSH1 0x20 DUP6 LT ISZERO PUSH2 0xD51 JUMPI DUP2 SWAP1 POP JUMPDEST PUSH2 0xD65 PUSH2 0xD5D DUP6 PUSH2 0xC25 JUMP JUMPDEST DUP4 ADD DUP3 PUSH2 0xD05 JUMP JUMPDEST POP POP JUMPDEST POP POP POP JUMP JUMPDEST PUSH0 DUP3 DUP3 SHR SWAP1 POP SWAP3 SWAP2 POP POP JUMP JUMPDEST PUSH0 PUSH2 0xD88 PUSH0 NOT DUP5 PUSH1 0x8 MUL PUSH2 0xD6D JUMP JUMPDEST NOT DUP1 DUP4 AND SWAP2 POP POP SWAP3 SWAP2 POP POP JUMP JUMPDEST PUSH0 PUSH2 0xDA0 DUP4 DUP4 PUSH2 0xD79 JUMP JUMPDEST SWAP2 POP DUP3 PUSH1 0x2 MUL DUP3 OR SWAP1 POP SWAP3 SWAP2 POP POP JUMP JUMPDEST DUP2 DUP2 SUB PUSH2 0xDBE JUMPI POP POP PUSH2 0xE93 JUMP JUMPDEST PUSH2 0xDC7 DUP3 PUSH2 0xBFE JUMP JUMPDEST PUSH8 0xFFFFFFFFFFFFFFFF DUP2 GT ISZERO PUSH2 0xDE0 JUMPI PUSH2 0xDDF PUSH2 0x70B JUMP JUMPDEST JUMPDEST PUSH2 0xDEA DUP3 SLOAD PUSH2 0xBCE JUMP JUMPDEST PUSH2 0xDF5 DUP3 DUP3 DUP6 PUSH2 0xD27 JUMP JUMPDEST PUSH0 PUSH1 0x1F DUP4 GT PUSH1 0x1 DUP2 EQ PUSH2 0xE22 JUMPI PUSH0 DUP5 ISZERO PUSH2 0xE10 JUMPI DUP3 DUP8 ADD SLOAD SWAP1 POP JUMPDEST PUSH2 0xE1A DUP6 DUP3 PUSH2 0xD95 JUMP JUMPDEST DUP7 SSTORE POP PUSH2 0xE8C JUMP JUMPDEST PUSH1 0x1F NOT DUP5 AND PUSH2 0xE30 DUP8 PUSH2 0xC13 JUMP JUMPDEST SWAP7 POP PUSH2 0xE3B DUP7 PUSH2 0xC13 JUMP JUMPDEST PUSH0 JUMPDEST DUP3 DUP2 LT ISZERO PUSH2 0xE62 JUMPI DUP5 DUP10 ADD SLOAD DUP3 SSTORE PUSH1 0x1 DUP3 ADD SWAP2 POP PUSH1 0x1 DUP6 ADD SWAP5 POP PUSH1 0x20 DUP2 ADD SWAP1 POP PUSH2 0xE3D JUMP JUMPDEST DUP7 DUP4 LT ISZERO PUSH2 0xE7F JUMPI DUP5 DUP10 ADD SLOAD PUSH2 0xE7B PUSH1 0x1F DUP10 AND DUP3 PUSH2 0xD79 JUMP JUMPDEST DUP4 SSTORE POP JUMPDEST PUSH1 0x1 PUSH1 0x2 DUP9 MUL ADD DUP9 SSTORE POP POP POP JUMPDEST POP POP POP POP POP POP JUMPDEST JUMP JUMPDEST PUSH32 0x4E487B7100000000000000000000000000000000000000000000000000000000 PUSH0 MSTORE PUSH1 0x31 PUSH1 0x4 MSTORE PUSH1 0x24 PUSH0 REVERT JUMPDEST PUSH32 0x496E76616C696420416D6F756E74000000000000000000000000000000000000 PUSH0 DUP3 ADD MSTORE POP JUMP JUMPDEST PUSH0 PUSH2 0xEF6 PUSH1 0xE DUP4 PUSH2 0xA9C JUMP JUMPDEST SWAP2 POP PUSH2 0xF01 DUP3 PUSH2 0xEC2 JUMP JUMPDEST PUSH1 0x20 DUP3 ADD SWAP1 POP SWAP2 SWAP1 POP JUMP JUMPDEST PUSH0 PUSH1 0x20 DUP3 ADD SWAP1 POP DUP2 DUP2 SUB PUSH0 DUP4 ADD MSTORE PUSH2 0xF23 DUP2 PUSH2 0xEEA JUMP JUMPDEST SWAP1 POP SWAP2 SWAP1 POP JUMP JUMPDEST PUSH32 0x43617220416C72656164792072656E7465640000000000000000000000000000 PUSH0 DUP3 ADD MSTORE POP JUMP JUMPDEST PUSH0 PUSH2 0xF5E PUSH1 0x12 DUP4 PUSH2 0xA9C JUMP JUMPDEST SWAP2 POP PUSH2 0xF69 DUP3 PUSH2 0xF2A JUMP JUMPDEST PUSH1 0x20 DUP3 ADD SWAP1 POP SWAP2 SWAP1 POP JUMP JUMPDEST PUSH0 PUSH1 0x20 DUP3 ADD SWAP1 POP DUP2 DUP2 SUB PUSH0 DUP4 ADD MSTORE PUSH2 0xF8B DUP2 PUSH2 0xF52 JUMP JUMPDEST SWAP1 POP SWAP2 SWAP1 POP JUMP JUMPDEST PUSH32 0x43617220697320616C7265616479206164646564000000000000000000000000 PUSH0 DUP3 ADD MSTORE POP JUMP JUMPDEST PUSH0 PUSH2 0xFC6 PUSH1 0x14 DUP4 PUSH2 0xA9C JUMP JUMPDEST SWAP2 POP PUSH2 0xFD1 DUP3 PUSH2 0xF92 JUMP JUMPDEST PUSH1 0x20 DUP3 ADD SWAP1 POP SWAP2 SWAP1 POP JUMP JUMPDEST PUSH0 PUSH1 0x20 DUP3 ADD SWAP1 POP DUP2 DUP2 SUB PUSH0 DUP4 ADD MSTORE PUSH2 0xFF3 DUP2 PUSH2 0xFBA JUMP JUMPDEST SWAP1 POP SWAP2 SWAP1 POP JUMP JUMPDEST PUSH0 DUP2 MLOAD SWAP1 POP SWAP2 SWAP1 POP JUMP JUMPDEST PUSH2 0x100D DUP3 PUSH2 0xFFA JUMP JUMPDEST PUSH8 0xFFFFFFFFFFFFFFFF DUP2 GT ISZERO PUSH2 0x1026 JUMPI PUSH2 0x1025 PUSH2 0x70B JUMP JUMPDEST JUMPDEST PUSH2 0x1030 DUP3 SLOAD PUSH2 0xBCE JUMP JUMPDEST PUSH2 0x103B DUP3 DUP3 DUP6 PUSH2 0xD27 JUMP JUMPDEST PUSH0 PUSH1 0x20 SWAP1 POP PUSH1 0x1F DUP4 GT PUSH1 0x1 DUP2 EQ PUSH2 0x106C JUMPI PUSH0 DUP5 ISZERO PUSH2 0x105A JUMPI DUP3 DUP8 ADD MLOAD SWAP1 POP JUMPDEST PUSH2 0x1064 DUP6 DUP3 PUSH2 0xD95 JUMP JUMPDEST DUP7 SSTORE POP PUSH2 0x10CB JUMP JUMPDEST PUSH1 0x1F NOT DUP5 AND PUSH2 0x107A DUP7 PUSH2 0xC13 JUMP JUMPDEST PUSH0 JUMPDEST DUP3 DUP2 LT ISZERO PUSH2 0x10A1 JUMPI DUP5 DUP10 ADD MLOAD DUP3 SSTORE PUSH1 0x1 DUP3 ADD SWAP2 POP PUSH1 0x20 DUP6 ADD SWAP5 POP PUSH1 0x20 DUP2 ADD SWAP1 POP PUSH2 0x107C JUMP JUMPDEST DUP7 DUP4 LT ISZERO PUSH2 0x10BE JUMPI DUP5 DUP10 ADD MLOAD PUSH2 0x10BA PUSH1 0x1F DUP10 AND DUP3 PUSH2 0xD79 JUMP JUMPDEST DUP4 SSTORE POP JUMPDEST PUSH1 0x1 PUSH1 0x2 DUP9 MUL ADD DUP9 SSTORE POP POP POP JUMPDEST POP POP POP POP POP POP JUMP INVALID LOG2 PUSH5 0x6970667358 0x22 SLT KECCAK256 PUSH32 0x84A40FCDF71FC556DB73AFF8BA2ED190B0AAAFEB22EF64B04300B5CCE5733E64 PUSH20 0x6F6C634300081900330000000000000000000000 "
		},
		"gasEstimates": {
			"creation": {
				"codeDepositCost": "872200",
				"executionCost": "45118",
				"totalCost": "917318"
			},
			"external": {
				"claimCar((uint256,bool))": "infinite",
				"rentCar((string,address),(uint256,bool))": "infinite"
			}
		},
		"methodIdentifiers": {
			"claimCar((uint256,bool))": "8c9e37ec",
			"rentCar((string,address),(uint256,bool))": "98875103"
		}
	},
	"abi": [
		{
			"inputs": [
				{
					"components": [
						{
							"internalType": "uint256",
							"name": "carNumber",
							"type": "uint256"
						},
						{
							"internalType": "bool",
							"name": "available",
							"type": "bool"
						}
					],
					"internalType": "struct RentCars.CarDetails",
					"name": "_carDetails",
					"type": "tuple"
				}
			],
			"name": "claimCar",
			"outputs": [
				{
					"components": [
						{
							"internalType": "uint256",
							"name": "carNumber",
							"type": "uint256"
						},
						{
							"internalType": "bool",
							"name": "available",
							"type": "bool"
						}
					],
					"internalType": "struct RentCars.CarDetails",
					"name": "",
					"type": "tuple"
				}
			],
			"stateMutability": "nonpayable",
			"type": "function"
		},
		{
			"inputs": [
				{
					"components": [
						{
							"internalType": "string",
							"name": "name",
							"type": "string"
						},
						{
							"internalType": "address",
							"name": "userAddress",
							"type": "address"
						}
					],
					"internalType": "struct RentCars.UserDetails",
					"name": "_userDetails",
					"type": "tuple"
				},
				{
					"components": [
						{
							"internalType": "uint256",
							"name": "carNumber",
							"type": "uint256"
						},
						{
							"internalType": "bool",
							"name": "available",
							"type": "bool"
						}
					],
					"internalType": "struct RentCars.CarDetails",
					"name": "_carDetails",
					"type": "tuple"
				}
			],
			"name": "rentCar",
			"outputs": [
				{
					"components": [
						{
							"internalType": "uint256",
							"name": "carNumber",
							"type": "uint256"
						},
						{
							"internalType": "bool",
							"name": "available",
							"type": "bool"
						}
					],
					"internalType": "struct RentCars.CarDetails",
					"name": "",
					"type": "tuple"
				}
			],
			"stateMutability": "payable",
			"type": "function"
		}
	]
}